:020000041004E6
:100000000000012045140410350804106F08041086
:10001000AA5555AA45554C420000000000000000BA
:100020000000000000000000000000007308041041
:100030000000000000000000E30B0410391404105D
:100040002B0D0410830F0410B3120410CF120410F0
:100050000714041013140410511404105314041042
:100060005514041057140410591404105B14041090
:100070005D1404105F140410611404106314041060
:100080006514041067140410691404106B14041030
:100090006D1404106F140410711404107314041000
:1000A0007514041077140410000000000000000014
:1000B0000000000000000000000000000000000040
:1000C00010B5C20018231340FF249C40E243890767
:1000D000090E9940030004D4C8489B089B00C0182F
:1000E00006E0C74B0007000F08388008800018188A
:1000F00003681A401143016010BD000081B0C1487F
:10010000016802220A430260002102E000BF009958
:10011000491C009100990629F8DB016804220A4372
:10012000026001B0704780B5B7480068002814D15C
:10013000B6480168002902D1806A00280DD001204C
:10014000B349886000F077FBBFF34F8FB148B249E5
:100150000860BFF34F8F00BFFDE7012002BD80B5EF
:1001600003210020FFF7ACFF03210120FFF7A8FFC8
:1001700003210220FFF7A4FF03210320FFF7A0FFC4
:1001800003210420FFF79CFF03210520FFF798FFC0
:1001900003210620FFF794FF03210720FFF790FFBC
:1001A00003210820FFF78CFF03210920FFF788FFB8
:1001B00003210A20FFF784FF03210B20FFF780FFB4
:1001C00003210C20FFF77CFF03210D20FFF778FFB0
:1001D00003210E20FFF774FF03210F20FFF770FFAC
:1001E00003211020FFF76CFF03211120FFF768FFA8
:1001F00000211220FFF764FF03211320FFF760FFA7
:1002000003211420FFF75CFF03211520FFF758FF9F
:1002100003211620FFF754FF01211720FFF750FF9D
:1002200000211820FFF74CFF03211920FFF748FF9A
:1002300001BD30B50D00C54C002A0AD0FA21890055
:1002400000F0FAFA401E684360600020A0600520BC
:1002500002E0206801218843206030BDFFB5012104
:100260002022002818D067480368E024A3431343E2
:100270000360836D0624A34302241C438465836BBF
:100280000B438363836B8B438363836D0B43836572
:10029000806D0840009000980723AD480469AD4D7B
:1002A000AC4218D1046800940468076805682D0DF5
:1002B0001D4003950068000E1840029001250F268E
:1002C000380C3040270AF0243C400194009C240A5A
:1002D0002640009604E00820009070240194002538
:1002E000BF4C0F26F643276B374038432063E06A44
:1002F000F027B843019F0743E762E06A0640009891
:100300003043E0623820002D0CD025689D43039EC9
:1003100033402B43236023688343029DED00054057
:100320001D4325603F23DB43A56F1D400A262E4356
:10033000A667A56F40262E43A667E56F1D400426DD
:100340002E43E667E56F80262E43E667E56F40267D
:10035000B543E567A03425681D40256065681D40EC
:1003600010262E436660A5681D402A43A260E268FD
:100370001A4030251543E56022691A401043206178
:1003800060691840392202436261A06918403A222C
:100390000243A261E06918403B220243E261206A05
:1003A00018403C2202432262606A03403D20184309
:1003B00060625523FF20C0438A4A146804401C43EE
:1003C0001460D468044066252543D560146A04404F
:1003D00023431362136C03401D241C431464D36B2A
:1003E000034059241C43D463536C18403223034305
:1003F0005364506A01435162FFBD000000E400E015
:100400001CED00E0080040489400404810005048AF
:10041000040000200400FA050CED00E0F1B5724E76
:10042000012264213000FFF704FF704D286880210D
:100430004902014329600027444C2868800303D403
:100440002068C003F9D50427002200210020FFF70F
:10045000F0FE380039D16846017808000CD18020C0
:10046000C00501680068F0220A400007000F104331
:10047000102867D10620F2BDE020C043491E06299E
:100480004FD801A2525C9744064452606E7C8A00A9
:10049000A9680840A8607000554E30600122C8214C
:1004A000FFF7C7FE28688021890101432960286879
:1004B000400403D42068C003F9D505270022002199
:1004C0000020FFF7B6FE38002CD03800F2BDA96836
:1004D000084020210143A9603000DDE7A9680840F9
:1004E00040210143A9607008D6E7A968084060214F
:1004F0000143A960B008CFE7A96808408021014303
:10050000A960F008C8E7A9680840A0210143A960D4
:100510003009C1E7A9680840C0210143A9607009FA
:10052000BAE7FEE73020C04332493268AD4B9A4209
:100530000A6804D11040102202430A6004E010400F
:10054000086001E0FFF7DAFD0020F2BD10E000E0F6
:10055000E81E0010CCECBCFC10B5FF2833D00429F9
:100560000CD005290AD0062908D0072906D0062272
:10057000D2439D4B032903D1002809D1012010BD8E
:10058000012805D01C682240022414431C6005E0A9
:100590001868024004201043186001208022D20510
:1005A00013681268F0241C401207120F2243102A0D
:1005B00009D18E4A012908D101280CD12A201060C6
:1005C00050680007FCD4002010BD022905D1012885
:1005D00003D12920F3E70028FBD02820EFE7000013
:1005E00048160060481500600048E80100004048D7
:1005F0003C00002004100040F3B583B07C487D49E6
:1006000008607D4908617D4E3068202101433160DA
:1006100030684021014331603068802101433160FE
:10062000002500240122C8217548FFF702FE754904
:1006300030690191400704D40868C003F8D501244B
:100640000125002200210020FFF7F3FD6E4F002C52
:100650002ED028002BD10024012296214900684881
:10066000FFF7E7FD6948716A01407162B16A0840AD
:10067000B062B86866490140802000020843B86053
:10068000F86860210143F96038681021014339603E
:100690003868800604D401980068C003F8D50224A5
:1006A000002200210020FFF7C4FD20006DD096E05D
:1006B000B0693021884320210143B161B8688021AD
:1006C00049010143B960534A50695349884219D1DD
:1006D00010681168136814682404240F02941468C5
:1006E0000122DD091E232B4000932402FC239B05DD
:1006F0002340CC01E021890121408401F0208000C9
:10070000204007E0D00C10210091F0235B0500226F
:10071000C0214901FC68414D25402B43FB60FB682B
:10072000802424041C43FC601E23DB43002A09D0E0
:10073000FA681A40029C64001443FC60FA680124C1
:100740001443FC60364A14682340009C1C43146028
:10075000136801241C4314601368324C1C4020436E
:100760001060106820230343136010682E4B034071
:100770001943116010688021C90001431160B069FC
:10078000802149000143B16165E76846047CFF2C84
:1007900002D00120FFF762FD6846057B234801680F
:1007A000234A0A40802189011143016001688022A7
:1007B0000A43026001687022914330220A430260BA
:1007C0002800FFF72BFE010009D129002000FFF7C8
:1007D000C3FE010003D1FFF7C2FC62B6002005B0E2
:1007E000F0BD00000090D003600040480050004081
:1007F0000000041008ED00E0040000200400504850
:100800000024F40010E000E000004048FFCFFFFFAC
:10081000FF7FFEFFE41E0010CCECBCFCFFFFFFC01E
:10082000940050483FFCFFFFFFC7FFFF980040487F
:10083000FFC0FFFF70477047094214D088420FD3B2
:100840000122030C01D100041204002300185B41B3
:100850008B4200D35B1A5241F8D319001000704745
:1008600001000020704708B500F002F808BD70478D
:100870007047704710B5040001D1012010BDA07F62
:10088000002803D16077200000F0B3F90220A077A0
:10089000211D206800F078F80120A077002010BD0D
:1008A00010B504001AE00400080006D0042908D09E
:1008B00008290AD00C290CD010E02068C268022355
:1008C0000AE02068C268042306E02068C2680823A2
:1008D00002E02068C26810231343C360012220682D
:1008E00000F072F920680D49884204D144310A6849
:1008F000CB0B13430B60826807491140062907D0D0
:1009000080225202914203D0016801220A43026010
:10091000002010BD00000000070001000020004082
:1009200038B50400607F012801D1022032BD0125C5
:1009300065770220A077002A0AD0042A0CD0082A62
:100940000ED00C2A10D0102A12D0142A14D016E07F
:10095000206800F037F812E0206800F05AF80EE046
:10096000206800F080F80AE0206800F0A4F806E0B3
:10097000206800F0C0F802E0206800F0DAF8FFE735
:10098000A5770020607732BD30B50368794A904280
:1009900007D17024A3434C681C43784D2540CB6895
:1009A0002B438024A3434C691C4304608B68C362BF
:1009B0000B688362904202D10969303211600121D3
:1009C000416130BD70B5026A01239A430262036A35
:1009D00042688469684D25400C682C430225AB436E
:1009E0008D681D43634B98420CD108239D432B0017
:1009F000CD681D4304239D43624B13404E691E4343
:100A00008A6932434260846149684163056270BD0E
:100A1000000070B5026A10239A430262026A4368BA
:100A20008469574D25400C6824022C432025AA4395
:100A30008D682D0115434F4A90420ED18022954377
:100A40002E00CA6815013543402295434E4A1A408C
:100A50004B698E691E43B300134343608461496848
:100A60008163056270BD70B5026A484B1340036232
:100A7000046A4268C369404D1D400B682B43444DD6
:100A800025408C6824022C433A4DA8420DD1414D9B
:100A90002540CC6826022E433F4C34403F4D154044
:100AA0004A698E69164332012A434260C36149682C
:100AB000C163046270BD30B5026A394B13400362F2
:100AC000036A4268C4692E4D25400C6824022C43F9
:100AD000344D1D408B681B032B43264DA84204D187
:100AE000314D15404A6992012A434260C461496808
:100AF0000164036230BD70B52C4A036A134003627F
:100B0000046A4368456D2A4E2E400D683543294ED0
:100B100026408C6824043443164EB04203D11A4058
:100B20004B691B0213434360456549688165046254
:100B300070BD30B5026A204B13400362036A4268FD
:100B4000446D1E4D25400C6824022C431C4D1D4055
:100B50008B681B052B43074DA84204D1194D154046
:100B60004A6992022A43426044654968C16503624A
:100B700030BD0000002000408CFFFEFFFFFCFFFFA7
:100B8000FF8CFFFEFFFCFFFFFFF3FFFFFFFEFFFFF9
:100B9000FFFDFFFFFFF7FFFFFFFBFFFFFFCFFFFFA3
:100BA000FFEFFFFFFFDFFFFFFFBFFFFFFFFFFEFFC6
:100BB0008FFFFEFFFFFFFDFFFFFFEFFFFF8FFFFE39
:100BC000FFFFDFFFFFFFFBFF10B5C906C90E036A79
:100BD00001248C40A3430362036A8A401A430262E1
:100BE00010BD704780B500210020C04300F06FF8B1
:100BF00001BD81B000682449884208D10120234901
:100C00000A6802430A60096808400090009801B031
:100C10007047F0B585B0040014220021684600F04A
:100C20007AF82068184988422CD1102000900224BC
:100C3000019401270297032503950426049669462B
:100C40009020C00500F072F82020009001940297D7
:100C50000395049669469020C00500F067F8009659
:100C600001940297039504956946094800F05EF8DF
:100C70000094019402970395049669469020C0055C
:100C800000F054F805B0F0BD00200040540040488A
:100C90000000104810B5C20018231340FF249C40E8
:100CA000E2438907090E9940030004D416489B08C3
:100CB0009B00C01806E0154B0007000F083880089D
:100CC0008000181803681A401143016010BD80B5F8
:100CD000FFF7E0FF01BD000010B5401E8021490470
:100CE000884201D3012010BD094C6060032100201F
:100CF000C043FFF7CFFF0020A0600721216010BD97
:100D000080B500F007F801BD00E400E01CED00E054
:100D100010E000E0704710B5040008001100020068
:100D2000200000F007F9200010BD7047F0B586B034
:100D300002007E48009200220EE0130423610AE0C4
:100D40002B00039D1D43A560009B9025ED05AB4244
:100D5000E368F2D12261521C0B68D34000D1E3E07A
:100D6000DB07F8D54B68022B01D0122B0ED1009B6C
:100D7000D408A4001B191C6A96001C2535400F26B8
:100D8000AE40B4430E69AE4026431E62009B1D6810
:100D9000530003269E40F44325400E79B607B60F54
:100DA0009E402E43009D2E604D68012D05D0022DE2
:100DB00003D0112D01D0122D14D1009DAD682C400F
:100DC000CD689D402543009B9D60009B5C6801238E
:100DD00001259540AC434D682D092B40934023439A
:100DE000009C63608B68009C9025ED05AC421DD192
:100DF000002B03D0022B11D008D334E00C68E3435E
:100E000004681C400460446823400DE00B6844689B
:100E10009C43446004682343036024E00B68046837
:100E20009C4304604468234343601CE0002B03D0D0
:100E3000022B11D008D316E00C68E34384681C40F1
:100E40008460C46823400DE00B68C4689C43C460A0
:100E500084682343836006E00B6884689C43846055
:100E6000C4682343C3604D68EB0000D473E70023DC
:100E70002F4C246801269640049636040396F643C8
:100E800002962D098026760135409540012797402E
:100E9000FE430196009E9027FF05BE4202D1019EAF
:100EA000264002E0029E26402D043543204C25605A
:100EB0004D680595ED031DD46568009EBE4201D1C5
:100EC000019E00E0029E2E40059FC025AD033D40DF
:100ED000C027BF03BD420CD10123A660009D90270F
:100EE000FF05BD4202D13500049E01E03500039E9E
:100EF0002E436660A568002B00D024E79023DB0515
:100F0000009E9E4202D12E00019D01E02E00029D16
:100F100035404E68F60200D415E7009E9E4200D090
:100F20000EE72B00049D0DE706B0F0BD20005048F1
:100F30000C0000401206130A1A43130C1A4300BF98
:100F4000094205D0830705D00270401C491EF9D123
:100F5000704700001300103906D330B41400150098
:100F600010393CC0FCD230BC490700D30CC000D5BE
:100F700004C0890002D30280801C002900D50270C1
:100F80007047704781B067490A6802430A60096880
:100F900008400090009801B0704710B50B004B431B
:100FA00001685C00E418A14353430B43036010BD88
:100FB00043688B43514319434160704710B50B00A0
:100FC0004B4381685C00E418A14353430B438360A7
:100FD00010BD30B5CB43544C9025ED05A8421AD135
:100FE000002A03D0022A0FD007D330BD2068184052
:100FF000206060680340636030BD606803406360E8
:1010000020680143216030BD206803402360606890
:101010000143616030BD002A03D0022A0FD007D3FC
:1010200030BDA0681840A060E0680340E36030BDB8
:10103000E0680340E360A0680143A16030BDA068A0
:101040000340A360E0680143E16030BD38B50100B2
:1010500018D10420FFF796FF9024E4054020A061FA
:10106000012240212000FFF798FF022240212000AA
:10107000FFF7A4FF002240212000FFF799FF012283
:10108000402121E0294C012805D10820FFF77AFFF3
:1010900080256D0006E0022819D10820FFF772FFB5
:1010A0008025AD00A561012229002000FFF775FF12
:1010B000022229002000FFF781FF002229002000E2
:1010C000FFF776FF012229002000FFF782FF31BDE4
:1010D000010002D14020164909E01649012802D139
:1010E0008020400003E0022802D1802080000860B8
:1010F0007047010005D11048016840224A40026053
:1011000070470E49012803D108688022520004E08C
:10111000022804D108688022920042400A60704789
:1011200000000000500040482000504800001048D7
:1011300028000048280010481400004814001048F7
:1011400081B04C490A6802430A600968084000906F
:10115000009801B0704730B587B0FF210220FFF73B
:101160004BFA002800D0FEE700F0A4F80420FFF7B7
:10117000E7FF0820FFF7E4FF1C2200216846FFF785
:10118000CAFD3D4C3D4820603D480168890704D5B3
:101190000068400701D53B4800E03B4860600025FF
:1011A000A5603A48E0602561A5612000FFF762FB79
:1011B000002801D000F074F810200090344801900D
:1011C00002950495002269462000FFF7A9FB00283C
:1011D00001D000F065F82F480190042269462000F4
:1011E000FFF79EFB002801D000F05AF82A48019032
:1011F000082269462000FFF793FB002801D000F089
:101200004FF8264801900C2269462000FFF788FB22
:10121000002801D000F044F82000FFF7FAFC01207C
:10122000FFF714FF0220FFF711FF00212000FFF756
:1012300037FB002801D000F033F804212000FFF72D
:101240002FFB002801D000F02BF808212000FFF729
:1012500027FB002801D000F023F80C212000FFF725
:101260001FFB002801D000F01BF80120FFF730FF22
:10127000FEE70000500040484000002000200040F1
:10128000080040487F0C0000FF180000FFFF00002E
:101290001027000088130000C4090000E2040000C9
:1012A00080B50220FFF725FFFA20800000F010F83B
:1012B000F7E7704710B50024032000F01DF8002860
:1012C00001D0012401E0FFF78DFC200010BD704724
:1012D00038B5050000F036F804000020C043854210
:1012E00002D0044880682D1800F02CF8001BA8429A
:1012F000FAD331BD30000020F8B506000024104DAF
:10130000A868002818D000F023F80700FA20800011
:10131000A968FFF791FA01003800FFF78DFAFFF78F
:10132000DBFC002808D1042E06D231000020C04387
:10133000FFF7CDFC6E6000E001242000F2BD00BF8D
:101340003000002001480068704700BF30000020D6
:1013500001480068704700003C00002030B501687B
:101360004118446862088A188368E40704D54C462B
:101370001B1901E0641C06D191420BD00C7864B2B9
:10138000491C0D78491C1D705B1C002CF2D4641E96
:10139000F7D5F1E70C3030BD10B507497944183165
:1013A000064C7C44163404E0081D0A6889188847F6
:1013B0000100A142F8D110BD080000002400000087
:1013C0009DFFFFFFC400000018000000C0000020C7
:1013D0008DFFFFFFA400000020000000300000206F
:1013E000FEF7A1FE002801D0FFF7D6FF00BF00BF27
:1013F000002000BF00BFFFF7AEFE00F000F880B590
:1014000000F002F801BD70470746384600F002F8C8
:10141000FBE7704780B500BF00BF024A11001820EB
:10142000ABBEFBE72600020002480168826889180B
:10143000016070473000002080B5FFF7F5FFFFF72F
:101440005FFC01BD00BF00BF00BF00BFFFF7C8FFCA
:1014500070477047704770477047704770477047D4
:1014600070477047704770477047704770477047C4
:101470007047704770477047FC000004FD00000192
:10148000FC000290D003E000810081008100810017
:041490008100DF00F8
:04000005100414458A
:00000001FF
