:020000041004E6
:1000000000000120754D0510093405101534051048
:10001000AA5555AA45554C420000000000000000BA
:100020000000000000000000000000002134051066
:10003000000000000000000023810410233405109C
:100040007F8804100B8A0410278C0410339404104A
:100050005B9704101B9804107B9904101F9C0410DC
:100060002B340510EB9D0410539F041027A404109B
:10007000FBA8041057EC041077AB041035340510BE
:100080004FB20410333405105B340510DFBD04108B
:100090004734051077BE0410FBC804103F34051028
:1000A000373405106BCD0410000000000000000084
:1000B0000000000000000000000000000000000040
:1000C000FEB51C00089FAA4D6B465870684601702B
:1000D00016001CE00422A9192C3101A801F01CF91A
:1000E000002F0FD101A8C07869464978884209D10C
:1000F0006846007806280FD06846007801A98978FC
:10010000884209D0684680883618B6B20027688DC4
:100110008642DFD10020FEBD002C00D026800120C9
:10012000FEBDF8B584B004000F001600904D607B52
:10013000002802D12A8D002300E0E289009301AB60
:1001400001212078FFF7BCFF002801D1042019E02D
:100150000120607368468088E081684680882C189A
:10016000062221002C3102A801F0D6F820003230FE
:10017000386068460089801F308002A800790A999B
:100180000870002005B0F0BD7CB5794D298D6A4618
:1001900091800021060019E0684680882C1804220E
:1001A00021002C31684601F0B7F800F080FC694668
:1001B0000988421A61182C3120002C3001F0F8F81F
:1001C000688D69460988401A68850121009101AB54
:1001D0006846828806213000FFF772FF0028DBD1D5
:1001E00073BDBD4A514380081B2242438818253005
:1001F000704770B506000D00EFF310840DE0012389
:1002000032780021B54801F0FDF884F31088307889
:10021000401C30702878401E2870287800280BD0A9
:1002200001210020FFF7DDFF72B601F011F900286F
:10023000E5D184F31088072070BD01680022028197
:10024000428182730B78FF2B05D0FE2B09D10389E5
:100250005B1C03810AE04268511A091F818100205A
:100260007047002B0DD143895B1C43814A88D21C07
:10027000032313435B1CC9184A1D43689A42E1D308
:10028000EDE703207047FCB585B00D9F427B002A47
:100290001BD10C9A130005D002AB5A80FE221A70B3
:1002A00002AD00E04568426883689A4215D26A460A
:1002B00091712978FF292E4E01D10EE020000021F6
:1002C000027B002A12D001731EE000970123069AD8
:1002D0000599FFF726FF002847D0042045E00320BA
:1002E00043E06A786B469B799A4216D042686B88E5
:1002F000DB1C03241C43641C15194560826895426D
:10030000E3D22A78FF2AE0D02A78002AEED0FE2A0B
:10031000E5D16A469279FF2AE3D1328D6B469A8005
:1003200004000CE008226846808831182C3103A8AC
:1003300000F0F2FF049861688842BFD0012100916B
:1003400001AB6846828802212078FFF7B9FE0028B9
:10035000E8D16068001D05990860688806990880E2
:10036000002F01D068783870002007B0F0BD000081
:10037000E00600207FB515001C00099E0022328097
:100380000B9A01926A46128D009202AB03AAFFF704
:100390007AFF010013D1694609898D4201D30620F5
:1003A0000DE0089A481B904200DA020020000399F1
:1003B000491900F0B1FF684600893080002004B080
:1003C00070BDFEB5A24D0D40491B6B46197000244F
:1003D000070016000AE00422311901A800F09CFF72
:1003E000019A39193D4800F0FBFF241DAC42F2DBB5
:1003F0000020C043019068460278711901A800F0FE
:100400008BFF019A7919354800F0EAFFF7BDF6B580
:1004100085B00E001C0025000027FF43417B00290A
:1004200018D000210091002301AA921C02A9FFF715
:1004300078FE00283AD16846C088801B80B2A0426E
:1004400046D32A0002988119069801F09DF80028E9
:100450003FD03DE0416802918268914202D2097822
:10046000FF2901D1042034E0027B002A1ED1FE299D
:100470001CD17849098D6A469180040001200090C2
:1004800001AB6846828802212078FFF719FE002818
:100490000ED008226F486946898841182C3103A87C
:1004A00000F03AFF049861688842E7D1052010E027
:1004B000029949888E4201D306200AE020732A005F
:1004C0006068001D8119069801F05EF8002800D0D0
:1004D000380007B0F0BD00003423000000100040D9
:1004E000FFB585B000270E9A178069460C8C417BBA
:1004F000002919D0009700230E9A01A9FFF711FED9
:10050000002846D10E9800886946098B421A684631
:10051000008C824200DB220001986946098B411859
:10052000079800F0F9FE50E00F990A0005D002AAE2
:100530005180FE21117002AD00E04568416882687B
:10054000914202D22978FF2901D104203EE0027BAA
:10055000002A1ED1FE291CD13E49098D6A46918090
:1005600006000120009001AB6846828802213078A5
:10057000FFF7A6FD00280ED0082236486946898874
:1005800041182C3103A800F0C7FE04987168884216
:10059000E7D105201AE06846008B6988884201D3BC
:1005A000062013E037736846008B69880A1A69468B
:1005B000098C8A4200DB22007168091D091807981E
:1005C00000F0AAFE68880E990880002009B0F0BDEE
:1005D00038B5050000210420FFF703FEEFF3108477
:1005E00072B600F035FF002803D184F3108807208D
:1005F00032BD2900FF22D243A84800F0F1FE84F367
:100600001088002032BDF8B507000E00150000F07C
:10061000BBFF00281BD0681EA1490143491C4B03A6
:100620001B0EA0483818C20A00219C4800F0EAFEC0
:1006300000240AE06010800F0019801080003258FA
:100640003919964800F0CCFE241DAC42F2D3F1BD1E
:10065000FCFF0000E0060020012101700021418024
:1006600081807047F8B58AB005000E0017001C00A5
:1006700000200090FF223900300000F0A3FFFE2090
:1006800069460876099508960794109D009C06AE69
:100690001AE06846008A6988401A401E0324044311
:1006A000641CA4B268886946098A091A4A1E032193
:1006B0001143491C89B2059A8A4244DB01209142C8
:1006C000287049D000206880381B001F80B2059038
:1006D0002878002828D0701C0390A888029004A8CD
:1006E0000190059880B200900898001D031900221F
:1006F000FF210998FFF73EFE6946098AA98001009B
:100700000ED16846008A7080042206A90898001954
:1007100000F002FE7088C01C032101436418BFE78B
:1007200007990C800BB0F0BDA888019004A8009038
:10073000059883B20898021969880998FFF7D0FED6
:100740000100A6D0EEE700212970059940186880C5
:10075000079807800020E5E70020F8E7F1B58C480E
:1007600085440027CB488421090169440978142273
:100770005143411801914989002901D100208AE0A3
:1007800000970023028D0621842000016844007830
:10079000FFF796FC002801D009207CE0202000F023
:1007A0008CF9002801D1082075E006A984200001F9
:1007B0006844007800F01AFB079C04A8FFF74CFF80
:1007C000EFF3108604A803C80AAA03C20CA806A95E
:1007D000102200F087FD04A8009003AB80221201D4
:1007E00010A906A8FFF73EFF0500042D08D0002D34
:1007F00051D168468089802109018842E2D103E015
:1008000068468089002816D0012168468089FFF754
:10081000E8FC72B600F01CFE002829D068468289E8
:1008200010A92000FFF7EFFE86F310880127F802D9
:100830002418002DC6D00898401E19490143491CB0
:10084000081BC00A6946487016482018C00A08707C
:10085000491C6846FFF7CDFC072819D16846427845
:100860000178842000016844007800F0B1F912E0BA
:1008700086F31088002F01D107200CE00AA803C8D6
:100880000190029100940CA80FC800F072F902E0E8
:100890000198FFF7D2FCCC498D44F0BD0010004018
:1008A000FF0700000000FCEFF8B5C84CA544802706
:1008B0003F010500EFF3108602A829001831062237
:1008C00000F02AFD04A8291D102200F00BFD2800CD
:1008D0001830009001AB3A0008A9281DFFF7C2FEAE
:1008E000040068468088B84205D0002CE4D06846F1
:1008F0008088002816D0002168468088FFF771FCA8
:1009000072B600F0A5FD002829D06846828808A9A3
:100910006869FFF778FE86F310886869C019686116
:10092000002CC9D0E868401E791E0143491C686943
:10093000081AC00A694648706869B4494018C00A74
:1009400069460870491C6846FFF753FC072815D113
:10095000684642780178287900F03AF915E086F384
:100960001088281D04A9102200F0BCFC28001830B3
:1009700002A9062200F0D0FC072006E045482979AC
:10098000142251434018FFF758FCC6498D44F0BD6E
:10099000C0F7FFFFF8B58D4CA54400216A46917160
:1009A000002400253B4F060000E06D1C3079854295
:1009B00016DAB0680C216943405C010014225143EF
:1009C00079184989002900D00124002100910023D1
:1009D0003A8D0621FFF774FB0028E6D0092055E088
:1009E0003500002C24D080273F013A00FF2108A8C1
:1009F00000F011FE00240DE002A8FFF72DFE02A872
:100A0000009001ABBA1B92B208A8811904A8FFF7A5
:100A100029FE641C287984420CDAA8680C226243FF
:100A2000011D8E5804A9805C00F0E0F90028E3D095
:100A300000202BE001213800FFF7D3FBEFF31086F5
:100A400072B600F005FD002803D186F31088072058
:100A50001CE03A0008A92868FFF7D5FD86F3108846
:100A600000260C4F684684790CE0A8680C2171437D
:100A7000405C142148433818FFF7DFFB010000D029
:100A80000400761C28798642EFDB200085498D44DE
:100A9000F0BD0000E0060020C1498A79824201D100
:100AA00002207047897C8142FAD000207047CE48EE
:100AB000418D008D081A80B2704770B50400FFF7B1
:100AC000F6FF050080204000411BA14201DA002012
:100AD00070BDC54E718D401AA0420BDA2A0030005D
:100AE0002C30318D411830002C3000F061FC00209A
:100AF00030857585012070BD70B50C00BA4D6E8DC6
:100B000080214900891B2200914201DA002070BD3A
:100B10000100A8192C3000F0FFFB30196885012076
:100B200070BDFEB504000D00099F581E032101434E
:100B3000491C684601800088C619B61DB0B2FFF78F
:100B4000BCFF002801D10820FEBD01A80121817051
:100B50000680C47005710621FFF7CEFF6846018844
:100B60000898FFF7C9FF39000A98FFF7C5FF002072
:100B7000FEBD1FB588B02020FFF79FFF002801D1E0
:100B800008201EE00E9C6846202101800321817010
:100B9000001D08A9102200F0A5FB05946846183036
:100BA0000FA9062200F0B8FB20216846FFF7A4FF3A
:100BB00001208D4908AA127814235A438918887392
:100BC00000200CB010BD000044080000E0F7FFFF5B
:100BD0007CB504000D0016000620FFF76EFF00280C
:100BE00001D1082076BD684606210180042181706C
:100BF000C470057146710621FFF77EFF01207A4916
:100C00001422544309198873002076BD0000FCEFBC
:100C1000F8B5944CA54407000D0080221201FF2175
:100C200008A800F0F8FC00241BE00C266643A86826
:100C3000805DB84214D004A900F0D8F8A8688019E3
:100C4000466802A8FFF708FD02A8009001AB8020CB
:100C50000001821B92B208A8811904A8FFF702FDC7
:100C6000641C28798442E0DB2E0080252D010121BF
:100C70002800FFF7B6FAEFF3108472B600F0E8FB35
:100C8000002803D184F31088072007E02A0008A970
:100C90003068FFF7B8FC84F31088002001498D44C8
:100CA000F0BD000024080000FBB582B003236E49AC
:100CB0005218032515436D1C0CE03778FF2F17D011
:100CC000FE2F01D0002F2BD17288D21C1A43521C48
:100CD000B218426082684668741D9442EDD342495E
:100CE0000078142250430818408900281AD015E0D3
:100CF0000190901B884200D308003B4C80B2A9B2FF
:100D00006A46128D8918091D88420DDA019800780B
:100D10001421484320184089002803D00B203DE0CF
:100D200003203BE0022039E06846007BFE216A4652
:100D30001170694648706846008D28184880002167
:100D4000001D80B2FFF74DFAEFF3108772B600F086
:100D50007FFB002803D187F3108807201EE0009A4C
:100D600031007C4800F03CFB049AA9B2301DFFF72B
:100D700028FB0B9A6846018DADB27019001DFFF774
:100D800020FB87F31088200008300199097814228D
:100D9000514340180188491C0180002005B0F0BD76
:100DA0006C4B051010B500249B480C216143411881
:100DB0008A79694814235343C0180368002B11D162
:100DC000012A0FDC0A6802608B88D2184260098908
:100DD0000182FFF732FA010005D1641C012CE3DD2A
:100DE000002010BD012010BDE006002010B502005B
:100DF000022A01DB012010BD574B142462439A18CC
:100E000013684B6052688A6001220A7308700020E0
:100E1000487310BD7FB5504C05781426754364198E
:100E2000A47B002C01D00A2008E003940294099CC2
:100E300001946C46248C0094FFF79CFA04B070BDBA
:100E40007CB5454C0578142675436419A47B002CA9
:100E500001D00A2076BD0194069C0094FFF740FB68
:100E600076BD0000E0F7FFFFFFFF0000F0B585B0A2
:100E7000060030786C462071374D6846007914249E
:100E800060432818847B002C01D0092041E0521EC9
:100E900003241443641C8789BC46A7B26A46128D9A
:100EA000BA18944506DA4089002801D00B2030E0BA
:100EB00002202EE06846017304930B9F00200090EF
:100EC00000232A8D062168460079FFF7F9F80028EB
:100ED00021D002976846008D019004980090A3B23B
:100EE00072686846017B3078FFF71BFE010010D165
:100EF00028000C30317814225143401801886A468A
:100F0000128DA218521E03231343C91A491F0180D0
:100F1000002005B0F0BD01976846008D0090049B4D
:100F2000A2B26846017B3000FFF7BEFE0100DFD0B1
:100F30000728EED102976846008D01900498009032
:100F4000A3B272686846017B3078FFF7EAFD0100C2
:100F5000CED0DEE700100040E0060020FEB5050020
:100F6000694E30000E30297814225143405C00282D
:100F700001D00920FEBD0024687B002810D0E8893C
:100F80003518062229002C31684600F0C5F968465C
:100F900084700622694628002C3000F0BDF938E044
:100FA0006868A96888421DD20178FF291AD0FE29F5
:100FB00016D1FFF70DFB010001D015D129E030005B
:100FC000083029781422514340180188491E0180B5
:100FD00028781421484330184189491C418118E080
:100FE0000520FEBD0420FEBD072813D16F682D78B3
:100FF00008260820FFF761FD002801D10820FEBD6A
:101000006846068002218170C57001970821FFF7AC
:1010100073FD0020FEBD00006C4B0510F0B585B0DF
:101020000400394F1421484338180290807B00286F
:1010300001D0092066E001A92000FFF72DFD02285C
:1010400025D102980068A3494118C90A6A4651701F
:1010500002994968491EA04A0A43521C101AC00A44
:10106000694608702000FFF78FF8694600A8401C09
:10107000FFF7BFF8072806D16846027841782000BC
:10108000FFF7A6FD3EE00298FFF7D7F835E001280C
:1010900037D101992000FFF7BBFD060013D10024D2
:1010A0000198007984422ADA019880680C21614312
:1010B000455C2800FFF768F8142045437819FFF7CE
:1010C000BCF8641CECE7072E19D1019F0826082004
:1010D000FFF7F3FC002801D1082013E02000FFF700
:1010E00053F803A8068005218170C4700497082175
:1010F000FFF702FD012002998873002002E0300012
:1011000000E0012005B0F0BDE00600201CB50400A1
:101110006946FFF7C1FC022803D12000FFF71EFB40
:1011200016BD012803D10098FFF734FC16BD01203D
:1011300016BDF0B58BB00027684C208D618D8842BC
:1011400038D02518042229002C3102A800F0E4F838
:1011500002A88078012808D006D3032869D051D38B
:10116000052800D190E071D3B2E0062229002C318D
:1011700003A800F0D1F805A903A8C078FFF736FE50
:1011800001970097208D2318323368468089821F8B
:1011900092B203A8017905A8FFF786FD050053D197
:1011A000208D6946098940182085618D80B288426A
:1011B000C3D1A7624A4800214156C8B21422424313
:1011C000A2185389002B03D09389128A934213D318
:1011D000401CC0B2022800D100208842EED100217C
:1011E0000020C0433E4A1170010602D4C0B2FFF78E
:1011F0008DFF00200BB0F0BD411C4AB2022AF1D194
:101200000021EFE7082229002C31684600F084F81D
:101210000198FFF7DDF9050016D16846C078142162
:10122000484320180189491E01814189491C418197
:10123000B6E7202229002C3103A800F06DF803A89E
:10124000FFF732FB0500ABD02800D3E706222900C8
:101250002C31684600F060F86846411D001DFEF71D
:10126000C8FF05000622694620002C30238DC018D7
:1012700000F052F8002DE7D16846C07814214843A9
:101280002018FEF7DAFF8BE7082229002C31684688
:1012900000F042F801996846C078FFF7B9FC0500F4
:1012A000D2D10025019801798D42ECDA80680C21B9
:1012B0006943465C30006946C978884201D0FEF730
:1012C00063FF14204643A019FEF7B7FF6D1CE9E742
:1012D0000C208FE70000FCEFFF070000E006002075
:1012E0008609002070B4103A03D378C9103A78C048
:1012F000FBD2530701D318C918C001D508C908C0CB
:10130000D20704D30B880380891C801C002A01D5D6
:101310000B78037070BC70478B0701D18307E1D055
:10132000124205D00B78491C0370401C521EF9D1A3
:101330007047F1B4016842184168480813180098D2
:101340008068C9071ED5494640181BE01778521C13
:101350000770401C761EF9D1002C13D01678521C51
:1013600089080D40032D01D11578521C29027118EE
:101370004D424119A41C05D00D78491C0570401C34
:10138000641EF9D19A420FD01178521C032503260E
:101390000E4002D11678F61C521C0C090F2CD9D124
:1013A00014780F34521CD5E700980C30F2BC70470B
:1013B000814202D25318984203D300B5FFF7ACFF25
:1013C00000BD521E03D38B5C8354521EFBD2704768
:1013D00000690840884201D1012070470020704711
:1013E00010B50F2303618903090C81610264332165
:1013F000FFE70160040001212000FFF7E9FF012859
:10140000F9D110BDF8B505000F26FF2909D12E61CD
:101410002220286001212800FFF7DAFF0128F9D1F6
:10142000F1BD17003C00009306E001212800FFF702
:10143000CFFF0128F9D1641C009838188442EFD2FC
:101440002E61E0028003000CA86111202860ECE707
:1014500058B5040000F033FB0600684600F060FC5D
:10146000002803D00098801B844201DA012052BD7D
:10147000002052BD10B5FFF795FC424C211D002005
:10148000FFF7B4FC210014310120FFF7AFFC201D51
:10149000206010BD3EB53B4C022802D1250014351A
:1014A00000E0251D256001936B461B8B00930B000C
:1014B00001002068FFF7DAFC002805D0022801D1DE
:1014C000002000E00120C0433EBDF8B584B00E000E
:1014D00019002C4C022E03D125001435012301E004
:1014E000251D00230700256028466D466A8103916B
:1014F0000A9D022F08D102A900912B00039A694688
:101500004989FFF79DFC0FE0002F03D1010018006F
:10151000FFF76CFC02A801900095039B6846428986
:1015200031002068FFF776FC010001D1002005E0C2
:10153000042801D1022000E00120C04305B0F0BD25
:1015400010B5140023000A0001000E480068FEF7E1
:101550005EFF002804D001D5200010BD0220C0434A
:1015600010BD80B5022807D10649086814318842A9
:1015700007D0FFF7F3FC01BD032802D10020FFF7DD
:101580004DFD01BD18090020A446521E08D3037862
:101590000C78401C491CA342F7D0181B64467047C6
:1015A00000206446704710B5044608464978007824
:1015B000C046C0460C20E070A078BF210840A07053
:1015C000842010BD1206130A1A43130C1A4300BFDD
:1015D000094205D0830707D00270401C491EF9D18B
:1015E000704700000022FFE71300103906D330B423
:1015F0001400150010393CC0FCD230BC490700D3A0
:101600000CC000D504C0890002D30280801C0029D0
:1016100000D50270704710B50400080011000200E8
:101620002000FFF7CFFF200010BD38B5C81D009087
:101630008C788B798A8808882146C046C04638BD98
:10164000010005D40121C006C00E8140AC480160F4
:101650007047F3B589B000250D700998807A00288D
:101660005CD0A84803C8A84A1268002312184B414E
:1016700006A80CC0EFF31080029072B600F0C9FC0F
:1016800002000B00099803C804AC03C4012404A899
:1016900003C80090019106A803C8C826B602002717
:1016A00036184F4100980199B9420ED301D8B04283
:1016B0000BD306A803C8B9267600002736184F4179
:1016C0009F4226D801D3964223D200200A324341BA
:1016D00004A803C800264C38B1418B4211D801D36D
:1016E00082420ED20998027AC37A04A803C819006C
:1016F00000F024FD0A9908700998857209984472CF
:1017000009E098488572029880F310880A9804705E
:1017100004E07D484476029880F310880BB0F0BD59
:1017200080B500F017FC01209D49087101BDF3B59B
:1017300087B004460020087000E02469002C5DD0CA
:10174000207B0028F9D0EFF31080019072B60020C2
:1017500069460870491C8348FFF77BFF00F059FC7D
:1017600002000B0003CC083C0F00861A9F4104AA1C
:10177000C0C2012504AA0CCA002B34DB01DC012AFB
:1017800031D3784A0CCA02AE0CC602AAC0CA5E4A5D
:10179000926B002312184B419F4210D801D39642FE
:1017A0000DD2704A527A002A09D002AA0CCA8B4282
:1017B00007D301D8824204D35348057601E0684636
:1017C0000570694604A80CC8100000F079FC684652
:1017D0000078012809D16348817A427A0A438272EB
:1017E0000021417201E008980570019880F310888B
:1017F00008980078002801D0079800E0200009B080
:10180000F0BDFEB500256C462570017B002901D096
:101810000120FEBD0CC0083801210173604CA66890
:101820000196070001E035003669002E08D00CCE85
:10183000083E03CF083F8B42F5D301D88242F2D352
:1018400038000661002D01D1019000E02861019966
:10185000814213D16946FFF76AFFA06068460078AD
:1018600000280BD0EFF3108072B6217D4A1C637DF7
:101870009A4200D0491C217580F310886846007890
:10188000FEBD10B5204C002808D0207B00280BD1CD
:1018900020002030FFF744FF012004E0200020302A
:1018A00000F0D8F80020207310BDFEB500F0E8FB72
:1018B0002C4D00246C72AC72EFF3108672B600F0FF
:1018C000A8FB6A4603C200F0E9FB07000CCD68469E
:1018D00003C8121A8B410021D21B8B4186F310885A
:1018E00004DC01DB012A01D20120FEBD002B04DC57
:1018F00001DB0F2A01D20220FEBD0020FEBD000048
:1019000000E100E0400900205008002080B5694651
:101910001448FFF79EFE2248017E002903D00021D3
:10192000017600F008F89548016801220A43026038
:101930000068009001BD18B519490020087690484C
:101940000268904B134003600A7D531C4C7DA342F8
:1019500000D0521C0A75C16901220A43C261C069E4
:10196000009011BD5809002057480168022900D194
:1019700070471CB50068032810D0094C6946A06860
:10198000FFF7D5FEA06068460078012806D1207DCB
:10199000411C627D914200D0401C207513BD0000A7
:1019A0005008002010B5FFF72CFF04000120FFF7BE
:1019B00068FFE0B210BDFEB5030000246846047263
:1019C000714EF1723272714803C81A1A002312184C
:1019D0004B410CC6083E74720127B77200F019FB28
:1019E0006B4DAA680CCA8B4215D301D8824212D320
:1019F00003CE083E00900191A86B00218018594148
:101A0000009A019B8B4206D301D8824203D3A86877
:101A1000007B002811D102A93000FFF71AFEAC6844
:101A20000CCE03CC083C8B420ED301D882420BD3A0
:101A3000207B002808D02F7606E05648017849061A
:101A4000490E01708474C4740120FFF71AFF6846C0
:101A5000007AFEBD7CB503004D4CA2681500002144
:101A60000026100001E02E002D69002D09D09D42B6
:101A7000F9D101932B69954201D1180002E033613D
:101A800000E001936D462970019B1973824214D0C6
:101A90006946FFF74CFEA0606846007800280DD02C
:101AA000EFF3108072B6217D4A1C637D9A4200D00C
:101AB000491C217580F3108873BDA06073BD80B58B
:101AC00000F0A7FA04BD00000C000060F8B50500A6
:101AD00000F0AEFB8D48012641683143416001684A
:101AE000314301601820FFF7ABFD2888C92800DAD0
:101AF000C820274CA0631420FFF7A2FD6846A978F0
:101B000081706968C1702988018000F0C4F91F489C
:101B100000F0A2FA0027A76026731B4A002050722B
:101B20009072002103C228882061A78268680003A0
:101B30000A2100F0D0FB20602771754D002804D1E8
:101B4000280000F08EFB20600AE0280000F089FBEE
:101B50002168814203D3280000F083FB010021604B
:101B60006C48A062676300F054FA226800231218E0
:101B70004B4120002030FFF744FEF1BD44180060C7
:101B800030180060FFFFFFBF580900204009002007
:101B900050080020C4000020F8B584B00024694635
:101BA0000C70EFF3108672B65B48407A00280CD0B8
:101BB00000F02FFA02000B00574D03CD083D99426B
:101BC00003D801D3904200D26C7286F310884E4F36
:101BD00022E0401C19E0046900210173816800299A
:101BE00000D088472000F6D16946B868FFF79FFD0E
:101BF000B8606846007801280AD1EFF3108172B608
:101C0000387D421C7B7D9A42E3D1387581F3108880
:101C1000787D039940187875787D397D0A1A02D24B
:101C2000802040001218002A28D00392BC680026A9
:101C300002940194002502E0260024696D1C002C0A
:101C40000FD0207B0028F7D000F0E3F902000B0052
:101C500003CC083C801A99410029EDDB01DC062801
:101C6000EAD3002D03D000203061029401E000206F
:101C700001900298B86001980028B4E7274E01242B
:101C80003879002827D000F071F900283AD10025D2
:101C90003D7100F07BF9300000F0DEF9787E00281D
:101CA0000AD07D761C4884726946FFF7D2FC6946EB
:101CB000B868FFF73CFDB86038002030FFF7CAFE77
:101CC00000F0A7F93A68002312184B413800203081
:101CD000FFF797FD16E0307C002813D000F099F94B
:101CE00002AA03C203CEFA225203002312184B4168
:101CF00002A803C88B4205D801D3824202D200F069
:101D000029F93C7105B0F0BD500800204018006072
:101D1000FFEFFFFF211704105809002040090020A1
:101D200003490968CA680260087C0009704700001E
:101D3000AC0400209148816801220A43826000219E
:101D40000160704730B58E4B8C490A681A400C68A8
:101D50001C40A242F9D1002AF7D08A4B14125C43EE
:101D6000D5B25D432B12E31810335B1143628261DD
:101D7000854A4B6813404C681440A342F9D1002BAC
:101D8000F7D09911A74A5143803109120162C3610A
:101D900030BD10B50400FFF7CDFFAE480068C007A6
:101DA000FBD52000FFF7CEFF10BD68214143090A93
:101DB000DB225043000C0818704780B5FFF7F5FF91
:101DC00049E238B530C80838954A13680B60AB4A09
:101DD000416AC06A181A00F0D5FA00210019694159
:101DE00034BD70B50500904C607A7D214843C90030
:101DF00000F06EFA461CF6B2A64A296A1B2000F0D3
:101E0000C1FA20706078FFF7D8FF3D216854E07870
:101E10008019FFF7D2FF3521685420798019FFF728
:101E2000CCFF362168546079FFF7C7FF372168542B
:101E3000A079FFF7C2FF3821685470BD38B504009F
:101E4000774805688D4AA16A206B281A00F09AFA33
:101E5000210008310CC900218018594103C4083CF5
:101E6000E56225632200083203C2606AA06231BDC8
:101E700080B5884A00F086FA8749884201DD08006B
:101E800002E0102800DA1020864900118882888A32
:101E90008649086001BDF8B50700824C388820618A
:101EA000814EB0797D214843C90000F011FA451CEC
:101EB000EDB2F878002802D1B87800280DD07C481F
:101EC000C168C907FBD5016817220A4302602000D8
:101ED000FFF75FFF606AA06209E0C8204003A062CC
:101EE0006062744820627448A0617448E061F878C8
:101EF00034216054216A206980B2FFF7B9FF0020C5
:101F00003E216054002103C4083C454A1268E26245
:101F100022632200083203C22000FFF762FF3078FC
:101F20004019FFF742FF1B30392160547078401987
:101F3000FFF73BFF1B303A216054B078FFF735FFC5
:101F40001B303B216054F078FFF72FFF1B303C2102
:101F50006054F1BD78480078002806D007488168B1
:101F600001220A43826000210160704739480068FD
:101F7000C107C90F012048407047000008100060E9
:101F8000FFFF0700F6BC0800FFFFFF0738B590B061
:101F9000444C3420205C002831D068462100402287
:101FA000FFF7A0F96846FFF7CDFE0899049880B2C4
:101FB000FFF75EFF6846FFF714FFEFF3108572B678
:101FC0000698A0610798E06108982062099860620D
:101FD0000A98A06268463521415C3522A154362119
:101FE000415C3622A1543721415C3722A15438216B
:101FF000415C3822A1543D21405C605402E0EFF383
:10200000108572B62000FFF719FF85F3108811B014
:1020100030BD80B569469648FFF7D3FE04BD000089
:102020001018006053070000C5000020F8B5050037
:102030001C4C69462000FFF7C4FE06000F008D4AC5
:10204000616A0098401B00F09DF900233900301AA6
:102050009941F4BD101000600200854B3420185CDB
:102060001074D869D0601800083003C803C2083A59
:1020700098699060186B5061704700003506000049
:1020800000207D4908607D4801687D4A0A40026061
:102090007047000026030000FF0F00007A48007818
:1020A0007047000010080020C800002008180060D9
:1020B00004100060C2F528008D5B0000ECEB6501A8
:1020C00070B50C00714A6A49096A00F05BF90100B9
:1020D000202900D820216E4A106841180831D161AA
:1020E00093698025AD051D439561136A8025ED0533
:1020F0001D4315620023604D2E68022E05D02D6809
:10210000032D02D02578012D01D0237070BD614CC4
:1021100025786D066D0E2570A374E3740F23994323
:10212000516191690723994391619169C023DB054E
:102130000B43936170BD000044080020FEB504000D
:102140004B4E3920305C012905D1002A01D03521C0
:1021500006E0362104E0002A01D0372100E03821D2
:10216000715C0091019002A93000FFF72AFE201A4D
:10217000484D0027434C454A01993369C918C83175
:102180008142316A17D200F0FDF86978401A00994F
:10219000401A029909182160616807229143616021
:1021A00035490F606168C022D2050A436260009918
:1021B0006A788B1812E000F0E5F83D21715C401A56
:1021C000009A801A029A12182B4B5A6002221A6047
:1021D00062682B4B13406360009A53182978802261
:1021E0000A432A70F021A974FF21E974C118581D0F
:1021F000814207D220480760606821490140616040
:102200000120FEBD1B4A716A180000F0BBF83E2198
:1022100070540020FEBDEFF3108072B61C490968AF
:10222000154A891C51600221116080F310887047A3
:102230001948012142680A43426002681143016063
:102240008020000415490860704780B51448006874
:10225000FFF7ECFE04BD0D4A0549096A00F092F84B
:1022600002BD80B5034A0249496AF7E70000000051
:1022700010080020350600000C00006028180060DF
:10228000FFFFFFBF241800604E0800202603000057
:1022900010180060C40000204818006000E100E051
:1022A00014000060F446002804D4494200F013F8FA
:1022B000404260474042002905D45FD000F00BF84F
:1022C000404249426047494200F005F849426047B0
:1022D00003460B43E6D40022030A8B420BD20309C8
:1022E0008B4219D243088B422ED2411A00D20146AA
:1022F000524110467047FF2209023FD012068B421E
:1023000005D3121209028B4201D3121209020309EA
:102310008B4219D300E0090AC3098B4201D3CB01D8
:10232000C01A524183098B4201D38B01C01A52411A
:1023300043098B4201D34B01C01A524103098B421E
:1023400001D30B01C01A5241C3088B4201D3CB0009
:10235000C01A524183088B4201D38B00C01A5241EC
:1023600043088B4201D34B00C01A5241884200D32C
:10237000401A5241CFD201461046704708B5C046B8
:10238000C04608BD10B5904216D98AB2030C090C9C
:102390000C46594380B25343444350431B191A041B
:1023A0001B0C1018594180225203002312184B4174
:1023B000520DD802104310BD484380225203121818
:1023C000520D104610BD38B5088900904C88CB8856
:1023D0008A8808782146C046C04638BD964A5023B0
:1023E00058431018C269FF239A43C9B21143C1610F
:1023F0007047914A502358431018026A120C120475
:1024000089B2114301627047426801239A43CB07A6
:10241000DB0F134343607047426810239A4309015E
:1024200003E0426820239A43490119401143416067
:1024300070474268874B134009028022520005E032
:1024400042687E4B1340490280229200114019439A
:102450004160704770B57A4C606880218843606045
:102460007D4D60682840C901014361607B48616817
:102470000140FC2292030A436260794962680A4083
:1024800090231B0513436360A2680240E823DB032B
:102490001343A360A2681140E02292050A43A260A0
:1024A000FF26F643A168314076220A43A260A16864
:1024B0002940E82292010A43A260E1680840610ACB
:1024C0000143E160102000F0D0F820693040022183
:1024D00001432161E068064014203043E060E06879
:1024E0000540A020C0002843E0606069042101434A
:1024F0006161606980210904014361618020C00538
:1025000003680568012000215D4AF0261E402B0764
:102510001B0F3343202B43D310745E2353745B4B48
:102520001D6B9574D0745D251575DD6A55759075B4
:102530005225D5751B681376507612239376544B2B
:102540001D68D576107715255577DD689577D07796
:102550001A25202695551D6A212695552226905527
:102560002225232695551D6C242695552526905504
:10257000212526269555DD6B27269555282690552D
:102580002325292695555D6C2A2695552B26905591
:102590001B252C2695555B6A2D2553552E25515507
:1025A000130010331360536013000C339360D16039
:1025B0001168226821603749086060698021C90577
:1025C0000143616170BD30B5062401290CD00D00B6
:1025D00003D1012A0ED1B3230DE0022903D0002438
:1025E000032908D1F5E70524012A01D1B52302E02A
:1025F000432300E04123C01A001B30BD26490A686E
:102600004F2313404F22904311E0244801680822D1
:102610000A430260704722480168802291430160AA
:1026200070471F48016880220A43026070471843C0
:102630000860704700000000DC000020FFFDFFFF85
:10264000C000002079490A687F239A434006400E63
:1026500008E00000FFFEFFFFFF00FFFFFFFF00FF9D
:10266000FFFFFF0010430860704786490A68994BD6
:1026700013400006FC22920502401A430A6070478C
:10268000C0080020010098480840704748160060C4
:10269000481500601014006004000060180000601D
:1026A000C40000208021C903084070478021C9056B
:1026B00008407047802189040840704780218901C3
:1026C000084070478021C9020840704780214902B4
:1026D0000840704780210906084070478021C904DE
:1026E00008407047802149040840704741688022B3
:1026F00091434160704780B50021FFF785FE01BD21
:1027000080B51422002100F029FA01BD80B5012115
:10271000FFF787FE01BD80B50121FFF77DFE01BDFA
:10272000416880220A4342607047C1688022D20516
:102730000A43C2607047C168802292040A43C260A3
:102740007047C168802212060A43C2607047C168A0
:102750008022D2040A43C2607047C16880225204BA
:102760000A43C2607047416804220A4342607047CE
:1027700080B50021FFF75DFE01BD80B50121FFF7A7
:1027800058FE01BD416840220A434260704780B54F
:102790000121FFF739FE01BD80B51FE0C268120DAF
:1027A00012050903090B1143C1607047C1688022FB
:1027B00052030A43C2607047C168802212040A4370
:1027C000C2607047C1688022D2030A43C26070476A
:1027D00080B541688022D2000A4342600121FFF7A0
:1027E0002FFE01BD3A4802688D4B13400902944AFE
:1027F000FDE00000984A5023584310180029016852
:1028000003D040220A430260704740229143016096
:10281000704791495022504308180168934A0A4072
:102820000260016A994A0A4002627047C4000020AF
:102830008F495022504308180168802292030A43AE
:102840000260016A802292050A4302627047884949
:10285000502250430818406A70470000844A5023B1
:1028600058431018C26A120C0A70C26A120E4A70DB
:10287000026B8A70026B120ACA70006B8002800EB3
:1028800008717047CC000020794950225043081845
:10289000383070477649502250430818403070470E
:1028A00073495022504308588102C80F70470000F6
:1028B0006F49502250430818C06A8004800E704748
:1028C0006B495022504308580106C80F704700005A
:1028D000D0000020FFFFFFC0994950225043085804
:1028E0008004800E7047000030DFCB00944A5023F4
:1028F00058431018C269120A0A60036A1B06134380
:102900000B60006A0004000E486070478C4950223A
:10291000504308584000400F7047894950225043A7
:1029200008584001400F704738B50400502200217C
:102930008348230050256B43C01800F00FF9012194
:102940002000FFF757FF31BD7D4A50235843101830
:10295000426A4162704710B5794A502358431018B3
:10296000C26A92B20B784C7824021C4323041343AE
:10297000C362026B920D92058B78CC7824021C43C3
:102980000979090421438902890A1143016310BDB1
:102990006B4A502358431018826A120E120609021D
:1029A000090A114381627047654A50235843101841
:1029B000826A1202120A0906114381627047264A8E
:1029C000502358431018C26A5E4B13400902FC2280
:1029D00092010A401A43C26270471F4A502358436B
:1029E00010180268574B13400902FC2292010A405A
:1029F0001A430260704710B5514A030050246343E4
:102A0000D218D369DBB20C6824021C43D4614A6833
:102A100012020968090E1143FFF7EBFC10BD00001C
:102A2000FF0000F080B54649020050235A43891840
:102A3000096A8AB2802109021143FFF7DAFC01BD5D
:102A400000FFFF0F3E4950225043081801688022C2
:102A50009143016070470000DC000020384A502399
:102A6000584310188268816070470000FFFFDFFF45
:102A7000DC000020324A5023584310180268324BC1
:102A800013400907E022D205B1E70000FFFFFFDF96
:102A900038B50A682A4B040050256C431B199C6901
:102AA0009A614968FFF79AFC31BD80B5244902005C
:102AB00050235A438918C969CAB280211143FFF7CC
:102AC0008DFC01BD1E495022504308180168802228
:102AD0000A43026070471A4A50235843101842684C
:102AE00041607047164A5023584310180268174B2C
:102AF00013400906E022D20479E7114A50235843D3
:102B00001018C26A1F239A43C906C90E1143C16235
:102B100070470B4A50235843101802683F239A43CA
:102B20008906890E114301607047054950225043C0
:102B300008180168802212024A40026070470000B3
:102B4000DC000020FFC0FFFFFFFFFF8FFFFFFFF84B
:102B5000042801D19D2070471220704780B50B00DA
:102B600011001A00FEF72EFD01BD80B5FEF70CFD29
:102B700002BD38B5088900904C88CB880A7908785E
:102B80002146C046C04638BD10B5C20018231340C8
:102B9000FF249C40E2438907090E9940030004D4B6
:102BA000C8489B089B00C01806E0C74B0007000FF1
:102BB000083880088000181803681A401143016023
:102BC00010BD000081B0C148016802220A430260C2
:102BD000002102E000BF0099491C009100990629DC
:102BE000F8DB016804220A43026001B0704780B537
:102BF000B7480068002814D1B6480168002902D1FE
:102C0000806A00280DD00120B349886000F090FB55
:102C1000BFF34F8FB148B2490860BFF34F8F00BF79
:102C2000FDE7012002BD80B503210020FFF7ACFFC6
:102C300003210120FFF7A8FF03210220FFF7A4FFD3
:102C400003210320FFF7A0FF03210420FFF79CFFCF
:102C500003210520FFF798FF03210620FFF794FFCB
:102C600003210720FFF790FF03210820FFF78CFFC7
:102C700003210920FFF788FF03210A20FFF784FFC3
:102C800003210B20FFF780FF03210C20FFF77CFFBF
:102C900003210D20FFF778FF03210E20FFF774FFBB
:102CA00003210F20FFF770FF03211020FFF76CFFB7
:102CB00003211120FFF768FF00211220FFF764FFB6
:102CC00003211320FFF760FF03211420FFF75CFFAF
:102CD00003211520FFF758FF03211620FFF754FFAB
:102CE00001211720FFF750FF00211820FFF74CFFAC
:102CF00003211920FFF748FF01BD30B50D00C54C79
:102D0000002A0AD0FA218900FFF7E5FA401E68433D
:102D100060600020A060052002E020680121884357
:102D2000206030BDFFB501212022002818D067485F
:102D30000368E024A34313430360836D0624A34385
:102D400002241C438465836B0B438363836B8B4337
:102D50008363836D0B438365806D0840009000980A
:102D60000723AD480469AD4DAC4218D10468009406
:102D70000468076805682D0D1D4003950068000E66
:102D80001840029001250F26380C3040270AF02405
:102D90003C400194009C240A2640009604E0082050
:102DA0000090702401940025BF4C0F26F643276B3A
:102DB000374038432063E06AF027B843019F074358
:102DC000E762E06A064000983043E0623820002D58
:102DD0000CD025689D43039E33402B43236023681A
:102DE0008343029DED0005401D4325603F23DB43E7
:102DF000A56F1D400A262E43A667A56F40262E43C9
:102E0000A667E56F1D4004262E43E667E56F802622
:102E10002E43E667E56F4026B543E567A034256895
:102E20001D40256065681D4010262E436660A5681C
:102E30001D402A43A260E2681A4030251543E56030
:102E400022691A4010432061606918403922024308
:102E50006261A06918403A220243A261E069184009
:102E60003B220243E261206A18403C220243226274
:102E7000606A03403D20184360625523FF20C04331
:102E80008A4A146804401C431460D46804406625D0
:102E90002543D560146A044023431362136C034036
:102EA0001D241C431464D36B034059241C43D46376
:102EB000536C1840322303435364506A01435162F8
:102EC000FFBD000000E400E01CED00E00800404809
:102ED0009400404810005048040000200400FA0507
:102EE0000CED00E0F1B5724E012264213000FFF7D5
:102EF00004FF704D286880214902014329600027A2
:102F0000444C2868800303D42068C003F9D5042703
:102F1000002200210020FFF7F0FE380039D168467A
:102F2000017808000CD18020C00501680068F022FB
:102F30000A400007000F1043102867D10620F2BD99
:102F4000E020C043491E06294FD801A2525C974495
:102F5000064452606E7C8A00A9680840A860700030
:102F6000554E30600122C821FFF7C7FE2868802136
:102F70008901014329602868400403D42068C00304
:102F8000F9D50527002200210020FFF7B6FE380002
:102F90002CD03800F2BDA968084020210143A96067
:102FA0003000DDE7A968084040210143A9607008AE
:102FB000D6E7A968084060210143A960B008CFE7BF
:102FC000A968084080210143A960F008C8E7A96802
:102FD0000840A0210143A9603009C1E7A968084061
:102FE000C0210143A9607009BAE7FEE73020C04361
:102FF00032493268AD4B9A420A6804D1104010221F
:1030000002430A6004E01040086001E0FFF7DAFDC7
:103010000020F2BD10E000E0E81E0010CCECBCFC8B
:1030200010B5FF2833D004290CD005290AD0062971
:1030300008D0072906D00622D2439D4B032903D18D
:10304000002809D1012010BD012805D01C682240AC
:10305000022414431C6005E0186802400420104359
:10306000186001208022D20513681268F0241C40E9
:103070001207120F2243102A09D18E4A012908D1C2
:1030800001280CD12A20106050680007FCD40020D1
:1030900010BD022905D1012803D12920F3E700281A
:1030A000FBD02820EFE700004816006048150060BC
:1030B0000048E8010000404890040020041000404F
:1030C000F3B583B07C487D4908607D4908617D4E39
:1030D0003068202101433160306840210143316074
:1030E0003068802101433160002500240122C8217D
:1030F0007548FFF702FE754930690191400704D415
:103100000868C003F8D50124012500220021002011
:10311000FFF7F3FD6E4F002C2ED028002BD100249A
:103120000122962149006848FFF7E7FD6948716A66
:1031300001407162B16A0840B062B86866490140F6
:10314000802000020843B860F86860210143F960FC
:1031500038681021014339603868800604D401982A
:103160000068C003F8D50224002200210020FFF7E8
:10317000C4FD20006DD096E0B06930218843202145
:103180000143B161B868802149010143B960534AE4
:1031900050695349884219D110681168136814683E
:1031A0002404240F029414680122DD091E232B40FD
:1031B00000932402FC239B052340CC01E0218901DC
:1031C00021408401F0208000204007E0D00C102135
:1031D0000091F0235B050022C0214901FC68414DAC
:1031E00025402B43FB60FB68802424041C43FC60C7
:1031F0001E23DB43002A09D0FA681A40029C6400AF
:103200001443FC60FA6801241443FC60364A1468D5
:103210002340009C1C431460136801241C43146069
:103220001368324C1C402043106010682023034375
:10323000136010682E4B0340194311601068802101
:10324000C90001431160B069802149000143B161A7
:1032500065E76846047CFF2C02D00120FFF762FD81
:103260006846057B23480168234A0A40802189017A
:1032700011430160016880220A43026001687022E4
:10328000914330220A4302602800FFF72BFE010021
:1032900009D129002000FFF7C3FE010003D1FFF789
:1032A000C2FC62B6002005B0F0BD00000090D00363
:1032B00060004048005000400000041008ED00E0AD
:1032C00004000020040050480024F40010E000E056
:1032D00000004048FFCFFFFFFF7FFEFFE41E00100D
:1032E000CCECBCFCFFFFFFC0940050483FFCFFFF4C
:1032F000FFC7FFFF98004048FFC0FFFFEFF31482B5
:10330000EFF30981002080F31488BFF36F8FF0B5CD
:1033100043464C4655465E466746F8B40F4CEFF3BD
:103320000883636006B4BFF34F8F30BF00BF00BF98
:103330000A4C646884F3088882B003BCF8BC9846E1
:10334000A146AA46B346BC46F0BC04BC80F309883B
:1033500081F31488BFF36F8F104700000400002032
:10336000F0B5044697B000200C9006900A90FD48F6
:103370000068FFF7B3F9002805D1FA480068FFF7A5
:10338000A1F9002801D0012700E000270121E06F0A
:10339000C9038843E61DF936E067F0680B90306991
:1033A000254620350590002803D0687FFFF794FA62
:1033B0000C90002F1BD0FEF778FA01200A90012113
:1033C000E06FC9030843E0670B98002803D0C0886A
:1033D0000B99401CC8800598002807D00C98410024
:1033E000059808188030818A491C81822DE3E16F9D
:1033F0004805C017401C0D90012080020143D948A8
:10340000E1670068FFF752F90746D6480068FFF702
:1034100061F91090204680300490002F29D0E16F90
:103420004806C00F04D0FEF740FA01200A9008E0D9
:10343000402001432046E167FFF75DF92046FFF792
:1034400055F90121E06FC9030843E0670B98002894
:1034500003D040880B99401C48800598002807D06D
:103460000C9841000598091840314889401C488152
:103470008BE2BC480068FFF721F9002802D01098C1
:10348000002848D1287C00F0F3FA08902046143038
:103490008068C046074600788007800F0290384653
:1034A00000F0EEFA1590206EE065E16F4020814358
:1034B000AC48E1670068FFF715F91490E06F8007EA
:1034C000C00F0790159800F0EDFA1499002916D056
:1034D0000799002913D0FEF7E8F916200690E16F4E
:1034E00002208143E1670499002008770499487716
:1034F00004998873287C032100F0E0FA45E20899DA
:10350000002913D01099002910D00299032907D05F
:10351000787800280AD0FEF7C8F93D20069034E2FA
:10352000012803D0142801D00428F4D100200E90E3
:103530000F9011901390109800286ED0287B0228CD
:103540003CD120468068C046014638780978084357
:10355000C00604D4FEF7A9F901200A902EE0FEF778
:10356000AEFA216C411A0498806C401A0890687F6A
:10357000FFF7D3F90290687FFFF7C8F90990049824
:10358000418D029800F0AAFA07900498818D09985D
:1035900000F0A4FA81B20498008E814200D208465D
:1035A000079908180899B9300029D3DB8142D1D393
:1035B0002046FFF7A0F82046FFF798F8E06FC00616
:1035C000C00F01900ED00020C046012815D01C214C
:1035D0007878014206D0001F7870022030701420E5
:1035E00000F09AFA38788007800F032807D0287CEB
:1035F00000F0A2FA012827D031E0FC21E8E7159875
:10360000022802D17878022808D0287C00F09FFA9E
:1036100001280AD001200E9010E029E0012011902D
:10362000E06F04210843E06708E0687FFFF77DFA58
:103630000198002802D0687F00F091FA0121E06F24
:1036400049040843E0670FE07878002807D0B07895
:10365000002804D0687FFFF768FA022003E03946AB
:10366000204600F08EFA0F90387820210840139001
:1036700020468068C0460190287C0121666F00F0DA
:10368000A6FA0199814201D1012100E000210991AE
:1036900021462831019A02918A4201D1012100E09C
:1036A00000210B4600218C46002E06D0F27BD20969
:1036B00003D0B269002A00D00121099A1A4303D12C
:1036C000002901D001218C461499002902D16146BC
:1036D000002977D00998002807D0287C032100F022
:1036E000EDF92046C046C0461AE0002B18D1B28939
:1036F000B37B0021D218B28132697261B173304656
:10370000B28973880C309A4202D3B669042104E06E
:10371000D20602D17269126882600F9801430F913C
:10372000287C00F05EFA0190287C00F062FA119982
:10373000002901D1012804D000F06CFA002878D1CA
:103740006FE0287C012100F042FA014601902046FA
:103750008268816001980078800605D52046C046C1
:10376000C0460BE0A804002001988078022805D10B
:10377000E06F02210843E067206EA066287C0121EB
:1037800000F056FA082600281DD000200790089067
:10379000687FFFF74DF8687F07A9FFF779F9287B65
:1037A000022802D1687FFFF780F9FEF73AFF287CF4
:1037B000012100F04BFAE06F3043E067142000F085
:1037C000ABF915E056E0287C012100F04DFA002805
:1037D0000CD0687FFFF71DF8287C012100F052FA19
:1037E000E06FB043E067142000F096F9FEF719FF90
:1037F000287C022100F062F9287C012100F050FAB7
:1038000000884007C00F27D0287C00F052FA287C9F
:10381000012100F045FA01880422914301801BE058
:1038200007E0002E05D01198002802D10198002849
:103830000FD0FEF7F6FE1098002801D0012000E01E
:1038400011202085029801900146204682688160FF
:1038500002E0FEF7E6FE1EE0287C012100F032FACD
:10386000002839D001984078002835D00199001DF2
:10387000487031E0297B032921D1019981421ED072
:103880000846029988421AD0FEF7CBFE0121E06F6C
:10389000C9030843E067744800688030C168307B22
:1038A000C006C00E801C08180146019020468268A0
:1038B00081603146204600F011FA2667CCE7FEF71A
:1038C000B0FE0121E06FC9030843E0672046FEF720
:1038D00012FF2046FEF70AFF0F98400705D5204645
:1038E000743000F03BFA00F043FA0F98C0071DD087
:1038F0000020C046012817D01F267878B91C064042
:10390000E06E3246406800F053FAE06E4680E06EAA
:10391000002686613978E06E8907890F0172E06EB2
:1039200000F078FAE66607E0FF26E6E70F988007E2
:1039300002D5687F00F013F90E9800281DD0287C6E
:10394000002100F044F90646384600F07FFA308046
:1039500013987A78002801D0F91C00E0B91CB01C3B
:1039600000F082FA287C002100F09AF901880122F7
:1039700011430180162000F0CFF81398002804D0DE
:10398000B87881092046C046C046606C00280BD03C
:103990000020C046012832D0012601A800F0C2FA5A
:1039A00001283AD001200A900D98002846D0206EB8
:1039B000E0650B98002803D000880B99401C088014
:1039C0000598002806D00C9805994000095A059AD8
:1039D000491C1152287CC046C0460698002831D0A8
:1039E000687F00F0A9FA287C069900F0ADFA012062
:1039F0000A90687FFEF78AFF04282AD031E01A482F
:103A00000E2200688030C069FF308130006F41694C
:103A1000287C5043C01D0E5CBFE73046FFF798F886
:103A20000199081A2064616CE06C4900401AE06456
:103A300004998864002060646086B5E7122000F075
:103A40006BF8B6E70A980028D3D0204600F083FA36
:103A5000CFE70648006BC00703D0FDF726FF012023
:103A60000A900A9817B0F0BDAC04002080160060E0
:103A700010B5012100F014F90088C005C00F10BD79
:103A80000178890601D480787047C078704738B5CE
:103A9000881D00908C788B88CA7808882146002081
:103AA000C04638BD252804D8410040180249085CAA
:103AB00070471620704700008734051010B50C467B
:103AC000012100F0EDF801888A08A1079200890F12
:103AD0000A430280162000F01FF810BD10B501281F
:103AE00014D004280AD0C90006280CD0703108026E
:103AF000FF3008490130FEF7EEFB10BD88013D2183
:103B000009014118F3E7FF31C431F0E789003C3186
:103B1000EDE70000710200004109C206D20E01204B
:103B2000904072B68A00034909688B5803438B5052
:103B300062B67047BC04002000B500F057FA203090
:103B4000007B032801D0002000BD012000BD10B57E
:103B5000002100F0A5F80088C007C00F10BD1CB5FB
:103B600004466946FEF7C2FE0099491E0091491CB1
:103B700002D10198401E019069462046FEF73BFFA6
:103B80001CBDF8B50F46044600250020C04601289C
:103B90000AD01F267878064017D00020E06600F093
:103BA00035FA002802D00BE0FF26F3E7E18E32461B
:103BB000012000F039FAE066002801D0012504E078
:103BC0002034607FFEF7B1FF02252846F8BD00B51E
:103BD0000B4600F00BFA9900081880304068801CF2
:103BE00000BD10B5012100F05BF800880006C00F91
:103BF00010BD10B5012100F053F800888007800F38
:103C000010BD10B54C788A780878CB1C2146C04688
:103C1000C04610BD054800688030417AC07A8142B4
:103C200001D901207047002070470000AC0400203B
:103C300010B50C46012100F033F80088002C02D0AA
:103C40000007C00F10BDC006C00F10BD10B50C4658
:103C5000012100F025F80188002C03D008229143AF
:103C6000018010BD1022FAE710B50C46012100F0CA
:103C700017F80088002C03D04009C007C00F10BD02
:103C80008009FAE710B50C46012100F009F8018817
:103C9000002C03D020229143018010BD4022FAE77E
:103CA00000B50B4600F0A2F9990008188030406872
:103CB00000BD00B500F09AF98030817B01221143EC
:103CC000817300BD10B50C4600F0CCF90078002CD3
:103CD00002D00007C00F10BDC006FBE7F8B50C46C8
:103CE000C16F10260A04A18901D5A57B10E0628866
:103CF0008030521A408D95B2A84205D20546E07B2D
:103D00004006400EE07303E0A069002800D10026C1
:103D1000002904D1207A800701D5022000E001208B
:103D2000CF060643FF0EE81982B20B4861690068AE
:103D30008030C068001D00F09AF920610648A57324
:103D400000688030C168B81C0E5403480068803099
:103D5000C068FF1CC555F8BDAC04002001688A6925
:103D60000260002A00D14060002088610846704748
:103D700070B5C17B04464906490EC1730A489025B7
:103D80000068002200690123294600F093F9010030
:103D900003D028464C6000F0E3F904480068803006
:103DA000417A491C417270BD98040020AC04002087
:103DB000F8B504460D46501E1F210843401C000460
:103DC0001646470D1CD0201D2946421A002A01DD47
:103DD000082A03DB2022FDF7EBFA04E0082208C9D9
:103DE000521E08C0FBD12035202E01D2304600E003
:103DF0002020301A7F1E24683F0486B23F0CE2D197
:103E0000F8BD10B54C880A7908884B1D2146C0467C
:103E1000C04610BD70B504460A48902500680122CE
:103E200000691346294600F045F9010003D02846F1
:103E30004C6000F095F9044800688030017A491C14
:103E4000017270BD98040020AC0400200178407815
:103E500000020843704710B58C788B798A880888EF
:103E60002146C046C04610BD8B0707D0521E22D344
:103E70000B78491C0370401C8B07F7D1830730D0A7
:103E8000DB4219D0401E121F08D308C943701B0A19
:103E900043801B0C0371001D121FF6D2D20707D3FB
:103EA0000B88437001D08A78C2701B0A83707047F8
:103EB00001D00B7843707047121F06D308C90380E6
:103EC0001B0C4380001D121FF8D2D20705D30B88AC
:103ED000038005D08B788370704701D00B78037016
:103EE000704770B4103A03D378C978C0103AFBD247
:103EF000530701D318C918C001D508C908C0D20793
:103F000004D30B880380801C891C002A01D50B7800
:103F1000037070BC70478078800701D58620704799
:103F20000020704703490A68126802600868C030C0
:103F3000007E7047AC04002010B500F027F9102176
:103F400081740021C17410BD00B50B4600F04EF81D
:103F50002030437300BDF8B504468068C04625464E
:103F600007462035287C002100F01AF90646287CF7
:103F7000012100F015F90146E06F40250204D30F3E
:103F80008203A843D20FE0670E4307D120462830B2
:103F9000B84203D1002B01D1002A01D0012002E058
:103FA000A08E401C80B2A16C4143204600F006F96F
:103FB000FF200D300159002902D08888401C8880DC
:103FC000606F002811D0743485690CE0E87BAE691D
:103FD000C00907D02946204600F08CFA0021284667
:103FE00000F09EFA3546002DF0D1F8BD0649FF22BB
:103FF00009681D328031C9695043FF318131096F31
:104000004968081870470000AC04002005480068A3
:104010008030017A807A814201D9012070470020E6
:1040200070470000AC040020F8B50D460C49521E44
:10403000096800240E681F210A431D3297B23946D1
:1040400000F088FA002809D13946F06800F0A8FA93
:10405000041D006860600020E07325802046F8BDE4
:10406000B004002000B5FFF7C1FF7C3000BD70B583
:104070000C461F21521E0A430546521C0020110403
:104080004E0D16D0211D6A1A2846002A01DD082A85
:1040900003DB2022FDF78CF904E0082208C9521E38
:1040A00008C0FBD120352046761E24683604360C25
:1040B000E8D170BDFEB5044600269C4617460D4665
:1040C000080616D572B601AB6A466146204600F076
:1040D00097FA00280BD06846818800988278920869
:1040E0009200827001806180012662B615E062B69E
:1040F00024E001AB6A466146204600F081FA0028C0
:104100001CD0680609D46846818800988278920895
:10411000920082700180618001260098AA00817857
:1041200060238907890F1A4011438170C770002EE0
:1041300002D00020FFF7F0FC0098FEBD00200090A8
:1041400072B6A80608D40548082200680168114321
:1041500001600020FFF7E0FC62B6EDE79804002064
:1041600040060AD5CA784D2A0CD288780B1D8008E3
:104170009100054A525819461047887880088000F7
:10418000801C8870704700008CFB041003492C22AF
:10419000096850438031496A40187047AC040020D8
:1041A00010B500F071FA0078C007C00F10BD10B54F
:1041B0004A8808881146C046C04610BDF3B504467B
:1041C000203095B005460B90007C0590687F002656
:1041D00006900796204600F05EFA03900120E16FFA
:1041E00040048143E167687C08900698FEF760FB15
:1041F0000990206C1699E78F41180E91119009993A
:1042000003982546484380350C90A16C039A236C93
:104210005143A87B5B1823640E998446591A129166
:10422000039A0799C00789180791B9188FB2089A9D
:104230000C99C00F891889B20891618E49021091BA
:10424000002872D0A889C01B0004000C03D0000411
:104250006BD528266EE0604661460007C906C00F90
:10426000C90F002839D0E96B139103C9591821648B
:104270000B9A127B022A06D01090C001000C6086B7
:10428000139880891FE0400808182064139840693B
:1042900001900B98407FFEF740FB0146042801D0B7
:1042A000062900D1022100F025FA4068019A9042C7
:1042B00001D3104600E001908900091908650198B2
:1042C000E064A8640020A0861398F7218068A064A9
:1042D000139800692066A87B10E0002911D00B9884
:1042E000296C407FFEF737FBFA20005D002803D0E1
:1042F000296C059800F00AFAA87BEF210840A87302
:104300000AE005980020C046002805D000231A4680
:1043100001210598C046C046A87B02214008400004
:104320000843A8731620FFF7F7FBE78712980028C9
:1043300000DA6AE7216C1198081A0190E06D0128F3
:1043400006D5E06F3E264005C00F00D00826B1E03C
:104350000199401AE065002EF9D101212046019A09
:1043600000F0FFF906007DD100212046019A00F0FF
:10437000F8F9060076D1FA20005D00280AD00698E8
:10438000FEF765FA010C41408AB23946059800F003
:104390000DFA0AE0089800F033FA0B99487409996D
:1043A0000898401A80B200F02BFA01460698FEF7F2
:1043B000B0FB0B98007B032814D02046FEF7E7F9EA
:1043C0002046FEF7ADF90698FEF77CFB236CA26C45
:1043D000E16C069800F022FAFF340134A08A401CF8
:1043E000A08271E0626C206C510080182064E06C47
:1043F000401AE064608D019900F018FA8018002AD4
:1044000000D10D306064A16C49087A39814201D233
:10441000082648E0216C4700091A2164E16CC8199C
:10442000884200D9E0640020C04601284FD0012016
:10443000E16F4905C90F0491FEF78AFBC119109875
:1044400008181090E06CA8643220049903900029A9
:104450000DD0059800F0EFF9E16CC019814204D944
:10446000FF3000E026E05F30A864002003901F4981
:1044700010984843010A2046883114300746696481
:10448000FEF7B0F93846FEF782F93846FEF748F9EC
:104490000698FEF7D7FA206C0399A26C431AA96C10
:1044A000069800F0BBF9FF340134A08A401CA082BA
:1044B000002E09D00698FFF73FFD0020A8730B9847
:1044C0003146007CFFF740FD079817B0F0BD084863
:1044D0000E2200688030C069FF308130006F416972
:1044E00005985043C01D085CA2E70000710200005F
:1044F000AC04002002688A4206D192690260002A58
:104500000BD1406009E01A4693698B42FBD19B694D
:104510009361002B01D118324260002088617047FE
:10452000F8B50E460A49001F096807460C6800F0F6
:10453000A2F905463946E06800F0A7F972B6B10065
:10454000605A401B605220894019208162B6F8BD34
:10455000B004002070B5114A012312688343126829
:104560009B00491E81249B184909491C89B272B6D7
:1045700015898D420ED31E885B88AD19ADB25B18CC
:10458000AB4207D88000135A00245B1813521089DD
:10459000401A108162B6204670BD0000B0040020B1
:1045A0000346491E30B44809401C00250104090C8B
:1045B00072B61ED0188888421BD35D680129284630
:1045C00010D00124CA07E407E24200D000680B4C77
:1045D000CA031219120C05D00468521E2068120476
:1045E000120CF9D102685A60002202601888401A41
:1045F000188062B6284630BC704700000080FFFF7C
:10460000F0B54488491CA4B2E5B2A40809B21C80E4
:104610008EB287883619BE4204D9A6B2891B6D1C9A
:1046200009B2EDB2A4002418083414601C88AD0748
:104630006418A400AD0F2C43A4B21C800388E51AB3
:10464000AC079B079B0F5D198388A40FAD085C43E3
:104650002C19A4B29C4201D9012300E00023C58893
:10466000A54200D2C480002B01D000230AE0012320
:10467000002907DA11688C78A408A400641C8C70E7
:10468000083010601846F0BD10B50C46FFF7AEFCC0
:1046900000199C3010BD70B5054604462035287CB5
:1046A0000021FFF77DFD0646287C0121FFF778FDFC
:1046B000054620468068C0460146E06F0204D30FDD
:1046C0008003C20F3046284307D12046283081425C
:1046D00003D1002B01D1002A01D0012070BDA08E92
:1046E000401C80B270BD10B58A7808881146C0465B
:1046F000C04610BD044800688030C069FF3081307A
:10470000006F006870470000AC040020F3B5FFF7AD
:104710006DFC0746D537002319461A464418C034A5
:10472000491CC9B262752529F8D3002200210DE089
:10473000019D0126AD5C8E403540CD4002D0FC5439
:104740005B1CDBB2491CC9B2082903D2D40064182F
:10475000252CEDD3521CD2B2052AE7D3C030037505
:10476000FCBDF7B50646044620360025307C01998D
:10477000FFF716FD0746307C019900F09EF8002FE8
:1047800012D0012810D0019880000119486E01282C
:1047900001D5222508E07D225204904203D8029AD6
:1047A000801A486600E04A662846FEBDFEB51346FC
:1047B0000D46FFF71BFC0446C030067D194628460F
:1047C00000F086F8074600F01BF805463D20005D26
:1047D0006946FEF743F82946684600F0A9F8002824
:1047E00001D02846FEBD30467843000C002E03D091
:1047F0003146FDF770FD08462018C030407DFEBDF3
:10480000054925224143090C5143401A80B225280D
:1048100000D32538C0B27047EB06000070B51C46C7
:1048200016460D46FFF7B2FC70C070BD89084143C3
:10483000880C401C7047F8B5FFF7D8FB07460446C4
:104840002037787FFEF769F80546787FFEF75EF837
:1048500006468034618D2846FFF740F90546A18D54
:104860003046FFF73BF9218E80B2884200D30846DC
:104870002818B930F8BD0021002804D0491C006870
:1048800089B20028FAD108467047002914D010B523
:1048900000230A46144612685B1C9BB2002AF9D119
:1048A00072B64268226041600188C918018062B610
:1048B000002000F047F810BD704710B5002400F04C
:1048C00053F8002801D0022800D10124204610BD51
:1048D000F0B5FF2448400023023465000246224020
:1048E000C609D2012640324306462E4076013243A5
:1048F00046092E4032430D4E07463740FF003A43EB
:10490000C70837403A430746760037407F004008E3
:104910003A43304002431001801840185B1CDBB260
:1049200080B2032BDAD34840F0BD0000040400003D
:10493000CA08D300C91A4907805C490F01228A407E
:10494000104070474109C206D20E0120904072B655
:104950008A000449096851180A6902430A6162B66B
:1049600070470000BC04002010B50C46FFF73EFB6A
:104970000019A030007810BDFFB5054699B00020A1
:104980000C901C98FDF7C9FF0590AA7BE87B0102FB
:10499000287C0304687C00061843084310431290E7
:1049A000A97CE87C0202287D00041043084316908D
:1049B000687D0A9028461630FFF748FA0690284688
:1049C0001830FFF743FA0F9028461A30FFF73EFAE7
:1049D000009028461C30FFF739FA119028461E3007
:1049E00013902320405DC1064009C90E03900E912B
:1049F0001A98FFF7FBFA044620301C990D9001909D
:104A0000417701981A990174E71D0020F937F86081
:104A1000386126467F208036F0730020E0673060E2
:104A2000FF203871F7217971B8710021F97138725E
:104A30001A980020C046204600F016FB1A98C0467F
:104A4000C0461A98C046C0460020B87001980E991A
:104A50004174FFF74FFE04901C98FDF765FF1A980C
:104A600000F046FB05991C98FEF73CF805991C9848
:104A7000FEF700F810A8FFF755FA0598FEF768F85A
:104A800010990A1A2398012806D002280CD01B98E6
:104A9000012819D0883218E005983E3A012801D043
:104AA000121D12E00B3216E00E21059800F02EFBCD
:104AB000121A05983E3A042801D014320BE0AF20B8
:104AC0008000B4320C9008E090320598042804D09D
:104AD0002398002803D0022002E0032000E00120F8
:104AE000069940184702B8180190284608301B99CB
:104AF00017901C98002940D0FDF7A4FF0D980321C2
:104B0000017328784006C00F1490A81C0690FE4838
:104B10000068808A0790039800F016FB014607980A
:104B2000401880B260853946FFF780FE01990D304C
:104B30000A1A049943008968E164CB188B4200D9B2
:104B4000E36460640099A186F0494843010A0C9827
:104B500008180C90226425980068F0642598406835
:104B6000306504980788EA487F1CBFB2874202D9A3
:104B70004042381887B2002326E0FDF7A3FF0D98C6
:104B8000022101730020039060852978C9091491DE
:104B9000179906910A990A020199A0865218059957
:104BA000042900D1022189000919096DE1646064BA
:104BB000D0E71846FFF71AFAC18EB94202D1D5489C
:104BC0008742D0D15B1CDBB2D34800682030007D27
:104BD0009842EED804980780CB48E78600682030DA
:104BE000C07F800753D500201490159014A88446E8
:104BF00002901B9800282598007805D0C0B20228A2
:104C000012D0032810D011E0C0B2022801D003282E
:104C100001D1179884462878400610D5E879800994
:104C200001280CD1A81C09E0A81C84462878C009DA
:104C300005D0687B8009012801D11798029025983A
:104C40000068C1B2FE2918D08007800F1790039B1F
:104C5000119A0F980793009904AB07C32598179BE7
:104C6000401C01906146AC480093039100682030DD
:104C7000007BC00703D0002002E00120E6E71020FF
:104C80003A46002180301B9B00F06CFA19E0119A23
:104C90000F9800990290039B03A80EC014980090EF
:104CA00006999D48019100682030007BC00701D023
:104CB000002000E010203A46002180301B9B00F0CD
:104CC000A1FA94492298C91E88423BD01B9801281A
:104CD00038D1914800682030007BC00701D0002007
:104CE00000E01020A121084300902298C0B2059056
:104CF0000098C00605D500980E22BF2108400090FC
:104D00000BE0814835210068095C89061AD54030DE
:104D10000078800716D500980C224007C10E7F4806
:104D200002230068081800690099FFF7C3F9010021
:104D300008D000230B71059A4A71CF800B7200983E
:104D4000FFF70EFA28788006C50F00F09FFA0028BA
:104D500004D0002D02D02498002802D123980028E6
:104D600000D001202146E0318876A12005910090F5
:104D700065488D7E00683521095C890612D5403072
:104D8000007800070ED565481C22006801234069A1
:104D90000099FFF78FF9010004D08F808D71009882
:104DA000FFF7DEF903210F9889024843E065119867
:104DB0000125000320660020E0870F994902A164C5
:104DC0002585B08430777077A6210855B1680860D2
:104DD000716808600D9948737D2040046066A06684
:104DE0001A98C046C046204600F05EFA1A98FFF7AF
:104DF000FDF8FF300130C5701620FEF78DFE20460D
:104E0000FDF77EFC2046143007460190FDF778FC44
:104E10002046FDF780FC3846FDF77DFC2046FDF777
:104E20008AFC3846FDF787FC3846FDF78AFC384691
:104E3000FDF793FC3846FDF78AFC3846FDF775FC14
:104E4000214628312046826881602F4D28688030B5
:104E500001693846891C82688160214608460268DB
:104E6000016039460846026801600022012196204F
:104E7000FDF7A9FB01463846FDF790FC00221146DC
:104E80009420FDF7A0FB01462046FDF787FC204655
:104E9000FDF778FC3846FDF775FC20461C99C046A6
:104EA000C04638461C99C046C0463846FDF765FCEA
:104EB0003846FDF77BFC2046FDF778FC1B9807275A
:104EC000002810D00198FDF77DFC0198FDF75FFCEC
:104ED0000198FDF725FC0D490A9848430C9945189F
:104EE0000A9860862AE02046FDF751FC2046FDF72F
:104EF00017FC0020C046012812D0012040071CD515
:104F0000FF2591351AE00000AC040020E204000007
:104F1000FF0E0000FFFF0000940400209804002012
:104F200028680E228030C069FF308130006F4169EF
:104F30001A985043C01D085CE0E7FA250D98C77326
:104F40002046FDF710FC0198FDF70DFC2046FDF70B
:104F50003FFC0198FDF720FC756429460198FDF798
:104F600041FC0020C04601282ED00020C046012868
:104F70002AD01F211C98FDF717FD13991C98FDF7E7
:104F8000EAFC00211C98FDF7C4FD12991C98FDF75E
:104F9000DBFC0598807E002818D013991A98FFF73B
:104FA000B5FB12981299000C484082B200211A9861
:104FB000FFF7FCFB074600211C98FDF700FD394672
:104FC0001C98FDF7A6FD09E0FF21D3E700211C98FE
:104FD000FDF79FFD0E991C98FDF7F1FC16991C98A2
:104FE000FDF7D6FC21461C98FDF775FD01991C982C
:104FF000FDF734FDE16CA06C814200D9E0640D98AE
:10500000007CFFF718FCE16C0A1AE2641B98002888
:1050100020D0022084460D98817BC07BB2641B9A0D
:10502000002A02D0FF355F35B5640E4A0C4B04925E
:10503000094F0A4D05AAA8C2236CA26C00920291E6
:105040000390019362462146B36C1C9800F046F928
:105050001DB0F0BD0520DDE7994D0510152D05109B
:105060003D2E0510BD410410F8B504462030017CEA
:10507000FFF740FB054600263746084600F048F992
:10508000002807D08179042900D10126C07904289D
:1050900000D101270020C046FF21A9224931120179
:1050A000803401280FD1288B1B2808D1002E03D073
:1050B000E88B904203D106E0A88B884203D0206899
:1050C0002023184320601B202085A085002E0DD0B2
:1050D0001346E385002F00D0114621866085608647
:1050E000A386E88CE08621876387F8BD0B46F0E74E
:1050F00010B5FEF77BFF044920300968407F497AEC
:10510000FDF7FBFC10BD0000AC040020042807D014
:10511000012809D00748414307480818000A70478A
:10512000064841430648F8E7FF20A43041430548BC
:10513000F3E7000047030000C6200000381A000013
:10514000E9260100061200001FB5054C40071ECCE1
:1051500003946C460EC4000F6946085A04B010BD93
:105160005C4B0510FFB5064681B01746C00603D557
:105170000A22BF2006400CE0204800682030417D14
:10518000890602D5C07F800702D4002005B0F0BD9B
:1051900008221B4970070968C00E401800690823DF
:1051A0003146FEF787FF040026D002982071E78081
:1051B000049820720A9860722046251D06220A3043
:1051C0000B99FEF751FE284606220C300C99FEF78B
:1051D0004BFE2846062212300D99FEF745FE0E982A
:1051E00028830F9868831098A8831198A877214680
:1051F0003046FEF7B5FFC8E70720C7E7AC0400203C
:1052000098040020FFB5064681B01F46C00603D5AE
:105210000522BF20064009E01A4800682030417D81
:10522000890629D5807FC00726D00322164970073A
:105230000968C00E4018006905233146FEF73AFFA1
:1052400004001CD0029820710398E08027720A980D
:1052500060722046251D06220A300B99FEF704FED7
:105260000C98A8810D98E8810E9828820F98A87450
:1052700021463046FEF774FF002005B0F0BD072040
:10528000FBE70000AC0400209804002010B500F0FB
:1052900055F8FF30E130407D10BD10B54A880888D0
:1052A0001146C046C04610BD10B5828E816C0A32D0
:1052B00051430901090C084A4B1D934200D31A4679
:1052C0000346C0339A87D987FF300121013001702E
:1052D0001420FEF721FC10BDB80B0000F8B51C46E9
:1052E00015460E460C9FFEF751FFC66007990160F8
:1052F000069944608160C574089941750999817562
:105300000A99C1610B99476201620D998162F8BDEA
:1053100010B504460020C046012801D0002010BD71
:1053200005480E2100684C438030C069FF30813051
:10533000006F4069001910BDAC04002002480068ED
:105340008030C06970470000AC040020FFB585B014
:105350001C461646FF270699059800F0EDFA05460B
:10536000052E7DD00598FEF7E7FB014620460B3061
:105370003A1D0C230090002902D0012E71D03DE18E
:105380002E462036307A012816D0022821D0032854
:1053900022D0042836D0052839D006283BD007284B
:1053A0007ED008287DD009287CD00A287BD00B2805
:1053B0007AD00C2879D06CE222800A20A0700122D9
:1053C0001146059800F0C1FA059800F0D3FA0220C2
:1053D000D7E00320307282E1A0780B2840D104206E
:1053E00030720221059800F0CEFA0121059800F0F4
:1053F000DDFA00220121059800F0A7FA059800F0D7
:10540000E0FA46E222800B20A0700520B9E00620D9
:105410003072012143E2002000F0DDFA009000200C
:1054200000F0D9FA019068460390002000F0D3FA0A
:10543000029002A80490FA48208028463030A41C2C
:1054400000F0D4FA0002C01C20602846333000F07F
:10545000D5FA694660600878E98D0006090201E026
:10546000B8E1C3E00843F17D0843A0600398401C05
:1054700000F0C4FAE0600398401D00F0B7FA6946F6
:10548000097A0906084320610498401C00F0AEFA2E
:10549000606108222946684600F0C2FA042205E04D
:1054A0000DE010E044E064E06DE06EE0314602A8FB
:1054B00000F0B6FA072001223072114668E1082098
:1054C00030720427E5E1A178042906D00D291FD008
:1054D00011291DD007291BD0D7E1092131720822DB
:1054E000A918E01C00F09CFA2946042224310098F7
:1054F00000F096FA2946059800F0AEFA0022012144
:10550000059800F022FA059800F05BFA0527C0E143
:10551000059800F0A8FA0246C24800682030007BD7
:10552000C00701D0002000E0102000231A211CE059
:10553000A078052804D00D2808D0112806D0A4E1B1
:105540000121059800F032FA0A201AE0059800F0CF
:105550008AFA0246B34800682030007BC00701D0B9
:10556000002000E0102000230621803000F080FAA7
:105570002FE022800620A0700221059800F0A4FAF6
:105580000B20307285E133727AE1A0780628A3D12E
:1055900000203072307B012805980AD000F063FAB1
:1055A0000246A04800682030007BC0071AD00020C7
:1055B00019E000F058FA02469A4800682030007B53
:1055C000C00701D0002000E010200021803000F052
:1055D00095FA059800F0BCFA059800F0C2FA01228D
:1055E0001146A0E1102001230021BEE7A078032886
:1055F00001D00A2802D10020292148552E46203604
:105600002146707A0D31029108310191002818D09D
:1056100001284CD002285CD0032862D0042867D02F
:1056200005287DD006287CD007287BD00C287AD08E
:10563000082879D0092878D00A2877D00B2876D086
:1056400027E100221146059800F07FF9059800F047
:10565000B8F90021059800F0A9F900210598FEF796
:1056600031FB012820D005207072294608223031F4
:10567000E01C00F0D5F9294602222E31009800F0F6
:10568000CFF908222946029800F0CAF904223146CF
:10569000019800F0C5F9002030730023012219465B
:1056A000059800F068FAF4E001207072F4E72280B7
:1056B0000B20A0700220707201220021059800F0DA
:1056C00044F9059800F056F90021059800F05BF9BF
:1056D000DFE0032070720121059800F054F90B27D8
:1056E000D7E0A0780B2875D1042070720327D0E092
:1056F000A07803286ED10521717229460822303125
:10570000E01C00F08DF9294602222E31009800F0AD
:1057100087F908222946029800F082F9042207E05E
:105720000BE03CE084E09BE0A8E0ABE0BBE0C7E03E
:105730003146019800F074F9B0E0002000F04BF918
:105740000190002000F047F90290002000F043F99A
:105750000390032020700D2060700420A0700822A8
:10576000E11C01A800F05CF9042203A8009900F0F4
:1057700057F90822A91801A800F052F92946042275
:10578000243103A800F04CF9062001227072002198
:10579000059800F0DAF8059800F0ECF879E00720B9
:1057A0007072204800682030007BC00701D00024C0
:1057B00000E010248034059800F055F90290284646
:1057C00030300190E88D0090E00604D50722BF201C
:1057D00004400AE059E0144800682030417D890601
:1057E00057D5807FC00654D5052210496007096847
:1057F000C00E4018006903232146FEF75BFC05003C
:1058000047D00298A8802E1D0822A81D0199FEF7F6
:105810002BFB0098708129462046FEF7A1FC38E05A
:105820000317000094040020AC040020980400201A
:10583000F07A012807D03E4820800D20A070062075
:10584000E070737225E022800520A070294605983B
:1058500000F002F90021059800F036F908200BE06D
:10586000059800F075F9059800F07BF901220021F8
:10587000059800F098F9002070720AE00920707213
:10588000062706E0A078062806D03D21059800F0FE
:10589000A3F9384609B0F0BD0A20707200210598BE
:1058A00000F084F8F5E722800620A0700B207072CB
:1058B0000121059800F008F9059800F09FF9E8E744
:1058C00000207072307B012805980AD000F0CBF8D8
:1058D0000246184800682030007BC00712D0002024
:1058E00011E000F0C0F80246124800682030007B4A
:1058F000C00701D0002000E010200021803000F01F
:10590000FDF805E0102001230021803000F0B0F800
:10591000059800F01DF9059800F023F9059800F0AE
:1059200075F906990122059800F03DF9B1E70000EC
:10593000030200009404002010B50C46FEF756FB4D
:10594000A10008188030406910BD10B51446FEF75C
:105950009BFE002C08D0012C09D0022C03D1017829
:1059600008221143017010BD01780222F9E7017885
:105970000422F6E710B50121FEF792F90188802292
:105980001143018010BD10B50C460121FEF788F9C6
:105990004023002C07D020220188012C00D019437D
:1059A0001143018010BD01881943FAE710B5FEF7D5
:1059B0006BFE01781022114301701620FEF7ACF83F
:1059C00010BD10B50121FEF76BF90188FF220132ED
:1059D0001143018010BD70B5054600F01FF9044663
:1059E000284600F01BF90004201870BD01784278A9
:1059F000807812020004104308437047017842780F
:105A000013028278C078120400061043184308433A
:105A1000704710B54A8808781146C046C04610BD88
:105A200010B4002A0CD00B4CA2420BD80123012A3F
:105A300006DB04780C70401C491C5B1C9342F8DDAB
:105A400010BC704703780B70401C491C521EF9D1E2
:105A500010BC7047FFFFFF7F00B50B46FEF7C6FA8C
:105A60008030036100BD00B5FEF7C0FAC08E00BDF6
:105A7000F8B504461D4616460F46C00603D5032258
:105A8000BF20044006E00E4800682030807BC0093B
:105A900013D001220B4960070968C00E4018006945
:105AA00002232146FEF706FB010007D00F71CE80CE
:105AB0000D722046FEF754FB0020F8BD0720F8BD0C
:105AC000AC0400209804002010B50C460121FEF71C
:105AD000E7F81023002C07D008220188012C00D001
