:020000041004E6
:10000000000001208DB30510E1980510ED98051052
:10001000AA5555AA45554C420000000000000000BA
:10002000000000000000000000000000F99805102A
:10003000000000000000000057770410FB98051036
:10004000C7780410CB8304106B8B041057920410F4
:1000500087920410EF9604107B9B04104B9F0410B2
:10006000FD9805105FA60410C3AA0410B3C50410C0
:1000700047C9041029BB04108BCC04100799051044
:100080009BD90410059905102D99051067DA041005
:1000900019990510F7DD0410AFE604101199051049
:1000A0000999051067E80410000000000000000036
:1000B0000000000000000000000000000000000040
:1000C000FEB51C00089FAA4D6B465870684601702B
:1000D00016001CE00422A9192C3101A801F01CF91A
:1000E000002F0FD101A8C07869464978884209D10C
:1000F0006846007806280FD06846007801A98978FC
:10010000884209D0684680883618B6B20027688DC4
:100110008642DFD10020FEBD002C00D026800120C9
:10012000FEBDF8B584B004000F001600904D607B52
:10013000002802D12A8D002300E0E289009301AB60
:1001400001212078FFF7BCFF002801D1042019E02D
:100150000120607368468088E081684680882C189A
:10016000062221002C3102A801F0D6F820003230FE
:10017000386068460089801F308002A800790A999B
:100180000870002005B0F0BD7CB5794D298D6A4618
:1001900091800021060019E0684680882C1804220E
:1001A00021002C31684601F0B7F800F080FC694668
:1001B0000988421A61182C3120002C3001F0F8F81F
:1001C000688D69460988401A68850121009101AB54
:1001D0006846828806213000FFF772FF0028DBD1D5
:1001E00073BDBD4A514380081B2242438818253005
:1001F000704770B506000D00EFF310840DE0012389
:1002000032780021B54801F0FDF884F31088307889
:10021000401C30702878401E2870287800280BD0A9
:1002200001210020FFF7DDFF72B601F011F900286F
:10023000E5D184F31088072070BD01680022028197
:10024000428182730B78FF2B05D0FE2B09D10389E5
:100250005B1C03810AE04268511A091F818100205A
:100260007047002B0DD143895B1C43814A88D21C07
:10027000032313435B1CC9184A1D43689A42E1D308
:10028000EDE703207047FCB585B00D9F427B002A47
:100290001BD10C9A130005D002AB5A80FE221A70B3
:1002A00002AD00E04568426883689A4215D26A460A
:1002B00091712978FF292E4E01D10EE020000021F6
:1002C000027B002A12D001731EE000970123069AD8
:1002D0000599FFF726FF002847D0042045E00320BA
:1002E00043E06A786B469B799A4216D042686B88E5
:1002F000DB1C03241C43641C15194560826895426D
:10030000E3D22A78FF2AE0D02A78002AEED0FE2A0B
:10031000E5D16A469279FF2AE3D1328D6B469A8005
:1003200004000CE008226846808831182C3103A8AC
:1003300000F0F2FF049861688842BFD0012100916B
:1003400001AB6846828802212078FFF7B9FE0028B9
:10035000E8D16068001D05990860688806990880E2
:10036000002F01D068783870002007B0F0BD000081
:10037000C40A00207FB515001C00099E00223280AF
:100380000B9A01926A46128D009202AB03AAFFF704
:100390007AFF010013D1694609898D4201D30620F5
:1003A0000DE0089A481B904200DA020020000399F1
:1003B000491900F0B1FF684600893080002004B080
:1003C00070BDFEB5A24D0D40491B6B46197000244F
:1003D000070016000AE00422311901A800F09CFF72
:1003E000019A39193D4800F0FBFF241DAC42F2DBB5
:1003F0000020C043019068460278711901A800F0FE
:100400008BFF019A7919354800F0EAFFF7BDF6B580
:1004100085B00E001C0025000027FF43417B00290A
:1004200018D000210091002301AA921C02A9FFF715
:1004300078FE00283AD16846C088801B80B2A0426E
:1004400046D32A0002988119069801F09DF80028E9
:100450003FD03DE0416802918268914202D2097822
:10046000FF2901D1042034E0027B002A1ED1FE299D
:100470001CD17849098D6A469180040001200090C2
:1004800001AB6846828802212078FFF719FE002818
:100490000ED008226F486946898841182C3103A87C
:1004A00000F03AFF049861688842E7D1052010E027
:1004B000029949888E4201D306200AE020732A005F
:1004C0006068001D8119069801F05EF8002800D0D0
:1004D000380007B0F0BD00003423000000100040D9
:1004E000FFB585B000270E9A178069460C8C417BBA
:1004F000002919D0009700230E9A01A9FFF711FED9
:10050000002846D10E9800886946098B421A684631
:10051000008C824200DB220001986946098B411859
:10052000079800F0F9FE50E00F990A0005D002AAE2
:100530005180FE21117002AD00E04568416882687B
:10054000914202D22978FF2901D104203EE0027BAA
:10055000002A1ED1FE291CD13E49098D6A46918090
:1005600006000120009001AB6846828802213078A5
:10057000FFF7A6FD00280ED0082236486946898874
:1005800041182C3103A800F0C7FE04987168884216
:10059000E7D105201AE06846008B6988884201D3BC
:1005A000062013E037736846008B69880A1A69468B
:1005B000098C8A4200DB22007168091D091807981E
:1005C00000F0AAFE68880E990880002009B0F0BDEE
:1005D00038B5050000210420FFF703FEEFF3108477
:1005E00072B600F035FF002803D184F3108807208D
:1005F00032BD2900FF22D243A84800F0F1FE84F367
:100600001088002032BDF8B507000E00150000F07C
:10061000BBFF00281BD0681EA1490143491C4B03A6
:100620001B0EA0483818C20A00219C4800F0EAFEC0
:1006300000240AE06010800F0019801080003258FA
:100640003919964800F0CCFE241DAC42F2D3F1BD1E
:10065000FCFF0000C40A002001210170002141803C
:1006600081807047F8B58AB005000E0017001C00A5
:1006700000200090FF223900300000F0A3FFFE2090
:1006800069460876099508960794109D009C06AE69
:100690001AE06846008A6988401A401E0324044311
:1006A000641CA4B268886946098A091A4A1E032193
:1006B0001143491C89B2059A8A4244DB01209142C8
:1006C000287049D000206880381B001F80B2059038
:1006D0002878002828D0701C0390A888029004A8CD
:1006E0000190059880B200900898001D031900221F
:1006F000FF210998FFF73EFE6946098AA98001009B
:100700000ED16846008A7080042206A90898001954
:1007100000F002FE7088C01C032101436418BFE78B
:1007200007990C800BB0F0BDA888019004A8009038
:10073000059883B20898021969880998FFF7D0FED6
:100740000100A6D0EEE700212970059940186880C5
:10075000079807800020E5E70020F8E7F1B58C480E
:1007600085440027CB488421090169440978142273
:100770005143411801914989002901D100208AE0A3
:1007800000970023028D0621842000016844007830
:10079000FFF796FC002801D009207CE0202000F023
:1007A0008CF9002801D1082075E006A984200001F9
:1007B0006844007800F01AFB079C04A8FFF74CFF80
:1007C000EFF3108604A803C80AAA03C20CA806A95E
:1007D000102200F087FD04A8009003AB80221201D4
:1007E00010A906A8FFF73EFF0500042D08D0002D34
:1007F00051D168468089802109018842E2D103E015
:1008000068468089002816D0012168468089FFF754
:10081000E8FC72B600F01CFE002829D068468289E8
:1008200010A92000FFF7EFFE86F310880127F802D9
:100830002418002DC6D00898401E19490143491CB0
:10084000081BC00A6946487016482018C00A08707C
:10085000491C6846FFF7CDFC072819D16846427845
:100860000178842000016844007800F0B1F912E0BA
:1008700086F31088002F01D107200CE00AA803C8D6
:100880000190029100940CA80FC800F072F902E0E8
:100890000198FFF7D2FCCC498D44F0BD0010004018
:1008A000FF0700000000FCEFF8B5C84CA544802706
:1008B0003F010500EFF3108602A829001831062237
:1008C00000F02AFD04A8291D102200F00BFD2800CD
:1008D0001830009001AB3A0008A9281DFFF7C2FEAE
:1008E000040068468088B84205D0002CE4D06846F1
:1008F0008088002816D0002168468088FFF771FCA8
:1009000072B600F0A5FD002829D06846828808A9A3
:100910006869FFF778FE86F310886869C019686116
:10092000002CC9D0E868401E791E0143491C686943
:10093000081AC00A694648706869B4494018C00A74
:1009400069460870491C6846FFF753FC072815D113
:10095000684642780178287900F03AF915E086F384
:100960001088281D04A9102200F0BCFC28001830B3
:1009700002A9062200F0D0FC072006E045482979AC
:10098000142251434018FFF758FCC6498D44F0BD6E
:10099000C0F7FFFFF8B58D4CA54400216A46917160
:1009A000002400253B4F060000E06D1C3079854295
:1009B00016DAB0680C216943405C010014225143EF
:1009C00079184989002900D00124002100910023D1
:1009D0003A8D0621FFF774FB0028E6D0092055E088
:1009E0003500002C24D080273F013A00FF2108A8C1
:1009F00000F011FE00240DE002A8FFF72DFE02A872
:100A0000009001ABBA1B92B208A8811904A8FFF7A5
:100A100029FE641C287984420CDAA8680C226243FF
:100A2000011D8E5804A9805C00F0E0F90028E3D095
:100A300000202BE001213800FFF7D3FBEFF31086F5
:100A400072B600F005FD002803D186F31088072058
:100A50001CE03A0008A92868FFF7D5FD86F3108846
:100A600000260C4F684684790CE0A8680C2171437D
:100A7000405C142148433818FFF7DFFB010000D029
:100A80000400761C28798642EFDB200085498D44DE
:100A9000F0BD0000C40A0020C1498A79824201D118
:100AA00002207047897C8142FAD000207047CE48EE
:100AB000418D008D081A80B2704770B50400FFF7B1
:100AC000F6FF050080204000411BA14201DA002012
:100AD00070BDC54E718D401AA0420BDA2A0030005D
:100AE0002C30318D411830002C3000F061FC00209A
:100AF00030857585012070BD70B50C00BA4D6E8DC6
:100B000080214900891B2200914201DA002070BD3A
:100B10000100A8192C3000F0FFFB30196885012076
:100B200070BDFEB504000D00099F581E032101434E
:100B3000491C684601800088C619B61DB0B2FFF78F
:100B4000BCFF002801D10820FEBD01A80121817051
:100B50000680C47005710621FFF7CEFF6846018844
:100B60000898FFF7C9FF39000A98FFF7C5FF002072
:100B7000FEBD1FB588B02020FFF79FFF002801D1E0
:100B800008201EE00E9C6846202101800321817010
:100B9000001D08A9102200F0A5FB05946846183036
:100BA0000FA9062200F0B8FB20216846FFF7A4FF3A
:100BB00001208D4908AA127814235A438918887392
:100BC00000200CB010BD000044080000E0F7FFFF5B
:100BD0007CB504000D0016000620FFF76EFF00280C
:100BE00001D1082076BD684606210180042181706C
:100BF000C470057146710621FFF77EFF01207A4916
:100C00001422544309198873002076BD0000FCEFBC
:100C1000F8B5944CA54407000D0080221201FF2175
:100C200008A800F0F8FC00241BE00C266643A86826
:100C3000805DB84214D004A900F0D8F8A8688019E3
:100C4000466802A8FFF708FD02A8009001AB8020CB
:100C50000001821B92B208A8811904A8FFF702FDC7
:100C6000641C28798442E0DB2E0080252D010121BF
:100C70002800FFF7B6FAEFF3108472B600F0E8FB35
:100C8000002803D184F31088072007E02A0008A970
:100C90003068FFF7B8FC84F31088002001498D44C8
:100CA000F0BD000024080000FBB582B003236E49AC
:100CB0005218032515436D1C0CE03778FF2F17D011
:100CC000FE2F01D0002F2BD17288D21C1A43521C48
:100CD000B218426082684668741D9442EDD342495E
:100CE0000078142250430818408900281AD015E0D3
:100CF0000190901B884200D308003B4C80B2A9B2FF
:100D00006A46128D8918091D88420DDA019800780B
:100D10001421484320184089002803D00B203DE0CF
:100D200003203BE0022039E06846007BFE216A4652
:100D30001170694648706846008D28184880002167
:100D4000001D80B2FFF74DFAEFF3108772B600F086
:100D50007FFB002803D187F3108807201EE0009A4C
:100D600031007C4800F03CFB049AA9B2301DFFF72B
:100D700028FB0B9A6846018DADB27019001DFFF774
:100D800020FB87F31088200008300199097814228D
:100D9000514340180188491C0180002005B0F0BD76
:100DA00038B1051010B500249B480C21614341184F
:100DB0008A79694814235343C0180368002B11D162
:100DC000012A0FDC0A6802608B88D2184260098908
:100DD0000182FFF732FA010005D1641C012CE3DD2A
:100DE000002010BD012010BDC40A002010B5020073
:100DF000022A01DB012010BD574B142462439A18CC
:100E000013684B6052688A6001220A7308700020E0
:100E1000487310BD7FB5504C05781426754364198E
:100E2000A47B002C01D00A2008E003940294099CC2
:100E300001946C46248C0094FFF79CFA04B070BDBA
:100E40007CB5454C0578142675436419A47B002CA9
:100E500001D00A2076BD0194069C0094FFF740FB68
:100E600076BD0000E0F7FFFFFFFF0000F0B585B0A2
:100E7000060030786C462071374D6846007914249E
:100E800060432818847B002C01D0092041E0521EC9
:100E900003241443641C8789BC46A7B26A46128D9A
:100EA000BA18944506DA4089002801D00B2030E0BA
:100EB00002202EE06846017304930B9F00200090EF
:100EC00000232A8D062168460079FFF7F9F80028EB
:100ED00021D002976846008D019004980090A3B23B
:100EE00072686846017B3078FFF71BFE010010D165
:100EF00028000C30317814225143401801886A468A
:100F0000128DA218521E03231343C91A491F0180D0
:100F1000002005B0F0BD01976846008D0090049B4D
:100F2000A2B26846017B3000FFF7BEFE0100DFD0B1
:100F30000728EED102976846008D01900498009032
:100F4000A3B272686846017B3078FFF7EAFD0100C2
:100F5000CED0DEE700100040C40A0020FEB5050038
:100F6000694E30000E30297814225143405C00282D
:100F700001D00920FEBD0024687B002810D0E8893C
:100F80003518062229002C31684600F0C5F968465C
:100F900084700622694628002C3000F0BDF938E044
:100FA0006868A96888421DD20178FF291AD0FE29F5
:100FB00016D1FFF70DFB010001D015D129E030005B
:100FC000083029781422514340180188491E0180B5
:100FD00028781421484330184189491C418118E080
:100FE0000520FEBD0420FEBD072813D16F682D78B3
:100FF00008260820FFF761FD002801D10820FEBD6A
:101000006846068002218170C57001970821FFF7AC
:1010100073FD0020FEBD000038B10510F0B585B0AD
:101020000400394F1421484338180290807B00286F
:1010300001D0092066E001A92000FFF72DFD02285C
:1010400025D102980068A3494118C90A6A4651701F
:1010500002994968491EA04A0A43521C101AC00A44
:10106000694608702000FFF78FF8694600A8401C09
:10107000FFF7BFF8072806D16846027841782000BC
:10108000FFF7A6FD3EE00298FFF7D7F835E001280C
:1010900037D101992000FFF7BBFD060013D10024D2
:1010A0000198007984422ADA019880680C21614312
:1010B000455C2800FFF768F8142045437819FFF7CE
:1010C000BCF8641CECE7072E19D1019F0826082004
:1010D000FFF7F3FC002801D1082013E02000FFF700
:1010E00053F803A8068005218170C4700497082175
:1010F000FFF702FD012002998873002002E0300012
:1011000000E0012005B0F0BDC40A00201CB50400B9
:101110006946FFF7C1FC022803D12000FFF71EFB40
:1011200016BD012803D10098FFF734FC16BD01203D
:1011300016BDF0B58BB00027684C208D618D8842BC
:1011400038D02518042229002C3102A800F0E4F838
:1011500002A88078012808D006D3032869D051D38B
:10116000052800D190E071D3B2E0062229002C318D
:1011700003A800F0D1F805A903A8C078FFF736FE50
:1011800001970097208D2318323368468089821F8B
:1011900092B203A8017905A8FFF786FD050053D197
:1011A000208D6946098940182085618D80B288426A
:1011B000C3D1A7624A4800214156C8B21422424313
:1011C000A2185389002B03D09389128A934213D318
:1011D000401CC0B2022800D100208842EED100217C
:1011E0000020C0433E4A1170010602D4C0B2FFF78E
:1011F0008DFF00200BB0F0BD411C4AB2022AF1D194
:101200000021EFE7082229002C31684600F084F81D
:101210000198FFF7DDF9050016D16846C078142162
:10122000484320180189491E01814189491C418197
:10123000B6E7202229002C3103A800F06DF803A89E
:10124000FFF732FB0500ABD02800D3E706222900C8
:101250002C31684600F060F86846411D001DFEF71D
:10126000C8FF05000622694620002C30238DC018D7
:1012700000F052F8002DE7D16846C07814214843A9
:101280002018FEF7DAFF8BE7082229002C31684688
:1012900000F042F801996846C078FFF7B9FC0500F4
:1012A000D2D10025019801798D42ECDA80680C21B9
:1012B0006943465C30006946C978884201D0FEF730
:1012C00063FF14204643A019FEF7B7FF6D1CE9E742
:1012D0000C208FE70000FCEFFF070000C40A00208D
:1012E000FF0D002070B4103A03D378C9103A78C0CB
:1012F000FBD2530701D318C918C001D508C908C0CB
:10130000D20704D30B880380891C801C002A01D5D6
:101310000B78037070BC70478B0701D18307E1D055
:10132000124205D00B78491C0370401C521EF9D1A3
:101330007047F1B4016842184168480813180098D2
:101340008068C9071ED5494640181BE01778521C13
:101350000770401C761EF9D1002C13D01678521C51
:1013600089080D40032D01D11578521C29027118EE
:101370004D424119A41C05D00D78491C0570401C34
:10138000641EF9D19A420FD01178521C032503260E
:101390000E4002D11678F61C521C0C090F2CD9D124
:1013A00014780F34521CD5E700980C30F2BC70470B
:1013B000814202D25318984203D300B5FFF7ACFF25
:1013C00000BD521E03D38B5C8354521EFBD2704768
:1013D00000690840884201D1012070470020704711
:1013E00010B50F2303618903090C81610264332165
:1013F000FFE70160040001212000FFF7E9FF012859
:10140000F9D110BDF8B505000F26FF2909D12E61CD
:101410002220286001212800FFF7DAFF0128F9D1F6
:10142000F1BD17003C00009306E001212800FFF702
:10143000CFFF0128F9D1641C009838188442EFD2FC
:101440002E61E0028003000CA86111202860ECE707
:1014500058B5040000F033FB0600684600F0E6FCD7
:10146000002803D00098801B844201DA012052BD7D
:10147000002052BD10B5FFF795FC424C211D002005
:10148000FFF7B4FC210014310120FFF7AFFC201D51
:10149000206010BD3EB53B4C022802D1250014351A
:1014A00000E0251D256001936B461B8B00930B000C
:1014B00001002068FFF7DAFC002805D0022801D1DE
:1014C000002000E00120C0433EBDF8B584B00E000E
:1014D00019002C4C022E03D125001435012301E004
:1014E000251D00230700256028466D466A8103916B
:1014F0000A9D022F08D102A900912B00039A694688
:101500004989FFF79DFC0FE0002F03D1010018006F
:10151000FFF76CFC02A801900095039B6846428986
:1015200031002068FFF776FC010001D1002005E0C2
:10153000042801D1022000E00120C04305B0F0BD25
:1015400010B5140023000A0001000E480068FEF7E1
:101550005EFF002804D001D5200010BD0220C0434A
:1015600010BD80B5022807D10649086814318842A9
:1015700007D0FFF7F3FC01BD032802D10020FFF7DD
:101580004DFD01BD8C0D0020A446521E08D30378EA
:101590000C78401C491CA342F7D0181B64467047C6
:1015A00000206446704710B5044608464978007824
:1015B000C046C0460C20E070A078BF210840A07053
:1015C000842010BD1206130A1A43130C1A4300BFDD
:1015D000094205D0830707D00270401C491EF9D18B
:1015E000704700000022FFE71300103906D330B423
:1015F0001400150010393CC0FCD230BC490700D3A0
:101600000CC000D504C0890002D30280801C0029D0
:1016100000D50270704710B50400080011000200E8
:101620002000FFF7CFFF200010BD38B5C81D009087
:101630008C788B798A8808882146C046C04638BD98
:10164000010005D40121C006C00E8140AC480160F4
:101650007047F3B589B000250D700998807A00288D
:101660005CD0A84803C8A84A1268002312184B414E
:1016700006A80CC0EFF31080029072B600F04FFD88
:1016800002000B00099803C804AC03C4012404A899
:1016900003C80090019106A803C8C826B602002717
:1016A00036184F4100980199B9420ED301D8B04283
:1016B0000BD306A803C8B9267600002736184F4179
:1016C0009F4226D801D3964223D200200A324341BA
:1016D00004A803C800264C38B1418B4211D801D36D
:1016E00082420ED20998027AC37A04A803C819006C
:1016F00000F0C2FD0A990870099885720998447231
:1017000009E098488572029880F310880A9804705E
:1017100004E07D484476029880F310880BB0F0BD59
:1017200080B500F09DFC01209D49087101BDF3B515
:1017300087B004460020087000E02469002C5DD0CA
:10174000207B0028F9D0EFF31080019072B60020C2
:1017500069460870491C8348FFF77BFF00F0DFFCF7
:1017600002000B0003CC083C0F00861A9F4104AA1C
:10177000C0C2012504AA0CCA002B34DB01DC012AFB
:1017800031D3784A0CCA02AE0CC602AAC0CA5E4A5D
:10179000926B002312184B419F4210D801D39642FE
:1017A0000DD2704A527A002A09D002AA0CCA8B4282
:1017B00007D301D8824204D35348057601E0684636
:1017C0000570694604A80CC8100000F017FD6846B3
:1017D0000078012809D16348817A427A0A438272EB
:1017E0000021417201E008980570019880F310888B
:1017F00008980078002801D0079800E0200009B080
:10180000F0BDFEB500256C462570017B002901D096
:101810000120FEBD0CC0083801210173604CA66890
:101820000196070001E035003669002E08D00CCE85
:10183000083E03CF083F8B42F5D301D88242F2D352
:1018400038000661002D01D1019000E02861019966
:10185000814213D16946FFF76AFFA06068460078AD
:1018600000280BD0EFF3108072B6217D4A1C637DF7
:101870009A4200D0491C217580F310886846007890
:10188000FEBD10B5204C002808D0207B00280BD1CD
:1018900020002030FFF744FF012004E0200020302A
:1018A00000F0D8F80020207310BDFEB500F06EFCEB
:1018B0002C4D00246C72AC72EFF3108672B600F0FF
:1018C0002EFC6A4603C200F088FC07000CCD684677
:1018D00003C8121A8B410021D21B8B4186F310885A
:1018E00004DC01DB012A01D20120FEBD002B04DC57
:1018F00001DB0F2A01D20220FEBD0020FEBD000048
:1019000000E100E0B00D0020880C002080B56946A1
:101910001448FFF79EFE2248017E002903D00021D3
:10192000017600F008F89B48016801220A43026032
:101930000068009001BD18B5194900200876964846
:101940000268964B134003600A7D531C4C7DA342F2
:1019500000D0521C0A75C16901220A43C261C069E4
:10196000009011BDC80D00205D480168022900D11A
:1019700070471CB50068032810D0094C6946A06860
:10198000FFF7D5FEA06068460078012806D1207DCB
:10199000411C627D914200D0401C207513BD0000A7
:1019A000880C002010B5FFF72CFF04000120FFF782
:1019B00068FFE0B210BDFEB5030000246846047263
:1019C000774EF1723272774803C81A1A0023121840
:1019D0004B410CC6083E74720127B77200F09FFBA2
:1019E000714DAA680CCA8B4215D301D8824212D31A
:1019F00003CE083E00900191A86B00218018594148
:101A0000009A019B8B4206D301D8824203D3A86877
:101A1000007B002811D102A93000FFF71AFEAC6844
:101A20000CCE03CC083C8B420ED301D882420BD3A0
:101A3000207B002808D02F7606E05C480178490614
:101A4000490E01708474C4740120FFF71AFF6846C0
:101A5000007AFEBD7CB50300534CA268150000213E
:101A60000026100001E02E002D69002D09D09D42B6
:101A7000F9D101932B69954201D1180002E033613D
:101A800000E001936D462970019B1973824214D0C6
:101A90006946FFF74CFEA0606846007800280DD02C
:101AA000EFF3108072B6217D4A1C637D9A4200D00C
:101AB000491C217580F3108873BDA06073BD80B58B
:101AC00000F02DFB04BD00B5801A99410A220023C5
:101AD00000F086FC000B0A051043090B00BD000056
:101AE0000C000060F8B5050000F040FC8D480126B0
:101AF0004168314341600168314301601820FFF7BC
:101B00009FFD2888C92800DAC820274CA06314202C
:101B1000FFF796FD6846A97881706968C1702988C9
:101B2000018000F03EFA1F4800F01CFB0027A76070
:101B300026731B4A002050729072002103C228882D
:101B40002061A782686800030A2100F07BFC206006
:101B50002771AF4D002804D1280000F020FC206040
:101B60000AE0280000F01BFC2168814203D3280012
:101B700000F015FC01002160A648A062676300F038
:101B8000CEFA2268002312184B4120002030FFF7C4
:101B900038FEF1BD4418006030180060FFFFFFBF41
:101BA000C80D0020B00D0020880C0020C4000020CB
:101BB000F8B584B0002469460C70EFF3108672B655
:101BC0009548407A00280CD000F0A9FA02000B00DA
:101BD000914D03CD083D994203D801D3904200D2E4
:101BE0006C7286F310884E4F22E0401C19E00469A5
:101BF000002101738168002900D088472000F6D1B8
:101C00006946B868FFF793FDB86068460078012818
:101C10000AD1EFF3108172B6387D421C7B7D9A4267
:101C2000E3D1387581F31088787D03994018787571
:101C3000787D397D0A1A02D2802040001218002ACD
:101C400028D00392BC68002602940194002502E08B
:101C5000260024696D1C002C0FD0207B0028F7D0B3
:101C600000F05DFA02000B0003CC083C801A994199
:101C70000029EDDB01DC0628EAD3002D03D000208B
:101C80003061029401E0002001900298B860019850
:101C90000028B4E7614E01243879002827D000F0ED
:101CA000EBF900283AD100253D7100F0F5F930003C
:101CB00000F058FA787E00280AD07D765648847263
:101CC0006946FFF7C6FC6946B868FFF730FDB860A3
:101CD00038002030FFF7BEFE00F021FA3A680023FA
:101CE00012184B4138002030FFF78BFD16E0307C96
:101CF000002813D000F013FA02AA03C203CEFA227E
:101D00005203002312184B4102A803C88B4205D886
:101D100001D3824202D200F0A3F93C7105B0F0BDBC
:101D2000880C002040180060FEB5040000F064F844
:101D3000002860D002A800F037FA3749497A002914
:101D400003D13549897A00291CD001283CD000F004
:101D5000E6F904000D0000F040FA02002E4803C826
:101D6000002312196B412E4C24690025A4185D41F3
:101D700000221E345541A94226D301D8A04223D3C4
:101D8000022403E002281FD001281DD0244DA8689A
:101D900000282FD0007B00282CD000F0C0F90600CE
:101DA0000F00AA6803CA083A00900191286900212F
:101DB0008019794100231E305941009E019F8F42B6
:101DC00004D801D3864201D20120FEBD032C10D1DC
:101DD000106900280DD128002030824209D100204E
:101DE000FFF74FFD0F4801680F4A0A4002600320C9
:101DF000FEBD02242000FEBD0948017D427D9142C6
:101E000004D10079401E8041C00F70470020704708
:101E1000FFEFFFFF21170410C80D0020B00D0020B8
:101E2000880C002030180060FFFFFFBF03490968DD
:101E3000CA680260087C000970470000E8040020BE
:101E40009148816801220A43826000210160704745
:101E500030B58E4B8C490A681A400C681C40A2426F
:101E6000F9D1002AF7D08A4B14125C43D5B25D43F6
:101E70002B12E31810335B1143628261854A4B6871
:101E800013404C681440A342F9D1002BF7D09911AC
:101E9000A74A5143803109120162C36130BD10B5B8
:101EA0000400FFF7CDFFAE480068C007FBD5200057
:101EB000FFF7CEFF10BD68214143090ADB225043E2
:101EC000000C0818704780B5FFF7F5FF61E238B5E0
:101ED00030C80838954A13680B60AB4A416AC06A3B
:101EE000181A00F011FB00210019694134BD70B5CA
:101EF0000500904C607A7D214843C90000F09FFAAC
:101F0000461CF6B2A64A296A1B2000F0FDFA207092
:101F10006078FFF7D8FF3D216854E0788019FFF71B
:101F2000D2FF3521685420798019FFF7CCFF362184
:101F300068546079FFF7C7FF37216854A079FFF72D
:101F4000C2FF3821685470BD38B504007748056871
:101F50008D4AA16A206B281A00F0D6FA21000831B8
:101F60000CC900218018594103C4083CE56225636F
:101F70002200083203C2606AA06231BD80B5884A7F
:101F800000F0C2FA8749884201DD080002E010280B
:101F900000DA1020924900118882888A92490860EC
:101FA00001BDF8B507008E4C388820618D4EB079A0
:101FB0007D214843C90000F042FA451CEDB2F87893
:101FC000002802D1B87800280DD08848C168C90718
:101FD000FBD5016817220A4302602000FFF75FFF6C
:101FE000606AA06209E0C8204003A0626062804885
:101FF00020628048A0618048E061F8783421605414
:10200000216A206980B2FFF7B9FF00203E216054A9
:10201000002103C4083C454A1268E26222632200A0
:10202000083203C22000FFF762FF30784019FFF743
:1020300042FF1B303921605470784019FFF73BFF95
:102040001B303A216054B078FFF735FF1B303B213D
:102050006054F078FFF72FFF1B303C216054F1BD36
:1020600084480078002806D00748816801220A4386
:10207000826000210160704739480068C107C90FBC
:10208000012048407047000008100060FFFF070073
:10209000F6BC0800FFFFFF0738B590B0504C342065
:1020A000205C002831D0684621004022FFF71AF951
:1020B0006846FFF7CDFE0899049880B2FFF75EFFEF
:1020C0006846FFF714FFEFF3108572B60698A0611B
:1020D0000798E06108982062099860620A98A062F7
:1020E00068463521415C3522A1543621415C3622B7
:1020F000A1543721415C3722A1543821415C382258
:10210000A1543D21405C605402E0EFF3108572B6AB
:102110002000FFF719FF85F3108811B030BD80B59E
:102120006946A248FFF7D3FE04BD00001018006006
:1021300053070000C5000020F8B50500284C69468B
:102140002000FFF7C4FE06000F00994A616A00985C
:10215000401B00F0D9F900233900301A9941F4BD31
:10216000101000600200914B3420185C1074D86984
:10217000D0601800083003C803C2083A986990601C
:10218000186B506170470000350600000020894937
:10219000086089480168894A0A4002607047000067
:1021A00026030000FF0F000085494A68520003D54E
:1021B00009680160032070477E490A68022A03D13A
:1021C00049680160012070470A68032A03D1496801
:1021D000016002207047002070477A4800787047FD
:1021E000480C0020C800002008180060041000609F
:1021F000C2F528008D5B0000ECEB650170B50C00AA
:10220000714A6A49096A00F07FF90100202900D863
:1022100020216E4A106841180831D16193698025E8
:10222000AD051D439561136A8025ED051D431562BB
:102230000023604D2E68022E05D02D68032D02D09C
:102240002578012D01D0237070BD614C25786D0675
:102250006D0E2570A374E3740F2399435161916946
:102260000723994391619169C023DB050B43936177
:1022700070BD00007C0C0020FEB504004B4E3920E0
:10228000305C012905D1002A01D0352106E0362134
:1022900004E0002A01D0372100E03821715C009170
:1022A000019002A93000FFF712FE201A484D0027C6
:1022B000434C454A01993369C918C8318142316A92
:1022C00017D200F021F96978401A0099401A029952
:1022D00009182160616807229143616035490F60E8
:1022E0006168C022D2050A43626000996A788B183F
:1022F00012E000F009F93D21715C401A009A801A41
:10230000029A12182B4B5A6002221A6062682B4BF9
:1023100013406360009A5318297880220A432A7078
:10232000F021A974FF21E974C118581D814207D218
:102330002048076060682149014061600120FEBDBE
:102340001B4A716A180000F0DFF83E21705400202B
:10235000FEBDEFF3108072B61C490968154A891C4E
:1023600051600221116080F31088704719480121E3
:1023700042680A4342600268114301608020000401
:1023800015490860704780B514480068FFF7D4FE0F
:1023900004BD0D4A0549096A00F0B6F802BD80B5D2
:1023A000034A0249496AF7E700000000480C002090
:1023B000350600000C00006028180060FFFFFFBF1A
:1023C00024180060860C002026030000101800600E
:1023D000C40000204818006000E100E01400006024
:1023E00030B4434351435D18010C0C00130C5C43A3
:1023F0002D1980B2434392B251430024C91864415D
:1024000024040B04090C09195043C018694130BC5D
:102410007047F446002804D4494200F013F84042C3
:1024200060474042002905D45FD000F00BF84042DD
:1024300049426047494200F005F849426047034677
:102440000B43E6D40022030A8B420BD203098B42D2
:1024500019D243088B422ED2411A00D20146524172
:1024600010467047FF2209023FD012068B4205D367
:10247000121209028B4201D31212090203098B4284
:1024800019D300E0090AC3098B4201D3CB01C01A5A
:10249000524183098B4201D38B01C01A5241430937
:1024A0008B4201D34B01C01A524103098B4201D325
:1024B0000B01C01A5241C3088B4201D3CB00C01A92
:1024C000524183088B4201D38B00C01A524143080A
:1024D0008B4201D34B00C01A5241884200D3401AAC
:1024E0005241CFD201461046704708B5C046C0469B
:1024F00008BD38B5088900904C88CB888A88087850
:102500002146C046C04638BD10B5904216D98AB2A1
:10251000030C090C0C46594380B2534344435043C7
:102520001B191A041B0C1018594180225203002356
:1025300012184B41520DD802104310BD484380225F
:1025400052031218520D104610BD38B5088900907C
:102550004C88CB880A7908782146C046C04638BDE9
:1025600018B58BB004A800BF16A10CC90CC000BFE1
:1025700016A11222FEF7D0FE984800240470010034
:1025800070310C8091214454F721445466314454F5
:1025900093494180062204A96846FEF7A3FE6846D7
:1025A0001221817106A9029119218173848100F0A1
:1025B000F9FD040003D0210009A001F01FF920005B
:1025C0000CB010BDFC1200E18002000053656E7378
:1025D0006F7244656D6F2043656E7472616C0000AC
:1025E0004D61737465725F496E6974282920737434
:1025F000617475733A203078253032780D0A000006
:102600001FB501206946087230224A808A8088718D
:102610000020C8714872684600F099FE04007148B5
:10262000210002D001F0EAF802E0343001F0E6F8CF
:10263000200004B010BD1FB5012069460870087263
:10264000684600F02BFE04006748210002D001F02C
:10265000D5F802E02C3001F0D1F8200004B010BD14
:1026600010B55E480121CA2252008154B8214900A8
:102670004018032101705D49416030210181418191
:102680008021490181815A49C1810021C1752822D7
:1026900002833822428381831421C183052101846E
:1026A000418400F075FE040003D02100514801F080
:1026B000A5F8200010BD10B5484C2079C021490074
:1026C00060540622611DFF2082302018FEF724FE90
:1026D000B8204000201800F079FE040003D021004B
:1026E000454801F08BF8200010BD0000F8B586B019
:1026F000424801F083F83948C17ACF4801F07EF8AA
:1027000000260020CD49019157E03A002100103108
:1027100002A8FEF739FF002803D100BF38A001F05E
:102720006DF83A002100203102A8FEF72DFF0028A5
:102730003FD100BF38A03AE01425401C694608701C
:10274000F1B2491C3AA001F059F82F1F3A0068462F
:1027500000782118103102A8FEF7DEFD3A00B849D2
:1027600002A8FEF711FF002803D100BF32A001F03C
:1027700045F8B44C3A0021000C3102A8FEF704FFE2
:10278000002807D133A001F039F80120019A5070D8
:102790000199087020780028B7D03A0021006031F4
:1027A00002A8FEF7F1FE002803D100BF30A001F01F
:1027B00025F8684600784019761C084CE27AF1B298
:1027C000914206D2C1B26118097B0129B4D1062514
:1027D000B3E79D4801F012F807B0F0BD2C090020C6
:1027E000FFFF0000349C0510D0A1051030750000DB
:1027F000F22B000064A60510E4AA05108C8B0510CE
:10280000416363656C65726174696F6E20536572B4
:10281000766963650D0A0000456E7669726F6E6DAC
:10282000656E74616C20536572766963650D0A008C
:1028300025642D2D2000000047656E6572696320B8
:102840004163636573732050726F66696C650D0A2E
:102850000000000047656E65726963204174747200
:1028600069627574652050726F66696C650D0A0047
:1028700053656E736F7220426C75654D53205365BE
:1028800072766963650D0A00F8B58CB000220024E9
:1028900000270020B64E9123F35C6D466B70330029
:1028A0009333079333009233069304926A46107071
:1028B000644DA3E00598001F0390024629001031E3
:1028C00008A8FEF761FE002818D168464078002865
:1028D00014D0019830180C3002A9891C02780A70B3
:1028E00042784A70019830180E3002A902780A70B6
:1028F00042784A7006980490079F6424039A29003E
:10290000203108A8FEF740FE00286FD1F720305C88
:1029100000286BD0019830180C3002A9891C02786D
:102920000A7042784A70019830180E3002A9027875
:102930000A7042784A703000F83004903700F93756
:1029400053E014210591401CC0B201900598001F6E
:102950000390024601983118103108A8FEF7DCFCFC
:10296000039A844908A8FEF70FFE00281AD17120A7
:10297000305C002816D0019830180C3002A9891C50
:1029800002780A7042784A70019830180E3002A915
:1029900002780A7042784A70300072300490370032
:1029A00073371E242878002884D0039A29006031C8
:1029B00008A8FEF7E9FD002818D1684640780028ED
:1029C00014D0019830180C3002A9891C02780A70C2
:1029D00042784A70019830180E3002A902780A70C5
:1029E00042784A7006980490079F642401980599DC
:1029F000401869460978491C6A4611706946097889
:102A0000F27A914207D231000C31C2B2895C0129BD
:102A100097D1062196E7049B0194009768460289A6
:102A20004189708800F038FD010002D0994800F01B
:102A3000E5FE0DB0F0BD0000CC8B05109C09002018
:102A40003204002028040020F08B0510FEB59248C7
:102A5000029092480190007891490091914909783B
:102A6000002936D0002864D000248E4F0198407889
:102A700084427CDA3E4816216143401805009435B3
:102A8000060099361022390080313000FEF77CFDB7
:102A9000002809D100982978017069784170009860
:102AA0000188814800F0AAFE102239007031300000
:102AB000FEF76AFD002809D102982978017069782B
:102AC000417000984188794800F098FE641CE4B297
:102AD000CCE7002829D00025254C22E016206843A9
:102AE000201806009436070099371022B64938009E
:102AF000FEF74AFD002804D1009831780170717802
:102B000041701022B1493800FEF73EFD002806D181
:102B1000AF204000201831780170717841706D1C31
:102B2000EDB2019840788542D8DBA9480090007842
:102B300000281CD000240E4F5A4E14E0162060438B
:102B40003D181022310050312800FF30FEF71CFDE7
:102B5000002806D12800FA30029902780A704278DB
:102B60004A70641CE4B2009840788442E6DBF7BD0A
:102B70002C09002034040020F1B582B017001D009C
:102B8000007801286CD10091097800BF48A000F0BE
:102B900035FE00BF4BA000F031FE00BF4CA6002464
:102BA000E0B2395C300000F029FE641CE0B2062877
:102BB000F6DBB6A000F022FE297800BF46A000F0A8
:102BC0001DFE0024089E05E0315C00BF48A000F017
:102BD00015FE641C2978E0B28842F5D3099CABA0AD
:102BE00000F00CFE0020215643A000F007FEA84C88
:102BF0002C4D07224FA130000830FEF7C5FC0028FD
:102C000002D1307CFF280BD0092200BF3EA130004A
:102C10000830FEF7B9FC002806D1B07CFF2803D1AC
:102C2000012028703BA00AE0062200BF41A1701DD0
:102C3000FEF7AAFC002813D1287000BF3FA000F0C7
:102C4000DDFD00980078207106223900601DFEF736
:102C500063FBFFF730FD002802D0C64800F0CEFD30
:102C6000C44C02980078022803D12000303000F0D4
:102C7000C5FD0298007803280BD120006C3000F0CD
:102C8000BDFDFFF7D8FC002803D02000943000F0F1
:102C9000B5FDF7BD1CAB05108E0A0020BD09002054
:102CA0008C0A002028040020949C0510C89C051064
:102CB000414444522054797065203D2025640D0A1A
:102CC0000000000041444452203D203078000000C4
:102CD0002530327800000000414420444154412016
:102CE000284C656E6774683D2564293A0D0A00001A
:102CF000253032782000000052535349203D2030C7
:102D000078253032780D0A00426C75654E52474C7A
:102D10005000000053656E736F7220426C75654DF4
:102D2000532064657669636520666F756E640D0A6D
:102D300000000000426C75654E52470053656E738B
:102D40006F722064657669636520666F756E640DC9
:102D50000A000000F8B54E4D874C0078012807D0D6
:102D600031D3032820D01DD3052828D024D3F1BD8A
:102D700016000F003188200000F040FD3878002850
:102D800021D13088688064232A000C3229000B315D
:102D900000F052FB002816D001002000303000F077
:102DA0002DFDF1BD0BA00CE012A000F027FDFFF7F8
:102DB00042FC72486880F1BD2000783001E02000BC
:102DC000A03000F01BFDF1BD680400205804002075
:102DD000230A00202A2A2A2A434F4E4E45435449AB
:102DE0004F4E204641494C4544204556454E540DD2
:102DF0000A0000002A2A2A2A444953434F4E4E45CE
:102E00004354494F4E204556454E540D0A0000008C
:102E1000FEB50078012802D0022806D0F7BD087858
:102E2000002831D1FFF762FCF7BD087800282BD1CC
:102E3000174804007034012500266178002903D06A
:102E400066709121455412E0FF215E3141180191D5
:102E5000F73000904A4F387800280AD0FFF7F6FD87
:102E60003E70C44800780028009809D1057025708C
:102E7000F7BD00980078002806D0FFF7E7FD00981E
:102E80000670657001980570F7BD00000D0A00001E
:102E90002C09002038B5B84CB84D7120285C0028AA
:102EA0001BD028007730694602780A7042784A7051
:102EB0000123002268460188491C89B2688800F015
:102EC0002DFB020068460188491C002A01D0200021
:102ED00001E02000443000F091FC2800913001789E
:102EE000002928D04178491EAF225200AA18A14BD0
:102EF0001B78002B417003D0090605D0908804E0B0
:102F0000090601D0108800E05088801C69460880BE
:102F10000023012268460188688800F0FFFA002833
:102F200003D001002000783003E0684601882000CB
:102F3000B83000F063FC31BD1CB59048B1214900A8
:102F4000441808210091B32149004318891E4218F2
:102F50002188491C89B2408800F02EFB0100884876
:102F600002D000F04BFC13BD628821884C3000F089
:102F700045FC13BDBC830510CC7E0510FFFF00008F
:102F8000BD090020F8B584B07E4903917E4C00272E
:102F9000784D46260078052808D0062800D1BDE0E7
:102FA000092830D00A2800D1B2E0E0E077480126B5
:102FB00077490978002908D0704971228F5406702A
:102FC000FF205E300E542000A5E001780029ECD0EF
:102FD0004178002909D107702878002802D0200004
:102FE0002C300BE02000583008E0067028780028CC
:102FF00002D02000803001E02000AC3000F0FEFB69
:1030000064480670B3E0029303980088401C198856
:10301000884207D158680078002803D02000D030BB
:1030200000F0ECFB03984088401C02990988884214
:1030300045D159A000F0E2FB58A000F0DFFB761E5E
:10304000FAD12878002802D002270E2100E00621BC
:10305000029882788A4204D08C204000201800F028
:10306000CDFB02984068C1192A1D0B7813704B786C
:103070005370811CC919AA1D0B7813704B785370BB
:10308000001DC0192900083102780A7042784A7080
:1030900002202E5E30000A21FFF7D1F901913000A5
:1030A0000A21FFF7CCF9009008202B5E06202A5E4B
:1030B0000420295EB0204000201800F09FFB2878F3
:1030C000002854D003988088401C029909888842BF
:1030D0004DD10298827841683148FEF71DF9039876
:1030E000C07B00020399897B0843688000B2050019
:1030F0000A21FFF7A4F90F0028000A21FFF79FF922
:1031000001003A00C8204000201800F077FB2EE0B4
:10311000DA204000201800F071FB28E01EA000F02B
:103120006DFB1EA7380000F069FB761EFAD12878E7
:1031300000281CD10398407A06020398007A0643BF
:103140006E8036B230000A21FFF779F90191300024
:103150000A21FFF774F9009008202B5E06202A5EF2
:103160000420295EF0204000201800F047FB05B045
:10317000F0BD000028040020547805102C09002020
:10318000F09705108A0A00208C200510BD09002048
:103190009D090020890A00200D0000002000000089
:1031A000920A002030B585B00400220006210020DC
:1031B00000F038FB050001D021A014E000F036FB40
:1031C000050001D025A00EE003A80290801C01900C
:1031D00004A80090237BA279617B042000F02AFBE5
:1031E000050004D022A000F009FB280026E0A07909
:1031F000002808D0082801DD0820A071A268A17964
:10320000002000F087FBA17B002000F0CDFB040034
:1032100004D0884800F0F2FA20000FE019A000F076
:10322000EDFA00F087F89B48802149020160491CB3
:10323000416001680020C046C046002005B030BD96
:1032400053657474696E672042445F414444522060
:103250006661696C65642E0A0000000047415454A1
:103260005F496E6974206661696C65642E0A0000AE
:103270004741505F496E6974206661696C65642ED0
:103280000A000000424C4520537461636B20496E74
:10329000697469616C697A65642E0A00F8B59849A9
:1032A0000C687C4F39688026B6027208914206D0BD
:1032B0009200914203D0B14201D00C251BE0009056
:1032C00000230022017A007800F0C2FB050003D041
:1032D000904800F093FA0EE00120E0600020607258
:1032E00020700098007820723E60701C7860314633
:1032F0004008C046C0462800F2BD70B5804804684A
:10330000854D207A002803D100F0A6FB060006E0D8
:10331000012000F0A1FB0600280000F06FFA300049
:1033200004D02800503000F069FA01E002206072F9
:10333000300070BD1FB5574C0ECC0C3C684600F0F9
:10334000B7FD68460EC80EC4184604B010BD1CB5C3
:103350006F49096880225202914207D0920091423F
:1033600004D05208914201D00C2016BD0400637AAB
:10337000227AE179A07900F0C7FBA08801906088EB
:103380000090637A227AE179A07900F045FB16BDBE
:103390001FB55F49096880225202914207D092000E
:1033A000914204D05208914201D00C200CE0418C93
:1033B0000291018C0191C18B0091838B428B018B17
:1033C0002424005D00F032FB04B010BDF1B582B0E2
:1033D000002769460F704A48046828220299200095
:1033E0000C30FDF77FFF382167540120714D484EA6
:1033F0003168420491420DD02070681E30607560C3
:1034000001465008C046C0460298007803280ED1F5
:1034100067630CE027706063FFF76FFF6946087011
:10342000691E3160756080208002C046C0466846D3
:103430000078FEBDE0370410F7B500226C4622701C
:103440002F4C2468324D2E688027FF02BE420AD0DE
:10345000C027FF02BE4206D07F08BE4203D00C2028
:103460006946087011E0029E012727702082A16042
:10347000E660A380A0680270A020C0022860401C03
:1034800068602968B804C046C04668460078FEBD3A
:1034900000000000D80D0020F5B583B000206A467A
:1034A0001070174A12681A4C2668A025ED02AE4229
:1034B00007D08027FF02BE4203D00C206946087067
:1034C0001CE00B9E0A9F01936B46598069468989CF
:1034D00002231370118201999160D760968069462A
:1034E000498851826946098A9182916808702560ED
:1034F000681C606029465804C046C04602E00000CF
:10350000F40400206846007805B0F0BD000000001B
:10351000D80D0020B8AE05106C980510F3B581B039
:1035200089490C68894E31688027FF02B94209D069
:10353000C025ED02A94205D0A025ED02A94201D087
:103540000C2534E069460B704A704880A04B6846F1
:1035500000784000497801431970022268460189C9
:10356000408800F023FD050021D100202621605471
:10357000052121706946498821852721605402A8C8
:1035800021000D3102780A7042784A70684640780E
:10359000E073684600782074022020730120E06206
:1035A0003760781C706039463800C046C046280035
:1035B000FEBD000001000300F7B51F0062490C6862
:1035C000844E31688022D202914209D0C022D202B8
:1035D000914205D0A022D202914201D00C2527E0D1
:1035E0006946088068468188008800F0EBFC050089
:1035F0001ED10898029900222623E2540623237044
:103600006B461B8823856160A760A08401A8210008
:103610000D3103780B7043784B7027202254012022
:10362000E06280043060411C71600146C046C046C3
:103630002800FEBDFBB5170043490C6865490968C1
:103640008022D202914209D0C022D202914205D0FA
:10365000A022D202914201D00C252BE0089E69469F
:103660000880320068468188008800F0B3FC0500BD
:1036700020D10998029900222623E25408232370BE
:103680006B461B8823856760A160A08401A8210088
:103690000D3103780B7043784B70E673272022546A
:1036A0000120E06280044B490860421C4A600146E8
:1036B000C046C0462800FEBDF2B582B022490C6863
:1036C000444E31688027FF02B94209D0C025ED027F
:1036D000A94205D0A025ED02A94201D00C2530E079
:1036E000019369460A704880019B68460278018907
:1036F000408800F05BFC050023D1002026216054A7
:10370000072121706946498821852721605402A834
:1037100021000D3102780A7042784A7068460078BC
:10372000207368460278019920000F30FDF7F4FD00
:103730000120E0623760781C706039463800C0466E
:10374000C0462800FEBD0000F4040020D80D002073
:10375000F8B5214A14681D4D2E688022D202964287
:1037600009D0A022D202964205D0C02292029642EF
:1037700001D00C2728E06A4610806846008800F0D7
:1037800047F9070020D10120E062002020702621A7
:103790006054694609886185272160542821605456
:1037A000302160540D4A49038020C002864202D174
:1037B00029606A6006E0A020C002864229606A6033
:1037C00000D04808C046C0463800F2BDD80D0020E1
:1037D000FC0D0020D80D0020F4040020010006009C
:1037E000536574204F757470757420506F776572CF
:1037F000206661696C65642E0A0000000EB4C0B5D5
:10380000020003A801900020009001AB01210448B0
:1038100078440C3000F0E6FB029906B0084700BF80
:103820005379010010B500F09DFE10BD10B500F0F9
:1038300055FF10BDFFB583B00E9F1C460E46050018
:103840000BD0A80703D1680701D4280705D5002E9F
:1038500005D0012E03D0022E01D0822417E00C984F
:103860006A460D9983C2224631462846059B00F0E0
:103870003DFF04000BD131462846059A00F00AF8B6
:10388000040004D13A460D990C9800F02FF8204618
:1038900007B0F0BDF8B505000E003F4F380000F04E
:1038A000BBFF04001AD1684605703C4D380000F09B
:1038B000B7FF070068460078800706D03900280067
:1038C000483000F0B1FF040008D1022E08D13900C1
:1038D00028006C3000F0A8FF040001D02000F2BDE9
:1038E0002FA20721002000F015F8F7E7F8B5040033
:1038F0000F001500294E3000903000F091FF20801D
:10390000300000F095FF38803000243000F090FF48
:103910002880F1BD70B504000D0016001F48FFE7B8
:1039200000F086FF33002A002100401C80B200F026
:1039300001F870BDF3B581B017001D000024174ECB
:103940006946088024206043301800F071FF002889
:1039500004D0401C69460988884202D0641C042CAB
:10396000F0D3042C09D06846038924204443341939
:10397000206A8188DA19914201DA8220FEBD29008D
:103980003A008068C018FDF7C7FC206A01788907F3
:1039900000D547800020FEBD0004002070030020F9
:1039A000426C75654E52470010B500F045FF10BDE2
:1039B00080B500F061FF02BD80B500F064FF02BD7C
:1039C00080B500F06DFF02BD80B500F081FF01BD44
:1039D00080B500F09DFF02BD80B500F0A9FF02BDDB
:1039E00080B501F03FF801BD80B50120C04602BDA1
:1039F00080B501F05BF801BD80B501F05DF802BD56
:103A000080B501F0A2F801BD80B501F0C6F802BD95
:103A100080B501F0F0F802BD1CB56C46A48A019493
:103A20006C46248A009401F0EBF816BD1FB56C4675
:103A3000248C02946C46A48B01946C46248B0094D5
:103A400001F0EFF804B010BD80B501F0FEF802BD42
:103A500080B501F002F902BD80B501F01AF902BD8E
:103A600018B585B00CAC247804940BAC247803947E
:103A70006C46248D02946C46A48C01946C46248C74
:103A8000009401F023F906B010BD38B5881D0090F0
:103A90008C788B88CA78088821460020C04638BDBB
:103AA0007CB504001500002902D02089618901E05D
:103AB000A089E189A84E01910090F378B2787178DD
:103AC0003078FFF7A9FF01002420205C2678032E20
:103AD00008D10E0022001132217CFFF7B5FF04004F
:103AE000344308E00C000023002201003000FFF7FF
:103AF000AFFF20430400200004D100206870FDF7D0
:103B0000DEFFA860200076BD10B5934C2070617078
:103B1000A270E37010BD914A531EC11A08D0491E0D
:103B200007D18F4800680078002801D0501C7047EA
:103B300010007047F0B587B0894A1468894A012798
:103B400000260225531EC11A08D0491E08D0491E5E
:103B50001FD0491E55D0491E70D078E0A67002E0F3
:103B60002078002801D1100071E0220001212000FE
:103B70000C30FFF795FF694648726846407A002886
:103B800052D138202654206980000321014361630B
:103B900035E0FDF794FFA26800230021FDF793FFB5
:103BA00002000B0020690021009001911000190013
:103BB000009A00238B4206DB01DC824203D33820CB
:103BC000205C002818D0207B032803D106206946FA
:103BD000087201E0684605726846007AFFF73CFF0C
:103BE000694648726846407A002802D16763AB484C
:103BF0002DE00420087219E0A078002824D1A848FC
:103C000025E06078002801D1901C20E022002000EF
:103C10000C30FFF745FF694648726846407A002835
:103C200002D167639F4812E06846057203AB221D0C
:103C300002A9491C02A8FFF78DF805E0A07800282A
:103C400002D16078002801D0974800E0D01C07B06E
:103C5000F0BD3EB5424A1468944A951C531EC11AE1
:103C600015D0491E02D0491E13D03EBD2620205C2F
:103C700000280CD0220028322100273120002A30D1
:103C8000C046C0462078002863D0681E3EBD1000A4
:103C90003EBD0020694608722078052806D04DD325
:103CA000072825D012D3082833D047E020000D3054
:103CB00002A9891C02780A7042784A70237CE27B50
:103CC00068464189608DFFF729FC35E020000D3002
:103CD00002A9891C02780A7042784A70A08C009070
:103CE000A368626868464189608DFFF765FC23E040
:103CF00020000D3002A9891C02780A7042784A70AF
:103D000023000F33227B68464189608DFFF7D4FC86
:103D100012E020000D3002A9891C02780A70427856
:103D20004A70A08C0190E07B0090A36862686846AE
:103D30004189608DFFF77EFC694608726846007A0B
:103D4000002806D0002322002A3202A92000FFF713
:103D500019F928003EBD0000F00D0020020002000D
:103D6000F404002002000300F8B5874A1468874F66
:103D7000874E0125BA1E811A10D0491E21D0491E36
:103D80002AD0891E2DD0491E38D0491E3BD0491E4D
:103D900046D0491E49D0491E5AD0F2BD6170E1801B
:103DA0002178012901D1501CF2BD022901D17948A5
:103DB000F2BD032901D1B81CF2BD042954D1B01EB3
:103DC000F2BD208A00F097FF6946087068460078C7
:103DD000002835D1A56102E0607800283BD1380089
:103DE000F2BDA28A618A208A00F089FF69460870C4
:103DF00068460078002823D1A56102E06078002899
:103E000029D1F81CF2BDA28A618A208A00F081FFC4
:103E10006946087068460078002822D1A56102E052
:103E20006078002817D1F01EF2BDA28A618A208A2C
:103E300000F079FF6946087068460078002805D0D0
:103E4000220010322000FEF7E3FF0AE0A5610AE03D
:103E50006078002807D022001032A11C2000FEF755
:103E6000D7FF3000F2BD701EF2BD30B5464A14686F
:103E7000494A531E951E411B02D0491E05D030BD34
:103E80002078401F032804D805E02620205C002865
:103E900001D0100030BD180030BD00000400030048
:103EA00003000300050003000600030002000600F3
:103EB000FEB584B00400684604A92CC92CC0324F5A
:103EC0003868364D6E1E0499002911D06A08914257
:103ED00010D0C022920291421AD0B14235D0A02215
:103EE000D202914225D0C022D20291423AD045E07E
:103EF000002042E005000598FFF70DFE01902849DB
:103F0000884203D1B0080090401C0190E86834E07A
:103F100003900598FFF70EFE01902249884205D1D3
:103F20000398808839680885009601950398406B4E
:103F300023E007000598FFF717FF01901449884216
:103F400001D100960195B86917E005000598FFF7C3
:103F50008CFF0190F11C884202D10120E86200969A
:103F6000E86A0AE007000598FFF773FE01900E4922
:103F7000884201D100960195F86A029068460EC801
:103F80000EC407B0F0BD0000F404002003000500DB
:103F90000B000500070005000300040001000400F9
:103FA00003000200060003000400060010B500290B
:103FB00006D0002A01D0002B02D000F0BAFE10BDBE
:103FC000822010BD10B5002902D000F0C0FE10BD47
:103FD000822010BD10B5002902D000F0C4FE10BD33
:103FE000822010BDF8B596B0050017001E001C9881
:103FF000049103A92B22885400200A9002950E9761
:1040000000960EE0252912D00498029A9047049059
:10401000002800D1D2E00A98401C0A900E98401C5B
:104020000E900E9801780029ECD10A98C8E0002083
:10403000079008900990022608210191012404218B
:104040000E9D00E020436D1C2A78202AFAD0232AF6
:104050000AD02B2A04D02D2A04D0302A08D00AE016
:104060003043F0E70843EEE7020008201043EAE798
:1040700002001020FAE72A2A0ED1009A17683A683F
:104080003F1D009B1F600C92002A03D553420C93E6
:10409000014308006D1C14E000210C91004A0BE064
:1040A000CBCCCC0C0C9B934205DA9F00FB185B0039
:1040B000591830390C916D1C29780B00303B0A2BB4
:1040C000F0D329782E2903D00021C9430B9127E092
:1040D0006D1C29782A2908D1009909680A68091DE8
:1040E000009B19600B926D1C1AE02D2902D12D2323
:1040F0006D1C00E0002300210B910CE0002B09D186
:104100000B9ABC4FBA4205DA9700BA185200511800
:1041100030390B916D1C29780A00303A0A2AEDD308
:1041200003A908852F783900B3A000F029FE0028E4
:1041300001D038006D1C03AF2A217854785C6828C0
:1041400005D12878682802D1622078546D1C10A807
:1041500006902A78681C0E90252A15D0582A52D02D
:10416000632A00D1BCE0642A00D17FE0692A00D133
:104170007CE06F2A47D0702A3AD0732A08D0752A7B
:1041800041D0782A3FD0B5E0079410A90A70BAE070
:10419000009800680468001D009908600594002CD0
:1041A00013D12B20385C00280CD00024E44300BF3E
:1041B00093A000F0F5FD201A00D1A4E00020C04338
:1041C00017B0F0BD95A005909DE00B9D002D03D587
:1041D000200000F009FE09E02A000021200000F084
:1041E00011FE002801D0001B00E0280008908AE0A2
:1041F000009800680168001D009A1060039110A8E3
:104200000590782168E0785C622803D0682809D09E
:104210006C280FE0009801680868091D009B196070
:10422000C0B20DE0009801680868091D009B196084
:1042300080B205E0009801680868091D009B1960BC
:104240000390388D0199C0B2084240D003980028ED
:104250003DD020201043782839D1079810A9302369
:104260000B54401C431C07930A5430E0785C6228CE
:1042700003D0682809D06C280FE00098016808680E
:10428000091D009B196040B20DE0009801680868A4
:10429000091D009B196000B205E0009801680868DC
:1042A000091D009B19600390002802D507982D2155
:1042B00009E0388D304202D007982B2103E0C00777
:1042C00005D50798202110AB1954401C079010A861
:1042D000079940180590110003A800F0A0F812E01B
:1042E0000794009800680168001D009A106010A8EB
:1042F000017008E00794252010A90870100002D072
:10430000079610A842700C980799401A0999401A0C
:104310000899401A0F902820385C400713D42020B9
:10432000694608710F9800280DDD0F9C029D01233E
:1043300001AA03A9280000F0FAF8002800D03DE700
:10434000641EF4D10295079D10AC002D0ED0029E84
:10435000227803A9300000F0D9F8002802D4641CA8
:104360006D1EF5D10296002800D027E7302069465F
:104370000871099C002C0CDD029D012301AA03A9F0
:10438000280000F0D4F8002800D017E7641EF4D10C
:104390000295059C089D002D0ED0029E227803A94F
:1043A000300000F0B3F8002802D4641C6D1EF5D173
:1043B0000296002800D001E72820385C400700D48E
:1043C0002FE62020694608710F98002800DC28E6B7
:1043D0000F9C029D0E9F009E012301AA03A92800A5
:1043E00000F0A5F8002800D0E8E6641E00D105E63C
:1043F000F2E70000CBCCCC0C686C747A4C00000067
:104400007072696E74665F733A206261642025730E
:1044100020617267756D656E740000000000F0B574
:1044200083B00A00C4686F2901D1082506E0202165
:104430001143782901D00A2500E0102518270168CA
:104440000E00642A01D0692A03D1002901D57142E6
:104450000E00002E0CD1016A002909D1082D31D19E
:104460002821415C09072DD517273021E17529E066
:104470000290684602707F1E019730002900FDF708
:10448000E1FF3031C8B23A2803DB68460078513882
:104490000918E15530002900FDF7D4FF060004D0CB
:1044A00002988068E1198842E5D30298082D09D165
:1044B0002821415C090705D5E15D302902D07F1E26
:1044C0003021E1551821C91B4161E2198260026A5D
:1044D000914206DA511A8161018D0B4A0A40028528
:1044E00010E0002A0ED52822825C14231340102BE2
:1044F00008D1426A0369D21A8369D21A511A012972
:1045000000DB816103B0F0BDEFFF000010B50300D8
:104510000C001100606898476060002804D0E069D2
:10452000401CE061002010BD0020C04310BDF8B564
:104530000024002B11D007000E0014001D0021786C
:104540007068B8477060002809D0F069401CF061BD
:104550000020641C6D1EF2D104002000F2BD00207A
:10456000C043F9E77FB504005A480D460068164677
:1045700010D0062C14D0082C0FD0182C0DD0282CBD
:104580000ED02A2C0CD02C2C0DD02E2C0ED0D02CB2
:104590003FD040E0062D0FD03DE0102D0CD03AE08A
:1045A000022D09D037E0012D06D034E0062D32D19E
:1045B00071798909032942D100192A46314600F050
:1045C00033FC2C2C73D13078002870D00020C046EA
:1045D00001281AD01B201F304009401C41004118FF
:1045E000012000F07FFC0020C04601280FD01B20D6
:1045F0001F3040094100401837498989081AC01EF8
:1046000081B2002000F06EFC51E0FB20E3E7FB20CC
:10461000EEE7012D04D00020C046012805D006E0B9
:10462000107800F069FC04B070BDD12C08D0302C9B
:1046300024D0D32C28D0FF2C2CD02F2C39D046E0DE
:10464000082D44D102223146684600F0EDFB0222DB
:10465000B11C01A800F0E8FB0222311D02A800F005
:10466000E3FB0222B11D03A800F0DEFB684683894C
:104670000289818800888220C046D4E7012D26D196
:10468000307800F04AFCCEE7012D20D1307800F0E0
:104690004BFCC8E7022D1AD102223146684600F0D1
:1046A000C3FB684600880020C04600280FD00020C9
:1046B000B9E7012D0BD13078002808D0082806D2A0
:1046C00000F040FCFF30317841300172EFE71220FA
:1046D000A9E70000DC040020640D002080B502483A
:1046E00000F09AF802BD0000F0AD0510FFB587B0EC
:1046F0000F46002069460873464816460568283567
:10470000012A1DD800F026FC002805D12C462034B3
:10471000A07C002802D085200BB0F0BD03A807992B
:10472000FFF746F90028F7D1607D69463043607590
:1047300007200875012F05D0022F09D0002F12D0B5
:104740008220E9E7087B10210843694608730AE0E4
:10475000087B202108436946087305A903A8822025
:10476000C0460028D8D100260096684601960178F8
:10477000DF20014368460170417809200143684603
:10478000082241708270022F03D10620014368463F
:1047900041700020C04601280AD1684641781220A5
:1047A0000143684641708178072001436846817063
:1047B0000020C04601280AD168464178E020014324
:1047C0006846417081788020014368468170684660
:1047D00000F032FCFF216846017041708170C170A9
:1047E00001719F21417186712021C17100F036FC59
:1047F0002846363000F044FC00288DD16846007B06
:104800008106890F03D0617D022211436175A07476
:10481000002081E7E004002010B500F035FC10BD59
:1048200010B500F0CDFC10BD10B500F0D3FC10BDEC
:1048300010B500F037FD10BDF8B50C4605461F2930
:1048400001D8012D01D91220F8BD0A480068477A25
:10485000867A44728572284600F03EFDA74201D157
:10486000AE4205D001237F221946FF20C046C04634
:104870000020F8BDE804002002780907090F0A4368
:1048800002700020704710B500F062FD10BD10B539
:104890004C880A7908884B1D2146C046C04610BD89
:1048A00000B585B0142207496846FCF71BFD064891
:1048B0006B460068054A6C304088012100F066FDB7
:1048C00005B000BDA0B10510E0040020FFFF00000E
:1048D00038B50E4A146823466C334834E27C15061A
:1048E00001D500280CD0DC20024008D068460270B8
:1048F000002545706946022000F05AFDE57438BD78
:104900005980052000F0ACFD38BD0000E004002017
:1049100000220079012906D0002806D0012804D001
:10492000042802D002E0C00700D0012210467047E0
:10493000F0B500228DB00F46019211460592012F6D
:1049400004D00179001D042918D018E08288041DC4
:10495000100718D4E57DE01CA6690190A0780590A9
:10496000D00605D400220599019800F089FD014682
:1049700000290BD00125012F62D06FE00122057ABA
:10498000C668002A02D001200DB0F0BD3449284687
:104990000968002528318C4601210AE07218203A66
:1049A000D27F002A07D0735C012B07D08918491CDD
:1049B00089B28142F2D3012F12D04FE0491C88B254
:1049C00061462031C97CCA0702D0305CC00703E0D1
:1049D0008907F0D5305C80070028ECD00125EAE794
:1049E000002D3BD02088C10638D44006800F012816
:1049F00034D10198049005980390002009906046F6
:104A000047680025E800401BC6B2002006900790CA
:104A1000B819072206A900F066FD0006000E05D0B1
:104A20006D1CEDB2042DEDD3099D17E0BE190125D3
:104A300006223046049900F0F7F90398B07101E0BE
:104A400001290BD120784006810F02D0800F022867
:104A500004D101220599019800F012FD284693E740
:104A6000E004002038B510480021046808462834C6
:104A7000FEF7A2FF694648702034E07CC10704D0ED
:104A800001216A4611708843E074C0B2810705D5E0
:104A900002216A461170FD210840E0746946022037
:104AA00000F086FC38BD0000E004002010B5087856
:104AB000091D00F02BFD10BD7FB5AC218172817BFB
:104AC00005468A072A350446002A09DA1022002101
:104AD000684600F001FD69460A462B46AD260FE008
:104AE000C80701D1480717D521464A312246E07A46
:104AF0005232000701D52B4601E023463A33AE2659
:104B000020890005000D00F05AFD05000AD03A2D5D
:104B100015D00C2D13D013E0C808C000A073852059
:104B200004B070BDA07BC10703D010210843A0735F
:104B3000F126C0B2C008C000A073A67200E0002534
:104B40000E2000F08DFC2846EAE710B57421095CC0
:104B5000C9070BD1817AA42909D0AC2917D0AF2974
:104B600004D1417F002915D0D021817210BD0446A7
:104B700000221021543000F06DFDE07A000720463D
:104B800002D5C046C04610BD00F07EFD10BDFEF748
:104B900033FF10BD00F0B2FD10BD10B503684168D1
:104BA0005A68FD20127A0B2A07D0022A0ED0032A57
:104BB00013D0042A18D0FC2010BD8A7A002A01D014
:104BC000F12AF9D1184600F0B9FD10BD8A7AA12A60
:104BD000FBD1184600F000FE10BD8A7AA52AFBD151
:104BE000184600F02FFE10BD8A7AA62AFBD118467F
:104BF00000F068FE10BD10B5012200F0D5FE10BD1A
:104C00007FB56C46099E089D207261720020A072DB
:104C1000258066802371694602A800F07DFF04B0FC
:104C200070BDF0B585B00C460AA9E0C969460C8094
:104C30004A808B80CD800E814F8101220A7301460C
:104C4000684600F095FF05B0F0BD13460A4610B562
:104C50000146402000F0BAFF10BD1CB500220092B2
:104C60000192030001F018F8060406080A0C0E135E
:104C7000012008E0022006E0042004E0082002E011
:104C8000102000E020206B4600F0A0FF1CBD822019
:104C90001CBD10B5030000F0FFFF080507090B0D50
:104CA0000F11131701200CE002200AE0042008E095
:104CB000082006E0102004E0202002E0402000E070
:104CC000802000F0FDFF10BD822010BDF0B585B042
:104CD0006C460A9F0B9E0E9D20806180A280E3801F
:104CE000278166810C98A0812A4668460D9901F0BB
:104CF00027F805B0F0BD10B501F07AF810BD10B579
:104D0000002901D0914201D9822010BD01F08AF81A
:104D100010BD10B5002901D0914201D9822010BDEB
:104D200001F09CF810BD10B5491C89B201F0A3F840
:104D300010BD10B58AB06C4660800C2020712181B6
:104D400062816846039301F0A3F80AB010BD00B574
:104D500089B06A465080082010711181684601F0C0
:104D600097F809B000BD00B589B06B4658800A209D
:104D7000187119815A81684601F08AF809B000BD9E
:104D8000C9B202788A4203D0401C002AF9D100201F
:104D900070478078800701D58620704700207047D3
:104DA00080B5002801D100BF07A006490B68002B81
:104DB00003D022220021984701E001F0CBF8222005
:104DC00002BD0000F40D0020636F6E7374726169A0
:104DD0006E742068616E646C65723A206261642052
:104DE0006D65737361676500431C0178401C09425F
:104DF000FBD1C01A704710B54A8808881146C046D2
:104E0000C04610BDC9B2521E05D30378401C8B4268
:104E1000F9D1401E70470020704710B54A880888B5
:104E20001146C046C04610BD8B0707D0521E22D384
:104E30000B78491C0370401C8B07F7D1830730D0D7
:104E4000DB4219D0401E121F08D308C943701B0A49
:104E500043801B0C0371001D121FF6D2D20707D32B
:104E60000B88437001D08A78C2701B0A8370704728
:104E700001D00B7843707047121F06D308C9038016
:104E80001B0C4380001D121FF8D2D20705D30B88DC
:104E9000038005D08B788370704701D00B78037046
:104EA000704770B4103A03D378C978C0103AFBD277
:104EB000530701D318C918C001D508C908C0D207C3
:104EC00004D30B880380801C891C002A01D50B7831
:104ED000037070BC704710B54A8808781146C04608
:104EE000C04610BD034A80001268126880184180D5
:104EF00070470000F804002070B5054600242046E5
:104F000001F032F8002801D0852404E0012D02D1FF
:104F10000120C046C046204670BD00B5014601F0E4
:104F200045F8C170002000BD10B5044600F00AF835
:104F3000002C01D0002100E00121FF30E13041755B
:104F4000002010BD024800688030C0697047000032
:104F5000E8040020F0B536489BB0066805A8002597
:104F60002836019001F02EF8011E09A80DAC0F9013
:104F700029D00022062103A800F06CFB6946487C7A
:104F8000C021084369464874062203A92046FFF75A
:104F90004BFF0022102112A800F05CFB102212A986
:104FA0000198FFF741FF0022102116A800F052FBE4
:104FB000102216A90F98FFF737FF019801F011F89A
:104FC000050000D0F125274606201A4C00902268E3
:104FD000014600202E3201F011F8002801D1276887
:104FE0002E37304639463630009AFFF71DFF2268CB
:104FF000102631460020083201F000F8002805D0C4
:105000002068324601990830FFF70EFF22683146CA
:105010000020183200F0F2FF002805D02068324648
:105020000F991830FFF700FF28461BB0F0BD0000B5
:10503000E0040020DC04002030B5074A03460021CC
:105040001268084654185D5C2034491CC9B2A57723
:105050000829F7D330BD0000E804002030B5074A26
:10506000034600211268084654185D5C2034491C30
:10507000C9B2A5730829F7D330BD0000E8040020A9
:1050800010B500F0CCFF10BDF8B5044600F0CBFF22
:10509000002823D08220002C21D0217D012901D09D
:1050A00002291CD1217C102902D0802917D11BE0B4
:1050B000A0894149884202D0491E884214D101206A
:1050C00000F0C0FF0EE00178002909D141680A7C98
:1050D000102A05D1A28989898A4201D18520F8BD8B
:1050E00000F0C2FF0028EED1002000F0D1FF002820
:1050F00006D04168C98A002904D04088401804E0DD
:10510000012203E000F0DCFF401C82B200212346B4
:10511000084600F0E3FF060006D0701C82B2E08A69
:10512000401E87B2002515E08720F8BDE08A0028E0
:1051300003D0002F26D07F1EBFB2E069A9004358DC
:105140000021012000F0CAFF00281DD0401C6D1C6A
:1051500082B2ADB2207EA842E8D818480222006888
:105160004030017C114301740A2000F079F9606A33
:1051700000281FD02046203000900078002819D049
:10518000002513E082270AE0872708E02420616ACF
:1051900068430818314600F01DF8070004D0304677
:1051A00000F0DAFF3846F8BD6D1CADB2009800780B
:1051B000A842EBD80020F8BD01180000000500202F
:1051C00010B5034600220249012000F0EBFF10BD9C
:1051D000FFFF0000F8B50D46044600F024FF00284C
:1051E0000ED0204600F0EAFF002808D1284601F042
:1051F00011F8050002D02878002803D08220F8BDDD
:105200008520F8BD217E2846891C01F015F800286C
:10521000F7D1284601F029F8054600F0FBFF6D1C88
:105220000146AEB223463246022000F057FFB0429C
:1052300001D08720F8BD304600F0ECFF0146701C1D
:1052400082B22346032000F049FF002807D0E0691E
:10525000002819D0207E002816D0002511E08727CD
:1052600008E01C20E16968430818314601F008F89D
:10527000070004D0304601F057F83846F8BD6D1CE1
:10528000ADB2207EA842ECD805480222006840302A
:10529000017C114301740A2000F0E2F80020F8BDFF
:1052A0000005002010B5034602220249012000F04B
:1052B00079FF10BDFFFF00007FB504000D00160050
:1052C000684601F057F868460178217041782970E6
:1052D000807830707FBD000080B501F09AF801BD84
:1052E0003CB5194A1368019353680093019BDBB2E4
:1052F000009C2402FF252D0225401D430560906877
:10530000086033BDE0B501A96846FFF7E9FF0098E2
:10531000002802D001980C2801D37F2010E006213C
:105320004843763802E0801D4908009100991F2902
:10533000F9D2FF22A2325143044A8918890A40183F
:1053400040B20EBD00000000A4160060A0460000A0
:105350007CB50C4605460421082001F093F800288E
:1053600004D1012D03D0002D01D012207CBD012CD1
:1053700001D0002CF9D101216846417105704470BB
:1053800000214180017101F08BF87CBD10B58AB01D
:105390006C466080092020712181628114221946A7
:1053A00003A8FFF741FD684600F072FD0AB010BD8A
:1053B000F8B50546892000294AD00878C20701D0EF
:1053C00000201CE0820701D5012018E0420701D52A
:1053D000022014E0020701D5032010E0C20601D527
:1053E00004200CE0820601D5052008E0420601D524
:1053F000062004E0C00901D0072000E0FF2008706B
:10540000022000901448002700680E464030807942
:10541000C00900281BD0E91E03231943091D1943A5
:1054200002240E48890363030068C9180B0C292263
:105430008069214601F018F904000AD0201D324687
:10544000294601F067F92146009801F071F93846C4
:10545000F8BD0727FBE70000E8040020EC0400206B
:105460004109C206D20E0120904072B68A0003495B
:1054700009688B5803438B5062B67047F0040020D4
:10548000F7B582B000200090124800240068C76A77
:10549000E000001BC6B2B81905460622029900F0CA
:1054A00022F80006000E0ED1A979039881420AD194
:1054B000012000900498002809D0B8190722002183
:1054C00000F00AF803E0641CE4B2042CE0D3009876
:1054D00005B0F0BDE004002080B50B0011001A00FB
:1054E000FCF770F801BD80B5FCF74EF802BD80B541
:1054F00001F034F901BD80B501F056F901BD80B568
:1055000000E080B5029A01F05DF901BD80B501F0BF
:1055100078F901BD80B501F086F901BD80B501F0D3
:10552000AEF901BD80B5D2B201F0D3F901BD80B5AD
:10553000D2B201F023FA01BD80B5D2B201F078FAFF
:1055400001BD80B5D2B201F017FB01BD80B5D2B26A
:1055500001F015FB01BD80B501F026FB01BD80B552
:1055600001F091F901BD1CB5049C009401F09CF977
:1055700013BD80B501F01BFB01BD80B5C9B201F0C0
:1055800056FB01BD80B5C9B201F070FB01BD80B50D
:1055900001F093FB01BD80B501F0A8FB01BD80B512
:1055A00001F0DFFB01BD1CB51A00049B6C46248B87
:1055B00001946C46A48A009401F0E2FB13BDFFB590
:1055C00081B01E460F4601F01DFC002807D005469D
:1055D0002035287B022804D00C2005B0F0BD022025
:1055E000FBE7287C012101F029FC002801D03A20AA
:1055F000F3E7287C012101F028FC0146044608223B
:105600003031384601F02AFC1022A118304601F052
:1056100025FC214602222E31039801F01FFC287C34
:10562000012101F037FC287C002101F03EFC01281B
:105630000CD0062020342072002020730122287C08
:105640000023114601F03DFC0020C6E70120203474
:105650002072F2E7F8B517460D460646002410E022
:10566000384601F046FC69460870000A4870087820
:105670003055601CA84202D2487831194870A41CE9
:10568000E4B2AC42ECD3F8BD30B50446008989B031
:105690000105090D2022002001F038FC050009D089
:1056A000E07A000709D568460590049404A8C0462E
:1056B000C04608E0882009B030BD21466A46543112
:1056C000204601F041FC11206880686803210172C6
:1056D0006B4610220521284601F0DAFC21462846B7
:1056E00001F0E4FC050007D1204610226946643031
:1056F000FFF79AFBA520A0722846DCE710B5C17A17
:105700000A07817F03D4CA0701D0D12111E08A079B
:1057100001D5D3210DE0490701D5D52109E0742138
:10572000095CC90704D0417F490701D0D02100E0BE
:10573000F02181720E20FFF793FE10BDF8B50C46E4
:10574000897A0026A039502901D80020F8BD406888
:105750001F4F457A38682030807E022805D12807FF
:1057600003D40123002203212DE0A07B80210843E4
:10577000A073208901F0B6FC02460021154B0846B3
:1057800001F0D2FCA07AF12806D1680704D520895F
:105790004004800F00D101263868E906C90EA03008
:1057A0004174208900220005000D314600F0FCF80C
:1057B0000028CBD0A17B4906490EA1738828C5D00B
:1057C000012300220821204601F0D4FCF8BD00008E
:1057D00008050020307500007CB50C460646A4255F
:1057E00001F0DEFC00281BD1E07A000707D56846EF
:1057F000009601941F20C046002811D1A225A07E4A
:10580000FB2140084000A076E07E0840E07621467B
:10581000304601F0E1FC204601F024FD002808D0CC
:10582000882805D0014601230022204601F0A2FC71
:105830007CBDE17F022903D1E17EC90600D4A22507
:10584000A5727CBDF8B5074608890C460105090D0F
:105850002022002001F05AFB05000DD026462A36F2
:10586000002F05D0334610220521384601F036FDC1
:10587000E07F022802D009E08820F8BD20461022EF
:1058800031466430FFF72FFE002814D011206880C5
:1058900068680421017223465433102205212846EA
:1058A00001F0F6FB2146284601F000FC0028E4D177
:1058B000A621A172F8BD01232A460821204601F045
:1058C00059FCF8BDF0B50B4693B00C466433002587
:1058D00010220521099301F001FDE07A00070BD5A4
:1058E00004A80F900E940EA81F20C0460546EB2872
:1058F00007D1002013B0F0BD04AA2046099901F099
:1059000023FB21462A3110220F4604A8FFF7EBFDA6
:10591000002806D000231A460421204601F02AFC64
:105920003DE0204E217F30682030C07C814200D98C
:105930002077E07A000703D52046C046C0462FE016
:10594000102200216846FFF7C7FDE07F022802D041
:10595000032806D00BE03068416B684601F0C7FCB5
:1059600005E03168102268464031FFF75DFA2246B3
:105970000AAB54326846099901F0C1FC102200219B
:105980003846FFF7A9FD227F0AA93846FFF74CFAEF
:10599000A07B02210843A0732046FEF72DF80546A0
:1059A0002846A7E708050020F7B582B0072116466C
:1059B0000191009101F0B6FC040004D07420005D58
:1059C000C0072ED102E0802005B0F0BD6078A11C98
:1059D00001F0CEFC002801D0B020F5E7002E04D065
:1059E000A07B000601D58320EEE7A27BD00618D469
:1059F000484D28682030817E4B081943C90702D0E2
:105A0000817F49070DD4817F9023194201D03A202C
:105A1000DAE7D109C901A173A27A002A06D0F12AD6
:105A200001D08520D0E7039AD2071FD0807FC043E2
:105A3000800722D0208920220105090D002001F0D5
:105A400065FA07001BD0A020A072E07E2F2108403D
:105A5000E0760398800703D5A07B20210843A0733C
:105A60002868002E0DD02030417C0EE0012001433B
:105A7000A1732046FDF7C0FFA6E73820A4E78820E1
:105A8000A2E7A030407C4007C10F28682030827E0A
:105A900053081A43D207C37ED20F007C01F08AFC60
:105AA0000646204601F092FC019900980091019071
:105AB000227E33460121384601F0A6FC21463846B5
:105AC00001F0F4FA002801D081207DE72968203117
:105AD000887FC243920701D0401C88772046542219
