:020000041004E6
:1000000000000120991B0410950B0410131A041012
:10001000AA5555AA45554C420000000000000000BA
:10002000000000000000000000000000470C041069
:1000300000000000000000004B0C0410171A041010
:10004000B71904105F1B04106B1B0410A51B0410D0
:10005000A71B0410A91B0410AB1B0410AD1B04103C
:100060006F1A0410AF1B0410B11B0410B31B041053
:10007000B51B0410B71B0410B91B0410711A04102F
:10008000BB1B0410211A0410BD1B0410BF1B04105D
:10009000C11B0410C31B0410C51B0410C71B041094
:1000A000C91B0410CB1B041000000000000000005E
:1000B0000000000000000000000000000000000040
:1000C000F0B5020052B2002A1CD40322B54B040042
:1000D00064B2A40804256C431C59FF251600064091
:1000E00008277E43B540AC438D01EDB2024008269F
:1000F000724395402543020052B2920804246243A1
:100100009D5022E00F24A84A032305006DB225402C
:10011000083DAD0804267543060076B23440083C1D
:10012000A408042674431659FF27BC461C0004404B
:1001300008277C436746A740BE438C01E4B20340D6
:1001400008277B439C4034435451F0BD00B5BFF3B6
:100150004F8F964896490860BFF34F8F00BFFDE769
:1001600094480168802252020A4302607047914815
:100170000068410C0800C007C00F70478E490A682C
:100180008E4B134002021A430A600A68802313430D
:100190000B60704788490A6870239A4302430A60DB
:1001A0007047CB490A68CB4B134002061A430A60DA
:1001B0000A6880231B0413430B60704780B5CB484B
:1001C000016802220A430260002100910099062979
:1001D00004DA00BF0099491C0091F7E70168042286
:1001E0000A43026001BDC1490A68C14B1340034381
:1001F0000B6070476F48016810220A430260704725
:100200006C48006841090800C007C00F7047B0493A
:100210000A6860239A4302430A607047AC490A683F
:100220001E239A43430013430B600A6801231343C0
:100230000B607047AF490A6806239A4302430A607D
:100240007047AA490A68AC4B134003430B607047E0
:1002500058480168802292010A430260704755485D
:100260000068810B0800C007C00F70479F490A68EB
:10027000E0239A4302430A607047D0490A68024368
:100280000A607047CE48006881080800C007C00FA8
:100290007047CC490A68CC4B134003430B6070474E
:1002A000C8490A6830239A4302430A607047C74925
:1002B0000A6882430A60C6490A6882430A60704736
:1002C00010B4C4490A68C44B1340C202E024A4011C
:1002D00014401C430C600A688023DB0013430B604E
:1002E00010BC704710B4BB490A68D04B1340820160
:1002F000F024A40014401C430C600A68202313431C
:100300000B6010BC704710B4B2490A681E239A43B0
:1003100043001E241C4014430C600A68012313434D
:100320000B6010BC7047426830239A430A43426016
:10033000704781B06F490A6802430A60096801404A
:100340000091009901B07047B9490A6802430A60F8
:100350007047B7490A6882430A6070478020C00529
:1003600000680007000F70478020C0050068000982
:100370000007000F704780B5AE48006800280FD115
:10038000AD480068002803D1AC480068002807D0B9
:100390000120AB49886000F0FEFBFFF7D7FEFCE7C9
:1003A000012002BD00E400E01CED00E00400FA05BD
:1003B0000CED00E00000404898004048FFC0FFFFFF
:1003C00080B503210020FFF77BFE03210120FFF70A
:1003D00077FE03210220FFF773FE03210320FFF7BE
:1003E0006FFE03210420FFF76BFE03210520FFF7BA
:1003F00067FE03210620FFF763FE03210720FFF7B6
:100400005FFE03210820FFF75BFE03210920FFF7B1
:1004100057FE03210A20FFF753FE03210B20FFF7AD
:100420004FFE03210C20FFF74BFE03210D20FFF7A9
:1004300047FE03210E20FFF743FE03210F20FFF7A5
:100440003FFE03211020FFF73BFE03211120FFF7A1
:1004500037FE00211220FFF733FE03211320FFF7A0
:100460002FFE03211420FFF72BFE03211520FFF799
:1004700027FE03211620FFF723FE01211720FFF797
:100480001FFE00211820FFF71BFE03211920FFF794
:1004900017FE01BD70B504000D0016003000C0B29B
:1004A00000280FD02000FA21890000F075FB401EC3
:1004B0006843644908600020634908600520634977
:1004C000086004E06148016801229143016070BD49
:1004D0000C004048FFFFFFC000B55C480068C00347
:1004E00001D5012000E0002000BD000008004048C8
:1004F000FF7FFEFF60004048FFEFFFFFFEB50026D4
:100500003000694608700122C821CA48FFF7C2FFBF
:10051000FFF7B8FE002806D1FFF7DEFF0028F7D06E
:10052000012069460870002200210020FFF7B2FF79
:1005300068460078002802D0684600783DE0202018
:10054000FFF7AEFE80204001FFF77BFEBA4800684F
:10055000BA49884215D10F20B9490A68024002926F
:100560000A68120957077F0F0A68140A04400A68CC
:10057000120B104001900868000C8506AD0E012694
:1005800003E0082402941E2503272800FFF709FE34
:100590003000C0B2002802D00198FFF73FFE2000D3
:1005A000FFF7B1FE0298FFF79DFE3800FFF788FEC7
:1005B00080204000FFF76DFE0020FEBD0400504883
:1005C000140050481C005048FFFEFFFF2800504810
:1005D0002C00504894005048FFC7FFFF10B500247E
:1005E0000122962149009348FFF754FFC020800163
:1005F000FFF75DFE80200002FFF7F5FD6020FFF7AA
:1006000006FEFFF7F7FDFFF7FBFD002805D1FFF71A
:1006100063FF0028F7D00220040000220021002000
:10062000FFF738FF2000C0B210BD00003FFCFFFF05
:10063000400040489400404810005048380050485E
:100640000400002014E000E018E000E010E000E00A
:10065000F1B582B06846007A00280ED02020FFF75E
:1006600005FE0220FFF7E6FD0120FFF76DFE0120E9
:10067000FFF76FFE0120FFF75CFE6F4800686F49CF
:10068000884215D10F226F4B1868000A1040196874
:10069000090B11401C68240C224007241D682D0DF5
:1006A000254001951B681B0E1C400094012303E0AC
:1006B0000822100007210023634D0F242E680F2706
:1006C000BE432700174037432F60604D2F68F02648
:1006D000B743BC460F01F0263E4067463E432E60BE
:1006E0002E680F27BE43044034432C601C00E4B244
:1006F000002C11D0564C25680726B543019E76077D
:10070000760F2E43266025683826B543009EF600F6
:10071000382737402F4327604E4C25683F26B54386
:100720000A262E432660256840262E4326609C4CD0
:1007300025683F26B54304262E432660256880267B
:100740002E43266025684026B5432560954C2568D4
:100750003F26B5432560944C25683F26B5431026B7
:100760002E432660914C25683F26B54320262E4314
:1007700026608F4C25683F26B54330262E432660E1
:100780008C4C25683F26B54338262E4326608A4C7C
:1007900025683F26B54339262E432660874C2568B9
:1007A0003F26B5433A262E432660854C25683F26D2
:1007B000B5433B262E432660824C25683F26B54331
:1007C0003C262E432660804C25683F26B5433D26B7
:1007D0002E43266055247D4D2E68FF27BE432643B9
:1007E0002E607B4D2E68FF27BE43662737432F6060
:1007F000784D2E68FF27BE4334432C60AA4C2568F1
:10080000FF26B5431D262E432660A84C2568FF26EB
:10081000B54359262E432660A54C2568FF26B543CF
:1008200032262E432660A34C256801262E432660DF
:10083000F7BD00000024F400F81E0010CCECBCFC56
:10084000E41E0010E81E00107816006074160060A8
:1008500048160060C0160060F8B506000025964CEA
:10086000012264212000FFF715FEFFF779FCFFF756
:100870007EFC002805D1FFF72FFE0028F7D00420CA
:100880000500002200210020FFF704FE2800C0B26E
:10089000002802D02800C0B280E03000C0B200289A
:1008A00009D1FFF761FD0701FFF758FD3843102814
:1008B00001D1062072E03000C0B200286BD03000B9
:1008C000C0B201280AD039D3032814D00DD305288B
:1008D0001FD017D307282AD022D32FE00020FFF7FC
:1008E000C5FC9F489F49086029E02020FFF7BEFC17
:1008F0009C48046023E04020FFF7B8FC9A489949DF
:1009000008601CE06020FFF7B1FC9848954908603A
:1009100015E08020FFF7AAFC9548924908600EE098
:10092000A020FFF7A3FC93488E49086007E0C02091
:10093000FFF79CFC90488B49086000E0FEE7894C7B
:100940000122C8212068FFF7A5FDFFF781FCFFF712
:1009500086FC002805D1FFF7BFFD0028F7D0052051
:100960000500002200210020FFF794FD2800C0B2FE
:10097000002802D02800C0B210E0206878498842E0
:1009800004D110217D48FFF7CEFC06E000217B4812
:10099000FFF7C9FC01E0FFF711FC0020F2BD0000E9
:1009A000C4160060E8160060EC160060F0160060E7
:1009B000F4160060F8160060FC1600600017006076
:1009C00004170060081700600C17006048150060ED
:1009D000541500606815006070B505000C00280013
:1009E000C0B2FF2801D100205CE02000C0B2042882
:1009F0000BD02000C0B2052807D02000C0B20628C6
:100A000003D02000C0B2072801D101204AE0200015
:100A1000C0B2032805D12800C0B2002801D10120AE
:100A200040E02800C0B2012803D02000C0B2032853
:100A300005D10420FFF7FEFB0120050002E00220A3
:100A4000FFF7F8FBFFF790FC0601FFF787FC304348
:100A5000102826D12000C0B2012807D12800C0B23A
:100A6000012803D12A204649086016E02000C0B2C0
:100A7000012803D12800C0B2002807D02000C0B24E
:100A8000022807D12800C0B2012803D129203C49FF
:100A9000086002E028203A4908603A4800680007E8
:100AA000FBD4002070BD0000881500608415006034
:100AB0008C1500606C1500600048E801F8B507006F
:100AC0000C00314831490860314908612020FFF7A6
:100AD000D4FB4020FFF7D1FB8020FFF7CEFBFFF7D0
:100AE0000DFD05002800C0B2002802D02800C0B2C9
:100AF00034E0FFF773FD06003000C0B2002802D0DA
:100B00003000C0B22AE02000C0B2FF2802D001208D
:100B1000FFF79EFD2020FFF731FB3020FFF73AFB67
:100B20003800C0B2FFF798FE05002800C0B20028C8
:100B300002D02800C0B211E03900C9B22000C0B212
:100B4000FFF74AFF06003000C0B2002802D0300094
:100B5000C0B203E0FFF734FC62B60020F2BD000033
:100B60000090D0035C0300200024F40000127A00FF
:100B700000093D0080841E0040420F00001000402C
:100B800000500040045000400000041008ED00E058
:100B900004000020704770470022030A8B420BD2EA
:100BA00003098B4219D243088B422ED2411A00D23C
:100BB0000146524110467047FF2209023FD01206FB
:100BC0008B4205D3121209028B4201D31212090281
:100BD00003098B4219D300E0090AC3098B4201D3F0
:100BE000CB01C01A524183098B4201D38B01C01A39
:100BF000524143098B4201D34B01C01A52410309B0
:100C00008B4201D30B01C01A5241C3088B4201D35E
:100C1000CB00C01A524183088B4201D38B00C01A0B
:100C2000524143088B4201D34B00C01A52418842C3
:100C300000D3401A5241CFD201461046704708B542
:100C400000F002F808BD70477047704700B501001A
:100C500049B2002905D40121C206D20E9140B74AFB
:100C6000116000BDF0B5020052B2002A1CD403226C
:100C7000B34B040064B2A40804256C431C59FF253F
:100C80001600064008277E43B540AC438D01EDB207
:100C900002400826724395402543020052B2920852
:100CA000042462439D5022E00F24CE4A0323050012
:100CB0006DB22540083DAD0804267543060076B2A6
:100CC0003440083CA408042674431659FF27BC4648
:100CD0001C00044008277C436746A740BE438C01A4
:100CE000E4B2034008277B439C4034435451F0BD99
:100CF00010B4CB4A14234B43D318143B1B68012474
:100D00001C4314234B43D218143A146010BC704790
:100D100010B4C34A14234B43D318143B1B6801245B
:100D2000A34314244C431219143A136010BC7047A7
:100D300030B4BB4B14244C431C19143C2468CC4DD8
:100D40002540154314244C431B19143B1D6030BC33
:100D500070470200B2481423594340181438016800
:100D6000CB480840704730B4AD4B14244C431C1999
:100D7000143C24682025AC43144314254D435B19CF
:100D8000143B1C6030BC704730B4A54B14244C435A
:100D90001C19143C24684025AC43144314254D43CE
:100DA0005B19143B1C6030BC704730B49C4B14245E
:100DB0004C431C19143C24688025AC43144314256F
:100DC0004D435B19143B1C6030BC704730B4944BEE
:100DD00014244C431C19143C2468B34D254015437E
:100DE00014244C431B19143B1D6030BC704730B4B5
:100DF0008B4B14244C431C19143C2468AB4D2540E8
:100E0000154314244C431B19143B1D6030BC704720
:100E100030B4834B14244C431C19143C2468A44D57
:100E20002540154314244C431B19143B1D6030BC52
:100E3000704730B47A4B14244C431C19103C24687E
:100E4000240C2404144314254D435B19103B1C60EF
:100E500030BC704770B5049C102C0BD1704D14261B
:100E60004E43AE19083E326014264E43AD190C3D78
:100E70002B600AE06A4D14264E43AE190C3E3260D8
:100E800014264E43AD19083D2B6070BD30B491233C
:100E9000DB0504244C431C19241F24681F25AC4384
:100EA000144304254D435B191B1F1C6030BC704765
:100EB00010B45B4A14234B43D318143B1B68022421
:100EC0001C4314234B43D218143A146010BC7047CF
:100ED00010B4534A14234B43D318143B1B68082403
:100EE0001C4314234B43D218143A146010BC7047AF
:100EF00081B0B0490A6802430A6009680140009164
:100F0000009901B0704781B0AB490A6802430A609A
:100F1000096801400091009901B0704781B0A7496C
:100F20000A6802430A60096801400091009901B013
:100F30007047A3490A6802430A60704700E100E075
:100F400000E400E000B50200D2B2032A08D19D4AB5
:100F500013680B4313609C4A13688B43136032E0A1
:100F60000200D2B2012A08D1964A13688B4313605B
:100F7000954A13680B43136025E00200D2B2022A9F
:100F800008D1904A13688B4313608F4A13688B43D0
:100F9000136018E00200D2B2042A08D1894A13680B
:100FA0008B431360884A13688B4313600BE0020085
:100FB000D2B2052A07D1834A13688B431360824A51
:100FC00013680B43136000BD00B5804909680140F8
:100FD000814201D1012000E0002000BD7B49086072
:100FE000704700001CED00E079490A6882430A60FE
:100FF00078490A6802430A60704776490A68824362
:101000000A6073490A6802430A60704771490A68B6
:1010100082430A606E490A6882430A607047000092
:10102000080070486C490A6882430A606B490A6884
:1010300002430A60704769490A6882430A60664948
:101040000A6802430A60704764490A6882430A607A
:1010500061490A6882430A607047016801220A43B5
:10106000026070470168DA4A0A4002607047000077
:10107000EFBFFFFF8268D200D2084B0713438360A3
:1010800070478268D34B13404A061A438260704708
:10109000104000004168D04A0A40426081682A221C
:1010A0009143816070470000FFFCFFFFFFF3FFFFEB
:1010B000FFCFFFFFC069410D0800C007C00F704798
:1010C000C069810D0800C007C00F704781684022C9
:1010D0000A4382607047816880220A4382607047B9
:1010E00000B50200002902D11000283001E01000F4
:1010F000243000BD30B403680C004C4303256C431E
:10110000A3430C004C4354431C43046030BC704761
:1011100070B504000D0016009020C005844211D166
:10112000002E03D0022E09D004D31CE02800FFF7C4
:101130006DFF18E02800FFF757FF14E02800FFF7C5
:101140005CFF10E0002E03D0022E09D004D30AE089
:101150002800FFF779FF06E02800FFF763FF02E0B1
:101160002800FFF768FF70BD81617047816270479A
:1011700042694A404261704780B5FF210220FFF773
:101180009DFC002800D0FEE700F02AF8DF48006848
:1011900000F037FA00F077F900F02CF900F01EF9B2
:1011A00000F025F800F0A1F900F042F900F0B0F9E4
:1011B000FEE70000500040485400404858004048B6
:1011C0001800004010000040140000401C000040C7
:1011D00024005048200050482C0050482800504817
:1011E00080B501210020C043FFF73CFD01BDF0B5F3
:1011F0008FB02022002107A800F024FA1822002135
:1012000001A800F01FFA8020C000FFF787FE8020B1
:101210008000019002240294039400260496012584
:10122000059506969027FF0501A9380000F0C5FA3C
:101230008020400001900294039404960595069640
:1012400001A9380000F0B9FAD14C0D220721200085
:10125000FFF71CFE102207212000FFF769FD802503
:10126000AD012A0007212000FFF7D2FD002207214F
:101270002000FFF778FD002207212000FFF784FD02
:10128000802207212000FFF790FD00220721200087
:10129000FFF79CFD002207212000FFF7A8FD0C228C
:1012A00006212000FFF7F2FD002206212000FFF7B3
:1012B0003FFD2A0006212000FFF7AAFD002206219B
:1012C0002000FFF750FD002206212000FFF75CFD03
:1012D000802206212000FFF768FD00220621200061
:1012E000FFF774FD002206212000FFF780FD00219A
:1012F0000820FFF7B7FC0820FFF7A8FC0721200013
:10130000FFF727FD0700AB4D00212800FFF7E8FE9F
:1013100000970300A84A07212000FFF79BFDA7487C
:10132000027807212000FFF784FD06212000FFF747
:1013300010FD070001212800FFF7D2FE0097A04B07
:10134000020006212000FFF785FD9E480278062155
:101350002000FFF76EFD07212000FFF7A9FD072100
:101360002000FFF7B5FD06212000FFF7A1FD0621B3
:101370002000FFF7ADFD0796E12040020890099696
:101380000A960B960C200C900D960E9607A9280035
:1013900000F0AFFA00212800FFF76CFE00212800C2
:1013A000FFF76FFE2800FFF75DFE2800FFF772FED3
:1013B0002800FFF752FE2800FFF77CFE0028FAD035
:1013C0002800FFF77DFE0028F5D00FB0F0BD00002B
:1013D000FFFFFFDFFFFFFFF1FFB7FFFF80B5012039
:1013E000FFF786FD00211120FFF73CFC1120FFF7DD
:1013F0002DFC01BD38B586B018220021684600F0EA
:1014000021F90820FFF774FD6F4D8024640021004E
:101410002800FFF7A9FE009401200190002002900F
:10142000039004906946280000F0C7F907B030BD6A
:1014300010B5604C2000FFF749FE2000FFF74BFE7F
:10144000534C06212000FFF753FC07212000FFF733
:101450004FFC10BD80B5802149005B48FFF786FE38
:1014600001BD80B5802149005748FFF77DFE01BDD1
:1014700010B50400802149005348FFF779FE200091
:1014800000F0C7F8F6E738B50420FFF731FD8020FB
:101490004000FFF738FD9025ED058024E400002290
:1014A00021002800FFF726FE002221002800FFF778
:1014B0002FFE2000FFF73DFD21000120FFF742FD38
:1014C0002000FFF781FD002802D02000FFF786FDF5
:1014D00001210F20FFF7C6FB0F20FFF7B7FB032109
:1014E0000020C043FFF7BEFB31BD80B53748007810
:1014F000002808D1802149003348FFF739FEC82071
:1015000000F087F8F2E7FFF7ACFF01BD5C030020B5
:1015100010B52F4800780128FBD11D4C0721200071
:10152000FFF7F6FB2B4800780128FBD106212000AD
:10153000FFF7EEFB234802782149274800F00AF81C
:10154000002804D0FA208000FFF792FF01E0FFF7A7
:1015500081FF10BD10B503001000421EC0B200286C
:1015600008D018780C78A04201D0012003E05B1C61
:10157000491CF1E7002010BD012014490870704794
:101580000120134908707047012012490870704704
:101590000000704810B5114C07212000FFF7B8FB80
:1015A00006212000FFF7B4FBFA208000FFF760FF60
:1015B00010BD00000040004160030020180400201E
:1015C0001404002019040020000010481A04002010
:1015D0001B0400201C0400200804002000007048A8
:1015E00030B504000D0020002900FFF7D5FA401E99
:1015F000114908600020114908600720104908605F
:1016000030BD10B50400FA2189002000FFF7E8FF83
:1016100010BD80B502000A490B680093009B0023AF
:10162000DB439A4200D0521C002A04D00B68DB0333
:10163000FAD5521EF8E701BD14E000E018E000E022
:1016400010E000E010B504000800110002002000C6
:1016500000F08AF9200010BD79490A6882430A60C7
:1016600078490A6802430A60704776490A688243EB
:101670000A6073490A6802430A60704771490A6840
:1016800082430A606E490A6882430A6070476E4965
:101690000A6882430A606D490A6802430A6070471B
:1016A0006A490A6882430A6067490A6802430A6015
:1016B000704766490A6882430A6063490A68824340
:1016C0000A60704730B403680C004C4303256C4338
:1016D000A3430C004C4354431C43046030BC70478C
:1016E00010B443688B430C0054431C43446010BC4B
:1016F000704730B483680C004C4303256C43A3430C
:101700000C004C4354431C43846030BC704770B59C
:1017100004000D0016009020C005844211D1002E57
:1017200003D0022E09D004D31CE02800FFF7A6FF47
:1017300018E02800FFF790FF14E02800FFF795FF5E
:1017400010E0002E03D0022E09D004D30AE02800B6
:10175000FFF7AFFF06E02800FFF799FF02E028003F
:10176000FFF79EFF70BD30B4036A0C004C434C433E
:101770004C430F256C43A3430C004C434C434C4358
:1017800054431C43046230BC704730B4446A0B0AB3
:101790000D0A6B430D0A6B430D0A6B430F256B4318
:1017A0009C430B0A0D0A6B430D0A6B430D0A6B43F6
:1017B00053432343436230BC7047F8B506000C0026
:1017C00000252068E84000282DD020680121A9408C
:1017D00001400F00002F24D0606802280CD1FF2F99
:1017E00005D8626939003000FFF7BDFF04E0626987
:1017F00039003000FFF7C9FF626839003000FFF799
:1018000061FF6068012802D06068022804D1A268E4
:1018100039003000FFF76DFF226939003000FFF713
:1018200076FF6D1CCDE76068012802D06068022851
:1018300004D1E26821683000FFF752FF0020F2BDBA
:1018400024005048200050482C00504828005048A0
:1018500001680800C007C00F7047C26A0F239A438F
:101860000B009BB21A43C26270474268384B134068
:101870000B43436070478268364B13400B438360D1
:101880007047FCB504000D0016001F008020000208
:1018900086421DD1304831492A0092B20223534377
:1018A000C95AFFF779F902214843790840183900ED
:1018B000FFF772F980B2009000992948084000991A
:1018C00049084907490F084301900198E0600FE07B
:1018D000214822492A0092B202235343C95AFFF7F2
:1018E0005BF9790840183900FFF756F980B2E060DB
:1018F000F3BD70B505000C0001262800FFF7A8FF16
:10190000002822D1286817490140A06808432169AE
:10191000014360690843E16901432960E1682800E7
:10192000FFF7A3FFA1692800FFF7A5FF6068002863
:1019300007D06368E26921682800FFF7A2FF002052
:10194000060021682800FFF788FF3000C0B270BD94
:10195000FFCFFFFFFFFCFFFF0024F400801B0410FB
:10196000F0FF0000F369FFEF1206130A1A43130C8D
:101970001A4300BF094205D0830705D00270401CFE
:10198000491EF9D1704700001300103906D330B456
:101990001400150010393CC0FCD230BC490700D3FC
:1019A0000CC000D504C0890002D30280801C00292D
:1019B00000D50270704770470068410D0800C007ED
:1019C000C00F70470068410E0800C007C00F704785
:1019D0000068C10D0800C007C00F70470068C10E45
:1019E0000800C007C00F704780214903416070475D
:1019F000802149044160704700B52A4909680140C7
:101A0000814201D1012000E0002000BD254908608D
:101A1000704700B5FEE724480168491C0160704723
:101A200010B5224C2000FFF7C7FF002805D020008A
:101A3000FFF7DAFFFFF7A8FD06E02000FFF7C8FF79
:101A4000002801D0FFF7A6FD2000FFF7BBFF00280C
:101A500005D02000FFF7CCFFFFF792FD06E0200045
:101A6000FFF7BCFF002801D0FFF794FD10BD7047C1
:101A700010B58024E4002000FFF7BEFF00280FD03F
:101A80002000FFF7C3FF0A4807490A680368D21A13
:101A9000AF235B009A4203D309680160FFF76CFD36
:101AA00010BD00001C0000400C0400200000704825
:101AB0001004002030B501684118446862088A1893
:101AC0008368E40704D54C461B1901E0641C06D169
:101AD00091420BD00C7864B2491C0D78491C1D70E2
:101AE0005B1C002CF2D4641EF7D5F1E70C3030BD3E
:101AF00010B5074979441831064C7C44163404E08B
:101B0000081D0A68891888470100A142F8D110BD54
:101B100008000000240000009DFFFFFF6801000096
:101B200018000000C00000208DFFFFFFA000000093
:101B3000700100005C030020FEF71DFC002801D0AE
:101B4000FFF7D6FF00BF00BF002000BF00BFFFF7B8
:101B500013FB00F000F880B500F002F801BD7047FB
:101B60000746384600F002F8FBE7704780B500BF33
:101B700000BF024A11001820ABBEFBE7260002009E
:101B8000010002000400060008000A000C0010001A
:101B9000200040008000000100BF00BF00BF00BF68
:101BA000FFF7CAFF7047704770477047704770472C
:101BB000704770477047704770477047704770476D
:101BC0007047704770477047704770477E0090D0ED
:101BD00003424C55454E52475F4C5020555341529D
:101BE00054204C4C20415049204578616D706C6503
:101BF000203A2054582F525820696E20444D4120DD
:101C00006D6F64650D0A436F6E6669677572617406
:101C1000696F6E20554152542031313532303020B9
:101C20006270732C20382064617461206269742FA3
:101C3000312073746F70206269742F4E6F20706151
:101C4000726974792F4E6F2048572066266C6F7723
:101C500020636F6E74726F6C0D0A506C65617365F2
:101C600020656E7465722027454E44272073747278
:101C7000696E6720FD2E050D0A00454E44F30001F4
:101C8000A803FD0081008100810081008100DF0048
:0400000510041B992F
:00000001FF
