:020000041004E6
:1028000000000120C9560410DD540410DF540410E8
:10281000AA5555AA45554C42000000000000000092
:10282000000000000000000000000000E15404105F
:10283000000000000000000037300410E3540410D2
:10284000973004109B300410BF3C041087420410E2
:10285000DF420410C3470410A7560410D5560410D5
:10286000D7560410D9560410DB560410DD56041058
:10287000DF560410E1560410E3560410E55404102A
:10288000E5560410E756041055550410E956041097
:1028900031550410EB560410ED5604102955041060
:1028A00021550410EF560410000000000000000045
:1028B0000000000000000000000000000000000018
:1028C00010B5C20018231340FF249C40E24389073F
:1028D000090E9940030004D4C8489B089B00C01807
:1028E00006E0C74B0007000F083880088000181862
:1028F00003681A401143016010BD000081B0C14857
:10290000016802220A430260002102E000BF009930
:10291000491C009100990629F8DB016804220A434A
:10292000026001B0704780B5B7480068002814D134
:10293000B6480168002902D1806A00280DD0012024
:10294000B349886000F076FBBFF34F8FB148B249BE
:102950000860BFF34F8F00BFFDE7012002BD80B5C7
:1029600003210020FFF7ACFF03210120FFF7A8FFA0
:1029700003210220FFF7A4FF03210320FFF7A0FF9C
:1029800003210420FFF79CFF03210520FFF798FF98
:1029900003210620FFF794FF03210720FFF790FF94
:1029A00003210820FFF78CFF03210920FFF788FF90
:1029B00003210A20FFF784FF03210B20FFF780FF8C
:1029C00003210C20FFF77CFF03210D20FFF778FF88
:1029D00003210E20FFF774FF03210F20FFF770FF84
:1029E00003211020FFF76CFF03211120FFF768FF80
:1029F00000211220FFF764FF03211320FFF760FF7F
:102A000003211420FFF75CFF03211520FFF758FF77
:102A100003211620FFF754FF01211720FFF750FF75
:102A200000211820FFF74CFF03211920FFF748FF72
:102A300001BD30B50D00C54C002A0AD0FA2189002D
:102A400000F00EFB401E684360600020A06005207F
:102A500002E0206801218843206030BDFFB50121DC
:102A60002022002818D067480368E024A3431343BA
:102A70000360836D0624A34302241C438465836B97
:102A80000B438363836B8B438363836D0B4383654A
:102A9000806D0840009000980723AD480469AD4D53
:102AA000AC4218D1046800940468076805682D0DCD
:102AB0001D4003950068000E1840029001250F2666
:102AC000380C3040270AF0243C400194009C240A32
:102AD0002640009604E00820009070240194002510
:102AE000BF4C0F26F643276B374038432063E06A1C
:102AF000F027B843019F0743E762E06A0640009869
:102B00003043E0623820002D0CD025689D43039EA1
:102B100033402B43236023688343029DED0005402F
:102B20001D4325603F23DB43A56F1D400A262E432E
:102B3000A667A56F40262E43A667E56F1D400426B5
:102B40002E43E667E56F80262E43E667E56F402655
:102B5000B543E567A03425681D40256065681D40C4
:102B600010262E436660A5681D402A43A260E268D5
:102B70001A4030251543E56022691A401043206150
:102B800060691840392202436261A06918403A2204
:102B90000243A261E06918403B220243E261206ADD
:102BA00018403C2202432262606A03403D201843E1
:102BB00060625523FF20C0438A4A146804401C43C6
:102BC0001460D468044066252543D560146A044027
:102BD00023431362136C03401D241C431464D36B02
:102BE000034059241C43D463536C184032230343DD
:102BF0005364506A01435162FFBD000000E400E0ED
:102C00001CED00E008004048940040481000504887
:102C1000040000200400FA050CED00E0F1B5724E4E
:102C2000012264213000FFF704FF704D28688021E5
:102C30004902014329600027444C2868800303D4DB
:102C40002068C003F9D50427002200210020FFF7E7
:102C5000F0FE380039D16846017808000CD1802098
:102C6000C00501680068F0220A400007000F104309
:102C7000102867D10620F2BDE020C043491E062976
:102C80004FD801A2525C9744064452606E7C8A0081
:102C9000A9680840A8607000554E30600122C82124
:102CA000FFF7C7FE28688021890101432960286851
:102CB000400403D42068C003F9D505270022002171
:102CC0000020FFF7B6FE38002CD03800F2BDA9680E
:102CD000084020210143A9603000DDE7A9680840D1
:102CE00040210143A9607008D6E7A9680840602127
:102CF0000143A960B008CFE7A968084080210143DB
:102D0000A960F008C8E7A9680840A0210143A960AC
:102D10003009C1E7A9680840C0210143A9607009D2
:102D2000BAE7FEE73020C04332493268AD4B9A42E1
:102D30000A6804D11040102202430A6004E01040E7
:102D4000086001E0FFF7DAFD0020F2BD10E000E0CE
:102D5000E81E0010CCECBCFC10B5FF2833D00429D1
:102D60000CD005290AD0062908D0072906D006224A
:102D7000D2439D4B032903D1002809D1012010BD66
:102D8000012805D01C682240022414431C6005E081
:102D90001868024004201043186001208022D205E8
:102DA00013681268F0241C401207120F2243102AE5
:102DB00009D18E4A012908D101280CD12A2010609E
:102DC00050680007FCD4002010BD022905D101285D
:102DD00003D12920F3E70028FBD02820EFE70000EB
:102DE00048160060481500600048E80100004048AF
:102DF0007804002004100040F3B583B07C487D497E
:102E000008607D4908617D4E3068202101433160B2
:102E100030684021014331603068802101433160D6
:102E2000002500240122C8217548FFF702FE7549DC
:102E300030690191400704D40868C003F8D5012423
:102E40000125002200210020FFF7F3FD6E4F002C2A
:102E50002ED028002BD10024012296214900684859
:102E6000FFF7E7FD6948716A01407162B16A084085
:102E7000B062B86866490140802000020843B8602B
:102E8000F86860210143F960386810210143396016
:102E90003868800604D401980068C003F8D502247D
:102EA000002200210020FFF7C4FD20006DD096E035
:102EB000B0693021884320210143B161B868802185
:102EC00049010143B960534A50695349884219D1B5
:102ED00010681168136814682404240F029414689D
:102EE0000122DD091E232B4000932402FC239B05B5
:102EF0002340CC01E021890121408401F0208000A1
:102F0000204007E0D00C10210091F0235B05002247
:102F1000C0214901FC68414D25402B43FB60FB6803
:102F2000802424041C43FC601E23DB43002A09D0B8
:102F3000FA681A40029C64001443FC60FA68012499
:102F40001443FC60364A14682340009C1C43146000
:102F5000136801241C4314601368324C1C40204346
:102F60001060106820230343136010682E4B034049
:102F70001943116010688021C90001431160B069D4
:102F8000802149000143B16165E76846047CFF2C5C
:102F900002D00120FFF762FD6846057B23480168E7
:102FA000234A0A408021890111430160016880227F
:102FB0000A43026001687022914330220A43026092
:102FC0002800FFF72BFE010009D129002000FFF7A0
:102FD000C3FE010003D1FFF7C2FC62B6002005B0BA
:102FE000F0BD00000090D003600040480050004059
:102FF0000028041008ED00E0040000200400504800
:103000000024F40010E000E000004048FFCFFFFF84
:10301000FF7FFEFFE41E0010CCECBCFCFFFFFFC0F6
:10302000940050483FFCFFFFFFC7FFFF9800404857
:10303000FFC0FFFF70477047CA0F00D0494203101E
:103040005A400DD004B500D3404200F009F8009A70
:10305000D20701D34942124200D5404204BD0000CC
:10306000094214D088420FD30122030C01D100047D
:103070001204002300185B418B4200D35B1A5241BB
:10308000F8D319001000704701000020704708B500
:1030900000F002F808BD704770477047010005D482
:1030A0000121C006C00E8140974801607047F3B50A
:1030B00089B000250D700998807A00285CD093486B
:1030C00003C8934A1268002312184B4106A80CC08B
:1030D000EFF31080029072B600F087FC02000B0044
:1030E000099803C804AC03C4012404A803C80090D1
:1030F000019106A803C8C826B602002736184F411A
:1031000000980199B9420ED301D8B0420BD306A85A
:1031100003C8B9267600002736184F419F4226D8AB
:1031200001D3964223D200200A32434104A803C8A7
:1031300000264C38B1418B4211D801D382420ED2C5
:103140000998027AC37A04A803C8190000F0EEFCBB
:103150000A990870099885720998447209E08348B1
:103160008572029880F310880A98047004E0684819
:103170004476029880F310880BB0F0BD80B500F063
:10318000D5FB01208849087101BDF3B587B004461D
:103190000020087000E02469002C5DD0207B00280E
:1031A000F9D0EFF31080019072B6002069460870E4
:1031B000491C6E48FFF77BFF00F017FC02000B0074
:1031C00003CC083C0F00861A9F4104AAC0C2012507
:1031D00004AA0CCA002B34DB01DC012A31D3634A78
:1031E0000CCA02AE0CC602AAC0CA494A926B00239E
:1031F00012184B419F4210D801D396420DD25B4A20
:10320000527A002A09D002AA0CCA8B4207D301D8ED
:10321000824204D33E48057601E06846057069465F
:1032200004A80CC8100000F043FC68460078012890
:1032300009D14E48817A427A0A4382720021417252
:1032400001E008980570019880F3108808980078CC
:10325000002801D0079800E0200009B0F0BDFEB5BD
:1032600000256C462570017B002901D00120FEBDA0
:103270000CC00838012101734B4CA6680196070069
:1032800001E035003669002E08D00CCE083E03CF91
:10329000083F8B42F5D301D88242F2D33800066151
:1032A000002D01D1019000E028610199814213D1E4
:1032B0006946FFF76AFFA0606846007800280BD0D7
:1032C000EFF3108072B6217D4A1C637D9A4200D0D4
:1032D000491C217580F3108868460078FEBD10B542
:1032E0000B4C002808D0207B00280BD12000203078
:1032F000FFF744FF012004E02000203000F0A5F893
:103300000020207310BD000000E100E02005002037
:10331000C004002080B569461448FFF7C8FE224863
:10332000017E002903D00021017600F008F88E48C4
:10333000016801220A4302600068009001BD18B5CF
:1033400019490020087689480268894B13400360B8
:103350000A7D531C4C7DA34200D0521C0A75C169E2
:1033600001220A43C261C069009011BD38050020E6
:1033700050480168022900D170471CB50068032835
:1033800010D0094C6946A068FFF7FFFEA0606846B0
:103390000078012806D1207D411C627D914200D039
:1033A000401C207513BD0000C0040020FEB50300C2
:1033B0000024684604726F4EF17232726E4803C880
:1033C0001A1A002312184B410CC6083E74720127CA
:1033D000B77200F00AFB694DAA680CCA8B4215D37C
:1033E00001D8824212D303CE083E00900191A86B0F
:1033F000002180185941009A019B8B4206D301D8C5
:10340000824203D3A868007B002811D102A93000B2
:10341000FFF74DFEAC680CCE03CC083C8B420ED3BC
:1034200001D882420BD3207B002808D02F7606E0FB
:10343000534801784906490E01708474C474012010
:10344000FFF74DFF6846007AFEBD7CB503004B4C8C
:10345000A268150000210026100001E02E002D6951
:10346000002D09D09D42F9D101932B69954201D1DC
:10347000180002E0336100E001936D462970019B62
:103480001973824214D06946FFF77FFEA060684638
:10349000007800280DD0EFF3108072B6217D4A1C11
:1034A000637D9A4200D0491C217580F3108873BD5A
:1034B000A06073BD0C000060F8B5050000F0A4FB2F
:1034C0008D48012641683143416001683143016004
:1034D0001820FFF7E3FD2888C92800DAC820274C08
:1034E000A0631420FFF7DAFD6846A9788170696847
:1034F000C1702988018000F0BAF91F4800F098FADD
:103500000027A76026731B4A00205072907200218A
:1035100003C228882061A782686800030A21FFF798
:103520009FFD20602771754D002804D1280000F010
:1035300084FB20600AE0280000F07FFB21688142C4
:1035400003D3280000F079FB010021606C48A062E1
:10355000676300F04AFA2268002312184B412000EA
:103560002030FFF77CFEF1BD441800603018006089
:10357000FFFFFFBF3805002020050020C004002009
:10358000C4000020F8B584B0002469460C70EFF345
:10359000108672B65B48407A00280CD000F025FAFD
:1035A00002000B00574D03CD083D994203D801D3CB
:1035B000904200D26C7286F310884E4F22E0401C7D
:1035C00019E00469002101738168002900D088474F
:1035D0002000F6D16946B868FFF7D7FDB8606846A5
:1035E000007801280AD1EFF3108172B6387D421CB1
:1035F0007B7D9A42E3D1387581F31088787D0399F9
:1036000040187875787D397D0A1A02D280204000F2
:103610001218002A28D00392BC6800260294019454
:10362000002502E0260024696D1C002C0FD0207BB1
:103630000028F7D000F0D9F902000B0003CC083CB9
:10364000801A99410029EDDB01DC0628EAD3002D20
:1036500003D000203061029401E000200190029824
:10366000B86001980028B4E7274E01243879002873
:1036700027D000F067F900283AD100253D7100F00D
:1036800071F9300000F0D4F9787E00280AD07D76F8
:103690001C4884726946FFF70AFD6946B868FFF75F
:1036A00074FDB86038002030FFF7CFFE00F09DF9C0
:1036B0003A68002312184B4138002030FFF7CFFD45
:1036C00016E0307C002813D000F08FF902AA03C264
:1036D00003CEFA225203002312184B4102A803C85A
:1036E0008B4205D801D3824202D200F01FF93C710F
:1036F00005B0F0BDC004002040180060FFEFFFFFE0
:103700007D31041038050020200500209148816893
:1037100001220A43826000210160704730B58E4B60
:103720008C490A681A400C681C40A242F9D1002A50
:10373000F7D08A4B14125C43D5B25D432B12E318C9
:1037400010335B1143628261854A4B6813404C68B9
:103750001440A342F9D1002BF7D09911A74A514345
:10376000803109120162C36130BD10B50400FFF75A
:10377000CDFFAE480068C007FBD52000FFF7CEFFA5
:1037800010BD68214143090ADB225043000C081890
:10379000704780B5FFF7F5FF49E238B530C8083803
:1037A000954A13680B60AB4A416AC06A181A00F068
:1037B00065FA00210019694134BD70B50500904CCF
:1037C000607A7D214843C900FFF736FC461CF6B2FB
:1037D000A14A296A1B2000F051FA20706078FFF797
:1037E000D8FF3D216854E0788019FFF7D2FF3521DA
:1037F000685420798019FFF7CCFF3621685460792E
:10380000FFF7C7FF37216854A079FFF7C2FF3821BF
:10381000685470BD38B50400774805688D4AA16AC0
:10382000206B281A00F02AFA210008310CC9002167
:103830008018594103C4083CE56225632200083220
:1038400003C2606AA06231BD80B5834A00F016FAF7
:103850008249884201DD080002E0102800DA1020C9
:103860008C4900118882888A8C49086001BDF8B5AE
:103870000700884C38882061874EB0797D21484305
:10388000C900FFF7D9FB451CEDB2F878002802D13A
:10389000B87800280DD08248C168C907FBD50168F7
:1038A00017220A4302602000FFF75FFF606AA062F0
:1038B00009E0C8204003A06260627A4820627A482A
:1038C000A0617A48E061F87834216054216A206967
:1038D00080B2FFF7B9FF00203E216054002103C4ED
:1038E000083C454A1268E26222632200083203C2A1
:1038F0002000FFF762FF30784019FFF742FF1B30CE
:103900003921605470784019FFF73BFF1B303A2192
:103910006054B078FFF735FF1B303B216054F078DE
:10392000FFF72FFF1B303C216054F1BD7E4800782B
:10393000002806D00748816801220A4382600021DE
:103940000160704739480068C107C90F012048402D
:103950007047000008100060FFFF0700F6BC080079
:10396000FFFFFF0738B590B04A4C3420205C002898
:1039700031D068462100402200F0A2F96846FFF7E6
:10398000CDFE0899049880B2FFF75EFF6846FFF706
:1039900014FFEFF3108572B60698A0610798E061F6
:1039A00008982062099860620A98A06268463521EA
:1039B000415C3522A1543621415C3622A154372185
:1039C000415C3722A1543821415C3822A1543D2169
:1039D000405C605402E0EFF3108572B62000FFF700
:1039E00019FF85F3108811B030BD80B5694696483F
:1039F000FFF7D3FE04BD000010180060530700005D
:103A0000C5000020F8B50500224C69462000FFF7EC
:103A1000C4FE06000F008D4A616A0098401B00F04A
:103A20002DF900233900301A9941F4BD10100060BF
:103A30000200854B3420185C1074D869D0601800DF
:103A4000083003C803C2083A98699060186B506147
:103A5000704700003506000026030000FF0F00003D
:103A60007D494A68520003D5096801600320704708
:103A700077490A68022A03D149680160012070472A
:103A80000A68032A03D149680160022070470020B8
:103A90007047000080040020C80000200818006063
:103AA00004100060C2F528008D5B0000ECEB65019E
:103AB00070B50C00694A6449096A00F0DFF801003A
:103AC000202900D82021664A106841180831D161A8
:103AD00093698025AD051D439561136A8025ED0529
:103AE0001D43156200235A4D2E68022E05D02D6805
:103AF000032D02D02578012D01D0237070BD594CC3
:103B000025786D066D0E2570A374E3740F23994319
:103B1000516191690723994391619169C023DB0544
:103B20000B43936170BD0000B4040020FEB5040097
:103B3000454E3920305C012905D1002A01D03521BC
:103B400006E0362104E0002A01D0372100E03821C8
:103B5000715C0091019002A93000FFF71EFE201A4F
:103B6000404D00273C4C3D4A01993369C918C83182
:103B70008142316A17D200F081F86978401A0099C1
:103B8000401A029909182160616807229143616017
:103B90002F490F606168C022D2050A436260009914
:103BA0006A788B1812E000F069F83D21715C401AC8
:103BB000009A801A029A1218254B5A6002221A6043
:103BC0006268244B13406360009A5318297880225E
:103BD0000A432A70F021A974FF21E974C118581D05
:103BE000814207D21A48076060681A490140616043
:103BF0000120FEBD154A716A180000F03FF83E2111
:103C000070540020FEBD00001748012142680A439D
:103C1000426002681143016080200004134908607B
:103C2000704780B512480068FFF7ECFE04BD0B4AF0
:103C30000549096A00F022F802BD80B5034A02492D
:103C4000496AF7E700000000800400203506000004
:103C50000C000060FFFFFFBF241800602603000077
:103C600010180060C40000204818006000E100E067
:103C70001400006080B5FFF784FD02BD10B59042CE
:103C800016D98AB2030C090C0C46594380B253432F
:103C9000444350431B191A041B0C1018594180222D
:103CA0005203002312184B41520DD802104310BD8D
:103CB0004843802252031218520D104610BD70471F
:103CC00070B4103A03D378C9103A78C0FBD25307C6
:103CD00001D318C918C001D508C908C0D20704D338
:103CE0000B880380891C801C002A01D50B78037087
:103CF00070BC7047F8B596B0050017001E001C9800
:103D0000049103A92B22885400200A9002950E9753
:103D100000960EE0252912D00498029A904704904C
:103D2000002800D1D2E00A98401C0A900E98401C4E
:103D30000E900E9801780029ECD10A98C8E0002076
:103D4000079008900990022608210191012404217E
:103D50000E9D00E020436D1C2A78202AFAD0232AE9
:103D60000AD02B2A04D02D2A04D0302A08D00AE009
:103D70003043F0E70843EEE7020008201043EAE78B
:103D800002001020FAE72A2A0ED1009A17683A6832
:103D90003F1D009B1F600C92002A03D553420C93D9
:103DA000014308006D1C14E000210C91004A0BE057
:103DB000CBCCCC0C0C9B934205DA9F00FB185B002C
:103DC000591830390C916D1C29780B00303B0A2BA7
:103DD000F0D329782E2903D00021C9430B9127E085
:103DE0006D1C29782A2908D1009909680A68091DDB
:103DF000009B19600B926D1C1AE02D2902D12D2316
:103E00006D1C00E0002300210B910CE0002B09D178
:103E10000B9ABC4FBA4205DA9700BA1852005118F3
:103E200030390B916D1C29780A00303A0A2AEDD3FB
:103E300003A908852F783900B3A000F01BFA0028E9
:103E400001D038006D1C03AF2A217854785C6828B3
:103E500005D12878682802D1622078546D1C10A8FA
:103E600006902A78681C0E90252A15D0582A52D020
:103E7000632A00D1BCE0642A00D17FE0692A00D126
:103E80007CE06F2A47D0702A3AD0732A08D0752A6E
:103E900041D0782A3FD0B5E0079410A90A70BAE063
:103EA000009800680468001D009908600594002CC3
:103EB00013D12B20385C00280CD00024E44300BF31
:103EC00093A000F0E1F9201A00D1A4E00020C04343
:103ED00017B0F0BD95A005909DE00B9D002D03D57A
:103EE000200000F0F5F909E02A000021200000F090
:103EF000F7F9002801D0001B00E0280008908AE0B4
:103F0000009800680168001D009A1060039110A8D5
:103F10000590782168E0785C622803D0682809D091
:103F20006C280FE0009801680868091D009B196063
:103F3000C0B20DE0009801680868091D009B196077
:103F400080B205E0009801680868091D009B1960AF
:103F50000390388D0199C0B2084240D003980028E0
:103F60003DD020201043782839D1079810A930235C
:103F70000B54401C431C07930A5430E0785C6228C1
:103F800003D0682809D06C280FE000980168086801
:103F9000091D009B196040B20DE000980168086897
:103FA000091D009B196000B205E0009801680868CF
:103FB000091D009B19600390002802D507982D2148
:103FC00009E0388D304202D007982B2103E0C0076A
:103FD00005D50798202110AB1954401C079010A854
:103FE000079940180590110003A800F0A0F812E00E
:103FF0000794009800680168001D009A106010A8DE
:10400000017008E00794252010A90870100002D064
:10401000079610A842700C980799401A0999401AFF
:104020000899401A0F902820385C400713D42020AC
:10403000694608710F9800280DDD0F9C029D012331
:1040400001AA03A9280000F0FAF8002800D03DE7F3
:10405000641EF4D10295079D10AC002D0ED0029E77
:10406000227803A9300000F0D9F8002802D4641C9B
:104070006D1EF5D10296002800D027E73020694652
:104080000871099C002C0CDD029D012301AA03A9E3
:10409000280000F0D4F8002800D017E7641EF4D1FF
:1040A0000295059C089D002D0ED0029E227803A942
:1040B000300000F0B3F8002802D4641C6D1EF5D166
:1040C0000296002800D001E72820385C400700D481
:1040D0002FE62020694608710F98002800DC28E6AA
:1040E0000F9C029D0E9F009E012301AA03A9280098
:1040F00000F0A5F8002800D0E8E6641E00D105E62F
:10410000F2E70000CBCCCC0C686C747A4C00000059
:104110007072696E74665F733A2062616420257301
:1041200020617267756D656E740000000000F0B567
:1041300083B00A00C4686F2901D1082506E0202158
:104140001143782901D00A2500E0102518270168BD
:104150000E00642A01D0692A03D1002901D57142D9
:104160000E00002E0CD1016A002909D1082D31D191
:104170002821415C09072DD517273021E17529E059
:104180000290684602707F1E019730002900FEF7FA
:1041900067FF3031C8B23A2803DB684600785138EF
:1041A0000918E15530002900FEF75AFF060004D037
:1041B00002988068E1198842E5D30298082D09D158
:1041C0002821415C090705D5E15D302902D07F1E19
:1041D0003021E1551821C91B4161E2198260026A50
:1041E000914206DA511A8161018D0B4A0A4002851B
:1041F00010E0002A0ED52822825C14231340102BD5
:1042000008D1426A0369D21A8369D21A511A012964
:1042100000DB816103B0F0BDEFFF000010B50300CB
:104220000C001100606898476060002804D0E069C5
:10423000401CE061002010BD0020C04310BDF8B557
:104240000024002B11D007000E0014001D0021785F
:104250007068B8477060002809D0F069401CF061B0
:104260000020641C6D1EF2D104002000F2BD00206D
:10427000C043F9E7C9B202788A4203D0401C002A41
:10428000F9D100207047704780B5002801D100BFE8
:1042900007A006490B68002B03D022220021984773
:1042A00001E000F028F8222002BD0000580500209F
:1042B000636F6E73747261696E742068616E646C92
:1042C00065723A20626164206D6573736167650091
:1042D000431C0178401C0942FBD1C01A704770474B
:1042E000C9B2521E05D30378401C8B42F9D1401E3F
:1042F00070470020704780B5012000F001F801BD33
:1043000080B500BF00BF024A11001820ABBEFBE71A
:1043100026000200804908684A681202FF231B0237
:104320001340C0B21843896801D00C2901D37F2003
:104330000EE006225143773901E0891D40081F280D
:10434000FBD2FF22A23250438E4A8018800A0818FE
:1043500040B27047F8B58C4807680760B80100D4D0
:1043600083E08A4CA068884989694022114039431A
:10437000C160416B88470128A06801D1C56A00E08F
:10438000056B7F2182480026002D0AD17E4A966067
:10439000804A1368804E1E401660027811400170FA
:1043A0004CE02A7880231343037018302A78502376
:1043B0005A438218137819403C23EB5C0B4313706B
:1043C000290018310091011D2A7850235A43009B7F
:1043D0008B50010008312A7850235A43009B8B50A0
:1043E00029785022514340182B21AA7842546878EA
:1043F000400723D5644886606878810612D5FFF7A8
:10440000F4FA00906868FFF735FC009A10183C2118
:10441000695C802901D1012100E000216B78DA0775
:10442000D20F09E001223C21695C802901D10121E0
:1044300000E0002102406868FEF7B8FFB80F80076F
:1044400008D0FFF767FFA1684861FFF7EAFBA168A2
:10445000086105E0780103D5FFF75CFFA1684861BA
:10446000A068A5602900826B904747480068F1BDAD
:1044700030B50022944B5024604318182E258B5CD5
:1044800084186355521C052AF9DB3221415CC906A8
:10449000C90E3222815430BD10B58B4B502460437D
:1044A0001818C02304781C400C430470447823403F
:1044B000194341702D21425410BD10B5824B502438
:1044C0006043181841622823C254110A2923C15499
:1044D000110C2A22815410BD10B57B4B502460432F
:1044E0001818012901D0012A09D1202182780A4314
:1044F00082702322825C11432322815403E081785D
:10450000DF220A4082702321415C40220A4323219A
:10451000425410BD00000000A416006003219A4A16
:10452000D30A984205D21070030A5370000C014060
:1045300026E0530A984209D283081370830A537005
:10454000800C014091709078042118E09B00984203
:1045500009D203091370030B5370000D01409170D1
:10456000907808210BE09B0098420AD283091370CF
:10457000830B5370800D0140917090780C210143A2
:1045800091707047A04600000400006048050020BC
:10459000C400002028180060FFFFFFBF70B50400B2
:1045A00014220021183000F005F920001830A06115
:1045B000A06820627548006846382422A054010A89
:1045C0002522A1540003000F262160541020615CB5
:1045D00001432622A154617880224023194203D14D
:1045E0002623E35C134302E02625655D2B43262545
:1045F0006355237F81250D4004262E431E432677D5
:10460000637F0840062505431D436577FF20272368
:10461000E0540220E36A5B78034203D0637F012504
:104620001D43657700233C256355014200D0625548
:1046300070BDBCB50400684600F08EF8002841D17A
:1046400000255348056022787F207F211140802378
:104650001343504A13701832502359435118220003
:1046600018328A604A60A2782B23CA544A4A94605E
:104670000A7810403C22A25C02430A7072B660784D
:10468000810611D5FFF7B1F907006068FFF7F2FA6C
:1046900038183C21615C802901D1012100E0002112
:1046A000637801221A4009E03C21615C802901D134
:1046B000012100E00021012202406068FEF776FE41
:1046C00062B6B6BDC420B6BDDC000020F8B58026B9
:1046D000F60232480660BFF34F8FBFF36F8F00259D
:1046E0002C4805702E4FBD602E4C21682E4A0A4082
:1046F0002260202141703F2181700921C170762103
:1047000001713A214171742181713821C1711421E3
:104710000172052141720221017310218172C1725F
:10472000400DFFF7FBFE1F2000F022F800220021C1
:104730000020FFF7D1FE1548962101600571386809
:1047400038600120E1690143E161A1690843A0618A
:10475000164806603868F1BD010000200D4A127845
:10476000120600D4704780B50800FFF779F902BD42
:1047700000210F4A50234B43D2182C23D054491CFC
:104780000829F6DB70470000D10000204805002012
:104790000C000060C40000204805002080E100E01B
:1047A0000400006028180060FFFFFFBF00E100E088
:1047B000DC00002080B50B0011001A0000F002F8A8
:1047C00001BD7047094202D0491E4254FCD17047D6
:1047D00081B082490A6802430A6009680840009073
:1047E000009801B0704710B50B004B4301685C00A6
:1047F000E418A14353430B43036010BD43688B434C
:10480000514319434160704710B50B004B43816819
:104810005C00E418A14353430B43836010BD30B5E3
:10482000CB436F4C9025ED05A8421AD1002A03D046
:10483000022A0FD007D330BD20681840206060687E
:104840000340636030BD60680340636020680143DB
:10485000216030BD206803402360606801436160CF
:1048600030BD002A03D0022A0FD007D330BDA06884
:104870001840A060E0680340E36030BDE06803409A
:10488000E360A0680143A16030BDA0680340A3605D
:10489000E0680143E16030BD10B5090A0B004B43ED
:1048A0004B434B43416A1C01E41AA14353430B435E
:1048B000436210BD7CB506000420FFF789FF9025F8
:1048C000ED058024A400022221002800FFF78BFFC1
:1048D000022221002800FFF797FF00222100280074
:1048E000FFF78CFF012221002800FFF798FF00222C
:1048F00021002800FFF7D0FF0420FFF769FF6408BC
:10490000022221002800FFF76EFF0222210028006A
:10491000FFF77AFF002221002800FFF76FFF012236
:1049200021002800FFF77BFF002221002800FFF76D
:10493000B3FFA0002B490A6802430A6009680840D7
:104940000090009828488B21C1600168274A0A40DE
:1049500002604168264A0A40426001680C220A430C
:1049600002608168234A0A4082608168224A0A40C4
:1049700082608168C900C9088160016862050A43D4
:10498000026041681D4A0A40426081682A229143C0
:104990008160016801220A43026031000ED018498B
:1049A0000E60016820220A43026016480168FF2257
:1049B000914340220A4302601348046073BD10B55E
:1049C0000023124A06E014682406FCD5DCB2045D1C
:1049D000D4605B1CDCB28C42F5D310BD5000404863
:1049E000200050485800404800400041FFE9FFEFD8
:1049F000FFCFFFFFFFFCFFFFFFFFFFF1FFB7FFFF50
:104A00005405002008E400E000E100E01C40004103
:104A100070B50025012804D0022802D00020C04330
:104A200070BD002901D1002070BD0C00160005E00A
:104A300001212000FFF7C3FF641C6D1C3000461EDF
:104A40000028F5D1280070BD01B50122694601207A
:104A5000FFF7DEFF009802BD38B5C06841062CD4D0
:104A60006D4C002810D4410106D5012000F09CF9BE
:104A70002089401C208107E0400005D5022000F07D
:104A800093F9A088401CA080E188491C634881718B
:104A900001258AB2642A0BD1257064216181A18825
:104AA000A1812189E181002200212281A2808271DD
:104AB000E180002000F078F9A570012032BD0000EF
:104AC000F0B585B05BA003C803AA03C20021012092
:104AD000FEF792F9002800D0FEE700F023F901204C
:104AE00000F020F9022000F01DF90121002000F063
:104AF000DFF90021012000F0DBF9012000F031FA9C
:104B0000012804D1012000F02CFA0128FAD000205D
:104B1000FFF7D0FE0220414F387005217970012146
:104B2000B970F87003203871042078713A4DE88824
:104B3000B871FFF7CBFD03A8FEF7BEFC384800F0C4
:104B400053FA1F20FFF714FE00261CE0604201907C
:104B500002980090AB89EA89E978324800F0A4FA1B
:104B60002E706878012804D16E70E97837A000F0C3
:104B70009BFA012000F0F5F9012804D1A87800285B
:104B8000FCD000F0A5FAFEF7FDFCA878002814D0B0
:104B9000AE7025480290FF200190913000902B00CC
:104BA00010333A000146E87800F022FA010004D000
:104BB000EA8800BF21A000F077FA28780028D0D03A
:104BC000E889A98940186989FEF736FA040000F0DF
:104BD000A3FA0022154B00F0A9FA6A4603C264202A
:104BE00044430294204600F097FA02000B00684606
:104BF00003C800F0BAFB00220D4B00F097FA00F05A
:104C00002BFC0400684603C8002280235B0300F0ED
:104C10004CFC9BD820009AE75C030020FC04002099
:104C2000D6BE898E60550410594A041000005940C0
:104C300000408F4001000000000000004552524F2C
:104C40005220256420282564290D0A004368616EDE
:104C50006E656C2025640D0A0000000081B05E497D
:104C60000A6802430A60096808400090009801B091
:104C7000704710B50B004B4301685C00E418A1437A
:104C800053430B43036010BD43688B4351431943A7
:104C90004160704710B50B004B4381685C00E4181D
:104CA000A14353430B43836010BD30B5CB434B4C02
:104CB0009025ED05A8421AD1002A03D0022A0FD070
:104CC00007D330BD206818402060606803406360EF
:104CD00030BD60680340636020680143216030BDDF
:104CE00020680340236060680143616030BD002A92
:104CF00003D0022A0FD007D330BDA0681840A060AF
:104D0000E0680340E36030BDE0680340E360A06812
:104D10000143A16030BDA0680340A360E068014387
:104D2000E16030BD38B5010018D10420FFF796FFCF
:104D30009024E4054020A061012240212000FFF7DB
:104D400098FF022240212000FFF7A4FF002240210B
:104D50002000FFF799FF0122402121E0204C01288B
:104D600005D10820FFF77AFF80256D0006E00228B4
:104D700019D10820FFF772FF8025AD00A56101223F
:104D800029002000FFF775FF022229002000FFF70D
:104D900081FF002229002000FFF776FF0122290071
:104DA0002000FFF782FF31BD010005D10D480168E9
:104DB00040224A40026070470B49012803D108682D
:104DC0008022520004E0022804D108688022920068
:104DD00042400A60704700005000404820005048A0
:104DE000000010481400004814001048010005D4C9
:104DF0000121C006C00E81406E480160704710B5A9
:104E0000C20018231340FF249C40E2438907090E87
:104E10009940030004D468489B089B00C01806E032
:104E2000664B0007000F08388008800018180368D8
:104E30001A401143016010BD81B061490A68024304
:104E40000A60096808400090009801B07047CA43A2
:104E50005C4B032803D118680143196008E001285E
:104E60000CD0022801D0042806D118681040186020
:104E7000586802405A607047052805D118680240FA
:104E80001A60586801435960704710B50B004B43D6
:104E900001685C00E418A14353430B43036010BD59
:104EA00000690840884201D1012070470020704706
:104EB000F8B506000F00444C8025ED00300010D1FD
:104EC0000420FFF7B9FF002229009020C005FFF75A
:104ED000DCFF3E4821680140216061680840606055
:104EE00011E0012E0FD10820FFF7A6FF002240217C
:104EF0003748FFF7CAFF4020C043A1680140A160C6
:104F0000E1680840E060012F2AD1A80831490A6809
:104F100002430A6009680840009000982E4C300057
:104F20000DD129000120FFF792FF6560206805433D
:104F3000256003210F20FFF762FF0F200EE0012EF6
:104F40000ED1250A2900FFF782FF6560206805431E
:104F5000256003211020FFF752FF1020FFF746FFC6
:104F6000F1BD80B5010000200A0004D18021C900F4
:104F70009020C00503E0012903D140211448FFF728
:104F80008FFF02BD01000020144A0B0002D11068FF
:104F9000410503E0012902D110684102C80F7047A2
:104FA0000E49020001D1080D02E0012801D1080AD2
:104FB0000860704700E100E000E400E01CED00E064
:104FC000500040481000004020005048FFFBFFFF09
:104FD0000000104854004048180000401C000040E9
:104FE0000120704701207047284908600020704761
:104FF000F9B585B00C0015000C9E0E9FFEF7F5FC70
:1050000000902000FEF736FE009A141801A8FFF762
:10501000A3FB02A822A10CC90CC002A90020FFF723
:1050200027FA00226846017D0020FFF735FA184A6A
:10503000164801680020FFF740FA3000FFF76EFACB
:105040000020144E3070032171707460B070B56030
:1050500035004035F56235630F4971630F4AB2631D
:1050600028806C600DAA1278AA70069AAA60E8627D
:1050700028636963AF633000FFF790FA2800FFF7F9
:105080008DFA3000FFF7D5FA07B0F0BD70040020AC
:105090005555550030000020E14F0410E54F041035
:1050A000FFFFFFFFFF0000000EB4C0B5020003A821
:1050B00001900020009001AB0121044878440C309D
:1050C000FEF718FE029906B0084700BFE70500008A
:1050D000054806490860BFF34F8F05480549086039
:1050E000BFF34F8F00BFFDE7554201B00400002021
:1050F0000400FA050CED00E0010042221201D21E6C
:10510000004207D002D4521E0018FCD5C10A400547
:1051100012058918704700000100EED54042F446A0
:10512000FFF7EBFF0122D20711436047F0B50E00F5
:105130005E400125ED072E40B446AE0ADF184C183C
:10514000F44208D2F7420ED2640D01D07F0D12D185
:1051500000206146F0BD05D1F74201D87F0D05D191
:105160000020C143F0BDFBD1640DF9D00020C14344
:10517000490549088FE0E419C902DB0229432B43A2
:10518000DB0A460DC00231438E4630B487B295B279
:105190007D432E0CADB2140C7C43A419260C2404C0
:1051A00025439CB27C43A419190C7943270CC919D7
:1051B000A4B20F043C43090C000C97B247432E0CD9
:1051C000BE193543ADB2170C4743360CBF19A6B212
:1051D000BF193E043543240C3E0C36199FB2474399
:1051E000BF19BCB23E0C89191F0C47437F183E04FF
:1051F0003443390C704680B297B247432E0CBE1927
:105200003543ADB2170C4743360CBF19A6B2BF19D0
:105210003E043543240C3E0C36199FB24743BF1958
:10522000BCB23E0C89191F0C47437F183E0434431F
:10523000390C77463F0C90B278432E0C8019060447
:10524000ADB22E43050CA0B22D18120C7A435019A2
:10525000020C80B2240CA4189AB27A4312191404D6
:105260002043120C89181B0C7B43C91830BCEF0A71
:10527000394203D1B61940414941641E6F12BF0D36
:10528000E41B0BDBFF19BC4211DA2405002742089E
:10529000AE417841614166463143F0BD641C05D1A1
:1052A000401C6141CF0201D34908F4E750E75DE7B4
:1052B0008B4200D1824205D98446100062468C465A
:1052C00019006346DF184C18640D7F0D3AD0661C38
:1052D000760537D0E61B352E34DCDB022B43DB0AA8
:1052E0000C0DC9022943C912202E0DDB1700203EE8
:1052F00006D01F00F741F3405F400026012A7741A6
:10530000C01871410DD217E01700F741F240574025
:10531000F3415A40B340F3405A40002680185941A7
:105320000AD3A21C52050FD0C207012F72411700E9
:105330004008CB0718434908641C24054208AF41C4
:1053400070416141F0BC7047641C21050020F9E701
:105350006B4010E06B40ABE7F742F3D1E943F1E774
:105360002442EFD100200021ECE7F0B40125ED0745
:105370000F005F40EED40C00871A9C4105D2C01B81
:10538000A141D219634169406B40AE0ADF184C1845
:10539000F442E1D2640D7F0DE2D0E61B362ED1DC63
:1053A000DB022B43DB0AA4460C0DC9022943C90AC0
:1053B000012E28DC04D1D6075208DF073A435B08E8
:1053C000EF0A76429041994114D039423BD1B61947
:1053D00040414941761C394204D1761C00184941AC
:1053E0003942FAD0B9436746B74208D9A41B24050D
:1053F0002143A7E70042EAD13642E8D1A2E7E40A16
:10540000E10700209EE7202E0BDD203E1F00F34029
:10541000F7415F40012A002257417E429841914165
:105420000BE01700F741F2405740F3415A40B340B8
:10543000F3405A407E42904199410A0303D2641ED0
:10544000B619404149410027641E24054208AE4177
:1054500078416141F0BC7047F4464A1805D200F02B
:105460000FF801D580174008604700F009F80121C6
:10547000C907884200D90800404260474A1812D242
:10548000400DC90208430121C9070843520D4021BC
:105490000901521A521C06D452421F3201D4D04084
:1054A0007047C01770470020704730B4012464056E
:1054B0004D00EC420BD85D00EC4208D80C001C43B8
:1054C00064000443144304D28B4200D1824230BCB6
:1054D0007047FCD09942FAD19042F8E7FEE7FEE728
:1054E000704770471CB500200090164902E00098F4
:1054F000401C009000988842F9D30020FFF742FD3D
:1055000001280CD10020FFF74BFD01200E49087047
:105510000E4C2078401C2821FDF78EFD217013BD14
:1055200080B5FDF7F7FE01BD80B5FDF708FF01BDB1
:1055300081B00748016801220A43026000680090B8
:1055400001B07047FFFF05005D0300205F030020EE
:105550007400006080B5FEF7FDFEFDF709FF01BD98
:105560002D2D4368616E6E656C203D2025642C54A2
:10557000696D656F7574206572726F7273203D205E
:1055800025642C435243206572726F7273203D2054
:1055900025642C504552203D2025642E2530326450
:1055A000202025250D0A000070B40123002413E0FB
:1055B0000168001D194202D04D466D1E49190C604C
:1055C000091D121F042AFAD20D00960701D50C807E
:1055D000AD1C1A4000D02C700268001D002AE7D1D3
:1055E00070BC704730B501684118446862088A1879
:1055F0008368E40704D54C461B1901E0641C06D1FE
:1056000091420BD00C7864B2491C0D78491C1D7076
:105610005B1C002CF2D4641EF7D5F1E70C3030BDD2
:1056200010B5074979441831064C7C44163404E01F
:10563000081D0A68891888470100A142F8D110BDE9
:10564000080000003C00000061FFFFFF8000000038
:1056500030000020DC00000080040020000000007A
:1056600085FFFFFFA200000018000000C00000201E
:1056700075FFFFFF7C0000002C0000005C03002091
:10568000FDF751F9002801D0FFF7CAFF00BF00BFA6
:10569000002000BF00BFFFF713FA00F000F880B54C
:1056A00000F002F801BD704707463846FEF728FEB5
:1056B000FBE738B505000C002000FFF7C5F9A04254
:1056C00000D00025280032BD00BF00BF00BF00BFD2
:1056D000FFF7D6FF704770477047704770477047B5
:1056E0007047704770477047704770477047704702
:1056F000030000011881008100EE0003DF88DF88CD
:10570000FB000290D00381008100810081008100B4
:02571000DF00B8
:04000005100456C9C4
:00000001FF
