:020000041004E6
:1000000000000120DD200410350804104B0E041000
:10001000AA5555AA45554C420000000000000000BA
:10002000000000000000000000000000CB0E0410E3
:100030000000000000000000230F0410D120041075
:10004000BB150410F71B0410EF1C04109F200410B4
:10005000F5200410F7200410F9200410FB200410F0
:10006000FD200410FF2004100121041003210410BE
:100070000521041007210410092104100B2104108C
:100080000D2104100F21041011210410132104105C
:100090001521041017210410192104101B2104102C
:1000A0001D2104101F2104100000000000000000AA
:1000B0000000000000000000000000000000000040
:1000C00010B5C20018231340FF249C40E243890767
:1000D000090E9940030004D4C8489B089B00C0182F
:1000E00006E0C74B0007000F08388008800018188A
:1000F00003681A401143016010BD000081B0C1487F
:10010000016802220A430260002102E000BF009958
:10011000491C009100990629F8DB016804220A4372
:10012000026001B0704780B5B7480068002814D15C
:10013000B6480168002902D1806A00280DD001204C
:10014000B349886000F077FBBFF34F8FB148B249E5
:100150000860BFF34F8F00BFFDE7012002BD80B5EF
:1001600003210020FFF7ACFF03210120FFF7A8FFC8
:1001700003210220FFF7A4FF03210320FFF7A0FFC4
:1001800003210420FFF79CFF03210520FFF798FFC0
:1001900003210620FFF794FF03210720FFF790FFBC
:1001A00003210820FFF78CFF03210920FFF788FFB8
:1001B00003210A20FFF784FF03210B20FFF780FFB4
:1001C00003210C20FFF77CFF03210D20FFF778FFB0
:1001D00003210E20FFF774FF03210F20FFF770FFAC
:1001E00003211020FFF76CFF03211120FFF768FFA8
:1001F00000211220FFF764FF03211320FFF760FFA7
:1002000003211420FFF75CFF03211520FFF758FF9F
:1002100003211620FFF754FF01211720FFF750FF9D
:1002200000211820FFF74CFF03211920FFF748FF9A
:1002300001BD30B50D00C54C002A0AD0FA21890055
:1002400000F0FAFA401E684360600020A0600520BC
:1002500002E0206801218843206030BDFFB5012104
:100260002022002818D067480368E024A3431343E2
:100270000360836D0624A34302241C438465836BBF
:100280000B438363836B8B438363836D0B43836572
:10029000806D0840009000980723AD480469AD4D7B
:1002A000AC4218D1046800940468076805682D0DF5
:1002B0001D4003950068000E1840029001250F268E
:1002C000380C3040270AF0243C400194009C240A5A
:1002D0002640009604E00820009070240194002538
:1002E000BF4C0F26F643276B374038432063E06A44
:1002F000F027B843019F0743E762E06A0640009891
:100300003043E0623820002D0CD025689D43039EC9
:1003100033402B43236023688343029DED00054057
:100320001D4325603F23DB43A56F1D400A262E4356
:10033000A667A56F40262E43A667E56F1D400426DD
:100340002E43E667E56F80262E43E667E56F40267D
:10035000B543E567A03425681D40256065681D40EC
:1003600010262E436660A5681D402A43A260E268FD
:100370001A4030251543E56022691A401043206178
:1003800060691840392202436261A06918403A222C
:100390000243A261E06918403B220243E261206A05
:1003A00018403C2202432262606A03403D20184309
:1003B00060625523FF20C0438A4A146804401C43EE
:1003C0001460D468044066252543D560146A04404F
:1003D00023431362136C03401D241C431464D36B2A
:1003E000034059241C43D463536C18403223034305
:1003F0005364506A01435162FFBD000000E400E015
:100400001CED00E0080040489400404810005048AF
:10041000040000200400FA050CED00E0F1B5724E76
:10042000012264213000FFF704FF704D286880210D
:100430004902014329600027444C2868800303D403
:100440002068C003F9D50427002200210020FFF70F
:10045000F0FE380039D16846017808000CD18020C0
:10046000C00501680068F0220A400007000F104331
:10047000102867D10620F2BDE020C043491E06299E
:100480004FD801A2525C9744064452606E7C8A00A9
:10049000A9680840A8607000554E30600122C8214C
:1004A000FFF7C7FE28688021890101432960286879
:1004B000400403D42068C003F9D505270022002199
:1004C0000020FFF7B6FE38002CD03800F2BDA96836
:1004D000084020210143A9603000DDE7A9680840F9
:1004E00040210143A9607008D6E7A968084060214F
:1004F0000143A960B008CFE7A96808408021014303
:10050000A960F008C8E7A9680840A0210143A960D4
:100510003009C1E7A9680840C0210143A9607009FA
:10052000BAE7FEE73020C04332493268AD4B9A4209
:100530000A6804D11040102202430A6004E010400F
:10054000086001E0FFF7DAFD0020F2BD10E000E0F6
:10055000E81E0010CCECBCFC10B5FF2833D00429F9
:100560000CD005290AD0062908D0072906D0062272
:10057000D2439D4B032903D1002809D1012010BD8E
:10058000012805D01C682240022414431C6005E0A9
:100590001868024004201043186001208022D20510
:1005A00013681268F0241C401207120F2243102A0D
:1005B00009D18E4A012908D101280CD12A201060C6
:1005C00050680007FCD4002010BD022905D1012885
:1005D00003D12920F3E70028FBD02820EFE7000013
:1005E00048160060481500600048E80100004048D7
:1005F000FC04002004100040F3B583B07C487D4922
:1006000008607D4908617D4E3068202101433160DA
:1006100030684021014331603068802101433160FE
:10062000002500240122C8217548FFF702FE754904
:1006300030690191400704D40868C003F8D501244B
:100640000125002200210020FFF7F3FD6E4F002C52
:100650002ED028002BD10024012296214900684881
:10066000FFF7E7FD6948716A01407162B16A0840AD
:10067000B062B86866490140802000020843B86053
:10068000F86860210143F96038681021014339603E
:100690003868800604D401980068C003F8D50224A5
:1006A000002200210020FFF7C4FD20006DD096E05D
:1006B000B0693021884320210143B161B8688021AD
:1006C00049010143B960534A50695349884219D1DD
:1006D00010681168136814682404240F02941468C5
:1006E0000122DD091E232B4000932402FC239B05DD
:1006F0002340CC01E021890121408401F0208000C9
:10070000204007E0D00C10210091F0235B0500226F
:10071000C0214901FC68414D25402B43FB60FB682B
:10072000802424041C43FC601E23DB43002A09D0E0
:10073000FA681A40029C64001443FC60FA680124C1
:100740001443FC60364A14682340009C1C43146028
:10075000136801241C4314601368324C1C4020436E
:100760001060106820230343136010682E4B034071
:100770001943116010688021C90001431160B069FC
:10078000802149000143B16165E76846047CFF2C84
:1007900002D00120FFF762FD6846057B234801680F
:1007A000234A0A40802189011143016001688022A7
:1007B0000A43026001687022914330220A430260BA
:1007C0002800FFF72BFE010009D129002000FFF7C8
:1007D000C3FE010003D1FFF7C2FC62B6002005B0E2
:1007E000F0BD00000090D003600040480050004081
:1007F0000000041008ED00E0040000200400504850
:100800000024F40010E000E000004048FFCFFFFFAC
:10081000FF7FFEFFE41E0010CCECBCFCFFFFFFC01E
:10082000940050483FFCFFFFFFC7FFFF980040487F
:10083000FFC0FFFF70477047094214D088420FD3B2
:100840000122030C01D100041204002300185B41B3
:100850008B4200D35B1A5241F8D319001000704745
:1008600001000020704708B500F040F808BDF1B461
:100870000168421841684808131800988068C90741
:100880001ED5494640181BE01778521C0770401CC3
:10089000761EF9D1002C13D01678521C89080D4011
:1008A000032D01D11578521C290271184D424119AE
:1008B000A41C05D00D78491C0570401C641EF9D19C
:1008C0009A420FD01178521C032503260E4002D104
:1008D0001678F61C521C0C090F2CD9D114780F3441
:1008E000521CD5E700980C30F2BC704770474300AB
:1008F000F0B597B0050016001F001C986A4600234B
:10090000002418C2059104A92B2288540B93039547
:100910000F960EE023000F9A04A9039800F07AFACC
:10092000002800D5D8E001E0F4D501240F98001983
:100930000F900F980078252809D100200890099081
:100940000A9002240821029104210F9D0CE06A46BE
:100950000021C9430F9800F0A7FA0400E4D10B98D6
:10096000BCE00200012010436D1C2A78202AF8D038
:10097000232A0AD02B2A04D02D2A04D0302A07D0CB
:1009800009E02043F0E70843EEE702000820EAE729
:1009900002001020E7E72A2A0CD13B681A681B1DC9
:1009A0003B600D92002A03D553420D93014308008A
:1009B0006D1C14E000210D91004A0BE0CBCCCC0C57
:1009C0000D9B934205DA9E00F3185B0059183039ED
:1009D0000D916D1C29780B00303B0A2BF0D3297840
:1009E0002E2903D00021C9430C9125E06D1C2978E4
:1009F0002A2906D139680A68091D39600C926D1CD4
:100A00001AE02D2902D12D236D1C00E000230021C6
:100A10000C910CE0002B09D10C9AB84EB24205DAC9
:100A20009600B2185200511830390C916D1C29787B
:100A30000A00303A0A2AEDD304A908852E7831003D
:100A4000AFA000F039FA002801D06D1C00E00026AC
:100A500004A82A214654405C682807D128786828D1
:100A600004D1622004A92A2288546D1C11A8079081
:100A70002A78681C0F90252A13D0582A4FD0632A51
:100A800000D1B1E0642A79D0692A77D06F2A46D0A4
:100A9000702A3BD0732A0AD0752A40D0782A3ED0DB
:100AA000ABE001200890252011A90870AFE038685C
:100AB0000468001D38600694002C14D104A82B2172
:100AC000405C00280CD00024E44300BF8EA000F05E
:100AD000FDF9201A00D19AE00020C04317B0F0BD04
:100AE00090A0069093E00C9D002D03D5200000F00F
:100AF00011FA09E02A000021200000F013FA002872
:100B000001D0001B00E02800099080E038680168EF
:100B1000001D3860049111A80690782160E004ABB4
:100B20002A20185C622803D0682807D06C280BE0C4
:100B300039680868091D3960C0B209E03968086879
:100B4000091D396080B203E039680868091D396001
:100B50000490188D0299C0B208423CD00498002835
:100B600039D020201043782835D1089811A9302396
:100B70000B54401C431C08930A542CE004AB2A205D
:100B8000185C622803D0682807D06C280BE039680D
:100B90000868091D396040B209E039680868091D14
:100BA000396000B203E039680868091D39600490B3
:100BB000002802D508982D2109E0188D204202D086
:100BC00008982B2103E0C00705D50898202111AB18
:100BD0001954401C089011A808994018069011005B
:100BE00004A800F0A0F812E001200890386801681D
:100BF000001D386011A8017009E00120089025202F
:100C000011A90870100002D0089411A842700D9824
:100C10000899401A0A99401A0999401A109004A894
:100C20002821405C400713D42020694608721098A0
:100C300000280DDD109C039D012302AA04A92800B1
:100C400000F0E8F8002800D046E7641EF4D10395D0
:100C5000089D11AC002D0ED0039E21780598B04759
:100C60000590002800D137E70B98401C0B90641CBE
:100C70006D1EF2D103963020694608720A9C002C42
:100C80000CDD039D012302AA04A9280000F0C2F88C
:100C9000002800D020E7641EF4D10395069C099D2E
:100CA000002D0ED0039E21780598B04705900028AE
:100CB00000D111E70B98401C0B90641C6D1EF2D103
:100CC000039604A82821405C400700D431E6202088
:100CD000694608721098002800DC2AE6109C039DE3
:100CE0000F9E012302AA04A9280000F093F800280F
:100CF00000D0F1E6641E00D109E6F2E7CBCCCC0CC3
:100D0000686C747A4C0000007072696E74665F7370
:100D10003A2062616420257320617267756D656E8B
:100D2000740000000000F0B583B00A00C4686F29A9
:100D300001D1082506E020211143782901D00A2598
:100D400000E01025182701680E00642A01D0692AE6
:100D500003D1002901D571420E00002E0CD1016A89
:100D6000002909D1082D31D12821415C09072DD551
:100D700017273021E17529E00290684602707F1E36
:100D8000019730002900FFF757FD3031C8B23A28EB
:100D900003DB6846007851380918E1553000290016
:100DA000FFF74AFD060004D002988068E1198842E6
:100DB000E5D30298082D09D12821415C090705D502
:100DC000E15D302902D07F1E3021E1551821C91B79
:100DD0004161E2198260026A914206DA511A816128
:100DE000018D0B4A0A40028510E0002A0ED5282208
:100DF000825C14231340102B08D1426A0369D21A73
:100E00008369D21A511A012900DB816103B0F0BD58
:100E1000EFFF0000F8B50024002B11D007000E00F2
:100E200014001D0021787068B8477060002809D050
:100E3000F069401CF0610020641C6D1EF2D10400BA
:100E40002000F2BD0020C043F9E7704730B453687A
:100E5000D41803E05B1C491E641C401C042B06DAFA
:100E6000002904D0057825700578002DF2D1536053
:100E700030BC704738B500290ED01D001400FFF7B4
:100E8000E5FF616820006A6B90470122D243811A16
:100E900002D0491E02D004E0012000E00020C0433F
:100EA00032BD0021616032BD80B5024BFFF7E2FF29
:100EB00002BD000000050020C9B202788A4203D0BA
:100EC000401C002AF9D100207047704780B50028E7
:100ED00001D100BF07A006490B68002B03D02222D6
:100EE0000021984701E000F028F8222002BD000010
:100EF0004C050020636F6E73747261696E742068B4
:100F0000616E646C65723A20626164206D65737312
:100F100061676500431C0178401C0942FBD1C01A7F
:100F200070477047C9B2521E05D30378401C8B42EC
:100F3000F9D1401E70470020704780B5012000F0B5
:100F400001F801BD80B500BF00BF024A11001820A2
:100F5000ABBEFBE72600020070B5040001D1012002
:100F600070BD2500403500266878002803D12E701A
:100F7000200000F0A3FA2420687020680168012294
:100F80009143016060682149014020680161216846
:100F90001F488A6802408A60E1680129A16801D17E
:100FA000C24301E0842212020A4321688A60E16898
:100FB000022903D1802109012268516021684A6811
:100FC000144B13434B602168CA681040C860206905
:100FD00061690143A069000208432168C860E069B3
:100FE000216A0143206801602068016801220A43E8
:100FF00002606E60202068702663AE70002070BDB5
:101000004870002088700870FEBD0000FFFFFFF0F0
:10101000FF7FFFFF00800002FEB5040040304078F3
:10102000202800D09DE00D0001D0160005D18020C1
:1010300080002100403148608BE04020205C012886
:1010400000D18EE0029301204021605400F06EFA3E
:1010500001902120210040314870202021004031A2
:1010600088700020210040314860656266856063B9
:1010700020684168874A0A40426080273F02019801
:101080000090029B00220821200000F013F90028A4
:1010900002D0206841685AE008252068C561E068F0
:1010A00002280DD101980090029B00220821200007
:1010B00000F000F90028206801D0416847E0C561D0
:1010C00001980090029B00226903200000F0F2F8D2
:1010D000002802D02068416839E0029E019D09E0A5
:1010E000606A007821688862606A401C6062608D76
:1010F000401E6085608D002809D02A003100200044
:1011000000F004F90028EBD0206841681FE02A00B5
:101110003100200000F023F900280AD0206841683F
:1011200039434160200040304168042911D1002139
:10113000416020202168C8610095330001223900F8
:10114000200000F0B7F800282068416803D00F4362
:1011500047600120FEBD0F43476021004031202041
:101160004EE70220FEBD0000FEB50400403040788E
:10117000202800D08BE00D0001D0160005D1802082
:10118000800021004031486079E04020205C012847
:101190007DD0029301204021605400F0C7F90190F6
:1011A00022202100403148702020210040318870E9
:1011B00000202100403148606562668560632068D8
:1011C0004168344A0A40426080273F0201980090FB
:1011D000029B00220821200000F06CF800283BD17F
:1011E00008202168C86101980090029B0122110427
:1011F000200000F05FF800282ED1029E019D08E03B
:10120000406A616A0870606A401C6062608D401EBE
:101210006085608D002818D02A003100200000F081
:10122000C2F800282068EBD041680F43476020686F
:101230008169490723D5406A616A0870606A401C69
:101240006062608D401E608519E02A003100200038
:1012500000F085F8002802D0206841680DE02020C9
:101260002168C8610095330001223900200000F098
:1012700021F800282068416803D00F43476001200F
:10128000FEBD0F434760210040312020B8E6022018
:10129000FEBD0000FF7FFFFF00688169890701D55F
:1012A00000218162012182690A4002D182691143D1
:1012B00081617047F8B5002405000F006846027090
:1012C0001E00286880693840B84201D1012000E042
:1012D000002069460978884216D10020C043864222
:1012E000EFD000F023F90699401A864201D3002E70
:1012F000E7D128004030202142680A434260417013
:10130000847004700120F2BD0020F2BD70B50400AD
:101310000D0016002068806980071ED43200290065
:10132000200000F07DF8002801D0012070BD0020D1
:10133000C0438542EED000F0F9F8801B854201D30E
:10134000002DE7D120004030202142680A4342604E
:101350004170002181700170E7E7002070BDF8B591
:10136000202504000E00170020688069284018D14D
:101370003A003100200000F053F800280FD100F0AF
:10138000D5F8C01B864201D3002EEDD1200040309D
:10139000416829434160457000218170017001203E
:1013A000F2BD0020F2BDF8B5202504000F00009228
:1013B00004262068806930402FD1009A390020002F
:1013C00000F02EF8002826D12068816929400FD12D
:1013D00000F0ACF80099401A874201D3002FE8D101
:1013E000200040304168294341604570002111E0F0
:1013F00081690E4002D0218D00290ED1C56120687F
:101400004168244A0A404260200040300021416087
:101410004570817001700120F2BD0020F2BD000016
:10142000F8B5102403689B69234030D005000F00F5
:101430000092202628688169314011D10020C043E4
:101440008742F7D000F072F80099401A874201D322
:10145000002FEFD12800403041683143416010E057
:10146000C4612868C6612800FFF716FF2868416834
:10147000084A0A40426028004030416804220A437A
:10148000426046700021817001700120F2BD002091
:10149000F2BD000000E800FE81B021490A68024365
:1014A0000A60096808400090009801B0704780B554
:1014B00000210020C04300F05CF801BD006819491C
:1014C000884200D07047F0B585B00420FFF7E4FFF4
:1014D0000420FFF7E1FF8020800100901226019692
:1014E00001240294002503950495B7066946380047
:1014F00000F064F8A003009001960294039504950F
:101500006946380000F05AF8E00507490A680243C6
:101510000A60096808400090009805B0F0BD00001E
:101520005000404800100041580040480148006801
:10153000704700BFF004002010B5C200182313400C
:10154000FF249C40E2438907090E9940030004D41C
:1015500016489B089B00C01806E0154B0007000FBB
:10156000083880088000181803681A401143016089
:1015700010BD80B5FFF7E0FF01BD000010B5401EB3
:1015800080214904884201D3012010BD094C6060CC
:1015900003210020C043FFF7CFFF0020A0600721F8
:1015A000216010BD80B500F007F801BD00E400E047
:1015B0001CED00E010E000E070477047F0B586B029
:1015C00002007E48009200220EE0130423610AE02C
:1015D0002B00039D1D43A560009B9025ED05AB42AC
:1015E000E368F2D12261521C0B68D34000D1E3E0E2
:1015F000DB07F8D54B68022B01D0122B0ED1009BD4
:10160000D408A4001B191C6A96001C2535400F261F
:10161000AE40B4430E69AE4026431E62009B1D6877
:10162000530003269E40F44325400E79B607B60FBB
:101630009E402E43009D2E604D68012D05D0022D49
:1016400003D0112D01D0122D14D1009DAD682C4076
:10165000CD689D402543009B9D60009B5C680123F5
:1016600001259540AC434D682D092B409340234301
:10167000009C63608B68009C9025ED05AC421DD1F9
:10168000002B03D0022B11D008D334E00C68E343C5
:1016900004681C400460446823400DE00B68446803
:1016A0009C43446004682343036024E00B6804689F
:1016B0009C4304604468234343601CE0002B03D038
:1016C000022B11D008D316E00C68E34384681C4059
:1016D0008460C46823400DE00B68C4689C43C46008
:1016E00084682343836006E00B6884689C438460BD
:1016F000C4682343C3604D68EB0000D473E7002344
:101700002F4C246801269640049636040396F6432F
:1017100002962D0980267601354095400127974095
:10172000FE430196009E9027FF05BE4202D1019E16
:10173000264002E0029E26402D043543204C2560C1
:101740004D680595ED031DD46568009EBE4201D12C
:10175000019E00E0029E2E40059FC025AD033D4046
:10176000C027BF03BD420CD10123A660009D902776
:10177000FF05BD4202D13500049E01E03500039E05
:101780002E436660A568002B00D024E79023DB057C
:10179000009E9E4202D12E00019D01E02E00029D7E
:1017A00035404E68F60200D415E7009E9E4200D0F8
:1017B0000EE72B00049D0DE706B0F0BD2000504859
:1017C0000C00004081B082490A6802430A6009683F
:1017D00008400090009801B0704710B50B004B43D3
:1017E00001685C00E418A14353430B43036010BD40
:1017F00043688B43514319434160704710B50B0058
:101800004B4381685C00E418A14353430B4383605E
:1018100010BD30B5CB436F4C9025ED05A8421AD1D1
:10182000002A03D0022A0FD007D330BD2068184009
:10183000206060680340636030BD6068034063609F
:1018400020680143216030BD206803402360606848
:101850000143616030BD002A03D0022A0FD007D3B4
:1018600030BDA0681840A060E0680340E36030BD70
:10187000E0680340E360A0680143A16030BDA06858
:101880000340A360E0680143E16030BD10B5090A80
:101890000B004B434B434B43416A1C01E41AA143E9
:1018A00053430B43436210BD7CB506000420FFF791
:1018B00089FF9025ED058024A40002222100280044
:1018C000FFF78BFF022221002800FFF797FF00227D
:1018D00021002800FFF78CFF012221002800FFF7DC
:1018E00098FF002221002800FFF7D0FF0420FFF717
:1018F00069FF6408022221002800FFF76EFF022220
:1019000021002800FFF77AFF002221002800FFF7BE
:101910006FFF012221002800FFF77BFF002221003A
:101920002800FFF7B3FFA0002B490A6802430A60B2
:10193000096808400090009828488B21C160016820
:10194000274A0A4002604168264A0A40426001680C
:101950000C220A4302608168234A0A40826081683F
:10196000224A0A4082608168C900C9088160016812
:1019700062050A43026041681D4A0A40426081686C
:101980002A2291438160016801220A4302603100EA
:101990000ED018490E60016820220A4302601648E2
:1019A0000168FF22914340220A4302601348046009
:1019B00073BD10B50023124A06E014682406FCD556
:1019C000DCB2045DD4605B1CDCB28C42F5D310BD8C
:1019D0005000404820005048580040480040004116
:1019E000FFE9FFEFFFCFFFFFFFFCFFFFFFFFFFF16E
:1019F000FFB7FFFF4805002008E400E000E100E039
:101A00001C40004170B50025012804D0022802D0F6
:101A10000020C04370BD002901D1002070BD0C0022
:101A2000160005E001212000FFF7C3FF641C6D1CB8
:101A30003000461E0028F5D1280070BD01B50122F6
:101A400069460120FFF7DEFF009802BDF8B5FF21CF
:101A50000220FEF7D1FD002800D0FEE700F0BEF81E
:101A600000F0E2F80020FFF71FFF082042490A6853
:101A700002430A6009680840009000983F4C4048C3
:101A80002060404860604048A0600220E060002084
:101A900020616061A061E06120622000FFF75CFAD4
:101AA000002801D000F076F80021200000F020F995
:101AB000002801D000F06EF80021200000F035F978
:101AC000002801D000F066F8012000F0BBF90220E8
:101AD00000F0B8F932A000F013FA2C4D280000F005
:101AE0000FFA2800343000F00BFA00BF30A000F0ED
:101AF00007FA2600F036264F3B00A22231002000D4
:101B0000FFF732FB002801D000F044F828006030D5
:101B100000F0F6F926A000F0F3F93B00A222210024
:101B20004C312000FFF778FA002801D000F032F89D
:101B30002800843000F0E4F9A22021004C3101E0BB
:101B4000491C761C0200501E12040CD00A7833780F
:101B50009A42F5D0000406D01CA000F0D1F9022072
:101B600000F0B2F9FEE700BF1AA000F0C9F90120A9
:101B700000F0AAF9FEE70000500040485C03002096
:101B800000100041090332100F030000801F0410F1
:101B90001027000080B5022000F096F9FEE7000053
:101BA000536C61766520626F6172640A0D000000FB
:101BB00054696D656F757420697320736574207442
:101BC0006F203130732E0A0D000000004572726FD5
:101BD000720A0D004F6B0A0D0000000010B50024C2
:101BE000032000F0A1F9002801D0012401E0FFF753
:101BF0005EFC200010BD7047094902E0084908E07A
:101C000008494A6882434A600A681043086070477E
:101C100004490A6882430A604A6810434860704772
:101C20002000504828005048F8B50120FFF7E6FF93
:101C30000220FFF7E3FF0420FFF7E0FF0820FFF793
:101C4000DDFF1020FFF7DAFF2020FFF7D7FF40204D
:101C5000FFF7D2FF8020FFF7D1FF80204000FFF781
:101C6000CDFF80208000FFF7C7FF8027FF003800EE
:101C7000FFF7C4FF7C002000FFF7C0FF6000FFF704
:101C8000BDFFA000FFF7BAFFE5002800FFF7B6FF91
:101C900026013000FFF7B2FF0120FFF7B9FF022055
:101CA000FFF7B6FF0420FFF7B3FF0820FFF7B0FFF0
:101CB0001020FFF7ADFF2020FFF7AAFF4020FFF71D
:101CC000A7FF8020FFF7A4FFE008FFF799FFA00817
:101CD000FFF796FF3800FFF79BFF2000FFF798FF04
:101CE0002800FFF795FF3000FFF792FFF1BD704726
:101CF00070B5020040325378202B14D14023C35CCE
:101D0000012B10D00123137024245470046825681B
:101D10009D43256004682568164E2E4026600468A1
:101D2000256829431CE0022070BD70B502004032D6
:101D30005378202B12D14023C35C012B0ED00123FA
:101D4000137024245470046825689D43256004683A
:101D50002568094E2E400902314301E0022070BD82
:101D60002160006801680B43036020205070002050
:101D7000107070BDFFEFFFFFFFF0FFFF81B05B4908
:101D80000A6802430A60096808400090009801B0A0
:101D9000704710B50B004B4301685C00E418A14389
:101DA00053430B43036010BD43688B4351431943B6
:101DB0004160704710B50B004B4381685C00E4182C
:101DC000A14353430B43836010BD30B5CB43484C14
:101DD0009025ED05A8421AD1002A03D0022A0FD07F
:101DE00007D330BD206818402060606803406360FE
:101DF00030BD60680340636020680143216030BDEE
:101E000020680340236060680143616030BD002AA0
:101E100003D0022A0FD007D330BDA0681840A060BD
:101E2000E0680340E36030BDE0680340E360A06821
:101E30000143A16030BDA0680340A360E068014396
:101E4000E16030BD38B5010018D10420FFF796FFDE
:101E50009024E4054020A061012240212000FFF7EA
:101E600098FF022240212000FFF7A4FF002240211A
:101E70002000FFF799FF0122402121E01D4C01289D
:101E800005D10820FFF77AFF80256D0006E00228C3
:101E900019D10820FFF772FF8025AD00A56101224E
:101EA00029002000FFF775FF022229002000FFF71C
:101EB00081FF002229002000FFF776FF0122290080
:101EC0002000FFF782FF31BD010002D140200A4906
:101ED00009E00A49012802D18020400003E00228DD
:101EE00002D1802080000860704700005000404808
:101EF00020005048000010482800004828001048E2
:101F00000EB4C0B5020003A801900020009001AB00
:101F10000121044878440C30FEF7EAFC029906B02F
:101F2000084700BF87010000F8B506000024104DE7
:101F3000A868002818D000F01DF80700FA208000DB
:101F4000A968FEF779FC01003800FEF775FCFFF781
:101F500015FB002808D1042E06D231000020C04312
:101F6000FFF707FB6E6000E001242000F2BD00BF18
:101F7000F00400200148006870470000FC040020C5
:101F800054686520626F617264207265636569766A
:101F9000657320746865206D657373616765206182
:101FA0006E642073656E6473206974206261636B74
:101FB0002E0A0D00507574204932432070657269F5
:101FC00070686572616C20696E20726563657074FB
:101FD000696F6E2070726F636573732E0A0D000057
:101FE000537461727420746865207472616E736DCD
:101FF000697373696F6E2070726F636573732E0AF5
:102000000D000000436F6D7061726520746865207B
:1020100073656E7420616E642072656365697665B0
:102020006420627566666572733A0A0D00000000EE
:1020300010B5074979441831064C7C44163404E045
:10204000081D0A68891888470100A142F8D110BD0F
:10205000080000002400000017E8FFFF2B0100002B
:1020600014000000C000002007E8FFFFB4000000DB
:10207000B40000005C030020FEF755F8002801D0F2
:10208000FFF7D6FF00BF00BF002000BF00BFFFF773
:10209000DDFC00F000F880B500F002F801BD7047EB
:1020A00007463846FEF74EFFFBE738B505000C0043
:1020B0002000FFF7C3FCA04200D00025280032BD5D
:1020C000024801688268891801607047F0040020A6
:1020D00080B5FFF7F5FFFFF765FA01BD00BF00BF50
:1020E00000BF00BFFFF7C8FF0078401E8041C0431B
:1020F000C00F704770477047704770477047704710
:102100007047704770477047704770477047704717
:102110007047704770477047704770477047704707
:10212000F23A000113202A0110204932435F54770C
:102130006F426F6172647320636F6D6D756E69635A
:102140006174696F6E2062617365642009200550B7
:102150006F6C6C696E6730F25B2036F2980001128A
:1021600004AB2201AFF0061E90D003EE080410016C
:10217000BB6002E920041033E13C000000000000D5
:1021800000000000000000F2FF0001F1FF01F16A11
:01219000014D
:04000005100420DDE6
:00000001FF
