:020000041004E6
:10000000000001201918041035080410E11604102E
:10001000AA5555AA45554C420000000000000000BA
:100020000000000000000000000000007308041041
:100030000000000000000000CF0D0410E3160410C3
:100040004F0E0410A70E0410AB140410DF1604109A
:10005000F717041031180410331804103518041061
:1000600037180410391804103B1804103D180410F8
:100070003F1804104118041043180410ED16041022
:100080004518041047180410491804104B180410A0
:100090004D1804104F180410511804105318041070
:1000A000551804105718041000000000000000004C
:1000B0000000000000000000000000000000000040
:1000C00010B5C20018231340FF249C40E243890767
:1000D000090E9940030004D4C8489B089B00C0182F
:1000E00006E0C74B0007000F08388008800018188A
:1000F00003681A401143016010BD000081B0C1487F
:10010000016802220A430260002102E000BF009958
:10011000491C009100990629F8DB016804220A4372
:10012000026001B0704780B5B7480068002814D15C
:10013000B6480168002902D1806A00280DD001204C
:10014000B349886000F077FBBFF34F8FB148B249E5
:100150000860BFF34F8F00BFFDE7012002BD80B5EF
:1001600003210020FFF7ACFF03210120FFF7A8FFC8
:1001700003210220FFF7A4FF03210320FFF7A0FFC4
:1001800003210420FFF79CFF03210520FFF798FFC0
:1001900003210620FFF794FF03210720FFF790FFBC
:1001A00003210820FFF78CFF03210920FFF788FFB8
:1001B00003210A20FFF784FF03210B20FFF780FFB4
:1001C00003210C20FFF77CFF03210D20FFF778FFB0
:1001D00003210E20FFF774FF03210F20FFF770FFAC
:1001E00003211020FFF76CFF03211120FFF768FFA8
:1001F00000211220FFF764FF03211320FFF760FFA7
:1002000003211420FFF75CFF03211520FFF758FF9F
:1002100003211620FFF754FF01211720FFF750FF9D
:1002200000211820FFF74CFF03211920FFF748FF9A
:1002300001BD30B50D00C54C002A0AD0FA21890055
:1002400000F0FAFA401E684360600020A0600520BC
:1002500002E0206801218843206030BDFFB5012104
:100260002022002818D067480368E024A3431343E2
:100270000360836D0624A34302241C438465836BBF
:100280000B438363836B8B438363836D0B43836572
:10029000806D0840009000980723AD480469AD4D7B
:1002A000AC4218D1046800940468076805682D0DF5
:1002B0001D4003950068000E1840029001250F268E
:1002C000380C3040270AF0243C400194009C240A5A
:1002D0002640009604E00820009070240194002538
:1002E000BF4C0F26F643276B374038432063E06A44
:1002F000F027B843019F0743E762E06A0640009891
:100300003043E0623820002D0CD025689D43039EC9
:1003100033402B43236023688343029DED00054057
:100320001D4325603F23DB43A56F1D400A262E4356
:10033000A667A56F40262E43A667E56F1D400426DD
:100340002E43E667E56F80262E43E667E56F40267D
:10035000B543E567A03425681D40256065681D40EC
:1003600010262E436660A5681D402A43A260E268FD
:100370001A4030251543E56022691A401043206178
:1003800060691840392202436261A06918403A222C
:100390000243A261E06918403B220243E261206A05
:1003A00018403C2202432262606A03403D20184309
:1003B00060625523FF20C0438A4A146804401C43EE
:1003C0001460D468044066252543D560146A04404F
:1003D00023431362136C03401D241C431464D36B2A
:1003E000034059241C43D463536C18403223034305
:1003F0005364506A01435162FFBD000000E400E015
:100400001CED00E0080040489400404810005048AF
:10041000040000200400FA050CED00E0F1B5724E76
:10042000012264213000FFF704FF704D286880210D
:100430004902014329600027444C2868800303D403
:100440002068C003F9D50427002200210020FFF70F
:10045000F0FE380039D16846017808000CD18020C0
:10046000C00501680068F0220A400007000F104331
:10047000102867D10620F2BDE020C043491E06299E
:100480004FD801A2525C9744064452606E7C8A00A9
:10049000A9680840A8607000554E30600122C8214C
:1004A000FFF7C7FE28688021890101432960286879
:1004B000400403D42068C003F9D505270022002199
:1004C0000020FFF7B6FE38002CD03800F2BDA96836
:1004D000084020210143A9603000DDE7A9680840F9
:1004E00040210143A9607008D6E7A968084060214F
:1004F0000143A960B008CFE7A96808408021014303
:10050000A960F008C8E7A9680840A0210143A960D4
:100510003009C1E7A9680840C0210143A9607009FA
:10052000BAE7FEE73020C04332493268AD4B9A4209
:100530000A6804D11040102202430A6004E010400F
:10054000086001E0FFF7DAFD0020F2BD10E000E0F6
:10055000E81E0010CCECBCFC10B5FF2833D00429F9
:100560000CD005290AD0062908D0072906D0062272
:10057000D2439D4B032903D1002809D1012010BD8E
:10058000012805D01C682240022414431C6005E0A9
:100590001868024004201043186001208022D20510
:1005A00013681268F0241C401207120F2243102A0D
:1005B00009D18E4A012908D101280CD12A201060C6
:1005C00050680007FCD4002010BD022905D1012885
:1005D00003D12920F3E70028FBD02820EFE7000013
:1005E00048160060481500600048E80100004048D7
:1005F0003000002004100040F3B583B07C487D49F2
:1006000008607D4908617D4E3068202101433160DA
:1006100030684021014331603068802101433160FE
:10062000002500240122C8217548FFF702FE754904
:1006300030690191400704D40868C003F8D501244B
:100640000125002200210020FFF7F3FD6E4F002C52
:100650002ED028002BD10024012296214900684881
:10066000FFF7E7FD6948716A01407162B16A0840AD
:10067000B062B86866490140802000020843B86053
:10068000F86860210143F96038681021014339603E
:100690003868800604D401980068C003F8D50224A5
:1006A000002200210020FFF7C4FD20006DD096E05D
:1006B000B0693021884320210143B161B8688021AD
:1006C00049010143B960534A50695349884219D1DD
:1006D00010681168136814682404240F02941468C5
:1006E0000122DD091E232B4000932402FC239B05DD
:1006F0002340CC01E021890121408401F0208000C9
:10070000204007E0D00C10210091F0235B0500226F
:10071000C0214901FC68414D25402B43FB60FB682B
:10072000802424041C43FC601E23DB43002A09D0E0
:10073000FA681A40029C64001443FC60FA680124C1
:100740001443FC60364A14682340009C1C43146028
:10075000136801241C4314601368324C1C4020436E
:100760001060106820230343136010682E4B034071
:100770001943116010688021C90001431160B069FC
:10078000802149000143B16165E76846047CFF2C84
:1007900002D00120FFF762FD6846057B234801680F
:1007A000234A0A40802189011143016001688022A7
:1007B0000A43026001687022914330220A430260BA
:1007C0002800FFF72BFE010009D129002000FFF7C8
:1007D000C3FE010003D1FFF7C2FC62B6002005B0E2
:1007E000F0BD00000090D003600040480050004081
:1007F0000000041008ED00E0040000200400504850
:100800000024F40010E000E000004048FFCFFFFFAC
:10081000FF7FFEFFE41E0010CCECBCFCFFFFFFC01E
:10082000940050483FFCFFFFFFC7FFFF980040487F
:10083000FFC0FFFF70477047094214D088420FD3B2
:100840000122030C01D100041204002300185B41B3
:100850008B4200D35B1A5241F8D319001000704745
:1008600001000020704708B500F002F808BD430001
:1008700070477047F0B597B0050016001F001C9830
:100880006A460023002418C2059104A92B2288542B
:100890000B9303950F960EE023000F9A04A903987B
:1008A00000F07AFA002800D5D8E001E0F4D5012460
:1008B0000F9800190F900F980078252809D1002073
:1008C000089009900A9002240821029104210F9DAA
:1008D0000CE06A460021C9430F9800F0A7FA040013
:1008E000E4D10B98BCE00200012010436D1C2A7873
:1008F000202AF8D0232A0AD02B2A04D02D2A04D06B
:10090000302A07D009E02043F0E70843EEE7020071
:100910000820EAE702001020E7E72A2A0CD13B680A
:100920001A681B1D3B600D92002A03D553420D939C
:10093000014308006D1C14E000210D91004A0BE0FA
:10094000CBCCCC0C0D9B934205DA9E00F3185B00D8
:10095000591830390D916D1C29780B00303B0A2B4A
:10096000F0D329782E2903D00021C9430C9125E02A
:100970006D1C29782A2906D139680A68091D396051
:100980000C926D1C1AE02D2902D12D236D1C00E064
:10099000002300210C910CE0002B09D10C9AB84ED9
:1009A000B24205DA9600B2185200511830390C9153
:1009B0006D1C29780A00303A0A2AEDD304A908856B
:1009C0002E783100AFA000F039FA002801D06D1C5C
:1009D00000E0002604A82A214654405C682807D17C
:1009E0002878682804D1622004A92A2288546D1C22
:1009F00011A807902A78681C0F90252A13D0582A2E
:100A00004FD0632A00D1B1E0642A79D0692A77D027
:100A10006F2A46D0702A3BD0732A0AD0752A40D05C
:100A2000782A3ED0ABE001200890252011A908705B
:100A3000AFE038680468001D38600694002C14D1BB
:100A400004A82B21405C00280CD00024E44300BF04
:100A50008EA000F0FDF9201A00D19AE00020C043DA
:100A600017B0F0BD90A0069093E00C9D002D03D52B
:100A7000200000F011FA09E02A000021200000F017
:100A800013FA002801D0001B00E02800099080E044
:100A900038680168001D3860049111A8069078211B
:100AA00060E004AB2A20185C622803D0682807D0D5
:100AB0006C280BE039680868091D3960C0B209E08C
:100AC00039680868091D396080B203E03968086830
:100AD000091D39600490188D0299C0B208423CD0BB
:100AE0000498002839D020201043782835D1089860
:100AF00011A930230B54401C431C08930A542CE0CA
:100B000004AB2A20185C622803D0682807D06C2820
:100B10000BE039680868091D396040B209E039689E
:100B20000868091D396000B203E039680868091DCA
:100B300039600490002802D508982D2109E0188D0D
:100B4000204202D008982B2103E0C00705D5089861
:100B5000202111AB1954401C089011A80899401885
:100B60000690110004A800F0A0F812E001200890FF
:100B700038680168001D386011A8017009E0012083
:100B80000890252011A90870100002D0089411A81F
:100B900042700D980899401A0A99401A0999401A0A
:100BA000109004A82821405C400713D420206946F7
:100BB0000872109800280DDD109C039D012302AAE5
:100BC00004A9280000F0E8F8002800D046E7641ED9
:100BD000F4D10395089D11AC002D0ED0039E217811
:100BE0000598B0470590002800D137E70B98401CC6
:100BF0000B90641C6D1EF2D103963020694608727A
:100C00000A9C002C0CDD039D012302AA04A92800E4
:100C100000F0C2F8002800D020E7641EF4D103954C
:100C2000069C099D002D0ED0039E21780598B047A3
:100C30000590002800D111E70B98401C0B90641C14
:100C40006D1EF2D1039604A82821405C400700D411
:100C500031E62020694608721098002800DC2AE658
:100C6000109C039D0F9E012302AA04A9280000F0F6
:100C700093F8002800D0F1E6641E00D109E6F2E7FF
:100C8000CBCCCC0C686C747A4C0000007072696E2E
:100C900074665F733A206261642025732061726715
:100CA000756D656E740000000000F0B583B00A0039
:100CB000C4686F2901D1082506E020211143782955
:100CC00001D00A2500E01025182701680E00642ACB
:100CD00001D0692A03D1002901D571420E00002EEE
:100CE0000CD1016A002909D1082D31D12821415C9C
:100CF00009072DD517273021E17529E002906846B4
:100D000002707F1E019730002900FFF795FD3031FA
:100D1000C8B23A2803DB6846007851380918E15513
:100D200030002900FFF788FD060004D00298806893
:100D3000E1198842E5D30298082D09D12821415CA8
:100D4000090705D5E15D302902D07F1E3021E1552C
:100D50001821C91B4161E2198260026A914206DAD8
:100D6000511A8161018D0B4A0A40028510E0002A68
:100D70000ED52822825C14231340102B08D1426A1E
:100D80000369D21A8369D21A511A012900DB8161E1
:100D900003B0F0BDEFFF0000F8B50024002B11D028
:100DA00007000E0014001D0021787068B8477060BD
:100DB000002809D0F069401CF0610020641C6D1E01
:100DC000F2D104002000F2BD0020C043F9E77047D3
:100DD00030B45368D41803E05B1C491E641C401CEB
:100DE000042B06DA002904D0057825700578002D3B
:100DF000F2D1536030BC704738B500290ED01D00C9
:100E00001400FFF7E5FF616820006A6B904701223C
:100E1000D243811A02D0491E02D004E0012000E032
:100E20000020C04332BD0021616032BD80B5024B5D
:100E3000FFF7E2FF02BD000034000020C9B20278D3
:100E40008A4203D0401C002AF9D100207047704725
:100E500080B5002801D100BF07A006490B68002B10
:100E600003D022220021984701E000F028F8222038
:100E700002BD000088000020636F6E7374726169A8
:100E80006E742068616E646C65723A2062616420E1
:100E90006D65737361676500431C0178401C0942EE
:100EA000FBD1C01A70477047C9B2521E05D30378F0
:100EB000401C8B42F9D1401E70470020704780B51E
:100EC000012000F001F801BD80B500BF00BF024A5B
:100ED00011001820ABBEFBE72600020081B082495A
:100EE0000A6802430A60096808400090009801B04F
:100EF000704710B50B004B4301685C00E418A14338
:100F000053430B43036010BD43688B435143194364
:100F10004160704710B50B004B4381685C00E418DA
:100F2000A14353430B43836010BD30B5CB436F4C9B
:100F30009025ED05A8421AD1002A03D0022A0FD02D
:100F400007D330BD206818402060606803406360AC
:100F500030BD60680340636020680143216030BD9C
:100F600020680340236060680143616030BD002A4F
:100F700003D0022A0FD007D330BDA0681840A0606C
:100F8000E0680340E36030BDE0680340E360A068D0
:100F90000143A16030BDA0680340A360E068014345
:100FA000E16030BD10B5090A0B004B434B434B4386
:100FB000416A1C01E41AA14353430B43436210BD31
:100FC0007CB506000420FFF789FF9025ED058024FD
:100FD000A400022221002800FFF78BFF022221003B
:100FE0002800FFF797FF002221002800FFF78CFF61
:100FF000012221002800FFF798FF0022210028008D
:10100000FFF7D0FF0420FFF769FF640802222100E8
:101010002800FFF76EFF022221002800FFF77AFF69
:10102000002221002800FFF76FFF01222100280085
:10103000FFF77BFF002221002800FFF7B3FFA0008D
:101040002B490A6802430A6009680840009000982A
:1010500028488B21C1600168274A0A400260416824
:10106000264A0A40426001680C220A4302608168F5
:10107000234A0A4082608168224A0A40826081686D
:10108000C900C9088160016862050A4302604168BD
:101090001D4A0A40426081682A22914381600168AA
:1010A00001220A43026031000ED018490E60016827
:1010B00020220A43026016480168FF229143402221
:1010C0000A4302601348046073BD10B50023124A3E
:1010D00006E014682406FCD5DCB2045DD4605B1C19
:1010E000DCB28C42F5D310BD50004048200050487F
:1010F0005800404800400041FFE9FFEFFFCFFFFFED
:10110000FFFCFFFFFFFFFFF1FFB7FFFF7C000020A8
:1011100008E400E000E100E01C40004170B500255B
:10112000012804D0022802D00020C04370BD00294D
:1011300001D1002070BD0C00160005E00121200047
:10114000FFF7C3FF641C6D1C3000461E0028F5D15C
:10115000280070BD01B5012269460120FFF7DEFFBE
:10116000009802BD10B5C20018231340FF249C4014
:10117000E2438907090E9940030004D463489B08A1
:101180009B00C01806E0624B0007000F083880087B
:101190008000181803681A401143016010BD81B027
:1011A0005C4901E081B05C490A6802430A60096851
:1011B00008400090009801B070470000F8B588B072
:1011C000FF210220FFF718FA002800D0FEE70027D1
:1011D000FF4301213800FFF7C5FF5048006800F0C9
:1011E000C7F800F0FFF80020FFF7EAFE5AA000F071
:1011F0005DF900F07CF81822002102A800F06AF9DD
:1012000008220021684600F065F90420FFF7C7FFB7
:101210000820FFF7C4FF80204000FFF7C3FF404CC9
:1012200080204000A06102900126039600250495CD
:101230000595069502A9200000F056F93002A0613C
:101240004000A0610290039604950595069502A9B9
:10125000200000F049F9334833490A6802400A6027
:101260004A68104048609020C00501682F4A0A4033
:101270000260B0020090684606714571867100F008
:10128000C9F901210F20FFF76DFFF003284908601D
:1012900003213800FFF766FFB6033000FFF782FF37
:1012A000244881690E4386618169234A0A4082612C
:1012B0000168C905FCD5214E2148306021483060C5
:1012C0007560380D3061401EB060F0684007FCD199
:1012D0001D4D35601D4F38780128FCD035606069A0
:1012E000B10D41406161962000F04FF8F3E71848D6
:1012F000C068800000D4704780B5164800F0D6F86A
:1013000001BD0120114908707047000000E400E0B1
:101310001CED00E0500040485400404830000020E0
:1013200000001048FFFBFFFF20005048FFFFCFFFE9
:1013300000E100E01C004048FFBFFFFF003000401C
:10134000CCCC000055550000AAAA00008C0000205B
:10135000040000205C1704104170706C69636174B4
:10136000696F6E20737461727465640A0D00000009
:1013700010B50F4CFA218900FFF75EFA401E60603D
:101380000020A0600720206010BD81B008490A68D5
:101390000092009A0022D243904202D0401C0028C2
:1013A00004D00A68D203FCD5401EF8E701B07047AC
:1013B00010E000E0094902E0084908E008494A68ED
:1013C00082434A600A6810430860704704490A680B
:1013D00082430A604A6810434860704720005048C2
:1013E00028005048F8B50120FFF7E6FF0220FFF77C
:1013F000E3FF0420FFF7E0FF0820FFF7DDFF1020E8
:10140000FFF7DAFF2020FFF7D7FF4020FFF7D2FFDA
:101410008020FFF7D1FF80204000FFF7CDFF802024
:101420008000FFF7C7FF8027FF003800FFF7C4FFE9
:101430007C002000FFF7C0FF6000FFF7BDFFA000A9
:10144000FFF7BAFFE5002800FFF7B6FF26013000DE
:10145000FFF7B2FF0120FFF7B9FF0220FFF7B6FF49
:101460000420FFF7B3FF0820FFF7B0FF1020FFF7BD
:10147000ADFF2020FFF7AAFF4020FFF7A7FF802045
:10148000FFF7A4FFE008FFF799FFA008FFF796FF1A
:101490003800FFF79BFF2000FFF798FF2800FFF7B9
:1014A00095FF3000FFF792FFF1BD70470EB4C0B555
:1014B000020003A801900020009001AB0121044824
:1014C00078440C30FFF7D6F9029906B0084700BF00
:1014D0003303000010B504000800110002002000D2
:1014E00000F0D6F8200010BDFCB503000800002471
:1014F000474A190000940FE0936823409360D36833
:101500001C40D46005E0D5682C40D4609468234327
:101510009360009B5B1C00930468009B2500DD40EA
:1015200068D00123009DAB402340F2D01C005C43F7
:101530004568022D1CD145690195FF2B0BD826006B
:101540005E435E430D6A3701BF1BBD43019F7E436F
:101550002E430E620CE01E0A350075437543754339
:101560004E6A2F017F1BBE43019F7D4335434D6271
:1015700065002E19F5430E682E40476867433743D0
:101580000F604668012E01D0022E05D18E683540CD
:10159000866874432C438C600569DC439026F6050D
:1015A000B1421AD1002D11D0022D01D007D3B0E7DE
:1015B00015682C401460546823435360A9E75568AC
:1015C0002C405460146823431360A2E7136823403F
:1015D000136053681C4054609BE7002D8CD0022D93
:1015E00001D090D395E795682C409460D46823434C
:1015F000D3608EE74268012A01D0022A05D14A68E9
:10160000A243C068444314434C600020F6BD000070
:101610002000504810B502681C490379002B30D0D7
:10162000002A31D04379002B0B6802D193430B6021
:1016300001E01A430A608479002C1BD00368DA4366
:10164000032C02D14C68234307E0012C0CD0022C60
:1016500001D0042C06D14B6813404B608B681A40B4
:101660008A6007E0052C05D14C6822404A608A68F0
:1016700013438B60CA6803681343CB60006808613A
:1016800002E0C8689043C860002010BD0C00004014
:101690001206130A1A43130C1A4300BF094205D05D
:1016A000830705D00270401C491EF9D17047000025
:1016B0001300103906D330B41400150010393CC0A3
:1016C000FCD230BC490700D30CC000D504C089004F
:1016D00002D30280801C002900D502707047704739
:1016E000FEE70D480168491C016070470B4801681E
:1016F000490500D4704780B5010D016006480168B6
:101700004268891AAF225200914203D301684160B6
:10171000FFF7F7FD01BD0000800000201C00004025
:1017200030B501684118446862088A188368E40784
:1017300004D54C461B1901E0641C06D191420BD024
:101740000C7864B2491C0D78491C1D705B1C002C80
:10175000F2D4641EF7D5F1E70C3030BD5468652033
:1017600073797374656D2068617320726573756D2C
:1017700065642066726F6D20495744472072657317
:1017800065740A0D0000000010B50749794418314E
:10179000064C7C44163404E0081D0A688918884702
:1017A0000100A142F8D110BD080000002400000093
:1017B00071FFFFFFBC00000018000000C000002007
:1017C00061FFFFFF940000002E00000030000020A9
:1017D000FEF7A9FC002801D0FFF7D6FF00BF00BF2D
:1017E000002000BF00BFFFF7E9FC00F000F880B563
:1017F00000F002F801BD704707463846FFF764FB6A
:10180000FBE738B505000C002000FFF7A3FCA04261
:1018100000D00025280032BD00BF00BF00BF00BFC0
:10182000FFF7D6FF0078401E8041C043C00F7047CD
:1018300070477047704770477047704770477047F0
:1018400070477047704770477047704770477047E0
:101850007047704770477047080090D0036E0804C7
:101860001001D1000325180410F8000001E8000061
:0C18700081008100810081008100DF0008
:0400000510041819B2
:00000001FF
