:020000041004E6
:1000000000000120FD0D041035080410F50C04104B
:10001000AA5555AA45554C420000000000000000BA
:100020000000000000000000000000006F08041045
:10003000000000000000000073080410F70C04101A
:10004000DB0D0410E70D0410090E04100B0E041054
:100050000D0E04100F0E0410110E0410130E0410D8
:10006000150E0410170E0410190E04101B0E0410A8
:100070001D0E04101F0E0410210E0410230E041078
:10008000010D0410250E0410270E0410290E041073
:100090002B0E04102D0E04102F0E0410310E041020
:1000A000330E0410350E04100000000000000000A4
:1000B0000000000000000000000000000000000040
:1000C00010B5C20018231340FF249C40E243890767
:1000D000090E9940030004D4C8489B089B00C0182F
:1000E00006E0C74B0007000F08388008800018188A
:1000F00003681A401143016010BD000081B0C1487F
:10010000016802220A430260002102E000BF009958
:10011000491C009100990629F8DB016804220A4372
:10012000026001B0704780B5B7480068002814D15C
:10013000B6480168002902D1806A00280DD001204C
:10014000B349886000F077FBBFF34F8FB148B249E5
:100150000860BFF34F8F00BFFDE7012002BD80B5EF
:1001600003210020FFF7ACFF03210120FFF7A8FFC8
:1001700003210220FFF7A4FF03210320FFF7A0FFC4
:1001800003210420FFF79CFF03210520FFF798FFC0
:1001900003210620FFF794FF03210720FFF790FFBC
:1001A00003210820FFF78CFF03210920FFF788FFB8
:1001B00003210A20FFF784FF03210B20FFF780FFB4
:1001C00003210C20FFF77CFF03210D20FFF778FFB0
:1001D00003210E20FFF774FF03210F20FFF770FFAC
:1001E00003211020FFF76CFF03211120FFF768FFA8
:1001F00000211220FFF764FF03211320FFF760FFA7
:1002000003211420FFF75CFF03211520FFF758FF9F
:1002100003211620FFF754FF01211720FFF750FF9D
:1002200000211820FFF74CFF03211920FFF748FF9A
:1002300001BD30B50D00C54C002A0AD0FA21890055
:1002400000F0FAFA401E684360600020A0600520BC
:1002500002E0206801218843206030BDFFB5012104
:100260002022002818D067480368E024A3431343E2
:100270000360836D0624A34302241C438465836BBF
:100280000B438363836B8B438363836D0B43836572
:10029000806D0840009000980723AD480469AD4D7B
:1002A000AC4218D1046800940468076805682D0DF5
:1002B0001D4003950068000E1840029001250F268E
:1002C000380C3040270AF0243C400194009C240A5A
:1002D0002640009604E00820009070240194002538
:1002E000BF4C0F26F643276B374038432063E06A44
:1002F000F027B843019F0743E762E06A0640009891
:100300003043E0623820002D0CD025689D43039EC9
:1003100033402B43236023688343029DED00054057
:100320001D4325603F23DB43A56F1D400A262E4356
:10033000A667A56F40262E43A667E56F1D400426DD
:100340002E43E667E56F80262E43E667E56F40267D
:10035000B543E567A03425681D40256065681D40EC
:1003600010262E436660A5681D402A43A260E268FD
:100370001A4030251543E56022691A401043206178
:1003800060691840392202436261A06918403A222C
:100390000243A261E06918403B220243E261206A05
:1003A00018403C2202432262606A03403D20184309
:1003B00060625523FF20C0438A4A146804401C43EE
:1003C0001460D468044066252543D560146A04404F
:1003D00023431362136C03401D241C431464D36B2A
:1003E000034059241C43D463536C18403223034305
:1003F0005364506A01435162FFBD000000E400E015
:100400001CED00E0080040489400404810005048AF
:10041000040000200400FA050CED00E0F1B5724E76
:10042000012264213000FFF704FF704D286880210D
:100430004902014329600027444C2868800303D403
:100440002068C003F9D50427002200210020FFF70F
:10045000F0FE380039D16846017808000CD18020C0
:10046000C00501680068F0220A400007000F104331
:10047000102867D10620F2BDE020C043491E06299E
:100480004FD801A2525C9744064452606E7C8A00A9
:10049000A9680840A8607000554E30600122C8214C
:1004A000FFF7C7FE28688021890101432960286879
:1004B000400403D42068C003F9D505270022002199
:1004C0000020FFF7B6FE38002CD03800F2BDA96836
:1004D000084020210143A9603000DDE7A9680840F9
:1004E00040210143A9607008D6E7A968084060214F
:1004F0000143A960B008CFE7A96808408021014303
:10050000A960F008C8E7A9680840A0210143A960D4
:100510003009C1E7A9680840C0210143A9607009FA
:10052000BAE7FEE73020C04332493268AD4B9A4209
:100530000A6804D11040102202430A6004E010400F
:10054000086001E0FFF7DAFD0020F2BD10E000E0F6
:10055000E81E0010CCECBCFC10B5FF2833D00429F9
:100560000CD005290AD0062908D0072906D0062272
:10057000D2439D4B032903D1002809D1012010BD8E
:10058000012805D01C682240022414431C6005E0A9
:100590001868024004201043186001208022D20510
:1005A00013681268F0241C401207120F2243102A0D
:1005B00009D18E4A012908D101280CD12A201060C6
:1005C00050680007FCD4002010BD022905D1012885
:1005D00003D12920F3E70028FBD02820EFE7000013
:1005E00048160060481500600048E80100004048D7
:1005F0003000002004100040F3B583B07C487D49F2
:1006000008607D4908617D4E3068202101433160DA
:1006100030684021014331603068802101433160FE
:10062000002500240122C8217548FFF702FE754904
:1006300030690191400704D40868C003F8D501244B
:100640000125002200210020FFF7F3FD6E4F002C52
:100650002ED028002BD10024012296214900684881
:10066000FFF7E7FD6948716A01407162B16A0840AD
:10067000B062B86866490140802000020843B86053
:10068000F86860210143F96038681021014339603E
:100690003868800604D401980068C003F8D50224A5
:1006A000002200210020FFF7C4FD20006DD096E05D
:1006B000B0693021884320210143B161B8688021AD
:1006C00049010143B960534A50695349884219D1DD
:1006D00010681168136814682404240F02941468C5
:1006E0000122DD091E232B4000932402FC239B05DD
:1006F0002340CC01E021890121408401F0208000C9
:10070000204007E0D00C10210091F0235B0500226F
:10071000C0214901FC68414D25402B43FB60FB682B
:10072000802424041C43FC601E23DB43002A09D0E0
:10073000FA681A40029C64001443FC60FA680124C1
:100740001443FC60364A14682340009C1C43146028
:10075000136801241C4314601368324C1C4020436E
:100760001060106820230343136010682E4B034071
:100770001943116010688021C90001431160B069FC
:10078000802149000143B16165E76846047CFF2C84
:1007900002D00120FFF762FD6846057B234801680F
:1007A000234A0A40802189011143016001688022A7
:1007B0000A43026001687022914330220A430260BA
:1007C0002800FFF72BFE010009D129002000FFF7C8
:1007D000C3FE010003D1FFF7C2FC62B6002005B0E2
:1007E000F0BD00000090D003600040480050004081
:1007F0000000041008ED00E0040000200400504850
:100800000024F40010E000E000004048FFCFFFFFAC
:10081000FF7FFEFFE41E0010CCECBCFCFFFFFFC01E
:10082000940050483FFCFFFFFFC7FFFF980040487F
:10083000FFC0FFFF70477047094214D088420FD3B2
:100840000122030C01D100041204002300185B41B3
:100850008B4200D35B1A5241F8D319001000704745
:1008600001000020704708B500F002F808BD70478D
:1008700070477047010005D40121C006C00E8140B9
:100880006E480160704710B5C20018231340FF2462
:100890009C40E2438907090E9940030004D468484C
:1008A0009B089B00C01806E0664B0007000F083845
:1008B00080088000181803681A401143016010BDB9
:1008C00081B061490A6802430A60096808400090E3
:1008D000009801B07047CA435C4B032803D11868E5
:1008E0000143196008E001280CD0022801D0042837
:1008F00006D1186810401860586802405A60704766
:10090000052805D1186802401A60586801435960EB
:10091000704710B50B004B4301685C00E418A1431D
:1009200053430B43036010BD00690840884201D166
:100930000120704700207047F8B506000F00444CB6
:100940008025ED00300010D10420FFF7B9FF002210
:1009500029009020C005FFF7DCFF3E4821680140D8
:10096000216061680840606011E0012E0FD108200D
:10097000FFF7A6FF002240213748FFF7CAFF4020BB
:10098000C043A1680140A160E1680840E060012F18
:100990002AD1A80831490A6802430A600968084058
:1009A000009000982E4C30000DD129000120FFF757
:1009B00092FF656020680543256003210F20FFF743
:1009C00062FF0F200EE0012E0ED1250A2900FFF74D
:1009D00082FF656020680543256003211020FFF732
:1009E00052FF1020FFF746FFF1BD80B50100002047
:1009F0000A0004D18021C9009020C00503E001292C
:100A000003D140211448FFF78FFF02BD01000020F1
:100A1000144A0B0002D11068410503E0012902D1FC
:100A200010684102C80F70470E49020001D1080D3D
:100A300002E0012801D1080A0860704700E100E0E7
:100A400000E400E01CED00E05000404810000040D1
:100A500020005048FFFBFFFF0000104854004048B2
:100A6000180000401C00004081B06F490A68024332
:100A70000A60096808400090009801B0704710B5FE
:100A80000B004B4301685C00E418A14353430B4344
:100A9000036010BD43688B43514319434160704765
:100AA00010B50B004B4381685C00E418A14353432D
:100AB0000B43836010BD30B5CB435C4C9025ED05F6
:100AC000A8421AD1002A03D0022A0FD007D330BD82
:100AD00020681840206060680340636030BD606833
:100AE0000340636020680143216030BD20680340FB
:100AF000236060680143616030BD002A03D0022A90
:100B00000FD007D330BDA0681840A060E068034054
:100B1000E36030BDE0680340E360A0680143A1608A
:100B200030BDA0680340A360E0680143E16030BDD0
:100B300038B5010018D10420FFF796FF9024E40592
:100B40004020A061012240212000FFF798FF0222EF
:100B500040212000FFF7A4FF002240212000FFF7E2
:100B600099FF0122402121E0314C012805D10820C4
:100B7000FFF77AFF80256D0006E0022819D10820D2
:100B8000FFF772FF8025AD00A5610122290020003A
:100B9000FFF775FF022229002000FFF781FF0022E6
:100BA00029002000FFF776FF012229002000FFF72F
:100BB00082FF31BD010002D140201E4909E01E49DB
:100BC000012802D18020400003E0022802D18020C9
:100BD000800008607047010002D14020174909E0F9
:100BE0001749012802D18020400003E0022802D1E9
:100BF0008020800008607047010005D1114801681D
:100C000040224A40026070470F49012803D108681A
:100C10008022520004E0022804D108688022920059
:100C200042400A6070470000500040482000504891
:100C3000000010482800004828001048180000480C
:100C400018001048140000481400104880B5FF2117
:100C50000220FFF7D1FC002800D0FEE7134800680F
:100C600000F026F80120FFF763FF0020FFF760FF88
:100C70000220FFF75DFF00210020FFF75DFE01214C
:100C80000120FFF759FE0020FFF7AFFE012803D037
:100C90000120FFF7A0FF01E0FFF78CFF642000F0C8
:100CA00014F80020FFF7A8FFEDE700BF3000002098
:100CB00010B50F4CFA218900FFF7BEFD401E6060A1
:100CC0000020A0600720206010BD81B008490A689C
:100CD0000092009A0022D243904202D0401C002889
:100CE00004D00A68D203FCD5401EF8E701B0704773
:100CF00010E000E0FEE70D480168491C0160704704
:100D000080B50120FFF782FE01280ED1FFF78CFE8F
:100D1000064801684268891AAF225200914204D302
:100D2000016841600220FFF767FF01BD3400002029
:100D300030B501684118446862088A188368E4077E
:100D400004D54C461B1901E0641C06D191420BD01E
:100D50000C7864B2491C0D78491C1D705B1C002C7A
:100D6000F2D4641EF7D5F1E70C3030BD10B5074959
:100D700079441831064C7C44163404E0081D0A6896
:100D8000891888470100A142F8D110BD0800000071
:100D9000240000009DFFFFFF9E00000018000000DF
:100DA000C00000208DFFFFFF9A0000000E00000031
:100DB00030000020FFF7B7F9002801D0FFF7D6FF79
:100DC00000BF00BF002000BF00BFFFF73FFF00F0E3
:100DD00000F880B500F002F801BD704707463846BC
:100DE00000F002F8FBE7704780B500BF00BF024A81
:100DF00011001820ABBEFBE72600020000BF00BFB9
:100E000000BF00BFFFF7D6FF7047704770477047BD
:100E1000704770477047704770477047704770471A
:100E2000704770477047704770477047704770470A
:100E30007047704770478100810081008100810008
:090E4000DF00030090D003F8006C
:0400000510040DFDD9
:00000001FF
