:020000041004E6
:10000000000001201D7F05102D59051039590510DC
:10001000AA5555AA45554C420000000000000000BA
:10002000000000000000000000000000455905101D
:1000300000000000000000005F8B0410475905100D
:10004000F78B0410038E0410B7960410DF98041089
:10005000639A0410979C04103F9F04109BA0041007
:100060004959051077A40410AFA7041023B4041055
:10007000E7B504105739041007BD04105359051093
:10008000D3BD0410515905109D5905109BC1041092
:1000900089590510BBC3041017C7041081590510F6
:1000A000795905105BC70410000000000000000033
:1000B0000000000000000000000000000000000040
:1000C000FEB51C00089FAA4D6B465870684601702B
:1000D00016001CE00422A9192C3101A801F01CF91A
:1000E000002F0FD101A8C07869464978884209D10C
:1000F0006846007806280FD06846007801A98978FC
:10010000884209D0684680883618B6B20027688DC4
:100110008642DFD10020FEBD002C00D026800120C9
:10012000FEBDF8B584B004000F001600904D607B52
:10013000002802D12A8D002300E0E289009301AB60
:1001400001212078FFF7BCFF002801D1042019E02D
:100150000120607368468088E081684680882C189A
:10016000062221002C3102A801F0D6F820003230FE
:10017000386068460089801F308002A800790A999B
:100180000870002005B0F0BD7CB5794D298D6A4618
:1001900091800021060019E0684680882C1804220E
:1001A00021002C31684601F0B7F800F080FC694668
:1001B0000988421A61182C3120002C3001F0F8F81F
:1001C000688D69460988401A68850121009101AB54
:1001D0006846828806213000FFF772FF0028DBD1D5
:1001E00073BDBD4A514380081B2242438818253005
:1001F000704770B506000D00EFF310840DE0012389
:1002000032780021B54801F0FDF884F31088307889
:10021000401C30702878401E2870287800280BD0A9
:1002200001210020FFF7DDFF72B601F011F900286F
:10023000E5D184F31088072070BD01680022028197
:10024000428182730B78FF2B05D0FE2B09D10389E5
:100250005B1C03810AE04268511A091F818100205A
:100260007047002B0DD143895B1C43814A88D21C07
:10027000032313435B1CC9184A1D43689A42E1D308
:10028000EDE703207047FCB585B00D9F427B002A47
:100290001BD10C9A130005D002AB5A80FE221A70B3
:1002A00002AD00E04568426883689A4215D26A460A
:1002B00091712978FF292E4E01D10EE020000021F6
:1002C000027B002A12D001731EE000970123069AD8
:1002D0000599FFF726FF002847D0042045E00320BA
:1002E00043E06A786B469B799A4216D042686B88E5
:1002F000DB1C03241C43641C15194560826895426D
:10030000E3D22A78FF2AE0D02A78002AEED0FE2A0B
:10031000E5D16A469279FF2AE3D1328D6B469A8005
:1003200004000CE008226846808831182C3103A8AC
:1003300000F0F2FF049861688842BFD0012100916B
:1003400001AB6846828802212078FFF7B9FE0028B9
:10035000E8D16068001D05990860688806990880E2
:10036000002F01D068783870002007B0F0BD000081
:10037000440900207FB515001C00099E0022328030
:100380000B9A01926A46128D009202AB03AAFFF704
:100390007AFF010013D1694609898D4201D30620F5
:1003A0000DE0089A481B904200DA020020000399F1
:1003B000491900F0B1FF684600893080002004B080
:1003C00070BDFEB5A24D0D40491B6B46197000244F
:1003D000070016000AE00422311901A800F09CFF72
:1003E000019A39193D4800F0FBFF241DAC42F2DBB5
:1003F0000020C043019068460278711901A800F0FE
:100400008BFF019A7919354800F0EAFFF7BDF6B580
:1004100085B00E001C0025000027FF43417B00290A
:1004200018D000210091002301AA921C02A9FFF715
:1004300078FE00283AD16846C088801B80B2A0426E
:1004400046D32A0002988119069801F09DF80028E9
:100450003FD03DE0416802918268914202D2097822
:10046000FF2901D1042034E0027B002A1ED1FE299D
:100470001CD17849098D6A469180040001200090C2
:1004800001AB6846828802212078FFF719FE002818
:100490000ED008226F486946898841182C3103A87C
:1004A00000F03AFF049861688842E7D1052010E027
:1004B000029949888E4201D306200AE020732A005F
:1004C0006068001D8119069801F05EF8002800D0D0
:1004D000380007B0F0BD00003423000000100040D9
:1004E000FFB585B000270E9A178069460C8C417BBA
:1004F000002919D0009700230E9A01A9FFF711FED9
:10050000002846D10E9800886946098B421A684631
:10051000008C824200DB220001986946098B411859
:10052000079800F0F9FE50E00F990A0005D002AAE2
:100530005180FE21117002AD00E04568416882687B
:10054000914202D22978FF2901D104203EE0027BAA
:10055000002A1ED1FE291CD13E49098D6A46918090
:1005600006000120009001AB6846828802213078A5
:10057000FFF7A6FD00280ED0082236486946898874
:1005800041182C3103A800F0C7FE04987168884216
:10059000E7D105201AE06846008B6988884201D3BC
:1005A000062013E037736846008B69880A1A69468B
:1005B000098C8A4200DB22007168091D091807981E
:1005C00000F0AAFE68880E990880002009B0F0BDEE
:1005D00038B5050000210420FFF703FEEFF3108477
:1005E00072B600F035FF002803D184F3108807208D
:1005F00032BD2900FF22D243A84800F0F1FE84F367
:100600001088002032BDF8B507000E00150000F07C
:10061000BBFF00281BD0681EA1490143491C4B03A6
:100620001B0EA0483818C20A00219C4800F0EAFEC0
:1006300000240AE06010800F0019801080003258FA
:100640003919964800F0CCFE241DAC42F2D3F1BD1E
:10065000FCFF0000440900200121017000214180BD
:1006600081807047F8B58AB005000E0017001C00A5
:1006700000200090FF223900300000F0A3FFFE2090
:1006800069460876099508960794109D009C06AE69
:100690001AE06846008A6988401A401E0324044311
:1006A000641CA4B268886946098A091A4A1E032193
:1006B0001143491C89B2059A8A4244DB01209142C8
:1006C000287049D000206880381B001F80B2059038
:1006D0002878002828D0701C0390A888029004A8CD
:1006E0000190059880B200900898001D031900221F
:1006F000FF210998FFF73EFE6946098AA98001009B
:100700000ED16846008A7080042206A90898001954
:1007100000F002FE7088C01C032101436418BFE78B
:1007200007990C800BB0F0BDA888019004A8009038
:10073000059883B20898021969880998FFF7D0FED6
:100740000100A6D0EEE700212970059940186880C5
:10075000079807800020E5E70020F8E7F1B58C480E
:1007600085440027CB488421090169440978142273
:100770005143411801914989002901D100208AE0A3
:1007800000970023028D0621842000016844007830
:10079000FFF796FC002801D009207CE0202000F023
:1007A0008CF9002801D1082075E006A984200001F9
:1007B0006844007800F01AFB079C04A8FFF74CFF80
:1007C000EFF3108604A803C80AAA03C20CA806A95E
:1007D000102200F087FD04A8009003AB80221201D4
:1007E00010A906A8FFF73EFF0500042D08D0002D34
:1007F00051D168468089802109018842E2D103E015
:1008000068468089002816D0012168468089FFF754
:10081000E8FC72B600F01CFE002829D068468289E8
:1008200010A92000FFF7EFFE86F310880127F802D9
:100830002418002DC6D00898401E19490143491CB0
:10084000081BC00A6946487016482018C00A08707C
:10085000491C6846FFF7CDFC072819D16846427845
:100860000178842000016844007800F0B1F912E0BA
:1008700086F31088002F01D107200CE00AA803C8D6
:100880000190029100940CA80FC800F072F902E0E8
:100890000198FFF7D2FCCC498D44F0BD0010004018
:1008A000FF0700000000FCEFF8B5C84CA544802706
:1008B0003F010500EFF3108602A829001831062237
:1008C00000F02AFD04A8291D102200F00BFD2800CD
:1008D0001830009001AB3A0008A9281DFFF7C2FEAE
:1008E000040068468088B84205D0002CE4D06846F1
:1008F0008088002816D0002168468088FFF771FCA8
:1009000072B600F0A5FD002829D06846828808A9A3
:100910006869FFF778FE86F310886869C019686116
:10092000002CC9D0E868401E791E0143491C686943
:10093000081AC00A694648706869B4494018C00A74
:1009400069460870491C6846FFF753FC072815D113
:10095000684642780178287900F03AF915E086F384
:100960001088281D04A9102200F0BCFC28001830B3
:1009700002A9062200F0D0FC072006E045482979AC
:10098000142251434018FFF758FCC6498D44F0BD6E
:10099000C0F7FFFFF8B58D4CA54400216A46917160
:1009A000002400253B4F060000E06D1C3079854295
:1009B00016DAB0680C216943405C010014225143EF
:1009C00079184989002900D00124002100910023D1
:1009D0003A8D0621FFF774FB0028E6D0092055E088
:1009E0003500002C24D080273F013A00FF2108A8C1
:1009F00000F011FE00240DE002A8FFF72DFE02A872
:100A0000009001ABBA1B92B208A8811904A8FFF7A5
:100A100029FE641C287984420CDAA8680C226243FF
:100A2000011D8E5804A9805C00F0E0F90028E3D095
:100A300000202BE001213800FFF7D3FBEFF31086F5
:100A400072B600F005FD002803D186F31088072058
:100A50001CE03A0008A92868FFF7D5FD86F3108846
:100A600000260C4F684684790CE0A8680C2171437D
:100A7000405C142148433818FFF7DFFB010000D029
:100A80000400761C28798642EFDB200085498D44DE
:100A9000F0BD000044090020C1498A79824201D199
:100AA00002207047897C8142FAD000207047CE48EE
:100AB000418D008D081A80B2704770B50400FFF7B1
:100AC000F6FF050080204000411BA14201DA002012
:100AD00070BDC54E718D401AA0420BDA2A0030005D
:100AE0002C30318D411830002C3000F061FC00209A
:100AF00030857585012070BD70B50C00BA4D6E8DC6
:100B000080214900891B2200914201DA002070BD3A
:100B10000100A8192C3000F0FFFB30196885012076
:100B200070BDFEB504000D00099F581E032101434E
:100B3000491C684601800088C619B61DB0B2FFF78F
:100B4000BCFF002801D10820FEBD01A80121817051
:100B50000680C47005710621FFF7CEFF6846018844
:100B60000898FFF7C9FF39000A98FFF7C5FF002072
:100B7000FEBD1FB588B02020FFF79FFF002801D1E0
:100B800008201EE00E9C6846202101800321817010
:100B9000001D08A9102200F0A5FB05946846183036
:100BA0000FA9062200F0B8FB20216846FFF7A4FF3A
:100BB00001208D4908AA127814235A438918887392
:100BC00000200CB010BD000044080000E0F7FFFF5B
:100BD0007CB504000D0016000620FFF76EFF00280C
:100BE00001D1082076BD684606210180042181706C
:100BF000C470057146710621FFF77EFF01207A4916
:100C00001422544309198873002076BD0000FCEFBC
:100C1000F8B5944CA54407000D0080221201FF2175
:100C200008A800F0F8FC00241BE00C266643A86826
:100C3000805DB84214D004A900F0D8F8A8688019E3
:100C4000466802A8FFF708FD02A8009001AB8020CB
:100C50000001821B92B208A8811904A8FFF702FDC7
:100C6000641C28798442E0DB2E0080252D010121BF
:100C70002800FFF7B6FAEFF3108472B600F0E8FB35
:100C8000002803D184F31088072007E02A0008A970
:100C90003068FFF7B8FC84F31088002001498D44C8
:100CA000F0BD000024080000FBB582B003236E49AC
:100CB0005218032515436D1C0CE03778FF2F17D011
:100CC000FE2F01D0002F2BD17288D21C1A43521C48
:100CD000B218426082684668741D9442EDD342495E
:100CE0000078142250430818408900281AD015E0D3
:100CF0000190901B884200D308003B4C80B2A9B2FF
:100D00006A46128D8918091D88420DDA019800780B
:100D10001421484320184089002803D00B203DE0CF
:100D200003203BE0022039E06846007BFE216A4652
:100D30001170694648706846008D28184880002167
:100D4000001D80B2FFF74DFAEFF3108772B600F086
:100D50007FFB002803D187F3108807201EE0009A4C
:100D600031007C4800F03CFB049AA9B2301DFFF72B
:100D700028FB0B9A6846018DADB27019001DFFF774
:100D800020FB87F31088200008300199097814228D
:100D9000514340180188491C0180002005B0F0BD76
:100DA000047D051010B500249B480C2161434118B7
:100DB0008A79694814235343C0180368002B11D162
:100DC000012A0FDC0A6802608B88D2184260098908
:100DD0000182FFF732FA010005D1641C012CE3DD2A
:100DE000002010BD012010BD4409002010B50200F4
:100DF000022A01DB012010BD574B142462439A18CC
:100E000013684B6052688A6001220A7308700020E0
:100E1000487310BD7FB5504C05781426754364198E
:100E2000A47B002C01D00A2008E003940294099CC2
:100E300001946C46248C0094FFF79CFA04B070BDBA
:100E40007CB5454C0578142675436419A47B002CA9
:100E500001D00A2076BD0194069C0094FFF740FB68
:100E600076BD0000E0F7FFFFFFFF0000F0B585B0A2
:100E7000060030786C462071374D6846007914249E
:100E800060432818847B002C01D0092041E0521EC9
:100E900003241443641C8789BC46A7B26A46128D9A
:100EA000BA18944506DA4089002801D00B2030E0BA
:100EB00002202EE06846017304930B9F00200090EF
:100EC00000232A8D062168460079FFF7F9F80028EB
:100ED00021D002976846008D019004980090A3B23B
:100EE00072686846017B3078FFF71BFE010010D165
:100EF00028000C30317814225143401801886A468A
:100F0000128DA218521E03231343C91A491F0180D0
:100F1000002005B0F0BD01976846008D0090049B4D
:100F2000A2B26846017B3000FFF7BEFE0100DFD0B1
:100F30000728EED102976846008D01900498009032
:100F4000A3B272686846017B3078FFF7EAFD0100C2
:100F5000CED0DEE70010004044090020FEB50500B9
:100F6000694E30000E30297814225143405C00282D
:100F700001D00920FEBD0024687B002810D0E8893C
:100F80003518062229002C31684600F0C5F968465C
:100F900084700622694628002C3000F0BDF938E044
:100FA0006868A96888421DD20178FF291AD0FE29F5
:100FB00016D1FFF70DFB010001D015D129E030005B
:100FC000083029781422514340180188491E0180B5
:100FD00028781421484330184189491C418118E080
:100FE0000520FEBD0420FEBD072813D16F682D78B3
:100FF00008260820FFF761FD002801D10820FEBD6A
:101000006846068002218170C57001970821FFF7AC
:1010100073FD0020FEBD0000047D0510F0B585B015
:101020000400394F1421484338180290807B00286F
:1010300001D0092066E001A92000FFF72DFD02285C
:1010400025D102980068A3494118C90A6A4651701F
:1010500002994968491EA04A0A43521C101AC00A44
:10106000694608702000FFF78FF8694600A8401C09
:10107000FFF7BFF8072806D16846027841782000BC
:10108000FFF7A6FD3EE00298FFF7D7F835E001280C
:1010900037D101992000FFF7BBFD060013D10024D2
:1010A0000198007984422ADA019880680C21614312
:1010B000455C2800FFF768F8142045437819FFF7CE
:1010C000BCF8641CECE7072E19D1019F0826082004
:1010D000FFF7F3FC002801D1082013E02000FFF700
:1010E00053F803A8068005218170C4700497082175
:1010F000FFF702FD012002998873002002E0300012
:1011000000E0012005B0F0BD440900201CB504003A
:101110006946FFF7C1FC022803D12000FFF71EFB40
:1011200016BD012803D10098FFF734FC16BD01203D
:1011300016BDF0B58BB00027684C208D618D8842BC
:1011400038D02518042229002C3102A800F0E4F838
:1011500002A88078012808D006D3032869D051D38B
:10116000052800D190E071D3B2E0062229002C318D
:1011700003A800F0D1F805A903A8C078FFF736FE50
:1011800001970097208D2318323368468089821F8B
:1011900092B203A8017905A8FFF786FD050053D197
:1011A000208D6946098940182085618D80B288426A
:1011B000C3D1A7624A4800214156C8B21422424313
:1011C000A2185389002B03D09389128A934213D318
:1011D000401CC0B2022800D100208842EED100217C
:1011E0000020C0433E4A1170010602D4C0B2FFF78E
:1011F0008DFF00200BB0F0BD411C4AB2022AF1D194
:101200000021EFE7082229002C31684600F084F81D
:101210000198FFF7DDF9050016D16846C078142162
:10122000484320180189491E01814189491C418197
:10123000B6E7202229002C3103A800F06DF803A89E
:10124000FFF732FB0500ABD02800D3E706222900C8
:101250002C31684600F060F86846411D001DFEF71D
:10126000C8FF05000622694620002C30238DC018D7
:1012700000F052F8002DE7D16846C07814214843A9
:101280002018FEF7DAFF8BE7082229002C31684688
:1012900000F042F801996846C078FFF7B9FC0500F4
:1012A000D2D10025019801798D42ECDA80680C21B9
:1012B0006943465C30006946C978884201D0FEF730
:1012C00063FF14204643A019FEF7B7FF6D1CE9E742
:1012D0000C208FE70000FCEFFF070000440900200E
:1012E0003E0C002070B4103A03D378C9103A78C08D
:1012F000FBD2530701D318C918C001D508C908C0CB
:10130000D20704D30B880380891C801C002A01D5D6
:101310000B78037070BC70478B0701D18307E1D055
:10132000124205D00B78491C0370401C521EF9D1A3
:101330007047F1B4016842184168480813180098D2
:101340008068C9071ED5494640181BE01778521C13
:101350000770401C761EF9D1002C13D01678521C51
:1013600089080D40032D01D11578521C29027118EE
:101370004D424119A41C05D00D78491C0570401C34
:10138000641EF9D19A420FD01178521C032503260E
:101390000E4002D11678F61C521C0C090F2CD9D124
:1013A00014780F34521CD5E700980C30F2BC70470B
:1013B000814202D25318984203D300B5FFF7ACFF25
:1013C00000BD521E03D38B5C8354521EFBD2704768
:1013D00000690840884201D1012070470020704711
:1013E00010B50F2303618903090C81610264332165
:1013F000FFE70160040001212000FFF7E9FF012859
:10140000F9D110BDF8B505000F26FF2909D12E61CD
:101410002220286001212800FFF7DAFF0128F9D1F6
:10142000F1BD17003C00009306E001212800FFF702
:10143000CFFF0128F9D1641C009838188442EFD2FC
:101440002E61E0028003000CA86111202860ECE707
:1014500058B5040000F04DFB0600684600F0F4FCAF
:10146000002803D00098801B844201DA012052BD7D
:10147000002052BD10B5FFF795FC424C211D002005
:10148000FFF7B4FC210014310120FFF7AFFC201D51
:10149000206010BD3EB53B4C022802D1250014351A
:1014A00000E0251D256001936B461B8B00930B000C
:1014B00001002068FFF7DAFC002805D0022801D1DE
:1014C000002000E00120C0433EBDF8B584B00E000E
:1014D00019002C4C022E03D125001435012301E004
:1014E000251D00230700256028466D466A8103916B
:1014F0000A9D022F08D102A900912B00039A694688
:101500004989FFF79DFC0FE0002F03D1010018006F
:10151000FFF76CFC02A801900095039B6846428986
:1015200031002068FFF776FC010001D1002005E0C2
:10153000042801D1022000E00120C04305B0F0BD25
:1015400010B5140023000A0001000E480068FEF7E1
:101550005EFF002804D001D5200010BD0220C0434A
:1015600010BD80B5022807D10649086814318842A9
:1015700007D0FFF7F3FC01BD032802D10020FFF7DD
:101580004DFD01BDD00B0020A446521E08D30378A8
:101590000C78401C491CA342F7D0181B64467047C6
:1015A00000206446704710B5044608464978007824
:1015B000C046C0460C20E070A078BF210840A07053
:1015C000842010BD1206130A1A43130C1A4300BFDD
:1015D000094205D0830707D00270401C491EF9D18B
:1015E000704700000022FFE71300103906D330B423
:1015F0001400150010393CC0FCD230BC490700D3A0
:101600000CC000D504C0890002D30280801C0029D0
:1016100000D50270704710B50400080011000200E8
:101620002000FFF7CFFF200010BD38B5C81D009087
:101630008C788B798A8808882146C046C04638BD98
:10164000010005D40121C006C00E8140AC480160F4
:101650007047F3B589B000250D700998807A00288D
:101660005CD0A84803C8A84A1268002312184B414E
:1016700006A80CC0EFF31080029072B600F05DFD7A
:1016800002000B00099803C804AC03C4012404A899
:1016900003C80090019106A803C8C826B602002717
:1016A00036184F4100980199B9420ED301D8B04283
:1016B0000BD306A803C8B9267600002736184F4179
:1016C0009F4226D801D3964223D200200A324341BA
:1016D00004A803C800264C38B1418B4211D801D36D
:1016E00082420ED20998027AC37A04A803C819006C
:1016F00000F0D0FD0A990870099885720998447223
:1017000009E098488572029880F310880A9804705E
:1017100004E07D484476029880F310880BB0F0BD59
:1017200080B500F0ABFC01209D49087101BDF3B507
:1017300087B004460020087000E02469002C5DD0CA
:10174000207B0028F9D0EFF31080019072B60020C2
:1017500069460870491C8348FFF77BFF00F0EDFCE9
:1017600002000B0003CC083C0F00861A9F4104AA1C
:10177000C0C2012504AA0CCA002B34DB01DC012AFB
:1017800031D3784A0CCA02AE0CC602AAC0CA5E4A5D
:10179000926B002312184B419F4210D801D39642FE
:1017A0000DD2704A527A002A09D002AA0CCA8B4282
:1017B00007D301D8824204D35348057601E0684636
:1017C0000570694604A80CC8100000F025FD6846A5
:1017D0000078012809D16348817A427A0A438272EB
:1017E0000021417201E008980570019880F310888B
:1017F00008980078002801D0079800E0200009B080
:10180000F0BDFEB500256C462570017B002901D096
:101810000120FEBD0CC0083801210173604CA66890
:101820000196070001E035003669002E08D00CCE85
:10183000083E03CF083F8B42F5D301D88242F2D352
:1018400038000661002D01D1019000E02861019966
:10185000814213D16946FFF76AFFA06068460078AD
:1018600000280BD0EFF3108072B6217D4A1C637DF7
:101870009A4200D0491C217580F310886846007890
:10188000FEBD10B5204C002808D0207B00280BD1CD
:1018900020002030FFF744FF012004E0200020302A
:1018A00000F0F2F80020207310BDFEB500F07CFCC3
:1018B0002C4D00246C72AC72EFF3108672B600F0FF
:1018C0003CFC6A4603C200F096FC07000CCD68465B
:1018D00003C8121A8B410021D21B8B4186F310885A
:1018E00004DC01DB012A01D20120FEBD002B04DC57
:1018F00001DB0F2A01D20220FEBD0020FEBD000048
:1019000000E100E0F80B0020080B002080B56946DC
:101910001448FFF79EFE2248017E002903D00021D3
:10192000017600F008F8A248016801220A4302602B
:101930000068009001BD18B51949002008769D483F
:1019400002689D4B134003600A7D531C4C7DA342EB
:1019500000D0521C0A75C16901220A43C261C069E4
:10196000009011BD100C002064480168022900D1CC
:1019700070471CB50068032810D0094C6946A06860
:10198000FFF7D5FEA06068460078012806D1207DCB
:10199000411C627D914200D0401C207513BD0000A7
:1019A000080B002010B5FFF72CFF04000120FFF703
:1019B00068FFE0B210BDF8B504000D0000F0BDFBFB
:1019C00006000F00290D28030A22002300F016FD4F
:1019D0008019794102000B002000FFF712FF04007C
:1019E0000120FFF74EFFE0B2F2BDFEB50300002478
:1019F00068460472714EF1723272714803C81A1A45
:101A0000002312184B410CC6083E74720127B772AE
:101A100000F093FB6B4DAA680CCA8B4215D301D81A
:101A2000824212D303CE083E00900191A86B0021A0
:101A300080185941009A019B8B4206D301D88242FB
:101A400003D3A868007B002811D102A93000FFF75A
:101A500000FEAC680CCE03CC083C8B420ED301D800
:101A600082420BD3207B002808D02F7606E0564810
:101A700001784906490E01708474C4740120FFF78F
:101A800000FF6846007AFEBD7CB503004D4CA2689D
:101A9000150000210026100001E02E002D69002D08
:101AA00009D09D42F9D101932B69954201D11800CB
:101AB00002E0336100E001936D462970019B1973C8
:101AC000824214D06946FFF732FEA0606846007873
:101AD00000280DD0EFF3108072B6217D4A1C637D83
:101AE0009A4200D0491C217580F3108873BDA06014
:101AF00073BD80B500F021FB04BD00000C00006048
:101B0000F8B5050000F040FC8D48012641683143DE
:101B100041600168314301601820FFF791FD28887A
:101B2000C92800DAC820274CA0631420FFF788FDDD
:101B30006846A97881706968C1702988018000F0C1
:101B40003EFA1F4800F01CFB0027A76026731B4AC3
:101B5000002050729072002103C228882061A78261
:101B6000686800030A2100F097FC20602771AF4DE0
:101B7000002804D1280000F020FC20600AE02800A2
:101B800000F01BFC2168814203D3280000F015FC03
:101B900001002160A648A062676300F0CEFA2268C7
:101BA000002312184B4120002030FFF72AFEF1BD20
:101BB0004418006030180060FFFFFFBF100C0020C9
:101BC000F80B0020080B0020C4000020F8B584B0FA
:101BD000002469460C70EFF3108672B69548407A7F
:101BE00000280CD000F0A9FA02000B00914D03CDA3
:101BF000083D994203D801D3904200D26C7286F31B
:101C000010884E4F22E0401C19E004690021017346
:101C10008168002900D088472000F6D16946B8685D
:101C2000FFF785FDB8606846007801280AD1EFF318
:101C3000108172B6387D421C7B7D9A42E3D13875A3
:101C400081F31088787D039940187875787D397D07
:101C50000A1A02D2802040001218002A28D00392CB
:101C6000BC68002602940194002502E02600246945
:101C70006D1C002C0FD0207B0028F7D000F05DFAFF
:101C800002000B0003CC083C801A99410029EDDBCF
:101C900001DC0628EAD3002D03D000203061029435
:101CA00001E0002001900298B86001980028B4E794
:101CB000614E01243879002827D000F0EBF9002884
:101CC0003AD100253D7100F0F5F9300000F058FAE6
:101CD000787E00280AD07D76564884726946FFF7E0
:101CE000B8FC6946B868FFF722FDB86038002030BC
:101CF000FFF7CAFE00F021FA3A68002312184B41A0
:101D000038002030FFF77DFD16E0307C002813D02E
:101D100000F013FA02AA03C203CEFA2252030023F0
:101D200012184B4102A803C88B4205D801D3824246
:101D300002D200F0A3F93C7105B0F0BD080B002001
:101D400040180060FEB5040000F064F8002860D080
:101D500002A800F037FA3749497A002903D13549FA
:101D6000897A00291CD001283CD000F0E6F9040053
:101D70000D0000F040FA02002E4803C8002312199B
:101D80006B412E4C24690025A4185D4100221E34AD
:101D90005541A94226D301D8A04223D3022403E00F
:101DA00002281FD001281DD0244DA86800282FD05C
:101DB000007B00282CD000F0C0F906000F00AA68B4
:101DC00003CA083A009001912869002180197941DD
:101DD00000231E305941009E019F8F4204D801D339
:101DE000864201D20120FEBD032C10D110690028CB
:101DF0000DD128002030824209D10020FFF741FD9B
:101E00000F4801680F4A0A4002600320FEBD022409
:101E10002000FEBD0948017D427D914204D1007938
:101E2000401E8041C00F704700207047FFEFFFFF4A
:101E300021170410100C0020F80B0020080B0020C4
:101E400030180060FFFFFFBF03490968CA680260DD
:101E5000087C00097047000008050020914881684F
:101E600001220A43826000210160704730B58E4B29
:101E70008C490A681A400C681C40A242F9D1002A19
:101E8000F7D08A4B14125C43D5B25D432B12E31892
:101E900010335B1143628261854A4B6813404C6882
:101EA0001440A342F9D1002BF7D09911A74A51430E
:101EB000803109120162C36130BD10B50400FFF723
:101EC000CDFFAE480068C007FBD52000FFF7CEFF6E
:101ED00010BD68214143090ADB225043000C081859
:101EE000704780B5FFF7F5FF61E238B530C80838B4
:101EF000954A13680B60AB4A416AC06A181A00F031
:101F00002DFB00210019694134BD70B50500904CCE
:101F1000607A7D214843C90000F0BBFA461CF6B246
:101F2000A64A296A1B2000F019FB20706078FFF791
:101F3000D8FF3D216854E0788019FFF7D2FF3521A2
:101F4000685420798019FFF7CCFF362168546079F6
:101F5000FFF7C7FF37216854A079FFF7C2FF382188
:101F6000685470BD38B50400774805688D4AA16A89
:101F7000206B281A00F0F2FA210008310CC9002168
:101F80008018594103C4083CE562256322000832E9
:101F900003C2606AA06231BD80B5884A00F0DEFAF3
:101FA0008749884201DD080002E0102800DA10208D
:101FB000924900118882888A9249086001BDF8B56B
:101FC00007008E4C388820618D4EB0797D214843C2
:101FD000C90000F05EFA451CEDB2F878002802D185
:101FE000B87800280DD08848C168C907FBD50168BA
:101FF00017220A4302602000FFF75FFF606AA062B9
:1020000009E0C8204003A0626062804820628048E6
:10201000A0618048E061F87834216054216A206929
:1020200080B2FFF7B9FF00203E216054002103C4B5
:10203000083C454A1268E26222632200083203C269
:102040002000FFF762FF30784019FFF742FF1B3096
:102050003921605470784019FFF73BFF1B303A215B
:102060006054B078FFF735FF1B303B216054F078A7
:10207000FFF72FFF1B303C216054F1BD84480078EE
:10208000002806D00748816801220A4382600021A7
:102090000160704739480068C107C90F01204840F6
:1020A0007047000008100060FFFF0700F6BC080042
:1020B000FFFFFF0738B590B0504C3420205C00285B
:1020C00031D0684621004022FFF70CF96846FFF73F
:1020D000CDFE0899049880B2FFF75EFF6846FFF7CF
:1020E00014FFEFF3108572B60698A0610798E061BF
:1020F00008982062099860620A98A06268463521B3
:10210000415C3522A1543621415C3622A15437214D
:10211000415C3722A1543821415C3822A1543D2131
:10212000405C605402E0EFF3108572B62000FFF7C8
:1021300019FF85F3108811B030BD80B56946A248FB
:10214000FFF7D3FE04BD0000101800605307000025
:10215000C5000020F8B50500284C69462000FFF7AF
:10216000C4FE06000F00994A616A0098401B00F007
:10217000F5F900233900301A9941F4BD10100060C0
:102180000200914B3420185C1074D869D06018009C
:10219000083003C803C2083A98699060186B506110
:1021A0007047000035060000002089490860894812
:1021B0000168894A0A400260704700002603000057
:1021C000FF0F000085494A68520003D50968016085
:1021D000032070477E490A68022A03D149680160DA
:1021E000012070470A68032A03D149680160022070
:1021F0007047002070477A4800787047C80A00206E
:10220000C80000200818006004100060C2F5280013
:102210008D5B0000ECEB650170B50C00714A6A49FA
:10222000096A00F09BF90100202900D820216E4A9C
:10223000106841180831D16193698025AD051D43AF
:102240009561136A8025ED051D4315620023604DDD
:102250002E68022E05D02D68032D02D02578012D81
:1022600001D0237070BD614C25786D066D0E257010
:10227000A374E3740F239943516191690723994330
:1022800091619169C023DB050B43936170BD000030
:10229000FC0A0020FEB504004B4E3920305C0129B9
:1022A00005D1002A01D0352106E0362104E0002ABC
:1022B00001D0372100E03821715C0091019002A922
:1022C0003000FFF712FE201A484D0027434C454AC4
:1022D00001993369C918C8318142316A17D200F0B7
:1022E0003DF96978401A0099401A0299091821604D
:1022F000616807229143616035490F606168C022BF
:10230000D2050A43626000996A788B1812E000F0E7
:1023100025F93D21715C401A009A801A029A121820
:102320002B4B5A6002221A6062682B4B1340636089
:10233000009A5318297880220A432A70F021A97440
:10234000FF21E974C118581D814207D22048076057
:1023500060682149014061600120FEBD1B4A716A2D
:10236000180000F0FBF83E2170540020FEBDEFF392
:10237000108072B61C490968154A891C51600221F7
:10238000116080F3108870471948012142680A43A0
:102390004260026811430160802000041549086012
:1023A000704780B514480068FFF7D4FE04BD0D4A9D
:1023B0000549096A00F0D2F802BD80B5034A024916
:1023C000496AF7E700000000C80A0020350600004F
:1023D0000C00006028180060FFFFFFBF2418006099
:1023E000060B00202603000010180060C400002027
:1023F0004818006000E100E014000060124224D0A0
:10240000994228D970B500251B4202D00C0000214A
:1024100009E00024012649186441944200D3A41A1B
:102420007641F8D33100012601E0764109D2001847
:1024300064416D41A41A9D41F7D2A4185D41B619BB
:10244000F5D3300022002B0070BD1B42D8D108B557
:10245000C046C04608BD01D19042D3D202000B0055
:10246000002100207047F446002804D4494200F0BF
:1024700013F8404260474042002905D45FD000F085
:102480000BF8404249426047494200F005F8494292
:10249000604703460B43E6D40022030A8B420BD26B
:1024A00003098B4219D243088B422ED2411A00D223
:1024B0000146524110467047FF2209023FD01206E2
:1024C0008B4205D3121209028B4201D31212090268
:1024D00003098B4219D300E0090AC3098B4201D3D7
:1024E000CB01C01A524183098B4201D38B01C01A20
:1024F000524143098B4201D34B01C01A5241030997
:102500008B4201D30B01C01A5241C3088B4201D345
:10251000CB00C01A524183088B4201D38B00C01AF2
:10252000524143088B4201D34B00C01A52418842AA
:1025300000D3401A5241CFD201461046704708B529
:10254000C046C04608BD38B5088900904C88CB8885
:102550008A8808782146C046C04638BD10B59042EA
:1025600016D98AB2030C090C0C46594380B2534366
:10257000444350431B191A041B0C10185941802264
:102580005203002312184B41520DD802104310BDC4
:102590004843802252031218520D104610BD38B520
:1025A000088900904C88CB880A7908782146C04673
:1025B000C04638BD010005D40121C006C00E8140CF
:1025C000374801607047010009D40121C006C00EE0
:1025D000814034480160BFF34F8FBFF36F8F704766
:1025E00081B031490A6802430A60096808400090D6
:1025F000009801B07047000081B02C4801680222A9
:102600000A430260002102E000BF0099491C0091CA
:1026100000990629F8DB016804220A43026001B030
:10262000704723488168042291438160016849050D
:10263000FCD5816802229143816070471B48016884
:10264000890703D500684107C80F7047002070470D
:1026500018490A6883B213430B608A6A000C10435E
:1026600088627047020C80B2134B0129196805D1AA
:1026700008431860986A02439A6270478143196060
:10268000986A9043986270470C490028086803D004
:10269000042202430A607047042290430860704796
:1026A00000E100E080E100E06000404808004048B0
:1026B00000004048080050480C00504810ED00E071
:1026C000FFB5FFB0F2B0040000206946C870EFF318
:1026D00010805D9072B60020B849886000F0A6FCBA
:1026E000002801D100F019FC200000F0AFFC05002B
:1026F0002000FFF727FB0600200001F0F4F8A542B8
:1027000000D92500AE4200D92E00B04200D93000D9
:1027100069464870AA48AB490861886368464078B2
:10272000002804D068464078012808D130BFFA99C3
:1027300008705D9880F31088002000F055FCF2A826
:102740000078002803D080200002FFF781FF684650
:102750004078022803D1C0208001FFF779FFF49D63
:10276000F39C2800204330903098FFF771FF002140
:102770002800FFF777FF01212000FFF773FFF2A881
:1027800040786946887000200870A021C9A8FEF72B
:1027900029FF04A80021002200230EC001A80EC0BA
:1027A000182107A8FEF71EFF2C2152A8FEF71AFFDA
:1027B0002C2147A8FEF716FF6821AFA8FEF712FFED
:1027C00040217FA8FEF70EFF24211FA8FEF70AFF75
:1027D000242116A8FEF706FF24210DA8FEF702FF0C
:1027E000582199A8FEF7FEFE302172A8FEF7FAFEE6
:1027F000302166A8FEF7F6FE2C213CA8FEF7F2FE7B
:102800002C2131A8FEF7EEFE6F4F386DC0070AD5B8
:1028100020229121C90528A801F006F9A0226B49C0
:10282000C9A801F001F9386D400304D50C226849AC
:1028300004A801F0F9F8386DC00304D50C226549ED
:1028400001A801F0F1F8386DC00404D518226249DE
:1028500007A801F0E9F8386D400705D52C22902132
:10286000C90552A801F0E0F8386D000704D52C2204
:102870005A4947A801F0D8F8786DC00504D5402220
:1028800011067FA801F0D0F8786DC00704D5682242
:102890005349AFA801F0C8F8B86DC00704D5242289
:1028A00050491FA801F0C0F8B86DC00404D5242217
:1028B0004D4916A801F0B8F8B86D400404D524229B
:1028C0004A490DA801F0B0F8B86DC00604D55822E9
:1028D000474999A801F0A8F8B86DC00508D5684621
:1028E0008078002804D13022424972A801F09CF877
:1028F000B86D400504D530223F4966A801F094F830
:10290000B86D800205D52C228221C9053CA801F0B2
:102910008BF8B86D000204D52C22384931A801F09B
:1029200083F8D24800689890D14800689790D148C1
:102930000068969000205EAB314C810062585A507E
:10294000401C0828F9DBC948806995902D4800682B
:1029500094902C4840689390386B9290B86B91900B
:10296000386D9090B86D8F90386EC00702D40120FA
:10297000FFF736FE24488069800007D4224880692A
:102980008021090601432048816105E01E488069D5
:10299000400040081C498861386EC00703D4386E77
:1029A00001218843386668464078032831D13E6863
:1029B0003868C006386829D5102128E004000020B6
:1029C000FFFF000000005048000040480000704831
:1029D0000000604800003048000020480000104817
:1029E0000020004000200041003000410070004104
:1029F00000600041005000410040004100100041D3
:102A000000E400E010E000E01018006004218843BA
:102A100038600020B949096850397E91B84A11657B
:102A20001346116D0A6885005A51401C091D1A464B
:102A300011651428F5DBB3480069B249896B80B28F
:102A4000090401433098084000D05EE2AD4D28688B
:102A500028600120FFF718FEFFF7F0FD00280DD0D9
:102A6000FFF7DFFDB868E021884320210143B9600A
:102A7000386880218901014339600120309001F0DC
:102A800035F87A4880680421884378498860684628
:102A90004078032812D1700703D538680421014318
:102AA00039601020064009D09749AA6A0A40AA62F4
:102AB000EA6A1140E962396808433860CC488068A6
:102AC000002800D114E200207E998D4A1165116D15
:102AD0008300D2580A60401C091D894A11651428D8
:102AE000F5DB989861490860979861490860969865
:102AF00060490860002081005EAA52586250401C64
:102B00000828F8DB929838639198B86390983865F4
:102B10008F98B865386DC00713D5202228A9912059
:102B2000C00500F081FF0020CA90CF90D490D990CA
:102B3000DE90E390E890ED90A022C9A9AD4800F0A6
:102B400073FF386D400304D50C2204A9AA4800F095
:102B50006BFF386DC00304D50C2201A9C74800F0F3
:102B600063FF386DC00404D5182207A9C44800F0DB
:102B70005BFF386D40070BD59020C0055A99016264
:102B80005B994162579941612C2252A900F04CFF98
:102B9000386D00070AD5BB484F99016250994162D0
:102BA0004C9941612C2247A900F03EFF786DC00589
:102BB00004D540227FA9100600F036FF786DC007CB
:102BC0000BD5AF9CAF9801218843AF90C44D6822CC
:102BD000AFA9280000F028FF2C60B86DC00712D5FF
:102BE0001F9C1F98402188431F90BE4D0C221FA997
:102BF000280000F019FF14221FA801001031BA4864
:102C000000F012FF2C60B86DC00412D5169C169807
:102C1000402188431690B54D0C2216A9280000F0DB
:102C200003FF142216A801001031C14800F0FCFE79
:102C30002C60B86D400412D50D9C0D98402188433E
:102C40000D90BC4D0C220DA9280000F0EDFE1422C1
:102C50000DA801001031B84800F0E6FE2C60B86DF8
:102C6000C0060BD5582299A9B44805E008ED00E04C
:102C70000410004000E100E000F0D6FEB86DC00591
:102C800011D56846807800280DD1729C7298012178
:102C900088437290AA4D242272A9280000F0C4FE35
:102CA0007D98E8622C60B86D40050DD5669C6698ED
:102CB000012188436690A34D242266A9280000F0D4
:102CC000B3FE7198E8622C60B86D0125ED43800277
:102CD0000BD53C9C3C9828403C908226F60520224F
:102CE0003CA9300000F0A0FE3460B86D000213D59E
:102CF000319C319828403190BE4E07E0000004100E
:102D0000700A002000005048FFCFFFFF202231A9A9
:102D1000300000F089FE3460386E012420400BD171
:102D20000120FFF75DFCB448806940004008B249CB
:102D30008861386E05403D660122AF214900AF48E9
:102D4000006800F0BEFF684605783868800304D448
:102D500000F0CCFF0028F8D004256846057000225A
:102D60000021002000F0ADFF3098002817D101228B
:102D7000C821A248006800F0A4FF684605783868BA
:102D8000400404D400F0B2FF0028F8D005256846BE
:102D9000057000220021002000F093FF05E0FFF7FE
:102DA0002BFC3868974901403960386E944D2040BB
:102DB00030D0A10708680968F02202400807000F18
:102DC0001043102826D1A80841003A6E062313406C
:102DD000022B01D10A0000E00200884B1E688A4BDA
:102DE000964211D0AE4209D1824224D12A200AE073
:102DF0000400002000007048000060488E4203D1AB
:102E0000824201D12920186058680007FCD40020B4
:102E100000F075FF68464078032824D10122AF21D5
:102E200049007648006800F04CFF74480068A842EA
:102E300004D1042603E08A42E6D1E3E70126002517
:102E40003868C00620D4386800073AD400F04EFF36
:102E50000028F8D00324386E684604700022002150
:102E6000002000F02EFF9598684988616848939982
:102E70004160002181609499016042E00000304887
:102E800000002048000010486846047806E001224F
:102E9000AF2149005948006800F013FF38688006E8
:102EA000DAD400F023FF0028F8D00022002100200F
:102EB00000F007FF28006D1CC0B2B042E7DB02241F
:102EC000CAE7386E0440C9D0684600780328C5D0E8
:102ED00068460478484800680F28FBD0BCE700BF6C
:102EE000002000400020004110200041003000413F
:102EF0003098002805D0FFF77FFB38684149014032
:102F00003960684600786946C87042490869896B2B
:102F100080B209040143404841655D9880F3108800
:102F20003E48806800280FD16946487056E000BFCF
:102F300010300041007000411070004100600041FD
:102F40000050004100400041334C606D002845D0E6
:102F5000616D002500200026F02212010F0C304B7D
:102F60003B4017000F401F4301970B0C1A40CBB298
:102F700013438021C905002B05D08F691B043B40FA
:102F800001D001250120019B002B30D089690B4025
:102F90002DD00126606D2349014002D00F20FFF79C
:102FA00012FB214F280005D0606D384002D0102060
:102FB000FFF709FB606D01F001FA002E06D0606D8D
:102FC0001849014002D00F20FFF7F4FA002D05D078
:102FD000606D074002D01020FFF7ECFA6846407899
:102FE000FA9908706846C0787FB076B0F0BD0028C6
:102FF000D7D1F3E70010004110180060F40400205E
:103000000090D003FFDFFFFF0050004008ED00E01C
:1030100010E000E000005048700A0020040000208A
:10302000FFF00000000FFFF0FF00000F10B50024BC
:1030300001F010FA002805D103480068C07A002882
:1030400000D10324204610BD0805002080B5CA48E1
:10305000016C49040AD4006CC00407D401F04FFB92
:10306000002803D101F052FB002801D0002002BD4E
:10307000032002BD80B501F0ABFBC04A002804D09C
:103080000100100001F0A8FB01BD10002C3001F080
:10309000A3FB01BDF0B58BB008A800BF5DA11CC9A2
:1030A0001CC006A85EA10CC90CC006AA06210020FF
:1030B00001F0A6FB0500B24C02D029002000A0E0E0
:1030C00059A001F089FB00270025AE4E06A8E9B201
:1030D000415C300001F080FB6D1CE8B20628F5DB96
:1030E000A9A001F079FB1921002001F08DFB01F06E
:1030F0008FFB050003D029002000243081E0200050
:103100004C3001F069FB04A80290801C019005A8D6
:10311000009000230B220021012001F07DFB05001F
:1031200003D02900200070306BE00B212000943088
:1031300001F052FB08AA0B21002001F0DDFB050085
:1031400003D029002000D4305BE08020400020180C
:1031500001F042FBFFF78EFF002001F017FC020098
:10316000394605D096204000201801F035FB04E0D8
:10317000AE204000201801F02FFB844803900297F6
:10318000102001900720009000230122012101203E
:1031900001F004FC050002D02900C4201BE0E2205D
:1031A0004000201801F018FB01F03EFC050003D0A0
:1031B000290000BF21A024E028A001F00DFB6E4EE5
:1031C0003300443310220321002001F0B5FC050038
:1031D00003D02900FE20400012E08B208000201840
:1031E00001F0FAFA6A483063FA21C9003000283049
:1031F000FEF7E1FBC5B2002D07D029009720800023
:10320000201801F0E9FA280001E0777600200BB0E1
:10321000F0BD0000536C6176655365635F4131001A
:10322000A11294E1800200005075626C6963204134
:103230006464726573733A20000000004572726F17
:103240007220696E204164645F53657276696365BC
:10325000203078253032780D0A0000004164645F28
:10326000536572766963652829202D2D3E205355BC
:1032700043434553530D0A00F0B58BB0454DB74C51
:1032800080277F007E0001001CD100200A90099059
:103290000120089000200790012006900020059052
:1032A0000490039002900720019000963B001322A7
:1032B0000221002001F044FC010001D020003EE08A
:1032C000002136E0032937D12B0008330D220020DE
:1032D00001F032FC002805D001002000783001F018
:1032E0007BFA03E02000BC3001F076FA00200A905F
:1032F00009900120089000200790012006900020EE
:103300000590032004900020039002900720019074
:1033100000963B0013220021002001F011FC002840
:1033200006D0032201002000F83001F055FA08E031
:1033300003212000383002E0A4204000201801F0D2
:103340004BFA00202870688028712A000121012092
:1033500001F01DFC002806D00100BC204000201810
:1033600001F03AFA04E0D6204000201801F034FAC7
:103370000BB0F0BD00000000600300205C6A051087
:10338000C8F10410EC3504100D0A000040E2010001
:1033900019380410B4030020FEB5A44C206C80073B
:1033A00006D5A07EFFF768FF206C022188432064C9
:1033B000206CC0050ED5A08C01F0EDFB002809D1D2
:1033C000206CB44901402164B34801F005FAC3A060
:1033D00001F002FA206C40050AD5B049B04801F06E
:1033E000FBF9BEA001F0F8F9206CB8490140216456
:1033F000206C000502D4206C800553D523006A465A
:103400000321002001F0CBFB002833D1684600786F
:10341000002804D06846017851A001F0DDF90026AB
:1034200072A723E06CA00AE055A001F0D5F9F000E6
:10343000801B2018019000780028F3D164A001F0CF
:10344000CBF900BF66A001F0C7F900250198E9B2E9
:1034500040184178380001F0BFF96D1CE8B2062829
:10346000F4DB9EA001F0B8F9761CF6B2684600784D
:103470008642D9DB6846007800280BD0012001F095
:1034800098FB010003D0B64801F0A6F902E0B54868
:1034900001F0A2F9206CB94901402164206CBB49BC
:1034A00001402164206CC00413D50320A0761321B1
:1034B000A08C01F08DFB002804D00100B44801F07D
:1034C0008BF902E032A001F087F9206CBA49014083
:1034D0002164206C800421D535A001F07DF9207E87
:1034E000002801D13AA000E03BA001F075F900BF2F
:1034F0003BA001F071F900253CA6E8B22018017F3D
:10350000300001F069F96D1CE8B20628F5DB73A004
:1035100001F062F9206CC249014021648026F60165
:10352000607E002813D0002060760125FA21C900B2
:1035300020002830FEF73FFA002800D06576206C86
:10354000054004D0206C304001D001F0B1FA206C6D
:10355000064001D000F032F9F7BD0000000A051066
:10356000426F6E6465642077697468202564206406
:1035700065766963652873293A200D0A000000000A
:10358000416464726573735F547970653A2000001A
:103590006163695F6761705F7465726D696E6174A4
:1035A00065202D2D3E20535543434553530D0A00AE
:1035B000436F6E6E656374656420776974683A2042
:1035C000416464726573735F547970653A200000DA
:1035D0005055424C4943200052414E444F4D20002B
:1035E000416464726573733A2000000030782530BE
:1035F00032782000002800D0704780B58948818447
:10360000016C01220A430264016C802252000A43C9
:103610000264016C802292010A430264037606224E
:1036200002991C30FDF778FE01BD00006003002008
:1036300018B585B00EAC247804946C46A48E03941F
:103640006C46248E02946C46A48D0194089C0094D0
:10365000FFF7D0FF06B010BD10B51100714C206C03
:10366000012290432064206C6F4A02402264206C47
:10367000022202432264206C042290432064206CC6
:1036800020229043206400BF73A001F0A5F803201E
:10369000A07610BDFFFEFFFF902A051040E201005A
:1036A000D02A051038B518000D00604C0378427818
:1036B000200001F091F85E480088801C854203D10B
:1036C0002000543001F088F831BD0000FFFBFFFFFF
:1036D0005448016C20229143016470470D0A000098
:1036E00080B501F0C1F901BD38B54E4B1C6C802589
:1036F0002D0125431D640C0004D11C6C8025ED01B7
:1037000025431D6413000A0001004A4801F064F8D3
:1037100031BD000038B5484C424D2100A88C01F065
:103720005BFA002805D002002100444801F054F85B
:1037300031BD210050A001F04FF8286C8021C90054
:103740000143296431BD38B51300364A146C802515
:10375000AD00254315640200394801F03DF831BD44
:10376000202B0510602B051080B52E48808C01F0B1
:103770003FFA0100334801F02FF801BDFFFDFFFFC4
:1037800080B5314801F028F801BD0000FFF7FFFFC8
:103790009C2B051010B50C0001F076FA21002B4B84
:1037A000002804D00200180001F016F810BD18001F
:1037B000603001F011F810BDFFEFFFFF38B5C820F1
:1037C00069460870684600F05DFF002818D0164C66
:1037D000144D1F4869460978792903D100F0FCFF90
:1037E000012107E0694609786E2909D1243000F0EB
:1037F000F3FF0021A88CFFF7CDFF286C04402C6458
:1038000031BD80B5134800F0E7FF0648016C802207
:10381000D2010A43026401BD012002494876704783
:10382000FFDFFFFF60030020FFBFFFFF4C600510BC
:10383000280C00202C67051040E2010000790510DB
:10384000646605102C790510587905105C57051031
:10385000686D0510A0780510446973636F6E6E651E
:103860006374696F6E2C20526561736F6E3A2030FD
:1038700078253032780D0A006163695F6761705F97
:10388000706173735F6B65795F726573702825640F
:1038900029204F4B0D0A000081B0802040025A4978
:1038A0000A6802430A600968084000900098574877
:1038B0000168574A0A408021C901114301608020F4
:1038C0008001544908605448016808220A43026094
:1038D000016804220A430260016801220A4302606F
:1038E000002001B0704780B501F0E8F9002801D14F
:1038F000032002BD012002BD70B505000C001600BA
:1039000001F0E3F9002801D0012017E02900434825
:103910000666012001F026FA01280CD021000220C1
:1039200001F020FA012806D021002031032001F007
:1039300019FA012804D101F0D2F90220C04370BD68
:103940003748016801220A4302600168012291435D
:103950000160002070BDF8B5324D28680327FF4391
:103960002E4C012640070ED528680421014329600A
:10397000286804218843286001F0B1F926602100FD
:103980003800226E9047286800070FD52868082164
:1039900001432960286808218843286001F09FF9C5
:1039A0000220206021003800226E904728683040B5
:1039B00029D0286806432E602868012188432860A2
:1039C00001F0C3F9012806D101F089F90320206034
:1039D0002100380015E060212000FDF703FE2100E2
:1039E000012001F003FA21002031022001F0FEF94C
:1039F00021004031032001F0F9F901F070F92100B4
:103A00000020226E9047F1BD500040480CE400E0D9
:103A1000FF00FFFF00E100E0080030485C000020EC
:103A200000003048040030488B0707D0521E22D3D4
:103A30000B78491C0370401C8B07F7D1830730D0EB
:103A4000DB4219D0401E121F08D308C943701B0A5D
:103A500043801B0C0371001D121FF6D2D20707D33F
:103A60000B88437001D08A78C2701B0A837070473C
:103A700001D00B7843707047121F06D308C903802A
:103A80001B0C4380001D121FF8D2D20705D30B88F0
:103A9000038005D08B788370704701D00B7803705A
:103AA000704770B4103A03D378C978C0103AFBD28B
:103AB000530701D318C918C001D508C908C0D207D7
:103AC00004D30B880380801C891C002A01D50B7845
:103AD000037070BC704738B5881D00908C788B8857
:103AE000CA78088821460020C04638BDEFF314820A
:103AF000EFF30981002080F31488BFF36F8FF0B5D6
:103B000043464C4655465E466746F8B40F4CEFF3C5
:103B10000883636006B4BFF34F8F30BF00BF00BFA0
:103B20000A4C646884F3088882B003BCF8BC9846E9
:103B3000A146AA46B346BC46F0BC04BC80F3098843
:103B400081F31488BFF36F8F10470000040000203A
:103B500010B5C20018231340FF249C40E24389079C
:103B6000090E9940030004D4CC489B089B00C01860
:103B700006E0CB4B0007000F0838800880001818BB
:103B800003681A401143016010BD000081B0C548B0
:103B9000016802220A430260002102E000BF00998E
:103BA000491C009100990629F8DB016804220A43A8
:103BB000026001B0704780B5BB480068002814D18E
:103BC000BA480168002902D1806A00280DD001207E
:103BD000B7498860FFF7A4FFBFF34F8FB548B649D8
:103BE0000860BFF34F8F00BFFDE7012002BD80B525
:103BF00003210020FFF7ACFF03210120FFF7A8FFFE
:103C000003210220FFF7A4FF03210320FFF7A0FFF9
:103C100003210420FFF79CFF03210520FFF798FFF5
:103C200003210620FFF794FF03210720FFF790FFF1
:103C300003210820FFF78CFF03210920FFF788FFED
:103C400003210A20FFF784FF03210B20FFF780FFE9
:103C500003210C20FFF77CFF03210D20FFF778FFE5
:103C600003210E20FFF774FF03210F20FFF770FFE1
:103C700003211020FFF76CFF03211120FFF768FFDD
:103C800000211220FFF764FF03211320FFF760FFDC
:103C900003211420FFF75CFF03211520FFF758FFD5
:103CA00003211620FFF754FF01211720FFF750FFD3
:103CB00000211820FFF74CFF03211920FFF748FFD0
:103CC00001BD30B50D00C94C002A0AD0FA21890087
:103CD000FEF7E2FB401E684360600020A060052004
:103CE00002E0206801218843206030BDBF480068A1
:103CF00080214902084000D00120C0B27047FFB5C2
:103D000001212022002818D066480368E024A3433C
:103D100013430360836D0624A34302241C4384657C
:103D2000836B0B438363836B8B438363836D0B4391
:103D30008365806D0840009000980723AC480469B3
:103D4000AC4DAC4218D1046800940468076805685B
:103D50002D0D1D4003950068000E184002900125AE
:103D60000F26380C3040270AF0243C400194009C78
:103D7000240A2640009604E0082000907024019454
:103D80000025BF4C0F26F643276B3740384320638E
:103D9000E06AF027B843019F0743E762E06A064004
:103DA00000983043E0623820002D0CD025689D43F8
:103DB000039E33402B43236023688343029DED0021
:103DC00005401D4325603F23DB43A56F1D400A26A8
:103DD0002E43A667A56F40262E43A667E56F1D40BC
:103DE00004262E43E667E56F80262E43E667E56FDF
:103DF0004026B543E567A03425681D402560656809
:103E00001D4010262E436660A5681D402A43A2600F
:103E1000E2681A4030251543E56022691A401043D4
:103E2000206160691840392202436261A06918402C
:103E30003A220243A261E06918403B220243E26158
:103E4000206A18403C2202432262606A03403D20FF
:103E5000184360625523FF20C0438A4A1468044017
:103E60001C431460D468044066252543D560146A59
:103E7000044023431362136C03401D241C43146449
:103E8000D36B034059241C43D463536C1840322332
:103E900003435364506A01435162FFBD00E400E0F4
:103EA0001CED00E0080040489400404810005048D5
:103EB000040000200400FA050CED00E0F1B5724E9C
:103EC000012264213000FFF7FCFE704D286880213C
:103ED0004902014329600027444C2868800303D429
:103EE0002068C003F9D50427002200210020FFF735
:103EF000E8FE380039D16846017808000CD18020EE
:103F0000C00501680068F0220A400007000F104356
:103F1000102867D10620F2BDE020C043491E0629C3
:103F20004FD801A2525C9744064452606E7C8A00CE
:103F3000A9680840A8607000554E30600122C82171
:103F4000FFF7BFFE286880218901014329602868A6
:103F5000400403D42068C003F9D5052700220021BE
:103F60000020FFF7AEFE38002CD03800F2BDA96863
:103F7000084020210143A9603000DDE7A96808401E
:103F800040210143A9607008D6E7A9680840602174
:103F90000143A960B008CFE7A96808408021014328
:103FA000A960F008C8E7A9680840A0210143A960FA
:103FB0003009C1E7A9680840C0210143A960700920
:103FC000BAE7FEE73020C04332493268AD4B9A422F
:103FD0000A6804D11040102202430A6004E0104035
:103FE000086001E0FFF7D2FD0020F2BD10E000E024
:103FF000E81E0010CCECBCFC10B5FF2833D004291F
:104000000CD005290AD0062908D0072906D0062297
:10401000D2439D4B032903D1002809D1012010BDB3
:10402000012805D01C682240022414431C6005E0CE
:104030001868024004201043186001208022D20535
:1040400013681268F0241C401207120F2243102A32
:1040500009D18E4A012908D101280CD12A201060EB
:1040600050680007FCD4002010BD022905D10128AA
:1040700003D12920F3E70028FBD02820EFE7000038
:1040800048160060481500600048E80100004048FC
:10409000F404002004100040F3B583B07C487D494F
:1040A00008607D4908617D4E306820210143316000
:1040B0003068402101433160306880210143316024
:1040C000002500240122C8217548FFF7FAFD754933
:1040D00030690191400704D40868C003F8D5012471
:1040E0000125002200210020FFF7EBFD6E4F002C80
:1040F0002ED028002BD100240122962149006848A7
:10410000FFF7DFFD6948716A01407162B16A0840DA
:10411000B062B86866490140802000020843B86078
:10412000F86860210143F960386810210143396063
:104130003868800604D401980068C003F8D50224CA
:10414000002200210020FFF7BCFD20006DD096E08A
:10415000B0693021884320210143B161B8688021D2
:1041600049010143B960534A50695349884219D102
:1041700010681168136814682404240F02941468EA
:104180000122DD091E232B4000932402FC239B0502
:104190002340CC01E021890121408401F0208000EE
:1041A000204007E0D00C10210091F0235B05002295
:1041B000C0214901FC68414D25402B43FB60FB6851
:1041C000802424041C43FC601E23DB43002A09D006
:1041D000FA681A40029C64001443FC60FA680124E7
:1041E0001443FC60364A14682340009C1C4314604E
:1041F000136801241C4314601368324C1C40204394
:104200001060106820230343136010682E4B034096
:104210001943116010688021C90001431160B06921
:10422000802149000143B16165E76846047CFF2CA9
:1042300002D00120FFF763FD6846057B2348016833
:10424000234A0A40802189011143016001688022CC
:104250000A43026001687022914330220A430260DF
:104260002800FFF72BFE010009D129002000FFF7ED
:10427000C3FE010003D1FFF7BAFC62B6002005B00F
:10428000F0BD00000090D0036000404800500040A6
:104290000000041008ED00E0040000200400504875
:1042A0000024F40010E000E000004048FFCFFFFFD2
:1042B000FF7FFEFFE41E0010CCECBCFCFFFFFFC044
:1042C000940050483FFCFFFFFFC7FFFF98004048A5
:1042D000FFC0FFFF10B58CB0444C02A8210028227B
:1042E000FDF700F8A020C00241490A6802430A60B5
:1042F000096808400090009802A800F0B7FD002867
:1043000005D001002000283000F066FAFEE700F03A
:1043100011FE00BF43A003C86A4603C26846FDF70A
:10432000EFFBFDF7A7F800F0B3FC0021C94388427A
:1043300000D1FEE701F082F9002800D0FEE701F08D
:10434000BBF90CB010BD00001CB500210120FFF727
:10435000A3FE002800D0FEE701F01AFA254800F07D
:10436000FDF8FFF7B7FFFEF795FE010004D000BF90
:104370002EA000F031FAFEE70121002001F0CEFA74
:104380001D4CA0688021C9000143A16000232200C8
:104390000C3200BF2DA1194800F01EFAFDF716FCE3
:1043A00001F044FBFCF7C5FEFEF7F6FF01A8009004
:1043B0000ECC0C3C0320FEF783F9EFE7400508D54F
:1043C0000F480168C90704D50168802252010A43D9
:1043D00002607047042808DABFF34F8F09480A4982
:1043E0000860BFF34F8F00BFFDE77047B46D051045
:1043F00050004048CD460410D00400208C670510C2
:10440000A00300200400FA050CED00E0042800DB06
:10441000704780B51321137850780002184300F0DC
:10442000D7FB01BD40010000000000004465766933
:104430006365496E697428292D2D3E204661696C9B
:104440006564203078253032780D0A00312E302E08
:104450003000000070B5074C0121206801F0EAFA35
:10446000054620680121103001F0E4FA0146294395
:10447000084670BD1805002081B0AA490A680243A9
:104480000A60096808400090009801B0704710B5B4
:104490000B004B4301685C00E418A14353430B43FA
:1044A000036010BD43688B4351431943416070471B
:1044B00010B50B004B4381685C00E418A1435343E3
:1044C0000B43836010BD30B5CB43974C9025ED0571
:1044D000A8421AD1002A03D0022A0FD007D330BD38
:1044E00020681840206060680340636030BD6068E9
:1044F0000340636020680143216030BD20680340B1
:10450000236060680143616030BD002A03D0022A45
:104510000FD007D330BDA0681840A060E06803400A
:10452000E36030BDE0680340E360A0680143A16040
:1045300030BDA0680340A360E0680143E16030BD86
:1045400010B5090A0B004B434B434B43416A1C0116
:10455000E41AA14353430B43436210BD7CB50600EC
:104560000420FFF789FF9025ED058024A400022296
:1045700021002800FFF78BFF022221002800FFF70F
:1045800097FF002221002800FFF78CFF0122210065
:104590002800FFF798FF002221002800FFF7D0FF36
:1045A0000420FFF769FF6408022221002800FFF7BA
:1045B0006EFF022221002800FFF77AFF002221006F
:1045C0002800FFF76FFF012221002800FFF77BFF83
:1045D000002221002800FFF7B3FFA0005D490A6810
:1045E00002430A6009680840009000985A488B21ED
:1045F000C1600168594A0A4002604168584A0A404D
:10460000426001680C220A4302608168554A0A40F0
:1046100082608168544A0A4082608168C900C90882
:104620008160016862050A43026041684F4A0A409E
:10463000426081682A2291438160016801220A4315
:10464000026031000ED04A490E60016820220A4300
:10465000026048480168FF22914340220A430260F9
:104660004548046073BD10B50023444A06E0146851
:104670002406FCD5DCB2045DD4605B1CDCB28C4249
:10468000F5D310BD80B50021394A1268002A03D045
:1046900000F04CF8010006E0384A13689B0602D58A
:1046A000916801700121080002BD31480268002AAA
:1046B00000D1704780B531480168890605D580680A
:1046C0006946087001216846904701BDF8B50200AF
:1046D00008002B4C21682B4D009200220AE0009E1E
:1046E00097B2F65D6E54491C8026F600B14200D1A7
:1046F0000021521C96B28642F1D32160F1BD1F48C1
:1047000000680002C10F0120484070471B48016843
:10471000090602D50068400601D401207047002038
:1047200070470000500040482000504814494A6833
:104730000B68934201D100207047124B9B5C0370C1
:10474000521C8020C000824200D100224A60012019
:10475000704700005800404800400041FFE9FFEF6B
:10476000FFCFFFFFFFFCFFFFFFFFFFF1FFB7FFFFE2
:104770003000002008E400E000E100E01C400041BF
:10478000200C00204405002070B50025012804D02D
:10479000022802D00020C04370BD002901D10020B2
:1047A00070BD0C00160005E001212000FFF75BFF43
:1047B000641C6D1C3000461E0028F5D1280070BD19
:1047C00001B5012269460120FFF7DEFF009802BD16
:1047D00010B501F03CF910BD0EB4C0B5020003A83D
:1047E00001900020009001AB0121044878440C3076
:1047F00001F03AF9029906B0084700BF43350100BD
:1048000010B501F0F1FB10BD10B501F0A9FC10BD11
:1048100010B501F0C5FC10BDFFB583B00E9F1C465E
:104820000E4605000BD0A80703D1680701D428075E
:1048300005D5002E05D0012E03D0022E01D08224F2
:1048400017E00C986A460D9983C2224631462846E5
:10485000059B01F0ADFC04000BD131462846059ABA
:1048600000F00AF8040004D13A460D990C9800F0C3
:104870002FF8204607B0F0BDF8B505000E003F4FF9
:10488000380001F02BFD04001AD1684605703C4D3C
:10489000380001F027FD070068460078800706D041
:1048A00039002800483001F021FD040008D1022E13
:1048B00008D1390028006C3001F018FD040001D047
:1048C0002000F2BD2FA20721002000F015F8F7E725
:1048D000F8B504000F001500294E3000903001F0AB
:1048E00001FD2080300001F005FD388030002430CB
:1048F00001F000FD2880F1BD70B504000D00160028
:104900001F48FFE701F0F6FC33002A002100401C9D
:1049100080B200F001F870BDF3B581B017001D0042
:104920000024174E6946088024206043301801F0A7
:10493000E1FC002804D0401C69460988884202D066
:10494000641C042CF0D3042C09D06846038924206D
:1049500044433419206A8188DA19914201DA8220AD
:10496000FEBD29003A008068C018FCF7D5FC206A1B
:104970000178890700D547800020FEBD7004002023
:10498000E0030020426C75654E52470010B50428C4
:1049900001D9822010BD01F0B1FC10BDFFB583B07C
:1049A0000C9D1E461446070004D0012F02D0822021
:1049B00007B0F0BD0498002801D00128F7D1E81F06
:1049C0000A28F4D20D981028F1D8A842EFD30E98F7
:1049D000002801D00128EAD112490F988842E6D870
:1049E00000F046F9012804D02046304305D01120BC
:1049F000DEE7022CDBD8012ED9D869460F70049867
:104A000048708C72CE728D700D98C8700E980872B6
:104A10000F98019001F082FC69464872684601F0E7
:104A200087FCC5E73F420F0038B5344C2000AC305E
:104A300001F054FC002805D020004030FFF7CCFEE8
:104A4000862032BD2E4D2000643001F053FC2880BA
:104A50002000883001F04EFC688002002988200088
:104A6000FFF7BAFE002032BD80B586B001A800BFB6
:104A700027A11422FCF736FC2148818801AA0B0AE1
:104A80009374D174491C818001A9009114230022E0
:104A900041881C48008801F05FFC010004D01A48DE
:104AA000FFF79AFE862000E0002007B000BD00005E
:104AB00080B586B001A800BF1AA11422FCF712FC31
:104AC0000F48C18801AA0B0A9374D174491CC18094
:104AD00001A90091142300220188491C89B20948C8
:104AE000008801F040FC010004D00848FFF774FE84
:104AF000862000E0002007B000BD0000284D051012
:104B0000280C002084030020F46F05107C7305102E
:104B1000534C4156455F53454355524954595F5292
:104B200058200000534C4156455F53454355524968
:104B300054595F545820000010B501F01AFC10BD04
:104B4000FFB58BB0189C1C9F22461D9E1E9D0D9983
:104B50000C9801F01DFC002817D101F03DFC002845
:104B600013D11B9808970A9507900996179A1999D7
:104B70001A9814AB049403920591069007CB6B46E8
:104B800007C30BA80FC801F04FFC0FB0F0BD10B564
:104B900001F05CFC10BD10B501F05CFC10BD10B55F
:104BA0001C461346CA00511ACAB2214601F0B0FC95
:104BB00010BD08B56946087001221146684601F02B
:104BC000E1FC002803D16846007801F0FAFC08BD3A
:104BD00010B501F017FD10BD044A10B5914201D97E
:104BE000822010BD01F012FD10BD00003F420F00F9
:104BF00010B501F027FD10BD80B501F03BFD01BDF2
:104C000080B501F03DFD01BD80B501F03FFD01BD66
:104C100080B501F042FD01BD80B501F045FD01BD4B
:104C200080B501F059FD01BD80B501F06FFD01BDFA
:104C300080B501F0B9FD02BD80B501F0DFFD01BD19
:104C400080B501F0FAFD02BD80B501F025FE02BD80
:104C500080B501F065FE01BD80B501F065FE01BDC6
:104C600080B501F07FFE02BD80B501F097FE01BD69
:104C700080B50120C04602BD80B501F0CFFE01BD68
:104C800080B501F0E9FE01BD80B501F021FF02BD54
:104C900038B50025ED43254C206802280CD1FEF7DD
:104CA000FBFD002808D1EFF3108072B601212160CE
:104CB00080F31088002032BD280032BD1B480068F8
:104CC000012801D10020704715E0EFF3108072B683
:104CD00016490A68012A00D00BE003220EE0EFF328
:104CE000108072B611490A68032A00D001E001223F
:104CF00004E080F310880120C04370470A6080F30D
:104D000010880020704710B588B0040020220021D0
:104D10006846FCF780FC684600F0A9FC22000449C4
:104D20006846FEF7E9FD08B010BD0000F004002061
:104D3000FC71051010B50B00521E815C9C5C091BB8
:104D400001D1002AF8D1080010BD334800780028AE
:104D500001D00120704731480068002800D00120B0
:104D6000C0B2704770B50E002B4D2C7801281AD1B7
:104D7000202200BF35A13000FFF7DCFF002801D45E
:104D800004201BE0FB202040287025480021002241
:104D90009300F458C3181C60521C082AF8DB20301A
:104DA0000160002070BD00BF20A102280FD1202289
:104DB0003000FFF7BFFF002804D4012020432870F3
:104DC000012070BDFE20204028701648DEE7032831
:104DD000F6D120223000FFF7ADFF002801D40220D9
:104DE000ECE7FD20204028700F48CFE7012808D1CC
:104DF0000B480022835C8B54521C202AFADB0020D3
:104E00007047022801D10748F3E7032801D106487B
:104E1000EFE70120704700003F0C002000043048FD
:104E20006C04304890043048B4043048FFFFFFFF62
:104E3000FFFFFFFFFFFFFFFF00000000000000007A
:104E40000000000001000000FFFFFFFF512563FC90
:104E5000C2CAB9F3849E17A7ADFAE6BCFFFFFFFFF5
:104E6000FFFFFFFF00000000FFFFFFFF10B5C17A4A
:104E7000002480290CD8418B172909D301229202E2
:104E8000914205D8C189172902D3121F914201D935
:104E900082240EE0014628220748FEF7C5FD01F0F6
:104EA00021FE05494968814201D5872401E001F0CE
:104EB000BFFE204610BD0000A80B0020964A5023DC
:104EC00058431018C269FF239A43C9B21143C16104
:104ED0007047914A502358431018026A120C12046A
:104EE00089B2114301627047426801239A43CB079C
:104EF000DB0F134343607047426810239A43090154
:104F000003E0426820239A4349011940114341605C
:104F100070474268874B134009028022520005E027
:104F200042687E4B1340490280229200114019438F
:104F30004160704770B57A4C60688021884360603A
:104F40007D4D60682840C901014361607B4861680C
:104F50000140FC2292030A436260794962680A4078
:104F600090231B0513436360A2680240E823DB0320
:104F70001343A360A2681140E02292050A43A26095
:104F8000FF26F643A168314076220A43A260A16859
:104F90002940E82292010A43A260E1680840610AC0
:104FA0000143E160102000F0D0F820693040022178
:104FB00001432161E068064014203043E060E0686E
:104FC0000540A020C0002843E0606069042101433F
:104FD0006161606980210904014361618020C0052D
:104FE00003680568012000215D4AF0261E402B075A
:104FF0001B0F3343202B43D310745E2353745B4B3E
:105000001D6B9574D0745D251575DD6A55759075A9
:105010005225D5751B681376507612239376544B20
:105020001D68D576107715255577DD689577D0778B
:105030001A25202695551D6A21269555222690551C
:105040002225232695551D6C2426955525269055F9
:10505000212526269555DD6B272695552826905522
:105060002325292695555D6C2A2695552B26905586
:105070001B252C2695555B6A2D2553552E255155FC
:10508000130010331360536013000C339360D1602E
:105090001168226821603749086060698021C9056C
:1050A0000143616170BD30B5062401290CD00D00AB
:1050B00003D1012A0ED1B3230DE0022903D000242D
:1050C000032908D1F5E70524012A01D1B52302E01F
:1050D000432300E04123C01A001B30BD26490A6863
:1050E0004F2313404F22904311E0244801680822C7
:1050F0000A430260704722480168802291430160A0
:1051000070471F48016880220A43026070471843B5
:105110000860704700000000DC000020FFFDFFFF7A
:10512000C000002079490A687F239A434006400E58
:1051300008E00000FFFEFFFFFF00FFFFFFFF00FF92
:10514000FFFFFF0010430860704786490A68994BCB
:1051500013400006FC22920502401A430A60704781
:10516000780B0020010098480840704748160060FE
:105170004815006010140060040000601800006012
:10518000C40000208021C903084070478021C90560
:1051900008407047802189040840704780218901B8
:1051A000084070478021C9020840704780214902A9
:1051B0000840704780210906084070478021C904D3
:1051C00008407047802149040840704741688022A8
:1051D00091434160704780B50021FFF785FE01BD16
:1051E00080B51422002101F06DFD01BD80B50121C3
:1051F000FFF787FE01BD80B50121FFF77DFE01BDF0
:10520000416880220A4342607047C1688022D2050B
:105210000A43C2607047C168802292040A43C26098
:105220007047C168802212060A43C2607047C16895
:105230008022D2040A43C2607047C16880225204AF
:105240000A43C2607047416804220A4342607047C3
:1052500080B50021FFF75DFE01BD80B50121FFF79C
:1052600058FE01BD416840220A434260704780B544
:105270000121FFF739FE01BD80B51FE0C268120DA4
:1052800012050903090B1143C1607047C1688022F0
:1052900052030A43C2607047C168802212040A4365
:1052A000C2607047C1688022D2030A43C26070475F
:1052B00080B541688022D2000A4342600121FFF795
:1052C0002FFE01BD3A4802688D4B13400902944AF3
:1052D000FDE00000984A5023584310180029016847
:1052E00003D040220A43026070474022914301608C
:1052F000704791495022504308180168934A0A4068
:105300000260016A994A0A4002627047C4000020A4
:105310008F495022504308180168802292030A43A3
:105320000260016A802292050A430262704788493E
:10533000502250430818406A70470000844A5023A6
:1053400058431018C26A120C0A70C26A120E4A70D0
:10535000026B8A70026B120ACA70006B8002800EA8
:1053600008717047CC00002079495022504308183A
:105370003830704776495022504308184030704703
:1053800073495022504308588102C80F70470000EB
:105390006F49502250430818C06A8004800E70473D
:1053A0006B495022504308580106C80F704700004F
:1053B000D0000020FFFFFFC09949502250430858F9
:1053C0008004800E7047000030DFCB00944A5023E9
:1053D00058431018C269120A0A60036A1B06134375
:1053E0000B60006A0004000E486070478C49502230
:1053F000504308584000400F70478949502250439D
:1054000008584001400F704738B504005022002171
:105410008348230050256B43C01801F053FC012141
:105420002000FFF757FF31BD7D4A50235843101825
:10543000426A4162704710B5794A502358431018A8
:10544000C26A92B20B784C7824021C4323041343A3
:10545000C362026B920D92058B78CC7824021C43B8
:105460000979090421438902890A1143016310BDA6
:105470006B4A502358431018826A120E1206090212
:10548000090A114381627047654A50235843101836
:10549000826A1202120A0906114381627047264A83
:1054A000502358431018C26A5E4B13400902FC2275
:1054B00092010A401A43C26270471F4A5023584360
:1054C00010180268574B13400902FC2292010A404F
:1054D0001A430260704710B5514A030050246343D9
:1054E000D218D369DBB20C6824021C43D4614A6829
:1054F00012020968090E1143FFF7EBFC10BD000012
:10550000FF0000F080B54649020050235A43891835
:10551000096A8AB2802109021143FFF7DAFC01BD52
:1055200000FFFF0F3E4950225043081801688022B7
:105530009143016070470000DC000020384A50238E
:10554000584310188268816070470000FFFFDFFF3A
:10555000DC000020324A5023584310180268324BB6
:1055600013400907E022D205B1E70000FFFFFFDF8B
:1055700038B50A682A4B040050256C431B199C69F6
:105580009A614968FFF79AFC31BD80B52449020051
:1055900050235A438918C969CAB280211143FFF7C1
:1055A0008DFC01BD1E49502250430818016880221D
:1055B0000A43026070471A4A502358431018426841
:1055C00041607047164A5023584310180268174B21
:1055D00013400906E022D20479E7114A50235843C8
:1055E0001018C26A1F239A43C906C90E1143C1622B
:1055F00070470B4A50235843101802683F239A43C0
:105600008906890E114301607047054950225043B5
:1056100008180168802212024A40026070470000A8
:10562000DC000020FFC0FFFFFFFFFF8FFFFFFFF840
:10563000042801D19D2070471220704781B080203E
:10564000C0021A490A6802430A60096808400090CB
:105650000098174801680422914301604168C90716
:10566000FCD54068104000D0012001B0704730B533
:105670000021104A146801231C40FBD05468A4B2D6
:1056800015681D40FCD053681B04E3188C000351BF
:10569000491C0829EEDB002030BD06490A68D20704
:1056A000FCD5496889B2016000207047500040482D
:1056B000000060480400604881B026490A6A012061
:1056C00002400CD10A6802430A600A6882430A60F9
:1056D0000A6A02430A62096A0840009000980020A2
:1056E00001B07047FCB501231B4C1C4D6E4636794A
:1056F0002E700E6826604E6866608E68A660CE6862
:10570000E66006682661466866618668A661C668C6
:10571000E66164266F463E70266B1E4326636E4626
:105720003678761E3E70666B1E4003D06E46367825
:10573000002EF4D16E463678266A1660666A566088
:10574000A66A9660E66AD6602E783F79BE42CDD1D1
:105750000020F6BD40004048280000603C0C0020BE
:10576000094902E0084908E008494A6882434A605A
:105770000A6810430860704704490A6882430A6057
:105780004A6810434860704720005048280050483D
:10579000F8B50120FFF7E6FF0220FFF7E3FF042042
:1057A000FFF7E0FF0820FFF7DDFF1020FFF7DAFF2B
:1057B0002020FFF7D7FF4020FFF7D2FF8020FFF720
:1057C000D1FF80204000FFF7CDFF80208000FFF751
:1057D000C7FF8027FF003800FFF7C4FF7C002000D0
:1057E000FFF7C0FF6000FFF7BDFFA000FFF7BAFFA3
:1057F000E5002800FFF7B6FF26013000FFF7B2FFF3
:105800000120FFF7B9FF0220FFF7B6FF0420FFF7E2
:10581000B3FF0820FFF7B0FF1020FFF7ADFF2020F7
:10582000FFF7AAFF4020FFF7A7FF8020FFF7A4FFA4
:10583000E008FFF799FFA008FFF796FF3800FFF791
:105840009BFF2000FFF798FF2800FFF795FF30002F
:10585000FFF792FFF1BD10B54C788A780878CB1C21
:105860002146C046C04610BD010005D40121C00636
:10587000C00E814062480160704710B5C200182315
:105880001340FF249C40E2438907090E994003001E
:1058900004D45C489B089B00C01806E05A4B0007E4
:1058A000000F083880088000181803681A40114358
:1058B000016010BD81B055490A6802430A60096859
:1058C00008400090009801B07047CA43504B03282D
:1058D00003D118680143196008E001280CD00228A0
:1058E00001D0042806D1186810401860586802409A
:1058F0005A607047052805D1186802401A60586838
:1059000001435960704710B50B004B4301685C00C0
:10591000E418A14353430B43036010BDF8B50600E0
:105920000F003C4C8025ED00300010D10420FFF723
:10593000C1FF002229009020C005FFF7E4FF364890
:1059400021680140216061680840606011E0012E1B
:105950000FD10820FFF7AEFF002240212F48FFF7AC
:10596000D2FF4020C043A1680140A160E168084027
:10597000E060012F2AD1A80829490A6802430A6079
:105980000968084000900098264C30000DD129008D
:105990000120FFF79AFF6560206805432560032119
:1059A0000F20FFF76AFF0F200EE0012E0ED1250A0F
:1059B0002900FFF78AFF6560206805432560032101
:1059C0001020FFF75AFF1020FFF74EFFF1BD010036
:1059D0000020154A0B0002D11068410503E001299F
:1059E00002D110684102C80F70470F49020001D16F
:1059F000080D02E0012801D1080A08607047000084
:105A000000E100E000E400E01CED00E05000404850
:105A10001000004020005048FFFBFFFF000010482E
:105A200054004048180000401C00004010B501F030
:105A30005BF910BD0A469200121F8258491E002AC7
:105A400001D0012070470029F4D10020704710B523
:105A500001F086F910BD10B54C880A7908884B1DF5
:105A60002146C046C04610BDF8B596B005001700E7
:105A70001E001C98049103A92B22885400200A9030
:105A800002950E9700960EE0252912D00498029AEE
:105A900090470490002800D1D2E00A98401C0A9058
:105AA0000E98401C0E900E9801780029ECD10A98AF
:105AB000C8E0002007900890099002260821019173
:105AC000012404210E9D00E020436D1C2A78202A29
:105AD000FAD0232A0AD02B2A04D02D2A04D0302A27
