:020000040800F2
:10000000B01400208D340008093000080B300008BF
:10001000BD340008C1340008C534000800000000E9
:100020000000000000000000000000000D3000088B
:100030000F300008000000001130000813300008E5
:10004000C9340008CD340008D1340008D534000884
:10005000D9340008DD340008E1340008E534000834
:10006000E9340008ED340008F1340008F5340008E4
:10007000F9340008FD340008013500080535000892
:10008000093500080D350008113500081535000840
:10009000193500081D3500082135000825350008F0
:1000A000293500082D3500083135000835350008A0
:1000B000393500083D350008413500084535000850
:1000C000493500084D350008513500085535000800
:1000D000593500081B300008533000085D35000812
:1000E0006135000865350008693500086D35000880
:1000F0007135000875350008793500087D35000830
:100100008135000885350008893500088D350008DF
:100110009135000895350008993500089D3500088F
:10012000A1350008A5350008A9350008AD3500083F
:10013000B1350008B5350008B9350008BD350008EF
:10014000C1350008C5350008C9350008CD3500089F
:10015000D1350008D5350008D9350008DD3500084F
:10016000E1350008E5350008E9350008ED350008FF
:10017000F1350008F5350008F935000800000000E9
:10018000FD3500080136000870B504000025260082
:10019000F278B6F801103078AFF300802800C0B2D2
:1001A00070BD70B5040000252600F278B6F8011085
:1001B0003078AFF300802800C0B270BD7CB5040079
:1001C00000252600F0880090B388F278B6F8011078
:1001D0003078AFF300802800C0B276BD70B504005F
:1001E00000252600307800F072FF2800C0B270BDF4
:1001F0002DE9F841ADF5057D040000252600012715
:100200005FF000083078804513DA06EB8800B0F81C
:100210000100694621F82800BF1C06EB8800B0F8F1
:100220000300694601EB88014880BF1C18F10108F2
:10023000E8E769463078AFF300802800C0B20DF5DA
:10024000067DBDE8F08170B50400002526003078F9
:10025000AFF300802800C0B270BD70B50400002567
:100260002600B6F801103078AFF300802800C0B245
:1002700070BD70B50400002526003088AFF3008003
:100280002800C0B270BD70B504000025260030788B
:10029000AFF300802800C0B270BD70B50400002527
:1002A00026003000AFF300802800C0B270BD2DE9F9
:1002B000F04788B0040000252600D6F82100D6F8C3
:1002C0001D70D6F819C0D6F815E0D6F81180D6F80A
:1002D0000D90D6F80930D6F80520D6F8011016F1A1
:1002E000260ACDF81CA096F825A0CDF818A00590F8
:1002F0000497CDF80CC0CDF808E0CDF80480CDF817
:1003000000903078AFF300802800C0B208B0BDE89C
:10031000F08770B5040000252600D6F80220717819
:100320003078AFF300802800C0B270BD70B5040013
:1003300000252600B21C717896F90000AFF300800A
:100340002800C0B270BD70B5040000252600B21CA4
:1003500071783078AFF300802800C0B270BD70B5FE
:100360000400002526003088AFF300802800C0B2CA
:1003700070BD38B504000025AFF300802800C0B27E
:1003800032BD70B5040000252600F278B1783088BF
:10039000AFF300802800C0B270BD70B50400002526
:1003A00026003088AFF300802800C0B270BD38B599
:1003B00004000025AFF300802800C0B232BD38B57C
:1003C00004000025AFF300802800C0B232BD70B534
:1003D000040000252600F31CB27871783078AFF362
:1003E00000802800C0B270BD70B504000025260052
:1003F0003088AFF300802800C0B270BD70B5040033
:1004000000252600D6F802103088AFF300802800BF
:10041000C0B270BD70B5040000252600B1783088E8
:10042000AFF300802800C0B270BD70B50400002595
:10043000260071883088AFF300802800C0B270BDFC
:1004400070B5040000252600F21CB1783088AFF3A7
:1004500000802800C0B270BD7FB5040000252600D2
:10046000B6F80B000290B6F809000190B6F8070044
:100470000090B6F80530B6F80320B1783088AFF3B5
:1004800000802800C0B204B070BD70B586B0040012
:1004900000252600308A0590F0890490B0890390E9
:1004A0007089029030890190F08800907379B6F8D5
:1004B0000320B1783088AFF300802800C0B206B0C6
:1004C00070BD70B504000025260071883088AFF338
:1004D00000802800C0B270BD70B504000025260061
:1004E000F388B28871883088AFF300802800C0B2EA
:1004F00070BD70B5040000252600F388B2887188AD
:100500003088AFF300802800C0B270BD7CB5040015
:100510000025260016F108000090F388B288718843
:100520003088AFF300802800C0B276BD7CB50400EF
:1005300000252600B01D00907379B6F80320B1782D
:100540003088AFF300802800C0B276BD70B50400DB
:1005500000252600B31DB28871883088AFF3008073
:100560002800C0B270BD70B5040000252600308898
:10057000AFF300802800C0B270BD70B50400002544
:10058000260071883088AFF300802800C0B270BDAB
:1005900070B5040000252600731DB6F80320B1785D
:1005A0003088AFF300802800C0B270BD2DE9F8415B
:1005B000ADF5057D04000025260003275FF0000847
:1005C000B078804513DA06EB8800B0F8030069467E
:1005D00021F82800BF1C06EB8800B0F8050069462A
:1005E00001EB88014880BF1C18F10108E8E76A4662
:1005F000B1783088AFF300802800C0B20DF5067DD9
:10060000BDE8F08170B5040000252600731DB6F822
:100610000320B1783088AFF300802800C0B270BDED
:1006200070B5040000252600321D71883088AFF3B4
:1006300000802800C0B270BD70B5040000252600FF
:10064000321D71883088AFF300802800C0B270BDC1
:1006500070B5040000252600321D71883088AFF384
:1006600000802800C0B270BD70B5040000252600CF
:10067000731DB6F80320B1783088AFF300802800EE
:10068000C0B270BD7CB504000025260016F108003C
:100690000090F388B28871883088AFF3008028001A
:1006A000C0B276BD70B50400002526003088AFF3D7
:1006B00000802800C0B270BD70B50400002526007F
:1006C000B31DB28871883088AFF300802800C0B2B3
:1006D00070BD70B5040000252600B31DB288718876
:1006E0003088AFF300802800C0B270BD70B5040040
:1006F00000252600B1783088AFF300802800C0B212
:1007000070BD70B50400002526007379B6F803208B
:10071000B1783088AFF300802800C0B270BD70B5EA
:10072000040000252600731D327971883088AFF3EC
:1007300000802800C0B270BD70B5040000252600FE
:1007400071883088AFF300802800C0B270BD70B5EA
:100750000400002526003088AFF300802800C0B2D6
:1007600070BD70B5040000252600B1783088AFF365
:1007700000802800C0B270BD7CB5040000252600B2
:1007800016F108000190F0790090B6F80530327942
:1007900071883088AFF300802800C0B276BD78B58C
:1007A00085B0040000252600707C0490B6F80F0088
:1007B0000390B6F80D000290B6F80B000190701D82
:1007C00000903379F278B6F801103078AFF30080FA
:1007D0002800C0B206B070BD2DE9F047ADF5027D2E
:1007E000050000262F0001245FF0000838788045BE
:1007F00048DA5FF014095FF00B0A0AFB08F038448E
:100800004078694609FB08F28854641C0AFB08F02A
:1008100038448078694609FB08F211444870641C2A
:1008200006220AFB08F03844C11C684609FB08F39D
:100830001844801C00F01AFDA41D0AFB08F038447F
:10084000407A694609FB08F211440872641C0AFBED
:1008500008F038440A30694609FB08F21144C860C0
:100860000AFB08FA07EB0A00407A04192000C0B21C
:100870002856694609FB08F949440874641C18F1B4
:100880000108B3E769463878AFF300803000C0B2A2
:100890000DF5027DBDE8F0877CB50400002526003B
:1008A000B6F807000090B6F80530B6F80320B6F8A1
:1008B00001103078AFF300802800C0B276BD70B56B
:1008C000040000252600F21CB6F801103078AFF3C2
:1008D00000802800C0B270BD70B50400002526005D
:1008E0007289B11C3088AFF300802800C0B270BD9F
:1008F0007CB504000025260030890090F388B2887A
:1009000071883088AFF300802800C0B276BD70B522
:10091000040000252600711C3078AFF30080280009
:10092000C0B270BD70B5040000252600711C30787F
:10093000AFF300802800C0B270BD78B587B0040066
:1009400000252600707F0690B6F81B000590B6F8CB
:1009500019000490B6F81700039016F111000290E8
:1009600016F10B000190701D00903379F278B6F803
:1009700001103078AFF300802800C0B208B070BD1D
:100980002DE9F041ADF5047D040000252600012786
:100990005FF000083078804544DA5FEA08103044A0
:1009A000407869465FEA081288547F1C5FEA0810A5
:1009B0003044807869465FEA0812114448707F1C11
:1009C00006225FEA08103044C11C68465FEA08133B
:1009D0001844801C00F04AFCBF1D5FEA0810304438
:1009E000407A69465FEA0812114408727F1C0622A9
:1009F0005FEA0810304410F10A0168465FEA081304
:100A00001844093000F032FCBF1D5FEA0810304482
:100A1000007C69465FEA08121144C8737F1C18F114
:100A20000108B7E769463078AFF300802800C0B20C
:100A30000DF5047DBDE8F08170B5040000252600A9
:100A40003379F278B6F801103078AFF300802800DF
:100A5000C0B270BD2DE9F847ADF5057D0500002653
:100A60002F0001245FF000083878804580F29680DE
:100A70005FF01C095FF0190A0AFB08F03844B0F86F
:100A80000100694609FB08F28852A41C0AFB08F021
:100A90003844C078694609FB08F211448870641C28
:100AA00006220AFB08F03844011D684609FB08F3DA
:100AB0001844C01C00F0DAFBA41D0AFB08F03844FF
:100AC000807A694609FB08F211444872641C0AFBEB
:100AD00008F03844C07A694609FB08F2114488726C
:100AE000641C0AFB08F03844007B694609FB08F2E5
:100AF0001144C872641C0AFB08F03844407B694604
:100B000009FB08F211440873641C0AFB08F038441E
:100B1000807B694609FB08F211444873641C0AFB98
:100B200008F03844B0F80F00694609FB08F2114498
:100B3000C881A41C0AFB08F03844407C694609FBC4
:100B400008F211440874641C06220AFB08F03844B9
:100B500010F11201684609FB08F31844113000F047
:100B600085FBA41D0AFB08F03844007E694609FB9A
:100B700008F21144C875641C0AFB08F038441930A7
:100B8000694609FB08F9494488610AFB08FA07EB42
:100B90000A00007E041918F1010865E769463878F3
:100BA000AFF300803000C0B20DF5067DBDE8F087E0
:100BB0007FB5040000252600B07B0390B089029029
:100BC000F07A0190701D00903379F278B6F8011038
:100BD0003078AFF300802800C0B204B070BD7FB59C
:100BE000040000252600F01D0290B0790190707974
:100BF0000090337996F9032096F902103088AFF30C
:100C000000802800C0B204B070BD70B5040000259B
:100C100026003088AFF300802800C0B270BD38B520
:100C200004000025AFF300802800C0B232BD70B5CB
:100C30000400002526003379728871783078AFF38C
:100C400000802800C0B270BD70B5040000252600E9
:100C5000B21C71783078AFF300802800C0B270BD4C
:100C600070B5040000252600B1783088AFF300800D
:100C70002800C0B270BD2DE9F841ADF50B7D040030
:100C8000002526000C275FF00008F07A804511DA75
:100C900006EB4800007B06A901F818007F1C06EB54
:100CA0004800407B06A901EB480148707F1C18F101
:100CB0000108EAE706A80590F07A0490B6F8090062
:100CC0000390307A0290F0790190B07900907379B6
:100CD000B6F80320B1783088AFF300802800C0B2A6
:100CE0000DF50C7DBDE8F0812DE9F041ADF50C7DF1
:100CF0000400002526000D275FF00008307B8045AA
:100D000011DA06EB4800407B07A901F818007F1CA8
:100D100006EB4800807B07A901EB480148707F1C67
:100D200018F10108EAE707A80690307B0590708962
:100D30000490707A0390307A0290F0790190B07943
:100D40000090B388F278B1783088AFF30080280043
:100D5000C0B20DF50C7DBDE8F08170B50400002532
:100D60002600B6F801103078AFF300802800C0B23A
:100D700070BD70B586B0040000252600B07C0590DB
:100D8000308A0490F07B039016F109000290307ACB
:100D90000190F0790090B6F80530B6F80320B6F867
:100DA00001103078AFF300802800C0B206B070BDEB
:100DB00070B5040000252600F278B1783088AFF3D2
:100DC00000802800C0B270BD7FB504000025260059
:100DD00096F907000290B079019096F9050000900D
:100DE0003379F278B6F801103078AFF3008028003C
:100DF000C0B204B070BD30B4002513E050F8042B2D
:100E0000D30744BFA9F101039A18091F042942F826
:100E1000045BFAD213468C0744BF15809B1CC9079C
:100E200048BF1D7050F8041B0029E7D130BC704743
:100E300010B4020052B2002A06D40A01DFF884334B
:100E4000040064B21A5509E00A01DFF87C3304009B
:100E500064B214F00F04234403F8042C10BC704750
:100E6000BFF34F8FDFF864130A6812F4E062DFF813
:100E7000600302430A60BFF34F8F00BFFDE710B568
:100E80000400601EB0F1807F01D301200FE0601EDE
:100E9000DFF8401308600F215FF0FF30FFF7C8FF55
:100EA0000020CD4908600720CC490860002010BD13
:100EB00081B0CB490A6802430A6009680140009189
:100EC000009901B07047C748016851F48071016012
:100ED0007047C4480068800A10F001007047C2499A
:100EE0000A6832F0F85252EA00620A607047BF495D
:100EF0000A689208920002430A607047BB48006883
:100F000010F00C007047B9490A6832F0F002024351
:100F10000A607047B5490A6832F4E06202430A6029
:100F20007047B2490A6832F4605202430A6070475F
:100F3000AC48016851F0807101607047A9480068B1
:100F4000400E10F00100704770B4A94D2E68A94CF6
:100F5000264006430E4356EA02261E432E6070BC0E
:100F60007047A348016851F0807101607047A24941
:100F70000A68D208D20002430A6070479F490A6893
:100F800032F4C06202430A6070479D480068800ADC
:100F900010F00100704780B50120FFF7E8FF5FF017
:100FA0008050FFF785FF4FF40070FFF7E7FFFFF772
:100FB000ECFF0028FBD11020FFF791FFFFF789FF1E
:100FC000002805D1FFF77FFFFFF783FF0128FBD142
:100FD00000230A2200210220FFF7B6FFFFF7C1FF1E
:100FE000FFF7A6FFFFF7AAFF0128FBD10020FFF7BC
:100FF0008AFF0320FFF77BFFFFF780FF0C28FBD160
:101000000020FFF787FF0020FFF78BFF7D48FFF7E9
:1010100036FF7D4800F05DF901BD30B587B005A809
:101020007A49D1E90023C0E900231921002000F00A
:101030009DF904002000C0B2002805D02100C9B2EB
:10104000734800F0CBF9FEE7724800F0C7F905AA33
:101050000621002000F044F905002800C0B2002855
:1010600005D02900C9B26C4800F0B8F9FEE76B481A
:1010700000F0B4F900F0C6F904002000C0B2002866
:1010800005D02100C9B2664800F0A8F9FEE765481E
:1010900000F0A4F903A802900DF10E00019004A83D
:1010A0000090002308220021012000F0D5F905005E
:1010B0002800C0B2002805D02900C9B25A4800F063
:1010C0008DF9FEE7594800F089F907B030BD10B539
:1010D00004002000C0B2042801DAFFF7C1FE10BDF1
:1010E00030B58BB0002400200A9000200990012028
:1010F0000890002007900120069000200590002015
:101100000490002003900020029007200190A0206E
:101110000090A02310220221002000F0F8F9050021
:101120002800C0B2002805D02900C9B2404800F00C
:1011300055F929E03F4B1E220321002000F0D1FA8F
:1011400004002000C0B2002805D02100C9B23A48EE
:1011500000F044F918E0394A002010700020508057
:10116000002010710121012000F05DFA0500280027
:10117000C0B2002805D02900C9B2314800F02EF9CC
:1011800002E0304800F02AF90BB030BD10B500F095
:1011900061F800F019FB04002000C0B2002805D05F
:1011A0002100C9B2284800F019F9FEE7FFF735FF22
:1011B000FFF796FF2549264800F010F900F077FB6D
:1011C000FCE7000000E400E018ED00E00CED00E0BA
:1011D0000400FA0514E000E018E000E010E000E090
:1011E0005810024000100240041002400810024053
:1011F0000C1002408C80FFF900200240007000407B
:10120000147000408038010000B4C404A834000801
:1012100038320008C832000868320008F43200088A
:101220002033000870330008943300082434000889
:1012300028310008000000206431000880080020E8
:101240009C31000898320008D0310008B034000802
:101250000432000880B5FFF79EFE00F08AFD00F022
:10126000C3FE5FF4612001F0E8F801BD2DE9F84309
:1012700004000D0016003700A846A1463A0041467A
:10128000484601F0FDF84846BDE8F2832DE9F843F1
:1012900004000D0016003700A846A146424639005A
:1012A000484601F057F94846BDE8F28381B00A4A42
:1012B000116800910100009B11F1010F00D0491C41
:1012C000002904D01368DB03FAD5491EF8E701B002
:1012D000704702490860704710E000E020000020DD
:1012E0002DE9F841ADF50D7D04000D00160008AFA5
:1012F00000208DF800005FF000083C7018F1010834
:101300007D7018F101082A00D2B23100B81CFFF735
:10131000ADFF15EB08081C22002101A8FFF7B6FF5E
:1013200001208DF804003F20ADF806000C20ADF838
:10133000080008A804904046C0B205906846069090
:1013400001200790002101A800F0B9FB002801D579
:10135000FF2007E09DF80000002802D09DF8000063
:1013600000E000200DF50E7DBDE8F081F0B5ADF593
:101370000D7D04000D0008AE00208DF80000002750
:1013800034707F1C75707F1C1C22002101A8FFF7A0
:101390007DFF01208DF804003F20ADF806000F20EE
:1013A000ADF8080008A804903800C0B2059068465F
:1013B000069001200790002101A800F080FB002882
:1013C00001D5FF2007E09DF80000002802D09DF81D
:1013D000000000E000200DF50D7DF0BD0EB4C0B59D
:1013E000024603A800210190009101AB01210448AD
:1013F00078440C3001F0E2F806BC5DF810FB00BF49
:101400007720000080B588B000208DF800001C22F5
:10141000002101A8FFF73AFF01208DF804003F20CA
:10142000ADF8060040F20110ADF8080068460690DD
:1014300001200790002101A800F041FB002801D500
:10144000FF2007E09DF80000002802D09DF8000072
:1014500000E0002009B000BD2DE9F04FADF50F7D93
:1014600004000D0016001F00DDF86082DDF86492B4
:10147000DDF868A20DF1280B0722002101A8FFF773
:1014800005FF00208BF80040401C8BF80150401CE9
:101490008BF80260401C8BF80370401C8DF8000034
:1014A0001C22002103A8FFF7F1FE01208DF80C009B
:1014B0003F20ADF80E008A20ADF810000AA8069073
:1014C0009DF80000079001A80890072009900021CE
:1014D00003A800F0F4FA002801D5FF2013E09DF8DE
:1014E0000400002802D09DF804000CE0BDF80500BF
:1014F000A8F80000BDF80700A9F80000BDF8090031
:10150000AAF8000000200DF50F7DBDE8F08F2DE951
:10151000FF4FADF50D7D9DF97C92A09CA19DA29EF3
:10152000A39FDDF890820DF1200A00208DF80000C5
:101530005FF0000B9DF834028AF800001BF1010BEC
:101540009DF838028AF801001BF1010BBDF83C023E
:10155000AAF802001BF1020B9098CAF804001BF1D4
:10156000040B9A98CAF808001BF1040B9DF86C0252
:101570008AF80C001BF1010B9DF870028AF80D002F
:101580001BF1010B06229D991AF10E00FFF76EFE6A
:101590001BF1060B9DF878028AF814001BF1010B71
:1015A0008AF815901BF1010B8AF816401BF1010B0C
:1015B0008AF817501BF1010B8AF818601BF1010B18
:1015C0008AF819701BF1010B8AF81A801BF1010BC4
:1015D0001C22002101A8FFF759FE01208DF804000C
:1015E0003F20ADF80600AB20ADF8080008A8049035
:1015F0005846C0B205906846069001200790002129
:1016000001A800F05CFA002801D5FF2007E09DF852
:101610000000002802D09DF8000000E000200DF539
:10162000117DBDE8F08F2DE9F841ADF50D7D040089
:101630000D00160008AF00208DF8000000213C705E
:10164000491C7D70491C00202A00D2B2904218DA51
:10165000062202FB00F3F35C07EB800C8CF80230EF
:1016600002FB00F333445B8807EB800CACF80330DB
:1016700002FB00F23244127907EB80035A71401CDE
:10168000E2E72800C0B2800050FA81F81C22002155
:1016900001A8FFF7FBFD01208DF804003F20ADF805
:1016A0000600AC20ADF8080008A804904046C0B27F
:1016B00005906846069001200790002101A800F0DF
:1016C000FEF9002801D5FF2007E09DF80000002862
:1016D00002D09DF8000000E000200DF50E7DBDE871
:1016E000F0812DE9F043ADF50D7D04000D001600ED
:1016F0001F000DF1200800208DF800005FF00009A8
:1017000088F8004019F1010988F8015019F1010920
:1017100088F8026019F101093200D2B2390018F1DB
:101720000300FFF7A3FD16EB09091C22002101A805
:10173000FFF7ACFD01208DF804003F20ADF8060056
:10174000AD20ADF8080008A804904846C0B2059046
:101750006846069001200790002101A800F0AFF92B
:10176000002801D5FF2007E09DF80000002802D0E6
:101770009DF8000000E000200DF50D7DBDE8F08330
:10178000010049B200290AD4012210F01F018A4049
:10179000DFF8001503005BB25B0941F823207047B6
:1017A000010049B200290ED4012210F01F018A4025
:1017B000DFF8E41403005BB25B0941F82320BFF3B8
:1017C0004F8FBFF36F8F704770B50025DFF8CC6483
:1017D000300001F074F9DFF8C80401F070F900245A
:1017E0002000C0B205280CDADFF8B8142200D2B20B
:1017F0004FF4867042431144300001F072F9641CCA
:10180000EEE700F0D9FA2800C0B270BD7CB5040044
:101810000D0000200090DFF884646946300001F07C
:101820006EF9280080B2002818D0009880F808517E
:101830002A0092B2210000980830FFF717FD0098A7
:1018400000F00DF8002805D10099DFF8540401F0EC
:1018500048F903E00099300001F03CF973BD30B461
:10186000010011F10802107804280CD1541C63788F
:10187000180080B291F80851ED1EA84201D0022054
:1018800013E0002011E0107882280DD1541CB4F828
:101890000130180080B291F808512D1FA84201D0E4
:1018A000022002E0002000E0012030BC70472DE95A
:1018B000FC47002000902520FFF772FFDFF8E0537F
:1018C000280001F0FFF806003000C0B200286FD1F8
:1018D0006946280001F013F92520FFF751FF009811
:1018E00010F108073878042802D03878822853D1BC
:1018F00017F101083878042802D118F1020902E032
:10190000781C10F1030998F800003E2816D1CA4649
:1019100000200400192C3FD2DFF88C139AF8000045
:1019200031F8342080B2904206D11AF1010001EB67
:10193000C401496888472FE0641CEBE798F8000071
:10194000FF2815D1CA46002004002E2C24D2DFF82F
:101950005C13BAF8000031F83420904206D11AF135
:10196000020001EBC4014968884715E0641CECE7FC
:1019700000200400082C0FD2CD4998F8000031F85F
:10198000342080B2904205D1484601EBC401496839
:10199000884701E0641CEDE72520FFF701FF00996F
:1019A000BE4801F09EF8280001F08CF806008BE795
:1019B00000F00AF82520FFF7E3FEBDE8F38780B5C5
:1019C000B74801F07FF802BD7047F8B504000D007C
:1019D00016001F003B00DBB29BB23200D2B292B2C3
:1019E0002900200000F080FBF1BD2DE9F84384B010
:1019F00005000E00170098460C9C2000C0B200287D
:101A000014D1B005800D50EA8520ADF804003800EF
:101A10008DF8060001208DF808005FF0040903220C
:101A200001A90DF10900FFF721FC12E0B005800DBE
:101A300050EA8520ADF80000ADF8027081208DF8E5
:101A400008005FF00509042269460DF10900FFF75F
:101A50000DFC3B00DBB24A46D2B2414602A8FFF77A
:101A6000B4FF05B0BDE8F08338B504000D002800D0
:101A700001F028F8002808D16946280001F04EF846
:101A80000099200001F026F8F1E731BD1CB52520B2
:101A9000FFF786FE814C200001F04FF802280ADA99
:101AA00069467F4801F02BF80099200001F019F8F1
:101AB000FFF78AFFEEE72520FFF762FE13BD2DE951
:101AC000F04F89B005000E00AF88BF05BF0D6888D4
:101AD00057EA8027774800680A21B0FBF1F400201C
:101AE000019005A800F0EBFFFFF7D0FF28780090E9
:101AF000EB682869020092B2A9886888FFF775FF31
:101B00003000C0B2002801D00020C0E0002C01D17C
:101B100001200400210007A801F018F807A801F02F
:101B20001DF8002840F09680FFF749FF0028F5D106
:101B30002520FFF735FEDFF8688101A9404600F057
:101B4000DEFF01980830039003980078042862D1E2
:101B50000398401C049001980B308146019890F83E
:101B60000801C01E8246049800780E2823D00F2852
:101B700004D010284ED03E2835D04CE0CDF8089047
:101B800002984088390089B2884263D1A8680F283A
:101B900004D00298007800285CD13CE0A869824516
:101BA00001DA504600E0A869A861AA694946686957
:101BB000FFF75CFB5FE0CB46BBF80100390089B260
:101BC000884247D119F10309BAF1030AA86982458D
:101BD00001DA504600E0A869A861AA694946686927
:101BE000FFF744FB47E0CDF8009000980078A96823
:101BF000884210D1BAF1010AA869824501DA50463B
:101C000000E0A869A861AA690098411C6869FFF70B
:101C10002DFB30E01EE0DFF884B0584600F052FFA4
:101C200000280BD0404600F04DFF002806D0019957
:101C3000584600F056FF0020019005E0019905A8E4
:101C400000F04FFF00200190FFF7BEFE2520FFF7B8
:101C500097FD63E70198002803D001990F4800F031
:101C600039FF05A90E48FFF7FFFE2520FFF788FD85
:101C70005FF0FF300BE00199084800F02BFF05A949
:101C80004046FFF7F1FE2520FFF77AFD002009B05E
:101C9000BDE8F08F00E100E080E100E0880800206E
:101CA0009008002024000020202F0008982C000815
:101CB000E8300008B834000881B04D490A68024392
:101CC0000A60096801400091009901B0704730B482
:101CD000046891FAA1F3B3FA83F30325DBB25B0046
:101CE0009D40AC4391FAA1F3B3FA83F3DBB25B00FE
:101CF00012FA03F31C43046030BC704710B444680C
:101D00008C4302FB01F31C43446010BC704730B4A9
:101D1000846891FAA1F3B3FA83F30325DBB25B0085
:101D20009D40AC4391FAA1F3B3FA83F3DBB25B00BD
:101D300012FA03F31C43846030BC704730B4C468AB
:101D400091FAA1F3B3FA83F30325DBB25B009D4064
:101D5000AC4391FAA1F3B3FA83F3DBB25B0012FA5E
:101D600003F31C43C46030BC7047816170478162DB
:101D7000704780B50120FFF79FFF01224FF480716B
:101D80005FF09040FFF7A3FF00224FF480715FF0F7
:101D90009040FFF7B3FF03224FF480715FF0904053
:101DA000FFF7B5FF00224FF480715FF09040FFF71E
:101DB000C5FF00F015F801BD80B54FF480715FF0EC
:101DC0009040FFF7D4FF0520FFF770FA4FF48071C1
:101DD0005FF09040FFF7C9FF9620FFF767FA01BD5B
:101DE00080B54FF480715FF09040FFF7C0FF01BDF8
:101DF0004C100240010049B200290AD4012210F01F
:101E00001F018A40DFF8541303005BB25B0941F8FD
:101E10002320704710B4020052B2002A06D40A01EF
:101E2000DFF83C33040064B21A5508E00A01CD4BD8
:101E3000040064B214F00F04234403F8042C10BC13
:101E4000704781B0C8490A6802430A6009680140C6
:101E50000091009901B0704781B0C4490A680243FB
:101E60000A60096801400091009901B0704730B4E0
:101E7000046891FAA1F3B3FA83F30325DBB25B00A4
:101E80009D40AC4391FAA1F3B3FA83F3DBB25B005C
:101E900012FA03F31C43046030BC704710B444686A
:101EA0008C4302FB01F31C43446010BC704730B408
:101EB000846891FAA1F3B3FA83F30325DBB25B00E4
:101EC0009D40AC4391FAA1F3B3FA83F3DBB25B001C
:101ED00012FA03F31C43846030BC704730B4C4680A
:101EE00091FAA1F3B3FA83F30325DBB25B009D40C3
:101EF000AC4391FAA1F3B3FA83F3DBB25B0012FABD
:101F000003F31C43C46030BC704730B4446A0B0018
:101F10001B0A93FAA3F3B3FA83F30F25DBB29B00FA
:101F20009D40AC430B001B0A93FAA3F3B3FA83F36F
:101F3000DBB29B0012FA03F31C43446230BC7047CF
:101F4000016851F0010101607047016849084900CA
:101F500001607047026832F00C020A430260704769
:101F600030B40568824C254015430D430560446834
:101F700034F440541C43446030BC7047826832F4EF
:101F800040720A4382607047F0B4B2F5004F10D13E
:101F90001C00640814EB4104B4FBF3F4A4B2250064
:101FA0004FF6F0762E40C5F3420426433700C76053
:101FB00005E011EB5304B4FBF3F4A4B2C460F0BC2D
:101FC0007047C069800910F001007047C069C009FE
:101FD00010F001007047016851F020010160704766
:101FE0000A00D2B2028570471CB50120FFF729FF15
:101FF00002224FF400715FF09040FFF738FF072294
:102000004FF400715FF09040FFF77FFF02224FF422
:1020100000715FF09040FFF74AFF00224FF400711B
:102020005FF09040FFF73AFF01224FF400715FF03C
:102030009040FFF753FF02224FF480615FF0904021
:10204000FFF715FF07224FF480615FF09040FFF724
:102050005CFF02224FF480615FF09040FFF727FFA2
:1020600000224FF480615FF09040FFF717FF0122DC
:102070004FF480615FF09040FFF730FF4FF48040F5
:10208000FFF7EAFE3B4C2000FFF75FFF0C2120002A
:10209000FFF760FF0023002200212000FFF760FF10
:1020A00000212000FFF76AFF5FF46123002232481D
:1020B00001682000FFF768FF0020009000982F497A
:1020C000884203D20098401C0090F7E72000FFF7F9
:1020D00037FF04212520FFF79DFE2520FFF78AFE0C
:1020E0002000FFF778FF13BD2DE9F04704000D0035
:1020F00016001F00DFF88880320092B221004046AF
:10210000FFF7B4F83A0092B22900300080B24044A0
:10211000FFF7ACF85FF00009484680B2390089B299
:1021200011FA86F1884210DADFF848A05046FFF72E
:102130004DFF0028F8D0484680B218F800105046ED
:10214000FFF74EFF19F10109E6E70A48FFF739FFEB
:102150000028FAD0BDE8F0870000000000E100E0B0
:1021600000E400E018ED00E04C1002406010024076
:10217000FFE9FFEF0038014020000020FFFF0F00C3
:1021800074070020010049B2002909D4012210F08F
:102190001F018A40AF4903005BB25B0941F823206D
:1021A000704710B4020052B2002A05D40A01AA4BAB
:1021B000040064B21A5508E00A01A84B040064B296
:1021C00014F00F04234403F8042C10BC704781B0B2
:1021D000A3490A6802430A60096801400091009916
:1021E00001B0704730B4046891FAA1F3B3FA83F3F5
:1021F0000325DBB25B009D40AC4391FAA1F3B3FA37
:1022000083F3DBB25B0012FA03F31C43046030BCBF
:10221000704710B444688C4302FB01F31C434460D4
:1022200010BC704730B4846891FAA1F3B3FA83F319
:102230000325DBB25B009D40AC4391FAA1F3B3FAF6
:1022400083F3DBB25B0012FA03F31C43846030BCFF
:10225000704730B4C46891FAA1F3B3FA83F303254D
:10226000DBB25B009D40AC4391FAA1F3B3FA83F378
:10227000DBB25B0012FA03F31C43C46030BC70474E
:1022800030B4046A91FAA1F3B3FA83F30F25DBB2F9
:102290009B009D40AC4391FAA1F3B3FA83F3DBB208
:1022A0009B0012FA03F31C43046230BC70470168C0
:1022B00051F001010160704701684908490001605F
:1022C0007047026832F00C020A430260704730B473
:1022D0000568644C254015430D430560446834F49B
:1022E00040541C43446030BC7047826832F44072F2
:1022F0000A4382607047F0B4B2F5004F10D11C0061
:10230000640814EB4104B4FBF3F4A4B225004FF6C7
:10231000F0762E40C5F3420426433700C76005E03F
:1023200011EB5304B4FBF3F4A4B2C460F0BC7047E7
:10233000C069C00910F001007047016851F0200128
:10234000016070470A00D2B20285704738B50400B8
:10235000022204215FF09040FFF744FF072204218E
:102360005FF09040FFF78CFF022204215FF0904065
:10237000FFF758FF002204215FF09040FFF749FF6C
:10238000012204215FF09040FFF763FF0222082141
:102390005FF09040FFF726FF072208215FF0904092
:1023A000FFF76EFF022208215FF09040FFF73AFF2F
:1023B000002208215FF09040FFF72BFF0122082147
:1023C0005FF09040FFF745FF5FF40030FFF7FFFE3E
:1023D000254D2800FFF770FF0C212800FFF771FF43
:1023E0000023002200212800FFF771FF00212800B0
:1023F000FFF77BFF230000221C4801682800FFF73D
:102400007AFF2800FFF753FF04212620FFF7C9FEBB
:102410002620FFF7B7FE2800FFF78FFF31BD38B544
:102420000400114D2800FFF783FF0028F9D0210098
:10243000C9B22800FFF786FF31BD10B504002000A7
:10244000FFF784FF10BD10B504002000C0B2FFF7F5
:10245000E6FF10BD00E100E000E400E018ED00E060
:1024600058100240FFE9FFEF004400402000002028
:1024700010B504002000C0B2FFF7E5FF200010BD3A
:1024800062B38B0708D0521E11F8013B00F8013BE4
:1024900000F024808B07F6D1830740F0208000BF36
:1024A000103A07D330B4B1E83810103AA0E8381029
:1024B000F9D230BC530724BFB1E80810A0E80810D7
:1024C00044BF51F8043B40F8043BD20724BF31F825
:1024D000022B20F8022B44BF0B7803707047121FA9
:1024E00017D35B0009D151F8043B20F8023B1B0CC9
:1024F000121F20F8023BF6D20BE051F8043B00F823
:10250000013B1B0A20F8023B1B0C121F00F8013B89
:10251000F3D238BF121D521E24BF11F8013B00F840
:10252000013BF8D8704730B40EE0026843680244BB
:102530000830DC0744BFA9F10104E31852F8045B3A
:1025400043F8045B091FF9D150F8041B0029ECD1B2
:1025500030BC704762F30F2262F31F42401810F044
:10256000030308D0C91A1FD3DB0748BF00F8012DA9
:1025700028BF20F8022D130030B414461546103938
:1025800028BF20E93C00FAD8490728BF20E90C0001
:1025900048BF40F8042D890028BF20F8022D48BF0D
:1025A00000F8012D30BC7047C91818BF00F8012D84
:1025B000CB0728BF00F8012D704700002DE9F84F28
:1025C00094B0174602910DF12E011E9ADFF8A083F8
:1025D00012914A700021089182464FF0FF311D464A
:1025E0000CAE13910CE025280FD017F8011B0298B0
:1025F000D0470028029000F0B9800898401C08904D
:1026000038780028EFD10898B4E10020002100229A
:1026100005900691079201E041F0010117F8010FC2
:102620002028F9D023280CD02B2804D02D2805D021
:10263000302809D00BE041F00201EFE741F004013E
:10264000ECE741F00801E9E741F01001E6E72A284C
:102650000CD12A6852F8040B2A6000280A9003D58E
:1026600040420A9041F004017F1C10E00A9209E008
:102670000A98404505DA00EB800302EB4302303A4A
:102680000A927F1C3A78A2F130000A28F0D33878F9
:102690002E2802D01398099021E017F8010F2A285C
:1026A00006D1286850F8042B286009927F1C16E098
:1026B0002D280CBF7F1C0020002209920AE040B99F
:1026C000099A424505DA02EB820403EB4403303BEE
:1026D00009937F1C3B78A3F130020A2AEFD3ADF8AF
:1026E0002C100FF2B430397800F048FA08B117F81E
:1026F000010B8DF82E009DF82E00682804BF397854
:10270000682903D162208DF82E007F1C0CA804904C
:1027100017F8012B252A114613D0582A4BD0632ACB
:1027200000F0A880642A18BF692A6FD06F2A42D0AF
:10273000702A37D0732A07D0752A18BF782A3AD062
:10274000A1E0012205929BE0286850F8044B286024
:10275000039494B91299487858B10FF2443000F0BC
:1027600019FA4FF0FF34241A00F097804FF0FF3031
:1027700000E10FF2483003908FE0DDF82490B9F1CA
:10278000000F04D5204600F025FA044608E04A462A
:102790000021204600F03AFA002814BF041B4C46E2
:1027A00006947AE0286850F8041B286001910CA96F
:1027B000039178215AE09DF82E00622802D0682803
:1027C00006D00BE0296851F8040B2960C0B209E07B
:1027D000296851F8040B296080B203E0296851F898
:1027E000040B296001909DF82C00010739D5019850
:1027F000002836D042F02001782932D105983021C6
:102800003154401C431C059332542AE09DF82E009D
:10281000622802D0682806D00BE0296851F8040B22
:10282000296040B209E0296851F8040B296000B220
:1028300003E0296851F8040B29600028019002D5B3
:1028400005982D210AE0BDF82C00810702D50598D6
:102850002B2103E0C00704D5059820213154401CEA
:1028600005900CA8059901440391114601A800F0B8
:1028700084F812E001200590286850F8041B2860B5
:102880008DF8301009E001210591252311008DF804
:10289000303002D00220059072700A980599079A8C
:1028A000401A0699801AA0EB01099DF82C004107F7
:1028B00011D42020B9F1000F8DF800000BDD4C463B
:1028C00001236A4601A9504600F0CEF800287FF4A3
:1028D0004DAF641EF4D1059C0DF1300B64B11BF8B3
:1028E000012B01A9504600F0AFF8002801D4641E66
:1028F000F5D100287FF43AAF079C3020002C8DF8EA
:1029000000000ADD01236A4601A9504600F0ACF838
:1029100000287FF42BAF641EF4D1DDF80CB0069CC8
:1029200064B11BF8012B01A9504600F08DF8002876
:1029300001D4641EF5D100287FF418AF9DF82C0057
:1029400041077FF55DAE2020B9F1000F8DF8000042
:102950007FF756AE4C4601236A4601A9504600F067
:1029600083F800287FF402AF641EF4D148E600002B
:10297000CBCCCC0C15B0BDE8F08FF0B402466F297B
:10298000D46808BF082605D041F02000782814BF7D
:102990000A26102618251368642918BF69291846C5
:1029A00002D1002B48BF404258B9136A4BB9082ED8
:1029B00026D192F82800010722D530201725E0758E
:1029C0001EE0B0FBF6F706FB170030306D1EC3B2F9
:1029D0003A2BA4BFA1F1510318186055380003D059
:1029E00093686719BB42ECD3082E09D192F82800EE
:1029F000010705D5605D302802D06D1E302060557E
:102A0000C5F11803106A536161198342916008DAB5
:102A1000118DC31A4FF6EF70014093611185F0BC20
:102A2000704700280ED592F8280000F014001028F6
:102A300008D1546A11699069641A241AE31A012BA7
:102A4000A8BF9361F0BC704710B503460C46114611
:102A500060689847606020B1E069401CE061002038
:102A600010BD4FF0FF3010BDF8B505460E461746B5
:102A70001C4600205CB117F8011B7068A847706005
:102A800030B1F069401CF0610020641EF3D1F2BD4A
:102A90004FF0FF30F2BD0000686C747A4C0000000B
:102AA0007072696E74665F733A2062616420257388
:102AB00020617267756D656E740000000000006033
:102AC000406070470168814201D1012000E0002090
:102AD000C0B2704702680A60486001600A685160CD
:102AE0007047086042684A6041604A6811607047F8
:102AF000016842681160416802685160704738B5EA
:102B000004000D00206828602068FFF7F1FF002016
:102B10002968086000202968486031BD38B5040084
:102B20000D00606828606068FFF7E2FF00202968F8
:102B3000086000202968486031BD010000200A6853
:102B40008A4202D0401C1268FAE7704738B5040088
:102B50000D00656000F086F8206031BD10B50400FE
:102B600000F080F82168411A491C6068884201D24F
:102B7000012000E00020C0B210BD0000C9B2027800
:102B80008A421AB11CBF10F8012FF9E718BF0020C4
:102B90007047000080B500B906A005490B681BB15D
:102BA00022220021984701E000F068F8222002BDAF
:102BB0009C080020636F6E73747261696E74206884
:102BC000616E646C65723A20626164206D65737336
:102BD0006167650000F10103810704D010F8011B53
:102BE000820781B1FAD10268A2F10131914311F05B
:102BF000803104BF50F8042FF6E709BAB1FA81F129
:102C000000EBD100401CC01A70470000C9B2830716
:102C100006D0521E22D310F8013B9942F7D11FE093
:102C2000083A13D302F1040241EA012141EA0141C9
:102C300050F8043B121F21BF4B40A3F1013C2CEA8A
:102C4000030C1CF0803FF3D0C9B2001F083210F80B
:102C5000013B521E28BF91EA030FF8D818BF01208C
:102C6000401E704704480068704703480168491CCB
:102C7000016070470000000098080020012000F06B
:102C800001B8000080B5AFF30080024A110018209F
:102C9000ABBEFBE72600020001000000870200082F
:102CA000020000009B02000803000000AF020008C1
:102CB0000400000013030008050000002D030008B5
:102CC0000600000047030008070000005F0300083B
:102CD00000040000730300080104000083030008DF
:102CE000020400009B03000804040000AF03000876
:102CF00005040000BF03000807040000CF0300081C
:102D000008040000E903000809040000FD030008AE
:102D10000A04000015040008000800002B04000845
:102D200001080000410400080208000059040008DE
:102D3000030800008B04000804080000C304000816
:102D400005080000D904000806080000F304000884
:102D5000070800000D0500080A0800002D050008FE
:102D6000010C00004D050008020C0000670500087A
:102D7000030C00007B050008040C0000910500080E
:102D8000050C0000AD050008060C00000506000853
:102D9000070C000021060008080C00003906000896
:102DA000090C0000510600080A0C00006906000822
:102DB0000C0C0000850600080D0C0000A50600089C
:102DC0000E0C0000B90600080F0C0000D306000826
:102DD000100C0000ED060008110C000003070008AD
:102DE000120C00001F070008160C0000390700082D
:102DF000170C00004F0700081C0C000063070008B8
:102E00001D0C0000790700082DE9F84380460C00EE
:102E100000273F4E3078002802D100203A49088030
:102E2000394A1088B0F5057F6CDA3800471C21005C
:102E300080B289B2884265D298F80000050018F186
:102E400001083078002801D1002010802F48118817
:102E500045541188491C11803178002914D1012072
:102E600030702800C0B2042803D10320294908800B
:102E7000D6E72800C0B2822803D104202549088063
:102E8000CEE700203070CBE73178012928D11188B6
:102E9000204B1B889942C3D190F8009000211E4B13
:102EA00019801E4900230B804B46DBB2042B03D153
:102EB000431C5B780B8007E04B46DBB2822B03D1CF
:102EC000431CB3F801300B800988002905D100218B
:102ED00031701188FEF79AFCA2E7022030709FE75C
:102EE000317802299CD10C490B885B1C0B80098826
:102EF0000A4B1B88994293D3002131701188FEF749
:102F000085FC8DE7BDE8F183A00800206005002066
:102F1000A8080020A6080020A2080020A40800207D
:102F2000010000009F07000802000000D907000808
:102F3000030000009908000804000000BF08000812
:102F400005000000D908000807000000F10800088B
:102F5000080000000F09000809000000250900080A
:102F60000A0000003B0900080B000000810900086E
:102F70000C000000390A00080D000000550A000886
:102F80000E000000B10B00080F000000DF0B00086E
:102F9000100000000B0C0008110000001F0C0008BE
:102FA000120000002F0C000813000000490C00085C
:102FB00014000000610C000815000000770C0008E8
:102FC00016000000E90C0008170000005B0D000867
:102FD00018000000730D000820000000B10D00086B
:102FE00021000000C90D0008C069C00810F00100F0
:102FF0007047C069400910F0010070470821016264
:103000007047808CC0B270477047FEE770477047CA
:10301000704780B5FFF729FE01BD1CB500208DF873
:103020000000174C2000FFF7E4FF012808D1200022
:10303000FFF7E7FF8DF8000001216846FFF7E4FE87
:103040002000FFF7D1FF012802D12000FFF7D6FFB3
:1030500013BD10B50B4C2000FFF7CBFF012802D1A8
:103060002000FFF7CEFF2000FFF7BEFF012805D1AB
:103070002000FFF7C3FF2000FFF7C3FF10BD0000D3
:1030800000380140004400401048016851F47001CC
:1030900001600F49086850F00100086000200D4AE7
:1030A00010600A680C4802400A604FF480500B4AD6
:1030B0001060086830F4802008600020084908602B
:1030C0005FF00060074908607047000088ED00E08D
:1030D0000010024008100240FFFFF6EA0C10024008
:1030E0001810024008ED00E005000000890100080A
:1030F00008000000A30100080C000000BD0100084A
:1031000010000000DD01000813000000F1010008BC
:103110001A00000047020008300000005B020008AF
:1031200057000000730200084572726F7220696ECA
:10313000206163695F6761705F7365745F61647666
:103140006572746973696E675F636F6E66696775D0
:10315000726174696F6E2829203078253034780DBB
:103160000A0000004572726F7220696E2061636907
:103170005F6761705F7365745F61647665727469BF
:1031800073696E675F646174615F6E776B28292075
:103190003078253034780D0A000000004572726FD7
:1031A0007220696E206163695F6761705F73657427
:1031B0005F6164766572746973696E675F656E617D
:1031C000626C652829203078253034780D0A00009B
:1031D0004572726F7220696E20426C75654E52475F
:1031E0005F537461636B5F496E697469616C697A7E
:1031F0006174696F6E2829203078253032780D0A85
:1032000000000000426C75654E52472D4C50204224
:103210004C4520426561636F6E204170706C69633C
:103220006174696F6E202876657273696F6E3A20DB
:103230002573290D0A0000004572726F7220696EB5
:10324000206163695F68616C5F7365745F74785F48
:10325000706F7765725F6C6576656C2829203078B1
:10326000253034780D0A00004572726F7220696E45
:10327000206163695F68616C5F77726974655F6321
:103280006F6E6669675F64617461282920307825F4
:103290003034780D0A0000006163695F6761705F18
:1032A0007365745F6164766572746973696E675F74
:1032B000656E61626C652829202D2D3E2053554393
:1032C000434553530D0A00006163695F68616C5F99
:1032D0007365745F74785F706F7765725F6C657625
:1032E000656C2829202D2D3E2053554343455353CB
:1032F0000D0A00006163695F68616C5F77726974D1
:10330000655F636F6E6669675F6461746128292019
:103310002D2D3E20535543434553530D0A000000C5
:103320004572726F7220696E206163695F676174B4
:10333000745F7372765F696E69742829203078250E
:103340003034780D0A00000010B50749794418316F
:10335000064C7C44163404E00A68081D1144884772
:103360000146A142F8D110BD98000000B80000004D
:103370006163695F676174745F7372765F696E69B8
:10338000742829202D2D3E20535543434553530D7A
:103390000A0000004572726F7220696E20616369D5
:1033A0005F6761705F696E69742829203078253005
:1033B0003478720A000000000201061AFF30000291
:1033C00015E20A39F473F54BC4A12F17D1AD07A943
:1033D0006100000007C8000000093D004EF688515A
:1033E000CEF20001086840F470000860BFF34F8F10
:1033F000BFF36F8F4FF00070E1EE100A70470000CE
:10340000F7D9FFFF8808000024000020000000001A
:1034100017F1FFFF24000000A0FFFFFF00000020C5
:10342000000000006163695F6761705F696E6974C5
:103430002829202D2D3E20535543434553530D0A33
:103440000000000000F00DF8002801D0FFF77CFF1D
:10345000AFF300800020AFF30080FDF797FE00F08F
:1034600002F80120704700F001B800000746384616
:10347000FFF708FCFBE738B504460D462846FEF783
:10348000F7FFA84218BF0024204632BD01488047FC
:1034900001480047893000089D340008AFF30080E0
:1034A000FFF79CFFFFF7CEFFF50000E18002000070
:1034B000312E302E30000000E8030000FFF7FEBF81
:1034C000FFF7FEBFFFF7FEBFFFF7FEBFFFF7FEBF30
:1034D000FFF7FEBFFFF7FEBFFFF7FEBFFFF7FEBF20
:1034E000FFF7FEBFFFF7FEBFFFF7FEBFFFF7FEBF10
:1034F000FFF7FEBFFFF7FEBFFFF7FEBFFFF7FEBF00
:10350000FFF7FEBFFFF7FEBFFFF7FEBFFFF7FEBFEF
:10351000FFF7FEBFFFF7FEBFFFF7FEBFFFF7FEBFDF
:10352000FFF7FEBFFFF7FEBFFFF7FEBFFFF7FEBFCF
:10353000FFF7FEBFFFF7FEBFFFF7FEBFFFF7FEBFBF
:10354000FFF7FEBFFFF7FEBFFFF7FEBFFFF7FEBFAF
:10355000FFF7FEBFFFF7FEBFFFF7FEBFFFF7FEBF9F
:10356000FFF7FEBFFFF7FEBFFFF7FEBFFFF7FEBF8F
:10357000FFF7FEBFFFF7FEBFFFF7FEBFFFF7FEBF7F
:10358000FFF7FEBFFFF7FEBFFFF7FEBFFFF7FEBF6F
:10359000FFF7FEBFFFF7FEBFFFF7FEBFFFF7FEBF5F
:1035A000FFF7FEBFFFF7FEBFFFF7FEBFFFF7FEBF4F
:1035B000FFF7FEBFFFF7FEBFFFF7FEBFFFF7FEBF3F
:1035C000FFF7FEBFFFF7FEBFFFF7FEBFFFF7FEBF2F
:1035D000FFF7FEBFFFF7FEBFFFF7FEBFFFF7FEBF1F
:1035E000FFF7FEBFFFF7FEBFFFF7FEBFFFF7FEBF0F
:1035F000FFF7FEBFFFF7FEBFFFF7FEBFFFF7FEBFFF
:04360000FFF7FEBF13
:040000050800349D1E
:00000001FF
