:020000040800F2
:10000000E0140020D15000083147000833470008B1
:100010002151000825510008295100080000000066
:10002000000000000000000000000000354700084C
:100030003747000800000000394700083B47000828
:100040002D51000831510008355100083951000880
:100050003D51000841510008434700084551000840
:10006000495100084D5100085151000855510008F0
:10007000595100085D5100086151000865510008A0
:10008000695100086D510008715100087551000850
:10009000795100087D510008815100088551000800
:1000A000895100088D5100089151000895510008B0
:1000B0005B470008995100089D510008A1510008B4
:1000C000A5510008A9510008AD510008B151000820
:1000D000B5510008B95100087B470008BD51000820
:1000E000C1510008C5510008C9510008CD51000890
:1000F000D1510008D5510008D9510008DD51000840
:10010000E1510008E5510008E9510008ED510008EF
:10011000F1510008F5510008F9510008FD5100089F
:100120000152000805520008095200080D5200084B
:100130001152000815520008195200081D520008FB
:100140002152000825520008295200082D520008AB
:100150003152000835520008395200083D5200085B
:100160004152000845520008495200084D5200080B
:100170005152000855520008595200080000000072
:100180005D5200086152000870B504000025260089
:10019000F278B6F80110307801F06AFA2800C0B29F
:1001A00070BD70B5040000252600F278B6F8011085
:1001B0003078AFF300802800C0B270BD7CB5040079
:1001C00000252600F0880090B388F278B6F8011078
:1001D0003078AFF300802800C0B276BD70B504005F
:1001E00000252600307801F09EFC2800C0B270BDCA
:1001F0002DE9F841ADF5057D040000252600012715
:100200005FF000083078804513DA06EB8800B0F81C
:100210000100694621F82800BF1C06EB8800B0F8F1
:100220000300694601EB88014880BF1C18F10108F2
:10023000E8E769463078AFF300802800C0B20DF5DA
:10024000067DBDE8F08170B50400002526003078F9
:10025000AFF300802800C0B270BD70B50400002567
:100260002600B6F801103078AFF300802800C0B245
:1002700070BD70B50400002526003088AFF3008003
:100280002800C0B270BD70B504000025260030788B
:10029000AFF300802800C0B270BD70B50400002527
:1002A00026003000AFF300802800C0B270BD2DE9F9
:1002B000F04788B0040000252600D6F82100D6F8C3
:1002C0001D70D6F819C0D6F815E0D6F81180D6F80A
:1002D0000D90D6F80930D6F80520D6F8011016F1A1
:1002E000260ACDF81CA096F825A0CDF818A00590F8
:1002F0000497CDF80CC0CDF808E0CDF80480CDF817
:1003000000903078AFF300802800C0B208B0BDE89C
:10031000F08770B5040000252600D6F80220717819
:100320003078AFF300802800C0B270BD70B5040013
:1003300000252600B21C717896F90000AFF300800A
:100340002800C0B270BD70B5040000252600B21CA4
:100350007178307801F0F0FB2800C0B270BD70B544
:100360000400002526003088AFF300802800C0B2CA
:1003700070BD38B504000025AFF300802800C0B27E
:1003800032BD70B5040000252600F278B1783088BF
:10039000AFF300802800C0B270BD70B50400002526
:1003A00026003088AFF300802800C0B270BD38B599
:1003B00004000025AFF300802800C0B232BD38B57C
:1003C00004000025AFF300802800C0B232BD70B534
:1003D000040000252600F31CB2787178307801F013
:1003E000D5F82800C0B270BD70B504000025260005
:1003F0003088AFF300802800C0B270BD70B5040033
:1004000000252600D6F802103088AFF300802800BF
:10041000C0B270BD70B5040000252600B1783088E8
:10042000AFF300802800C0B270BD70B50400002595
:10043000260071883088AFF300802800C0B270BDFC
:1004400070B5040000252600F21CB1783088AFF3A7
:1004500000802800C0B270BD7FB5040000252600D2
:10046000B6F80B000290B6F809000190B6F8070044
:100470000090B6F80530B6F80320B1783088AFF3B5
:1004800000802800C0B204B070BD70B586B0040012
:1004900000252600308A0590F0890490B0890390E9
:1004A0007089029030890190F08800907379B6F8D5
:1004B0000320B1783088AFF300802800C0B206B0C6
:1004C00070BD70B504000025260071883088AFF338
:1004D00000802800C0B270BD70B504000025260061
:1004E000F388B28871883088AFF300802800C0B2EA
:1004F00070BD70B5040000252600F388B2887188AD
:100500003088AFF300802800C0B270BD7CB5040015
:100510000025260016F108000090F388B288718843
:100520003088AFF300802800C0B276BD7CB50400EF
:1005300000252600B01D00907379B6F80320B1782D
:100540003088AFF300802800C0B276BD70B50400DB
:1005500000252600B31DB2887188308801F029F982
:100560002800C0B270BD70B5040000252600308898
:10057000AFF300802800C0B270BD70B50400002544
:10058000260071883088AFF300802800C0B270BDAB
:1005900070B5040000252600731DB6F80320B1785D
:1005A0003088AFF300802800C0B270BD2DE9F8415B
:1005B000ADF5057D04000025260003275FF0000847
:1005C000B078804513DA06EB8800B0F8030069467E
:1005D00021F82800BF1C06EB8800B0F8050069462A
:1005E00001EB88014880BF1C18F10108E8E76A4662
:1005F000B1783088AFF300802800C0B20DF5067DD9
:10060000BDE8F08170B5040000252600731DB6F822
:100610000320B1783088AFF300802800C0B270BDED
:1006200070B5040000252600321D71883088AFF3B4
:1006300000802800C0B270BD70B5040000252600FF
:10064000321D71883088AFF300802800C0B270BDC1
:1006500070B5040000252600321D71883088AFF384
:1006600000802800C0B270BD70B5040000252600CF
:10067000731DB6F80320B1783088AFF300802800EE
:10068000C0B270BD7CB504000025260016F108003C
:100690000090F388B28871883088AFF3008028001A
:1006A000C0B276BD70B50400002526003088AFF3D7
:1006B00000802800C0B270BD70B50400002526007F
:1006C000B31DB28871883088AFF300802800C0B2B3
:1006D00070BD70B5040000252600B31DB288718876
:1006E000308801F073F82800C0B270BD70B5040006
:1006F00000252600B178308801F0B0F82800C0B29B
:1007000070BD70B50400002526007379B6F803208B
:10071000B1783088AFF300802800C0B270BD70B5EA
:10072000040000252600731D32797188308801F09D
:1007300070F82800C0B270BD70B504000025260016
:100740007188308801F0A1F82800C0B270BD70B582
:100750000400002526003088AFF300802800C0B2D6
:1007600070BD70B5040000252600B1783088AFF365
:1007700000802800C0B270BD7CB5040000252600B2
:1007800016F108000190F0790090B6F80530327942
:1007900071883088AFF300802800C0B276BD78B58C
:1007A00085B0040000252600707C0490B6F80F0088
:1007B0000390B6F80D000290B6F80B000190701D82
:1007C00000903379F278B6F80110307800F0F8FE36
:1007D0002800C0B206B070BD2DE9F047ADF5027D2E
:1007E000050000262F0001245FF0000838788045BE
:1007F00048DA5FF014095FF00B0A0AFB08F038448E
:100800004078694609FB08F28854641C0AFB08F02A
:1008100038448078694609FB08F211444870641C2A
:1008200006220AFB08F03844C11C684609FB08F39D
:100830001844801C01F010FAA41D0AFB08F038448B
:10084000407A694609FB08F211440872641C0AFBED
:1008500008F038440A30694609FB08F21144C860C0
:100860000AFB08FA07EB0A00407A04192000C0B21C
:100870002856694609FB08F949440874641C18F1B4
:100880000108B3E76946387800F01FFF3000C0B2B6
:100890000DF5027DBDE8F0877CB50400002526003B
:1008A000B6F807000090B6F80530B6F80320B6F8A1
:1008B00001103078AFF300802800C0B276BD70B56B
:1008C000040000252600F21CB6F801103078AFF3C2
:1008D00000802800C0B270BD70B50400002526005D
:1008E0007289B11C3088AFF300802800C0B270BD9F
:1008F0007CB504000025260030890090F388B2887A
:1009000071883088AFF300802800C0B276BD70B522
:10091000040000252600711C3078AFF30080280009
:10092000C0B270BD70B5040000252600711C30787F
:10093000AFF300802800C0B270BD78B587B0040066
:1009400000252600707F0690B6F81B000590B6F8CB
:1009500019000490B6F81700039016F111000290E8
:1009600016F10B000190701D00903379F278B6F803
:100970000110307800F05CFE2800C0B208B070BDF5
:100980002DE9F041ADF5047D040000252600012786
:100990005FF000083078804544DA5FEA08103044A0
:1009A000407869465FEA081288547F1C5FEA0810A5
:1009B0003044807869465FEA0812114448707F1C11
:1009C00006225FEA08103044C11C68465FEA08133B
:1009D0001844801C01F040F9BF1D5FEA0810304444
:1009E000407A69465FEA0812114408727F1C0622A9
:1009F0005FEA0810304410F10A0168465FEA081304
:100A00001844093001F028F9BF1D5FEA081030448E
:100A1000007C69465FEA08121144C8737F1C18F114
:100A20000108B7E769463078AFF300802800C0B20C
:100A30000DF5047DBDE8F08170B5040000252600A9
:100A40003379F278B6F801103078AFF300802800DF
:100A5000C0B270BD2DE9F847ADF5057D0500002653
:100A60002F0001245FF000083878804580F29680DE
:100A70005FF01C095FF0190A0AFB08F03844B0F86F
:100A80000100694609FB08F28852A41C0AFB08F021
:100A90003844C078694609FB08F211448870641C28
:100AA00006220AFB08F03844011D684609FB08F3DA
:100AB0001844C01C01F0D0F8A41D0AFB08F038440B
:100AC000807A694609FB08F211444872641C0AFBEB
:100AD00008F03844C07A694609FB08F2114488726C
:100AE000641C0AFB08F03844007B694609FB08F2E5
:100AF0001144C872641C0AFB08F03844407B694604
:100B000009FB08F211440873641C0AFB08F038441E
:100B1000807B694609FB08F211444873641C0AFB98
:100B200008F03844B0F80F00694609FB08F2114498
:100B3000C881A41C0AFB08F03844407C694609FBC4
:100B400008F211440874641C06220AFB08F03844B9
:100B500010F11201684609FB08F31844113001F046
:100B60007BF8A41D0AFB08F03844007E694609FBA7
:100B700008F21144C875641C0AFB08F038441930A7
:100B8000694609FB08F9494488610AFB08FA07EB42
:100B90000A00007E041918F1010865E769463878F3
:100BA00000F0CDFD3000C0B20DF5067DBDE8F08748
:100BB0007FB5040000252600B07B0390B089029029
:100BC000F07A0190701D00903379F278B6F8011038
:100BD0003078AFF300802800C0B204B070BD7FB59C
:100BE000040000252600F01D0290B0790190707974
:100BF0000090337996F9032096F902103088AFF30C
:100C000000802800C0B204B070BD70B5040000259B
:100C100026003088AFF300802800C0B270BD38B520
:100C200004000025AFF300802800C0B232BD70B5CB
:100C30000400002526003379728871783078AFF38C
:100C400000802800C0B270BD70B5040000252600E9
:100C5000B21C71783078AFF300802800C0B270BD4C
:100C600070B5040000252600B1783088AFF300800D
:100C70002800C0B270BD2DE9F841ADF50B7D040030
:100C8000002526000C275FF00008F07A804511DA75
:100C900006EB4800007B06A901F818007F1C06EB54
:100CA0004800407B06A901EB480148707F1C18F101
:100CB0000108EAE706A80590F07A0490B6F8090062
:100CC0000390307A0290F0790190B07900907379B6
:100CD000B6F80320B1783088AFF300802800C0B2A6
:100CE0000DF50C7DBDE8F0812DE9F041ADF50C7DF1
:100CF0000400002526000D275FF00008307B8045AA
:100D000011DA06EB4800407B07A901F818007F1CA8
:100D100006EB4800807B07A901EB480148707F1C67
:100D200018F10108EAE707A80690307B0590708962
:100D30000490707A0390307A0290F0790190B07943
:100D40000090B388F278B1783088AFF30080280043
:100D5000C0B20DF50C7DBDE8F08170B50400002532
:100D60002600B6F801103078AFF300802800C0B23A
:100D700070BD70B586B0040000252600B07C0590DB
:100D8000308A0490F07B039016F109000290307ACB
:100D90000190F0790090B6F80530B6F80320B6F867
:100DA00001103078AFF300802800C0B206B070BDEB
:100DB00070B5040000252600F278B1783088AFF3D2
:100DC00000802800C0B270BD7FB504000025260059
:100DD00096F907000290B079019096F9050000900D
:100DE0003379F278B6F801103078AFF3008028003C
:100DF000C0B204B070BD30B4002513E050F8042B2D
:100E0000D30744BFA9F101039A18091F042942F826
:100E1000045BFAD213468C0744BF15809B1CC9079C
:100E200048BF1D7050F8041B0029E7D130BC704743
:100E3000010049B200290AD4012210F01F018A40A2
:100E4000DFF8581A03005BB25B0941F823207047B2
:100E5000010049B200290ED4012210F01F018A407E
:100E6000DFF83C1A03005BB25B0941F82320BFF3B3
:100E70004F8FBFF36F8F70472DE9F04104000D00D5
:100E800000263000C0B2290080B289B2884237D231
:100E9000DFF8107A388840F2FF11884201DB002029
:100EA0003880DFF8048A3000C0B2205C398808F846
:100EB00001003000C0B2205C01F052F83888401CBC
:100EC00038803888404410F8010C0A2816D1388838
:100ED000012811D00020398808F80100DFF8CC097A
:100EE000016851F4803101602620FFF7B1FF002036
:100EF000DFF8BC19088001E000203880761CC0E7CC
:100F0000BDE8F08180B5DFF8AC0900210170002157
:100F10004170002181700021C170002141600021D9
:100F2000018206220021093000F0A6FEFF20DFF832
:100F30008819087001BD7FB502A8DFF88019D1E9D2
:100F40000023C0E90023684601F036F804002000C1
:100F5000C0B2002805D02100C9B2DFF8640901F051
:100F600071F8DFF8600940F6B831018000210A000D
:100F7000D2B2082A0ADA02886B460D00EDB25B5D38
:100F80005B0013FA82F20280491CF0E79DF8000032
:100F90008DF8080002AD9DF8030068709DF806000A
:100FA000A87002AA0621002001F060F806003000B7
:100FB000C0B2002806D03100C9B2DFF80C0901F038
:100FC00041F817E0DFF8040901F03CF8052420009F
:100FD000C0B2002808D02000C0B2295CDFF8F008B9
:100FE00001F030F8641EF2E79DF80810DFF8E4081D
:100FF00001F028F87FBD70B504000D000026300018
:101000002100C0B2C9B288421AD23000C0B228440E
:10101000407809280ED10C22DFF8BC183000C0B28D
:101020002844401C01F0A0F8002801D1012008E06C
:10103000002006E03000C0B2285C401C8619DEE7C4
:10104000002070BD2DE9F8418DB0FFF774FF192124
:10105000012001F051F801F0BBF804002000C0B2FB
:10106000002808D02100C9B2DFF8700800F0EAFFBC
:101070002000C0B286E00BA802900DF12E00019076
:101080000CA80090002307220021052001F034FB6A
:1010900005002800C0B2002808D02900C9B2DFF836
:1010A000400800F0CFFF2800C0B26BE001F062FE04
:1010B00004002000C0B2002808D02100C9B2DFF827
:1010C000240800F0BFFF2000C0B25BE000200A90BF
:1010D0000020099001200890002007900120069030
:1010E0000020059000200490002003900020029032
:1010F00007200190902000909023132202210020CD
:1011000001F00DFC05002900C9B2DFF8DC0700F092
:1011100099FFDFF8D83710220321002001F0E9FC05
:1011200006003100C9B2DFF8C80700F08BFF4FF4AA
:10113000804001904FF48040009000230122002164
:10114000012001F025FD07003900C9B2DFF8A4072E
:1011500000F078FF4FF4FA6002904FF4FA600190CB
:101160003C200090002328222821012001F064FD6A
:1011700080464146C9B2DFF8800700F063FFFFF701
:10118000C1FE00200EB0BDE8F08170B5DFF8245735
:10119000288A002814D0012817D0022800F0C38024
:1011A000042834D0082800F08B80102800F0BE807E
:1011B00020286DD0402850D0802800F0DF80E0E06B
:1011C000FFF7A0FE01202882DBE00023002201219E
:1011D000012001F084FD04002000C0B2002808D0E6
:1011E0002100C9B2DFF8140700F02CFF802028820C
:1011F0000CE0DFF80C0700F025FF01F069FE6860E5
:10120000012028700020687004202882B9E0287826
:1012100001280FD101F05CFEDFF8A8160A88696882
:10122000401A824218D200202870002068602020D6
:10123000288211E0687801280ED101F049FEDFF81C
:1012400084160A886968401A824205D200206870B4
:10125000002068604020288293E0DFF8A826012162
:10126000002001F0E8FB04002000C0B2002808D0F4
:101270002100C9B2DFF8900600F0E4FE8020288249
:1012800005E0DFF8880600F0DDFE0020288278E027
:10129000012001F00DFB04002000C0B2002808D09E
:1012A0002100C9B2DFF8680600F0CCFE8020288259
:1012B00067E0DFF8600600F0C5FE0220288260E0EB
:1012C000DFF8540600F0BEFE05263000C0B200284C
:1012D00009D03000C0B22844417ADFF8F40500F0AC
:1012E000B1FE761EF1E7697ADFF8E80500F0AAFEA4
:1012F00015F10902297A012001F093FA0400200077
:10130000C0B2002808D02100C9B2DFF8100600F0F2
:1013100099FE8020288205E0DFF8040600F092FEA6
:10132000022028822DE0022028822AE0DFF8D4253E
:101330000020107000205080002010710121012039
:1013400001F079FB04002000C0B2002808D0210081
:10135000C9B2DFF8D00500F075FE802028820CE0CD
:10136000DFF8C40500F06EFE01F0B2FD68600120F8
:101370006870002028700420288202E0FFF7C2FD78
:10138000FFE770BD7CB5DFF824452068C00302D5B7
:101390002068000400D557E0DFF80815DFF8105585
:1013A00028880A88904246D20A882888121A152A64
:1013B00001DB142602E008882E88861BDFF8F8047B
:1013C0000178012918D1DFF8E00429880844009049
:1013D00033009BB20022DFF854050188491C89B212
:1013E000DFF84C05008801F031F964281FD120682E
:1013F00050F40040206027E00078002817D1DFF883
:10140000A804298800EB0103320092B2DFF824051A
:101410000188491C89B2DFF81805008801F0C6F878
:10142000642804D1206850F4004020600CE0288833
:1014300036182E80B0E7206830F48030206000201D
:1014400008802620FFF7F4FC73BD30B58BB0002474
:10145000DFF858542868C00501D5FFF796FEFFF75E
:1014600091FFDFF854040078002840F08D80286850
:1014700080052BD52868C00428D42868000553D4DB
:1014800007A8DFF8B414102201F03EFD07A8009071
:1014900002234FF6FF720121DFF89404008800F068
:1014A000CCFF04002000C0B2002806D02100C9B241
:1014B000DFF8880400F0C6FD03E0DFF8840400F0E4
:1014C000C1FD286850F4006028602DE02868800580
:1014D0002AD52868400427D42868800424D403A887
:1014E000DFF86014102201F00FFD03A80090022322
:1014F0004FF6FF720121DFF83804008800F09DFFED
:1015000004002000C0B2002806D02100C9B2DFF8D4
:10151000380400F097FD03E0DFF8300400F092FD9E
:10152000286850F400502860286880052CD5286869
:10153000C00429D52868400426D52868400523D44E
:10154000DFF80C040088ADF80000DFF8080401683B
:101550000A20414301A801F01AFD6B460222DFF880
:10156000F8030188891C89B2DFF8C403008800F001
:10157000CBFF002804D1286850F48060286003E085
:10158000DFF8D80300F05EFD0BB030BD30B40400CE
:10159000E4B2012C12D1C74CE578012D08D1002509
:1015A000E57000252570002565600825258205E089
:1015B00000252570002565601025258230BC704708
:1015C0002DE9F84304000D0016001F00DDF820800F
:1015D000B648016831F480710160B64900220A7092
:1015E00000224A7000224A60D14A1580026852F4F3
:1015F0000072026000200882AF480670D84800F0F0
:1016000021FD5FF005094846C0B2002809D04846D0
:10161000C0B218F80010AE4800F014FDB9F101098D
:10162000F1E798F80010AB4800F00CFDBDE8F1833D
:10163000F0B585B004000D0016001F009DF84000B5
:101640000490BDF83C000390BDF838000290BDF84E
:10165000340001900A9800903B00DBB23200D2B215
:10166000290089B22000C0B2FFF7AAFF05B0F0BD83
:1016700070B504000D0016008C48016831F400714B
:101680000160016851F480710160016831F480618A
:101690000160016831F400610160016831F480513A
:1016A0000160016831F400510160016831F480414A
:1016B0000160016831F4004101603100C9B2A948FC
:1016C00000F0C0FCFFF71EFC70BD2DE9FE430400D6
:1016D0000D002E782F7A95F801800622A91C684605
:1016E00000F0BAFADFF8CC9199F80200002824D172
:1016F0003000C0B2002820D1E9683800C0B2FFF73E
:101700007AFC002819D0012089F80200012089F80C
:101710000300002089F80000002089F8010089F802
:1017200008800622694619F1090000F095FA202088
:10173000A9F810008C4800F085FCBDE8F7832DE97E
:10174000FE4304000D002E88EF7D95F802800622EE
:10175000E91C684600F080FADFF8589199F8020019
:10176000002824D13000C0B2132820D1A969380044
:10177000C0B2FFF740FC002819D0012089F8020010
:10178000012089F80300002089F80000002089F872
:10179000010089F808800622694619F1090000F065
:1017A0005BFA2020A9F810006F4800F04BFCBDE860
:1017B000F783F8B504000D0016001F003A00310051
:1017C000C9B2280080B201F044FBF1BDF8B50400B5
:1017D0000D0016001F00280080B25F490988491CCF
:1017E000884215D100208DF800009DF800003100DE
:1017F00080B289B288420BD29DF80000395C26A0E5
:1018000000F020FC9DF80000401C8DF80000ECE783
:10181000F1BDF8B504000D0016001F00210089B2CB
:10182000524800F00FFC21480168090509D50168FC
:10183000C90406D44848058001884D4800F002FCE0
:101840000BE00168890408D50068400405D43948D4
:1018500005800188474800F0F5FBF1BD134A136885
:101860001B0507D51368DB0404D4136853F48053B5
:10187000136009E013689B0406D513685B0403D466
:10188000136853F4804313607047084A136833F4B5
:1018900000431360704700002563000000E100E092
:1018A00080E100E0DA08002064050020000000204C
:1018B000DC080020700800202400002004510008EB
:1018C000044E0008D8080020B84E00085C500008FC
:1018D0000C51000814510008040000206C4F00084F
:1018E000884F0008284E0008D84E0008100000203D
:1018F000A44F0008C04F0008F84E0008144D00081F
:10190000DC4F0008B4080020384B0008684C000881
:10191000DC4B00083C4D0008F84F0008944C0008D0
:10192000184F0008704B0008C04C0008CE0800207B
:10193000D2080020D6080020B0500008F84800085F
:10194000244A0008C0500008444900086C4A0008B6
:10195000722D00081C510008D4080020644D0008B6
:101960008C4D00084C4E0008A0500008904900081B
:10197000145000082C50000810B4020052B2002A83
:1019800005D40A019C4B040064B21A5508E00A0110
:101990009A4B040064B214F00F04234403F8042C9F
:1019A00010BC7047BFF34F8F95490A6812F4E0628C
:1019B000944802430A60BFF34F8F00BFFDE710B5A4
:1019C0000400601EB0F1807F01D301200EE0601E94
:1019D0008D4908600F215FF0FF30FFF7CDFF002039
:1019E0008A49086007208A490860002010BD81B03C
:1019F00088490A6802430A60096801400091009919
:101A000001B070478448016851F4807101607047EB
:101A100081480068800A10F0010070477F490A6819
:101A200032F0F85252EA00620A6070477C490A6854
:101A30009208920002430A6070477948006810F0EB
:101A40000C00704776490A6832F0F00202430A60DF
:101A5000704773490A6832F4E06202430A607047D3
:101A60006F490A6832F4605202430A6070476A485C
:101A7000016851F080710160704767480068400E4E
:101A800010F00100704770B4664D2E68664C264019
:101A900006430E4356EA02261E432E6070BC704772
:101AA0006048016851F08071016070475F490A68C1
:101AB000D208D20002430A6070475D490A6832F4D6
:101AC000C06202430A6070475A480068800A10F0FA
:101AD0000100704738B500F041F801F09FFA0400AA
:101AE0002000C0B2002805D02100C9B2524800F041
:101AF000A9FAFEE75149524800F0A4FAFFF7A2FA0A
:101B000005002800C0B2002805D02900C9B24D4800
:101B100000F098FAFEE74C4800F094FA01F0C8FA99
:101B2000FFF793FCFAE710B504002000C0B20428C8
:101B300001DAFFF737FF10BDF8B504000D001600FD
:101B40002000C0B2042808DA3778707857EA0027F6
:101B50001321380080B200F02AFEF1BD80B500F0FC
:101B600008F801F046FD01F018FF384800F0EFF9E1
:101B700001BD80B50120FFF799FF5FF08050FFF7AE
:101B800036FF4FF40070FFF798FFFFF79DFF002826
:101B9000FBD11020FFF742FFFFF73AFF002805D1E5
:101BA000FFF730FFFFF734FF0128FBD100230A22A3
:101BB00000210220FFF767FFFFF772FFFFF757FFD3
:101BC000FFF75BFF0128FBD10020FFF73BFF03205D
:101BD000FFF72CFFFFF731FF0C28FBD10020FFF7A8
:101BE00038FF0020FFF73CFF1948FFF7E8FE1948CF
:101BF00002F033F901BD000000E400E018ED00E060
:101C00000CED00E00400FA0514E000E018E000E04C
:101C100010E000E0581002400010024004100240A2
:101C2000081002400C1002408C80FFF90020024096
:101C30000070004014700040A84B0008EC500008F1
:101C4000DC490008104C00083C4C0008790E0008E4
:101C50008038010000B4C4042DE9F84304000D00ED
:101C600016003700A846A1463A004146484601F012
:101C70003BF94846BDE8F2832DE9F84304000D0026
:101C800016003700A846A14642463900484602F0F1
:101C9000EBF84846BDE8F283010049B2002909D4B7
:101CA000012210F01F018A40B74903005BB25B09B3
:101CB00041F82320704710B4020052B2002A05D424
:101CC0000A01B24B040064B21A5508E00A01B04B95
:101CD000040064B214F00F04234403F8042C10BC75
:101CE000704781B0AB490A6802430A600968014045
:101CF0000091009901B0704730B4046891FAA1F3E3
:101D0000B3FA83F30325DBB25B009D40AC4391FA49
:101D1000A1F3B3FA83F3DBB25B0012FA03F31C43C3
:101D2000046030BC704710B444688C4302FB01F37C
:101D30001C43446010BC704730B4846891FAA1F32E
:101D4000B3FA83F30325DBB25B009D40AC4391FA09
:101D5000A1F3B3FA83F3DBB25B0012FA03F31C4383
:101D6000846030BC704730B4C46891FAA1F3B3FA10
:101D700083F30325DBB25B009D40AC4391FAA1F3F2
:101D8000B3FA83F3DBB25B0012FA03F31C43C460C3
:101D900030BC704730B4046A91FAA1F3B3FA83F30C
:101DA0000F25DBB29B009D40AC4391FAA1F3B3FA3F
:101DB00083F3DBB29B0012FA03F31C43046230BCD2
:101DC0007047016851F001010160704701684908DE
:101DD000490001607047026832F00C020A43026059
:101DE000704730B405686C4C254015430D430560C1
:101DF000446834F440541C43446030BC70478268EB
:101E000032F440720A4382607047F0B4B2F5004F7A
:101E100010D11C00640814EB4104B4FBF3F4A4B229
:101E200025004FF6F0762E40C5F3420426433700D6
:101E3000C76005E011EB5304B4FBF3F4A4B2C46033
:101E4000F0BC7047C069C00910F00100704701681C
:101E500051F02001016070470A00D2B2028570473C
:101E600038B50400022204215FF09040FFF744FFE0
:101E7000072204215FF09040FFF78CFF022204212B
:101E80005FF09040FFF758FF002204215FF0904080
:101E9000FFF749FF012204215FF09040FFF763FF45
:101EA000022208215FF09040FFF726FF0722082159
:101EB0005FF09040FFF76EFF022208215FF0904034
:101EC000FFF73AFF002208215FF09040FFF72BFF59
:101ED000012208215FF09040FFF745FF5FF40030DA
:101EE000FFF7FFFE2D4D2800FFF770FF0C212800A3
:101EF000FFF771FF0023002200212800FFF771FF88
:101F000000212800FFF77BFF2300002224480168FE
:101F10002800FFF77AFF2800FFF753FF042126204F
:101F2000FFF7C9FE2620FFF7B7FE2800FFF78FFF57
:101F300031BD38B50400194D2800FFF783FF002894
:101F4000F9D02100C9B22800FFF786FF31BD10B5D6
:101F50000400144804605FF46120FFF781FF10BDA6
:101F600010B504002000C0B2FFF7E3FF10BD38B584
:101F700004000D000B4A1068002804D0290089B223
:101F800020001268904731BD00E100E000E400E06D
:101F900018ED00E058100240FFE9FFEF0044004058
:101FA00020000020C008002010B504002000C0B2AE
:101FB000FFF7D6FF200010BD10B58AB0040009223B
:101FC00000216846FFF758FE1C22002103A8FFF7F6
:101FD00053FE0820ADF80E001820ADF8100068463A
:101FE000089009200990002103A801F0A4F9002815
:101FF00001D5FF200DE09DF80000002802D09DF8DB
:10200000000006E008220DF101012000FFF724FE88
:1020100000200AB010BD30B40EE0026843680244EC
:102020000830DC0744BFA9F10104E31852F8045B4F
:1020300043F8045B091FF9D150F8041B0029ECD1C7
:1020400030BC70470EB4C0B5024603A80021019011
:10205000009101AB0121044878440C3001F038FFB5
:1020600006BC5DF810FB00BFDD2F00002DE9F84134
:10207000ADF50D7D04000D00160008AF00208DF8B1
:1020800000005FF000083C7018F101087D7018F145
:1020900001082A00D2B23100B81CFFF7DDFD15EBB4
:1020A00008081C22002101A8FFF7E6FD01208DF899
:1020B00004003F20ADF806000C20ADF8080008A889
:1020C00004904046C0B205906846069001200790F3
:1020D000002101A801F02FF9002801D5FF2007E019
:1020E0009DF80000002802D09DF8000000E00020CC
:1020F0000DF50E7DBDE8F081F0B5ADF50D7D040068
:102100000D0008AE00208DF80000002734707F1C01
:1021100075707F1C1C22002101A8FFF7ADFD012076
:102120008DF804003F20ADF806000F20ADF8080040
:1021300008A804903800C0B20590684606900120B7
:102140000790002101A801F0F6F8002801D5FF2032
:1021500007E09DF80000002802D09DF8000000E094
:1021600000200DF50D7DF0BD0300002013F0030FDE
:1021700009D0521E22BF13F8010B11F801CBB0EBAE
:102180000C00F3D0704711F0030F14D1121F22BFBF
:1021900053F8040B51F804CB6045F7D0121D0AD256
:1021A00000BA9CFA8CFCB0EB0C0038BF6FF000005A
:1021B00088BF01207047521E22BF13F8010B11F88F
:1021C00001CBB0EB0C00F6D0521C08BF1046704794
:1021D00080B588B000208DF800001C22002101A8E5
:1021E000FFF74AFD01208DF804003F20ADF80600FE
:1021F00040F20110ADF808006846069001200790F3
:10220000002101A801F097F8002801D5FF2007E080
:102210009DF80000002802D09DF8000000E000209A
:1022200009B000BD2DE9F84FADF50E7D04000D009D
:1022300016001F00DDF860820DF124092000C0B2F5
:10224000012801D1022006E02000C0B2022801D1FD
:10225000102000E0002009A90844401C019003223E
:1022600000216846FFF708FD5FF0000A89F800408A
:102270001AF1010A2000C0B2012802D0022803D0BE
:1022800005E05FF0020B04E05FF0100B01E0472077
:102290003CE05A46D2B2290019F10100FFF7DCFCFC
:1022A0001BEB0A0A019806701AF1010A019847709F
:1022B0001AF1010A1C22002102A8FFF7DDFC01200F
:1022C0008DF808003F20ADF80A004FF48170ADF89A
:1022D0000C0009A805905046C0B2069068460790C9
:1022E00003200890002102A801F025F8002801D55C
:1022F000FF200BE09DF80000002802D09DF80000B0
:1023000004E0BDF80100A8F8000000200DF50F7DE5
:10231000BDE8F08F2DE9FD4FADF50E7D0E009D9CC3
:102320009E9D9F9F0DF120083000C0B2012801D171
:10233000022006E03000C0B2022801D1102000E0E7
:10234000002008A9084410F103090322002168466F
:10235000FFF792FC5FF0000ABDF83802A8F8000011
:102360001AF1020A88F802601AF1010A3000C0B2BC
:10237000012802D0022803D005E05FF0020B04E040
:102380005FF0100B01E0472053E05A46D2B28F991C
:1023900018F10300FFF760FC1BEB0A0ABDF84002CE
:1023A000A9F800001AF1020A9DF8680289F80200F3
:1023B0001AF1010A9DF86C0289F803001AF1010A6A
:1023C0009DF8700289F804001AF1010A89F80540A5
:1023D0001AF1010A89F806501AF1010A1C2200219B
:1023E00001A8FFF749FC01208DF804003F20ADF85B
:1023F00006004FF48270ADF8080008A8049050461B
:10240000C0B205906846069003200790002101A8FD
:1024100000F091FF002801D5FF200AE09DF80000A0
:10242000002802D09DF8000003E0BDF801003880CC
:1024300000200DF5117DBDE8F08F2DE9F04FADF5D1
:102440000D7D04000D0016001F00DDF858820DF10F
:10245000200900208DF800005FF0000AA9F8004074
:102460001AF1020AA9F802501AF1020AA9F8046046
:102470001AF1020A89F806701AF1010A3800C0B28E
:10248000012802D0022803D005E05FF0020B04E02F
:102490005FF0100B01E0472032E05A46D2B24146CD
:1024A00019F10700FFF7D8FB1BEB0A0A1C220021D9
:1024B00001A8FFF7E1FB01208DF804003F20ADF8F3
:1024C00006004FF48B70ADF808000F20039008A8A9
:1024D00004905046C0B205906846069001200790CF
:1024E000002101A800F027FF002801D5FF2007E008
:1024F0009DF80000002802D09DF8000000E00020B8
:102500000DF50D7DBDE8F08F2DE9F043ADF50D7DA6
:1025100004000D0016001F000DF1200800208DF8AA
:1025200000005FF00009A8F8004019F10209A8F8BE
:10253000025019F10209A8F8046019F102093200E9
:1025400092B2390018F10600FFF786FB16EB090975
:102550001C22002101A8FFF78FFB01208DF8040049
:102560003F20ADF806004FF48E70ADF808000F2044
:10257000039008A804904846C0B2059068460690AB
:1025800001200790002101A800F0D5FE002801D508
:10259000FF2007E09DF80000002802D09DF8000011
:1025A00000E000200DF50D7DBDE8F0832DE9F0433E
:1025B000ADF50D7D04000D0016001F000DF1200883
:1025C00000208DF800005FF00009A8F8004019F124
:1025D0000209A8F8025019F10209A8F8046019F1DB
:1025E0000209320092B2390018F10600FFF734FBFD
:1025F00016EB09091C22002101A8FFF73DFB012071
:102600008DF804003F20ADF8060040F22310ADF82D
:10261000080008A804904846C0B205906846069095
:1026200001200790002101A800F085FE002801D5B7
:10263000FF2007E09DF80000002802D09DF8000070
:1026400000E000200DF50D7DBDE8F0832DE9F84791
:10265000ADF50D7D04000D0016001F00DDF8588259
:102660000DF1200900208DF800005FF0000AA9F8A4
:1026700000401AF1020AA9F802501AF1020A89F878
:1026800004601AF1010AA9F805701AF1020A3A0069
:1026900092B2414619F10700FFF7DEFA17EB0A0A7A
:1026A0001C22002101A8FFF7E7FA01208DF80400A1
:1026B0003F20ADF8060040F22F10ADF8080008A842
:1026C00004905046C0B205906846069001200790DD
:1026D000002101A800F02FFE002801D5FF2007E00F
:1026E0009DF80000002802D09DF8000000E00020C6
:1026F0000DF50E7DBDE8F0872DE9F04FADF50F7DAE
:1027000004000D0016001F00DDF86082DDF8649201
:10271000DDF868A20DF1280B0722002101A8FFF7C0
:10272000ABFA00208BF80040401C8BF80150401C95
:102730008BF80260401C8BF80370401C8DF8000081
:102740001C22002103A8FFF797FA01208DF80C0046
:102750003F20ADF80E008A20ADF810000AA80690C0
:102760009DF80000079001A808900720099000211B
:1027700003A800F0E0FD002801D5FF2013E09DF83C
:102780000400002802D09DF804000CE0BDF805000C
:10279000A8F80000BDF80700A9F80000BDF809007E
:1027A000AAF8000000200DF50F7DBDE8F08FF0B510
:1027B000ADF50D7D04000D0008AE00208DF8000081
:1027C00000273480BF1CB5707F1C1C22002101A88B
:1027D000FFF752FA01208DF804003F20ADF8060003
:1027E0009320ADF808000F20039008A8049038004B
:1027F000C0B205906846069001200790002101A80C
:1028000000F099FD002801D5FF2007E09DF80000A9
:10281000002802D09DF8000000E000200DF50D7D9D
:10282000F0BD2DE9F841ADF50D7D04000D00160059
:1028300008AF00208DF800005FF000083C7018F130
:1028400001087D7018F1010806223100B81CFFF75D
:1028500003FA18F106081C22002101A8FFF70CFA60
:1028600001208DF804003F20ADF806009C20ADF853
:1028700008000F20039008A804904046C0B20590BD
:102880006846069001200790002101A800F053FD42
:10289000002801D5FF2007E09DF80000002802D0A5
:1028A0009DF8000000E000200DF50E7DBDE8F081F0
:1028B00078B5ADF50D7D040008AD00208DF8000061
:1028C00000262C70761C1C22002101A8FFF7D4F9E9
:1028D00001208DF804003F20ADF806009D20ADF8E2
:1028E00008000F20039008A804903000C0B20590A3
:1028F0006846069001200790002101A800F01BFD0A
:10290000002801D5FF2007E09DF80000002802D034
:102910009DF8000000E000200DF50E7D70BD2DE952
:10292000FF4FADF50D7D9DF97C92A09CA19DA29ECF
:10293000A39FDDF890820DF1200A00208DF80000A1
:102940005FF0000B9DF834028AF800001BF1010BC8
:102950009DF838028AF801001BF1010BBDF83C021A
:10296000AAF802001BF1020B9098CAF804001BF1B0
:10297000040B9A98CAF808001BF1040B9DF86C022E
:102980008AF80C001BF1010B9DF870028AF80D000B
:102990001BF1010B06229D991AF10E00FFF75CF95D
:1029A0001BF1060B9DF878028AF814001BF1010B4D
:1029B0008AF815901BF1010B8AF816401BF1010BE8
:1029C0008AF817501BF1010B8AF818601BF1010BF4
:1029D0008AF819701BF1010B8AF81A801BF1010BA0
:1029E0001C22002101A8FFF747F901208DF80400FF
:1029F0003F20ADF80600AB20ADF8080008A8049011
:102A00005846C0B205906846069001200790002104
:102A100001A800F090FC002801D5FF2007E09DF8F8
:102A20000000002802D09DF8000000E000200DF515
:102A3000117DBDE8F08F2DE9F841ADF50D7D040065
:102A40000D00160008AF00208DF8000000213C703A
:102A5000491C7D70491C00202A00D2B2904218DA2D
:102A6000062202FB00F3F35C07EB800C8CF80230CB
:102A700002FB00F333445B8807EB800CACF80330B7
:102A800002FB00F23244127907EB80035A71401CBA
:102A9000E2E72800C0B2800050FA81F81C22002131
:102AA00001A8FFF7E9F801208DF804003F20ADF8F8
:102AB0000600AC20ADF8080008A804904046C0B25B
:102AC00005906846069001200790002101A800F0BB
:102AD00032FC002801D5FF2007E09DF80000002807
:102AE00002D09DF8000000E000200DF50E7DBDE84D
:102AF000F0812DE9F043ADF50D7D04000D001600C9
:102B00001F000DF1200800208DF800005FF0000983
:102B100088F8004019F1010988F8015019F10109FC
:102B200088F8026019F101093200D2B2390018F1B7
:102B30000300FFF791F816EB09091C22002101A8F8
:102B4000FFF79AF801208DF804003F20ADF8060049
:102B5000AD20ADF8080008A804904846C0B2059022
:102B60006846069001200790002101A800F0E3FBD1
:102B7000002801D5FF2007E09DF80000002802D0C2
:102B80009DF8000000E000200DF50D7DBDE8F0830C
:102B90002DE9F04FADF50D7D06000F0090469946EA
:102BA000969C979D0DF1200A00208DF800005FF0A3
:102BB000000B8AF800601BF1010B8AF801701BF111
:102BC000010B8AF802801BF1010B8AF803901BF1BC
:102BD000010BAAF804401BF1020BAAF806501BF1E6
:102BE000020B1C22002101A8FFF746F801208DF8F6
:102BF00004003F20ADF80600AF20ADF8080008A89B
:102C000004905846C0B2059068460690012007908F
:102C1000002101A800F08FFB002801D5FF2007E06C
:102C20009DF80000002802D09DF8000000E0002080
:102C30000DF50D7DBDE8F08F2DE9F04FADF50D7D63
:102C40000700884691469A46969C979D989E0DF15E
:102C5000200B00208DF8000000208BF80070401C35
:102C6000ABF80180801CABF80390801CABF805A08A
:102C7000801CABF80740801CABF80950801CABF8F7
:102C80000B60801C8DF801001C22002101A8FEF7BA
:102C9000F3FF01208DF804003F20ADF80600B020BE
:102CA000ADF8080008A804909DF80100059068465A
:102CB000069001200790002101A800F03CFB0028AD
:102CC00001D5FF2007E09DF80000002802D09DF804
:102CD000000000E000200DF50D7DBDE8F08F2DE92E
:102CE000F043ADF50D7D04000D0016001F000DF141
:102CF000200800208DF800005FF0000988F80040EF
:102D000019F1010988F8015019F10109A8F80260C8
:102D100019F10209A8F8047019F102091C22002116
:102D200001A8FEF7A9FF01208DF804003F20ADF8AF
:102D30000600B120ADF8080008A804904846C0B2CB
:102D400005906846069001200790002101A800F038
:102D5000F2FA002801D5FF2007E09DF800000028C6
:102D600002D09DF8000000E000200DF50D7DBDE8CB
:102D7000F08301002DE9F04192B00EA849491022DC
:102D800000F0C2F80AA84849102200F0BDF806A8D1
:102D90004649102200F0B8F8454C10220EA9200038
:102DA000FEF75AFF434D0095062301222100022021
:102DB000FFF738FA04002000C0B2002842D13E4F8D
:102DC00010220AA93800FEF747FF3C4E0596012065
:102DD0000490102003900020029000200190102009
:102DE000009014233A0002212888FFF793FA040088
:102DF0002000C0B2002825D1102206A93800FEF715
:102E00002BFFDFF8BC80CDF8148001200490102047
:102E1000039001200290002001900C2000901423C8
:102E20003A0002212888FFF775FA04002000C0B29A
:102E3000002807D1B8F8002031882248FFF702F9AE
:102E4000002003E02048FFF7FDF8472012B0BDE85E
:102E5000F081F8B504000E001500200080B218497A
:102E60000988491C88420AD100273000C0B2874235
:102E700014DAE95D0AA0FFF7E5F87F1CF5E720000A
:102E800080B20E490988891C884207D12878012818
:102E900004D10E48016851F480610160F1BD000069
:102EA0002563000070500008805000089050000812
:102EB00084080020CC08002094080020CE080020C0
:102EC000D0080020B44A0008EC4C000800000020A4
:102ED00004480068704703480168491C0160704756
:102EE00000000000BC08002062B38B0708D0521E0F
:102EF00011F8013B00F8013B00F024808B07F6D16C
:102F0000830740F0208000BF103A07D330B4B1E807
:102F10003810103AA0E83810F9D230BC530724BF5B
:102F2000B1E80810A0E8081044BF51F8043B40F88D
:102F3000043BD20724BF31F8022B20F8022B44BFF8
:102F40000B7803707047121F17D35B0009D151F83B
:102F5000043B20F8023B1B0C121F20F8023BF6D268
:102F60000BE051F8043B00F8013B1B0A20F8023B40
:102F70001B0C121F00F8013BF3D238BF121D521E6A
:102F800024BF11F8013B00F8013BF8D8704738B571
:102F900004000D006560FFF79BFF206031BD10B598
:102FA0000400FFF795FF2168411A491C60688842B8
:102FB00001D2012000E00020C0B210BD010049B2E2
:102FC00000290AD4012210F01F018A40DFF84015C1
:102FD00003005BB25B0941F823207047010049B24E
:102FE00000290ED4012210F01F018A40DFF82415B9
:102FF00003005BB25B0941F82320BFF34F8FBFF39F
:103000006F8F704700690840884201D1012000E0BD
:1030100000207047DFF800150860704770B5002584
:10302000DFF8F864300001F0D4F9DFF8F40401F0BF
:10303000D0F900242000C0B205280CDADFF8E4142F
:103040002200D2B24FF4867042431144300001F0A6
:10305000D2F9641CEEE700F0EFFA2800C0B270BDB0
:1030600030B4010011F10802107804280CD1541C6E
:103070006378180080B291F80851ED1EA84201D083
:10308000022013E0002011E0107882280DD1541C9A
:10309000B4F80130180080B291F808512D1FA842F1
:1030A00001D0022002E0002000E0012030BC704787
:1030B0002DE9FC47002000900620FFF78FFFDFF886
:1030C0006054280001F088F906003000C0B20028E2
:1030D00071D16946280001F09CF90620FFF76EFFC8
:1030E000009810F108073878042802D03878822830
:1030F00054D117F101083878042802D118F10209D7
:1031000002E0781C10F1030998F800003E2816D15F
:10311000CA4600200400192C40D2DFF80C149AF89B
:10312000000031F8342080B2904206D11AF101003B
:1031300001EBC4014968884730E0641CEBE798F86C
:103140000000FF2815D1CA46002004002E2C25D2ED
:10315000DFF8D813BAF8000031F83420904206D1D5
:103160001AF1020001EBC4014968884716E0641CAB
:10317000ECE700200400082C10D2DFF8B41398F814
:10318000000031F8342080B2904205D1484601EB6E
:10319000C4014968884701E0641CECE70620FFF79A
:1031A0001DFF0099DFF8740301F025F9280001F0F4
:1031B00013F9060089E700F00BF80620FFF7FEFE82
:1031C000BDE8F38780B5DFF8580301F005F902BDCB
:1031D00038B5002000900120FFF71CFF01215FF0AF
:1031E0009040FFF70FFF00282AD0CC4D280001F0B7
:1031F000F3F8002824D16946280001F00AF94FF4B9
:1032000080710098083000F07EFC04002000C0B2FD
:10321000002811D0009880F808410098FFF720FF9F
:10322000002804D10099BE4801F0E5F808E00099B3
:10323000280001F0D9F803E00099280001F0D4F843
:1032400031BDF8B504000D0016001F003B00DBB2D5
:103250009BB23200D2B292B22900200000F0A8FD49
:10326000F1BD2DE9F84384B005000E001700984623
:103270000C9C2000C0B2002814D1B005800D50EA8B
:103280008520ADF8040038008DF8060001208DF887
:1032900008005FF00409032201A90DF10900FEF7FF
:1032A000DBFC12E0B005800D50EA8520ADF800008F
:1032B000ADF8027081208DF808005FF00509042246
:1032C00069460DF10900FEF7C7FC3B00DBB24A4638
:1032D000D2B2414602A8FFF7B4FF05B0BDE8F083C3
:1032E00038B504000D00280001F076F8002808D158
:1032F0006946280001F09CF80099200001F074F85C
:10330000F1E731BD1CB50620FFF768FE834C2000B5
:1033100001F09DF802280ADA6946814801F079F83F
:103320000099200001F067F8FFF752FFEEE7062052
:10333000FFF744FE13BD2DE9F04F89B005000E00E4
:10334000AF88BF05BF0D688857EA802779480068B5
:103350000A21B0FBF1F40020019005A801F039F832
:10336000FFF7D0FF28780090EB682869020092B23E
:10337000A9886888FFF775FF3000C0B2002801D027
:103380000020C0E0002C01D101200400210007A88A
:10339000FFF7FDFD07A8FFF702FE002840F096802A
:1033A000FFF710FF0028F5D10620FFF717FEDFF822
:1033B000708101A9404601F02CF801980830039073
:1033C00003980078042862D10398401C0490019867
:1033D0000B308146019890F80801C01E824604987F
:1033E00000780E2823D00F2804D010284ED03E2875
:1033F00035D04CE0CDF8089002984088390089B269
:10340000884263D1A8680F2804D002980078002869
:103410005CD13CE0A869824501DA504600E0A86929
:10342000A861AA6949466869FEF716FC5FE0CB46C9
:10343000BBF80100390089B2884247D119F103096C
:10344000BAF1030AA869824501DA504600E0A8698A
:10345000A861AA6949466869FEF7FEFB47E0CDF816
:10346000009000980078A968884210D1BAF1010A4A
:10347000A869824501DA504600E0A869A861AA69F6
:103480000098411C6869FEF7E7FB30E01EE0DFF8BA
:103490008CB0584600F0A0FF00280BD0404600F04A
:1034A0009BFF002806D00199584600F0A4FF002099
:1034B000019005E0019905A800F09DFF0020019012
:1034C000FFF786FE0620FFF779FD63E701980028E5
:1034D00003D00199114800F087FF05A91048FFF7B4
:1034E000FFFE0620FFF76AFD5FF0FF300BE0019959
:1034F0000A4800F079FF05A94046FFF7F1FE0620D3
:10350000FFF75CFD002009B0BDE8F08F000000006F
:1035100000E100E080E100E014040140A408002084
:10352000AC08002028000020D0470008784500089B
:10353000F84A00081C51000881B04D490A6802434E
:103540000A60096801400091009901B0704730B4E9
:10355000046891FAA1F3B3FA83F30325DBB25B00AD
:103560009D40AC4391FAA1F3B3FA83F3DBB25B0065
:1035700012FA03F31C43046030BC704710B4446873
:103580008C4302FB01F31C43446010BC704730B411
:10359000846891FAA1F3B3FA83F30325DBB25B00ED
:1035A0009D40AC4391FAA1F3B3FA83F3DBB25B0025
:1035B00012FA03F31C43846030BC704730B4C46813
:1035C00091FAA1F3B3FA83F30325DBB25B009D40CC
:1035D000AC4391FAA1F3B3FA83F3DBB25B0012FAC6
:1035E00003F31C43C46030BC704781617047816243
:1035F000704780B50120FFF79FFF01224FF48071D3
:103600005FF09040FFF7A3FF00224FF480715FF05E
:103610009040FFF7B3FF03224FF480715FF09040BA
:10362000FFF7B5FF00224FF480715FF09040FFF785
:10363000C5FF00F015F801BD80B54FF480715FF053
:103640009040FFF7D4FF052000F0F4FB4FF48071A9
:103650005FF09040FFF7C9FF962000F0EBFB01BD43
:1036600080B54FF480715FF09040FFF7C0FF01BD5F
:103670004C100240010049B200290AD4012210F086
:103680001F018A40DFF8641703005BB25B0941F851
:1036900023207047010049B200290ED4012210F006
:1036A0001F018A40DFF8481703005BB25B0941F84D
:1036B0002320BFF34F8FBFF36F8F704710B402000A
:1036C00052B2002A06D40A01DFF82837040064B297
:1036D0001A5509E00A01DFF82037040064B214F03B
:1036E0000F04234403F8042C10BC704781B0DFF8AA
:1036F0000C170A6802430A600968014000910099AA
:1037000001B0704781B0DFF8F8160A6802430A601A
:10371000096801400091009901B0704781B0DFF85D
:10372000E4160A6802430A600968014000910099A2
:1037300001B0704710B4DFF8D02601F0FF0352F853
:10374000233033EA11430C00240C94FAA4F4B4FAA5
:1037500084F410FA04F4234301F0FF0442F8243007
:1037600010BC704730B4046891FAA1F3B3FA83F344
:103770000325DBB25B009D40AC4391FAA1F3B3FAA1
:1037800083F3DBB25B0012FA03F31C43046030BC2A
:10379000704730B4846891FAA1F3B3FA83F3032538
:1037A000DBB25B009D40AC4391FAA1F3B3FA83F323
:1037B000DBB25B0012FA03F31C43846030BC704739
:1037C00030B4C46891FAA1F3B3FA83F30325DBB2F2
:1037D0005B009D40AC4391FAA1F3B3FA83F3DBB2F3
:1037E0005B0012FA03F31C43C46030BC704730B472
:1037F000046A91FAA1F3B3FA83F30F25DBB29B00BD
:103800009D40AC4391FAA1F3B3FA83F3DBB29B0082
:1038100012FA03F31C43046230BC7047006908408D
:10382000884201D1012000E000207047816170478B
:1038300081627047DFF8D4150A6802430A60704756
:10384000DFF8CC150A6802430A607047016851F03E
:10385000400101607047026832F482720A430260DC
:1038600070470268520852000A43026070470268BB
:1038700032F002020A4302607047026832F03802F6
:103880000A4302607047026832F080020A43026015
:103890007047026832F444420A430260704742684B
:1038A00032F470620A4342607047426832F48052D8
:1038B0000A4342607047026832F400720A430260B1
:1038C000426832F0040252EA114242607047806856
:1038D00010F0010070478068400810F00100704748
:1038E000C068C0B2704701737047016851F00101B0
:1038F00001607047016849084900016070478162B2
:103900007047806A7047C1627047C16851F0010119
:10391000C1607047416951F001014161704710B5C4
:103920000120FFF7EFFEDFF8EC44206842F210714F
:10393000884206D3206842F21071B0FBF1F1491EB3
:1039400000E000215FF08040FFF7D9FF5FF080408A
:10395000FFF7D7FF2168401CB1FBF0F00A280BD31A
:103960005FF08040FFF7CDFF2268401C0A214843EA
:10397000B2FBF0F1491E00E000215FF08040FFF74C
:10398000C2FF5FF08040FFF7C0FF00211C20FFF75F
:1039900095FE1C20FFF76EFE10BD10B50220FFF74C
:1039A000A5FE0120FFF7A2FE0120FFF79FFE0120E8
:1039B000FFF79CFE0120FFF799FEDFF85C4402222E
:1039C00008212000FFF7CEFE052208212000FFF786
:1039D0000EFF022208212000FFF7DBFE0222082151
:1039E0002000FFF7EDFE022240215FF09040FFF73C
:1039F000B9FE052240215FF09040FFF7F8FE022259
:103A000040215FF09040FFF7C4FE022240215FF0AA
:103A10009040FFF7D5FE022280215FF09040FFF733
:103A2000A1FE052280215FF09040FFF7E0FE022218
:103A300080215FF09040FFF7ACFE022280215FF012
:103A40009040FFF7BDFE012202215FF09040FFF79A
:103A500089FE02215FF09040FFF7E8FE002201217D
:103A60005FF09040FFF77EFE022201215FF0904060
:103A7000FFF7A6FE0120FFF751FE5FF47021002042
:103A8000FFF758FE0120FFF7D5FE0120FFF7D8FE13
:103A90000620FFF7EFFD04210620FFF70FFE4FF48D
:103AA0008050FFF73BFEDFF8744310212000FFF742
:103AB000E4FE00212000FFF7ECFE01212000FFF7CB
:103AC000D0FE02212000FFF7D2FE00212000FFF7E8
:103AD000DAFE4FF4E0612000FFF7E1FE4FF40071E1
:103AE0002000FFF7E8FE4FF482712000FFF7B3FEDD
:103AF0004FF480512000FFF7D8FE2000FFF7A6FE0C
:103B0000FFF70DFF10BD2DE9F84185B004000D0051
:103B100003A8C349D1E90023C0E9002301215FF0D4
:103B20009040FFF77BFE012801D0002084E00620B2
:103B3000FFF7B0FD02215FF09040FFF779FE00260D
:103B40003000C0B205281ADAB44F3800FFF7C3FEC0
:103B50000028F9D003A83100C9B2415C3800FFF752
:103B6000C2FE3800FFF7B3FE0028FAD03800FFF796
:103B7000B7FE01A93200D2B28854761CE0E79DF866
:103B800008009DF8076056EA0026300080B2002841
:103B900026D02800310080B289B2884200D22E009F
:103BA0005FF000084046310080B289B2884217D2E7
:103BB0009A4F3800FFF78FFE0028F9D00021380017
:103BC000FFF791FE3800FFF782FE0028FAD0380098
:103BD000FFF786FE414689B2605418F10108E1E71B
:103BE0000020009000980F2803DA0098401C0090F5
:103BF000F8E78C4F002038605FF08040FFF78AFEC6
:103C00005FF08040FFF771FE38680A2806D2012174
:103C10005FF09040FFF702FE0028F5D15FF0804092
:103C2000FFF768FE0620FFF725FD02215FF09040B8
:103C3000FFF7FCFD3000C0B206B0BDE8F0812DE911
:103C4000F84187B004000D0003A87749D1E90023AB
:103C5000C0E900230522002101A800F001FC062094
:103C6000FFF718FD714800680A21B0FBF1F105A8C3
:103C7000FFF78DF902215FF09040FFF7D9FD012198
:103C80005FF09040FFF7CAFD01280ED005A8FFF7AE
:103C900086F90028F3D002215FF09040FFF7C6FDBF
:103CA0000620FFF7E7FC01207FE000263000C0B2CD
:103CB00005281ADA594F3800FFF70DFE0028F9D011
:103CC00003A83100C9B2415C3800FFF70CFE380090
:103CD000FFF7FDFD0028FAD03800FFF701FE01A92B
:103CE0003200D2B28854761CE0E701A88178467889
:103CF00056EA0126300080B2290089B2491E884266
:103D000009DA02215FF09040FFF790FD0620FFF7EF
:103D1000B1FC012049E05FF000084046290080B274
:103D200089B2884216D23D4F3800FFF7D4FD0028F3
:103D3000F9D0404680B2215C3800FFF7D4FD38004E
:103D4000FFF7C5FD0028FAD03800FFF7C9FD18F1CC
:103D50000108E2E70020009000980F2803DA00989D
:103D6000401C0090F8E72F4F002038605FF0804043
:103D7000FFF7D0FD5FF08040FFF7B7FD38680A28F5
:103D800006D201215FF09040FFF748FD0028F5D1F1
:103D90005FF08040FFF7AEFD0620FFF76BFC0221CD
:103DA0005FF09040FFF742FD002008B0BDE8F081D1
:103DB0002DE9F04104000D0016001F00DFF87080AF
:103DC000320092B221004046FDF746FF3A0092B21F
:103DD0002900300080B24044FDF73EFFBE1931009B
:103DE00089B24046FFF72BFFBDE8F08100E100E01B
:103DF00080E100E000E400E018ED00E04C1002403B
:103E000058100240601002400800014000040140C8
:103E10000804014020000020000400480030014058
:103E2000F4500008C4080020FC5000081C51000891
:103E30006407002081B00A4A116800910100009BCC
:103E400011F1010F00D0491C002904D01368DB03D5
:103E5000FAD5491EF8E701B070470249086070477B
:103E600010E000E02000002062F30F2262F31F4206
:103E7000401810F0030308D0C91A1FD3DB0748BF4E
:103E800000F8012D28BF20F8022D130030B414468D
:103E90001546103928BF20E93C00FAD8490728BF49
:103EA00020E90C0048BF40F8042D890028BF20F805
:103EB000022D48BF00F8012D30BC7047C91818BF4B
:103EC00000F8012DCB0728BF00F8012D7047000036
:103ED0002DE9F84F94B0174602910DF12E011E9A6C
:103EE000DFF8A08312914A700021089182464FF0BA
:103EF000FF311D460CAE13910CE025280FD017F8AA
:103F0000011B0298D0470028029000F0B980089861
:103F1000401C089038780028EFD10898B4E10020C0
:103F20000021002205900691079201E041F0010175
:103F300017F8010F2028F9D023280CD02B2804D003
:103F40002D2805D0302809D00BE041F00201EFE721
:103F500041F00401ECE741F00801E9E741F010010C
:103F6000E6E72A280CD12A6852F8040B2A600028B8
:103F70000A9003D540420A9041F004017F1C10E0F2
:103F80000A9209E00A98404505DA00EB800302EB4B
:103F90004302303A0A927F1C3A78A2F130000A2894
:103FA000F0D338782E2802D01398099021E017F822
:103FB000010F2A2806D1286850F8042B286009929E
:103FC0007F1C16E02D280CBF7F1C002000220992C8
:103FD0000AE040B9099A424505DA02EB820403EB94
:103FE0004403303B09937F1C3B78A3F130020A2A3B
:103FF000EFD3ADF82C100FF2B430397800F03AFA64
:1040000008B117F8010B8DF82E009DF82E006828D6
:1040100004BF3978682903D162208DF82E007F1CF7
:104020000CA8049017F8012B252A114613D0582A02
:104030004BD0632A00F0A880642A18BF692A6FD089
:104040006F2A42D0702A37D0732A07D0752A18BF3A
:10405000782A3AD0A1E0012205929BE0286850F826
:10406000044B2860039494B91299487858B10FF220
:10407000443000F00BFA4FF0FF34241A00F0978020
:104080004FF0FF3000E10FF2483003908FE0DDF891
:104090002490B9F1000F04D5204600F017FA044629
:1040A00008E04A460021204600F02CFA002814BF00
:1040B000041B4C4606947AE0286850F8041B2860DC
:1040C00001910CA9039178215AE09DF82E006228F5
:1040D00002D0682806D00BE0296851F8040B29604B
:1040E000C0B209E0296851F8040B296080B203E0EE
:1040F000296851F8040B296001909DF82C000107F4
:1041000039D50198002836D042F02001782932D1E3
:10411000059830213154401C431C059332542AE049
:104120009DF82E00622802D0682806D00BE029688E
:1041300051F8040B296040B209E0296851F8040BDA
:10414000296000B203E0296851F8040B29600028B7
:10415000019002D505982D210AE0BDF82C008107B9
:1041600002D505982B2103E0C00704D5059820212E
:104170003154401C05900CA8059901440391114647
:1041800001A800F084F812E001200590286850F89A
:10419000041B28608DF8301009E0012105912523CA
:1041A00011008DF8303002D00220059072700A980C
:1041B0000599079A401A0699801AA0EB01099DF803
:1041C0002C00410711D42020B9F1000F8DF8000018
:1041D0000BDD4C4601236A4601A9504600F0CEF89B
:1041E00000287FF44DAF641EF4D1059C0DF1300B17
:1041F00064B11BF8012B01A9504600F0AFF800286C
:1042000001D4641EF5D100287FF43AAF079C30201A
:10421000002C8DF800000ADD01236A4601A95046F2
:1042200000F0ACF800287FF42BAF641EF4D1DDF869
:104230000CB0069C64B11BF8012B01A9504600F09C
:104240008DF8002801D4641EF5D100287FF418AF42
:104250009DF82C0041077FF55DAE2020B9F1000FDD
:104260008DF800007FF756AE4C4601236A4601A93F
:10427000504600F083F800287FF402AF641EF4D1AA
:1042800048E60000CBCCCC0C15B0BDE8F08FF0B404
:1042900002466F29D46808BF082605D041F02000E7
:1042A000782814BF0A26102618251368642918BF19
:1042B0006929184602D1002B48BF404258B9136AF9
:1042C0004BB9082E26D192F82800010722D53020BC
:1042D0001725E0751EE0B0FBF6F706FB170030303F
:1042E0006D1EC3B23A2BA4BFA1F15103181860553B
:1042F000380003D093686719BB42ECD3082E09D16C
:1043000092F82800010705D5605D302802D06D1EA7
:1043100030206055C5F11803106A5361611983425A
:10432000916008DA118DC31A4FF6EF700140936166
:104330001185F0BC704700280ED592F8280000F0D7
:104340001400102808D1546A11699069641A241A5B
:10435000E31A012BA8BF9361F0BC704710B5034668
:104360000C46114660689847606020B1E069401CC7
:10437000E061002010BD4FF0FF3010BDF8B50546DC
:104380000E4617461C4600205CB117F8011B7068EA
:10439000A847706030B1F069401CF0610020641ED5
:1043A000F3D1F2BD4FF0FF30F2BD0000686C747ABB
:1043B0004C0000007072696E74665F733A2062612F
:1043C0006420257320617267756D656E740000004E
:1043D00000000060406070470168814201D1012007
:1043E00000E00020C0B2704702680A6048600160C7
:1043F0000A6851607047086042684A6041604A68D4
:10440000116070470168426811604168026851603C
:10441000704738B504000D00206828602068FFF759
:10442000F1FF00202968086000202968486031BD3C
:1044300038B504000D00606828606068FFF7E2FF8F
:1044400000202968086000202968486031BD01000B
:1044500000200A688A4202D0401C1268FAE77047BE
:1044600010B5044610460A4601462046FFF7FCFCFC
:10447000204610BDC9B202788A421AB11CBF10F89A
:10448000012FF9E718BF00207047000080B500B980
:1044900006A005490B681BB122220021984701E0C4
:1044A00000F05CF8222002BDC8080020636F6E7324
:1044B000747261696E742068616E646C65723A2012
:1044C000626164206D6573736167650000F10103CB
:1044D000810704D010F8011B820781B1FAD102686C
:1044E000A2F10131914311F0803104BF50F8042F43
:1044F000F6E709BAB1FA81F100EBD100401CC01A0D
:1045000070470000C9B2830706D0521E22D310F8AC
:10451000013B9942F7D11FE0083A13D302F104029C
:1045200041EA012141EA014150F8043B121F21BF39
:104530004B40A3F1013C2CEA030C1CF0803FF3D06C
:10454000C9B2001F083210F8013B521E28BF91EA81
:10455000030FF8D818BF0120401E7047012000F05B
:1045600001B8000080B5AFF30080024A11001820A6
:10457000ABBEFBE726000200010000008702000836
:10458000020000009B02000803000000AF020008C8
:104590000400000013030008050000002D030008BC
:1045A0000600000047030008070000005F03000842
:1045B00000040000730300080104000083030008E6
:1045C000020400009B03000804040000AF0300087D
:1045D00005040000BF03000807040000CF03000823
:1045E00008040000E903000809040000FD030008B6
:1045F0000A04000015040008000800002B0400084D
:1046000001080000410400080208000059040008E5
:10461000030800008B04000804080000C30400081D
:1046200005080000D904000806080000F30400088B
:10463000070800000D0500080A0800002D05000805
:10464000010C00004D050008020C00006705000881
:10465000030C00007B050008040C00009105000815
:10466000050C0000AD050008060C0000050600085A
:10467000070C000021060008080C0000390600089D
:10468000090C0000510600080A0C00006906000829
:104690000C0C0000850600080D0C0000A5060008A3
:1046A0000E0C0000B90600080F0C0000D30600082D
:1046B000100C0000ED060008110C000003070008B4
:1046C000120C00001F070008160C00003907000834
:1046D000170C00004F0700081C0C000063070008BF
:1046E0001D0C000079070008364909680140814225
:1046F00001D1012000E00020704732490860704776
:104700007FF0010101617047006910F001007047FE
:10471000C069C00810F001007047C069400910F07E
:1047200001007047082101627047808CC0B2704759
:104730007047FEE770477047704780B5FEF7CBFBC8
:1047400001BD80B50120FFF7CFFF002804D0012074
:10475000FFF7D3FFFEF73CFD01BD80B55FF0804061
:10476000FFF7D2FF012807D15FF08040FFF7C8FFB5
:1047700015480168491C016001BD1CB500208DF879
:104780000000124C2000FFF7C8FF012808D12000CC
:10479000FFF7CBFF8DF8000001216846FDF7E7FB2E
:1047A0002000FFF7B5FF01280BD12000FFF7BAFF6B
:1047B0002000FFF7BAFF8DF8000001216846FDF7E1
:1047C000D6FB13BD14040140C4080020004400407F
:1047D000010000009F07000802000000D907000840
:1047E000030000009908000804000000BF0800084A
:1047F00005000000D908000807000000F1080008C3
:10480000080000000F090008090000002509000841
:104810000A0000003B0900080B00000081090008A5
:104820000C000000390A00080D000000550A0008BD
:104830000E000000B10B00080F000000DF0B0008A5
:10484000100000000B0C0008110000001F0C0008F5
:10485000120000002F0C000813000000490C000893
:1048600014000000610C000815000000770C00081F
:1048700016000000E90C0008170000005B0D00089E
:1048800018000000730D000820000000B10D0008A2
:1048900021000000C90D00081048016851F47001A2
:1048A00001600F49086850F00100086000200D4ABF
:1048B00010600A680C4802400A604FF480500B4AAE
:1048C0001060086830F48020086000200849086003
:1048D0005FF00060074908607047000088ED00E065
:1048E0000010024008100240FFFFF6EA0C100240E0
:1048F0001810024008ED00E04572726F7220696E78
:10490000206163695F676174745F636C745F64697D
:1049100073635F636861725F62795F75756964284C
:104920002920666F72205458206368617261637435
:10493000657269737469633A20307825303478720F
:104940000A0000004572726F7220696E206163690F
:104950005F676174745F636C745F646973635F63E2
:104960006861725F62795F75756964282920666F76
:104970007220525820636861726163746572697352
:104980007469633A20307825303478720A00000068
:104990006163695F676174745F636C745F6469739A
:1049A000635F726561645F636861725F62795F759E
:1049B0007569645F726573705F6576656E742C20CF
:1049C000436F6E6E656374696F6E2048616E646CD0
:1049D000653A203078253034580A0000426C7565FD
:1049E0004E52472D4C5020424C4520536572696110
:1049F0006C506F7274204D61737465722026205361
:104A00006C617665204170706C69636174696F6E6A
:104A1000202876657273696F6E3A202573290D0A16
:104A2000000000006163695F676174745F636C74A8
:104A30005F646973635F636861725F62795F7575F4
:104A40006964282920666F72205458206368617257
:104A500061637465726973746963202D2D3E205300
:104A60005543434553530D0A000000006163695FDD
:104A7000676174745F636C745F646973635F6368B8
:104A800061725F62795F75756964282920666F724B
:104A9000205258206368617261637465726973742F
:104AA0006963202D2D3E20535543434553530D0A32
:104AB0000000000053657269616C506F727420537E
:104AC0006572766963652061646465642E0A545872
:104AD00020436861722048616E646C652025303423
:104AE000582C20525820436861722048616E646CD3
:104AF0006520253034580A000500000089010008AF
:104B000008000000A30100080C000000BD0100081F
:104B100010000000DD01000813000000F101000892
:104B20001A00000047020008300000005B02000885
:104B300057000000730200086163695F6761705F7E
:104B40007365745F6164766572746973696E675FBB
:104B5000656E61626C652844495341424C45292089
:104B60006661696C65643A203078253032780A00D5
:104B70006163695F6761705F7365745F61647665C7
:104B800072746973696E675F656E61626C652845F2
:104B90004E41424C4529206661696C65643A20307B
:104BA00078253032780A00004572726F7220696E83
:104BB00020426C75654E52475F537461636B5F4969
:104BC0006E697469616C697A6174696F6E282920F5
:104BD0003078253032780D0A000000006163695F8B
:104BE0006761705F7465726D696E6174655F67613E
:104BF000705F70726F6365647572652829206661E5
:104C0000696C65643A203078253032780A000000FB
:104C100053657269616C506F72745F446576696345
:104C200065496E697428292D2D3E204661696C65A1
:104C300064203078253032780D0A0000424C45203F
:104C4000537461636B20496E697469616C697A653C
:104C50006420262044657669636520436F6E66692B
:104C600067757265640D0A006163695F6761705FF3
:104C70007365745F6164766572746973696E675F8A
:104C8000656E61626C652844495341424C45292058
:104C90004F4B0A006163695F6761705F63726561B2
:104CA00074655F636F6E6E656374696F6E2829202B
:104CB0006661696C65643A203078253032780A0084
:104CC0006163695F6761705F7365745F6164766576
:104CD00072746973696E675F656E61626C652845A1
:104CE0004E41424C4529204F4B0A00004572726FDD
:104CF00072207768696C6520616464696E6720530F
:104D0000657269616C506F72742073657276696345
:104D1000652E0A006163695F6761705F7374617219
:104D2000745F70726F6365647572652829206661AF
:104D3000696C65643A20253032580A006163695F06
:104D40006761705F7465726D696E6174655F6761DC
:104D5000705F70726F6365647572652829204F4BB0
:104D60000A0000004572726F72207768696C6520D6
:104D7000656E61626C696E67206E6F7469666963E7
:104D80006174696F6E732E0D0A000000436F6E6EC2
:104D9000656374696F6E20436F6D706C6574652018
:104DA00077697468207065657220616464726573E8
:104DB000733A200010B5074979441831064C7C44F9
:104DC000163404E00A68081D114488470146A142D0
:104DD000F8D110BDC0000000E0000000000100009C
:104DE0000953506F72745F4C505F4D5302010610AF
:104DF0000953506F72745F4C505F4D5300093D0072
:104E0000FF0000006863695F6C655F72616E642813
:104E1000292063616C6C206661696C65643A20309E
:104E200078253032780A00004572726F72207768F8
:104E3000696C6520616464696E6720736572766968
:104E400063653A203078253032780A00446973630C
:104E50006F6E6E656374696F6E2077697468207217
:104E60006561736F6E3A203078253032580D0A0034
:104E70004EF68851CEF20001086840F470000860D8
:104E8000BFF34F8FBFF36F8F4FF00070E1EE100A4A
:104E90007047000063BFFFFFB80800002800002033
:104EA0000000000073D1FFFF2800000030FFFFFF6B
:104EB000000000200000000053657474696E6720D4
:104EC00042445F41444452206661696C656420300D
:104ED00078253032780A000041647665727469730F
:104EE000696E6720636F6E66696775726174696F5A
:104EF0006E20253032580A00436F6E6E6563746908
:104F00006F6E20636F6E66696775726174696F6E2C
:104F100020253032580A00006163695F6761705F65
:104F20006372656174655F636F6E6E656374696FEC
:104F30006E2829204F4B0A0000F00DF8002801D000
:104F4000FFF738FFAFF300800020AFF30080FCF7DD
:104F5000C1FD00F002F80120704700F001B8000028
:104F600007463846FFF7FEFAFBE700004741545476
:104F70005F496E6974206661696C65643A203078B7
:104F8000253032780A0000004741505F496E69744D
:104F9000206661696C65643A203078253032780A81
:104FA0000000000053657420616476657274697353
:104FB000696E67206461746120253032580A0000F0
:104FC0005363616E20636F6E6669677572617469A1
:104FD0006F6E20253032580A000000006163695F5F
:104FE0006761705F73746172745F70726F63656420
:104FF000757265204F4B0A004465766963652046EB
:105000006F756E642077697468206164647265737B
:10501000733A2000545820436861722048616E64DE
:105020006C65203078253034580A000052582043EF
:105030006861722048616E646C6520307825303478
:10504000580A000038B504460D462846FCF7ACFF68
:10505000A84218BF0024204632BD00005075626C83
:10506000696320616464726573733A200000000014
:10507000669A0C200008969EE2119EB1E0F273D968
:10508000669A0C200008969EE2119EB1E1F273D957
:10509000669A0C200008969EE2119EB1E2F273D946
:1050A00044657669636520666F756E640D0A00005D
:1050B000669A0C200008969EE2119EB1E1F273D927
:1050C000669A0C200008969EE2119EB1E2F273D916
:1050D000014880470148004799480008E15000080E
:1050E000AFF30080FFF7C4FEFFF726FF312E302E0E
:1050F000300000000B000000000000000A0000006B
:1051000000000000000000E180020000253032585D
:105110002D000000253032580A000000E80300008E
:10512000FFF7FEBFFFF7FEBFFFF7FEBFFFF7FEBFB3
:10513000FFF7FEBFFFF7FEBFFFF7FEBFFFF7FEBFA3
:10514000FFF7FEBFFFF7FEBFFFF7FEBFFFF7FEBF93
:10515000FFF7FEBFFFF7FEBFFFF7FEBFFFF7FEBF83
:10516000FFF7FEBFFFF7FEBFFFF7FEBFFFF7FEBF73
:10517000FFF7FEBFFFF7FEBFFFF7FEBFFFF7FEBF63
:10518000FFF7FEBFFFF7FEBFFFF7FEBFFFF7FEBF53
:10519000FFF7FEBFFFF7FEBFFFF7FEBFFFF7FEBF43
:1051A000FFF7FEBFFFF7FEBFFFF7FEBFFFF7FEBF33
:1051B000FFF7FEBFFFF7FEBFFFF7FEBFFFF7FEBF23
:1051C000FFF7FEBFFFF7FEBFFFF7FEBFFFF7FEBF13
:1051D000FFF7FEBFFFF7FEBFFFF7FEBFFFF7FEBF03
:1051E000FFF7FEBFFFF7FEBFFFF7FEBFFFF7FEBFF3
:1051F000FFF7FEBFFFF7FEBFFFF7FEBFFFF7FEBFE3
:10520000FFF7FEBFFFF7FEBFFFF7FEBFFFF7FEBFD2
:10521000FFF7FEBFFFF7FEBFFFF7FEBFFFF7FEBFC2
:10522000FFF7FEBFFFF7FEBFFFF7FEBFFFF7FEBFB2
:10523000FFF7FEBFFFF7FEBFFFF7FEBFFFF7FEBFA2
:10524000FFF7FEBFFFF7FEBFFFF7FEBFFFF7FEBF92
:10525000FFF7FEBFFFF7FEBFFFF7FEBFFFF7FEBF82
:04526000FFF7FEBF97
:04000005080050E1BE
:00000001FF
