:020000041004E6
:100000000000012057280410DD260410DF2604100C
:10001000AA5555AA45554C420000000000000000BA
:10002000000000000000000000000000E1260410B5
:10003000000000000000000037080410E326041050
:10004000970804109B080410BF140410EF19041043
:100050002F250410CB260410DB2604101F280410C3
:10006000E52604102B2804106328041065280410CA
:1000700067280410692804106B2804106D280410E8
:100080006F28041071280410152704107328041019
:10009000FD2604107528041077280410F526041096
:1000A000ED26041079280410000000000000000074
:1000B0000000000000000000000000000000000040
:1000C00010B5C20018231340FF249C40E243890767
:1000D000090E9940030004D4C8489B089B00C0182F
:1000E00006E0C74B0007000F08388008800018188A
:1000F00003681A401143016010BD000081B0C1487F
:10010000016802220A430260002102E000BF009958
:10011000491C009100990629F8DB016804220A4372
:10012000026001B0704780B5B7480068002814D15C
:10013000B6480168002902D1806A00280DD001204C
:10014000B349886000F076FBBFF34F8FB148B249E6
:100150000860BFF34F8F00BFFDE7012002BD80B5EF
:1001600003210020FFF7ACFF03210120FFF7A8FFC8
:1001700003210220FFF7A4FF03210320FFF7A0FFC4
:1001800003210420FFF79CFF03210520FFF798FFC0
:1001900003210620FFF794FF03210720FFF790FFBC
:1001A00003210820FFF78CFF03210920FFF788FFB8
:1001B00003210A20FFF784FF03210B20FFF780FFB4
:1001C00003210C20FFF77CFF03210D20FFF778FFB0
:1001D00003210E20FFF774FF03210F20FFF770FFAC
:1001E00003211020FFF76CFF03211120FFF768FFA8
:1001F00000211220FFF764FF03211320FFF760FFA7
:1002000003211420FFF75CFF03211520FFF758FF9F
:1002100003211620FFF754FF01211720FFF750FF9D
:1002200000211820FFF74CFF03211920FFF748FF9A
:1002300001BD30B50D00C54C002A0AD0FA21890055
:1002400000F00EFB401E684360600020A0600520A7
:1002500002E0206801218843206030BDFFB5012104
:100260002022002818D067480368E024A3431343E2
:100270000360836D0624A34302241C438465836BBF
:100280000B438363836B8B438363836D0B43836572
:10029000806D0840009000980723AD480469AD4D7B
:1002A000AC4218D1046800940468076805682D0DF5
:1002B0001D4003950068000E1840029001250F268E
:1002C000380C3040270AF0243C400194009C240A5A
:1002D0002640009604E00820009070240194002538
:1002E000BF4C0F26F643276B374038432063E06A44
:1002F000F027B843019F0743E762E06A0640009891
:100300003043E0623820002D0CD025689D43039EC9
:1003100033402B43236023688343029DED00054057
:100320001D4325603F23DB43A56F1D400A262E4356
:10033000A667A56F40262E43A667E56F1D400426DD
:100340002E43E667E56F80262E43E667E56F40267D
:10035000B543E567A03425681D40256065681D40EC
:1003600010262E436660A5681D402A43A260E268FD
:100370001A4030251543E56022691A401043206178
:1003800060691840392202436261A06918403A222C
:100390000243A261E06918403B220243E261206A05
:1003A00018403C2202432262606A03403D20184309
:1003B00060625523FF20C0438A4A146804401C43EE
:1003C0001460D468044066252543D560146A04404F
:1003D00023431362136C03401D241C431464D36B2A
:1003E000034059241C43D463536C18403223034305
:1003F0005364506A01435162FFBD000000E400E015
:100400001CED00E0080040489400404810005048AF
:10041000040000200400FA050CED00E0F1B5724E76
:10042000012264213000FFF704FF704D286880210D
:100430004902014329600027444C2868800303D403
:100440002068C003F9D50427002200210020FFF70F
:10045000F0FE380039D16846017808000CD18020C0
:10046000C00501680068F0220A400007000F104331
:10047000102867D10620F2BDE020C043491E06299E
:100480004FD801A2525C9744064452606E7C8A00A9
:10049000A9680840A8607000554E30600122C8214C
:1004A000FFF7C7FE28688021890101432960286879
:1004B000400403D42068C003F9D505270022002199
:1004C0000020FFF7B6FE38002CD03800F2BDA96836
:1004D000084020210143A9603000DDE7A9680840F9
:1004E00040210143A9607008D6E7A968084060214F
:1004F0000143A960B008CFE7A96808408021014303
:10050000A960F008C8E7A9680840A0210143A960D4
:100510003009C1E7A9680840C0210143A9607009FA
:10052000BAE7FEE73020C04332493268AD4B9A4209
:100530000A6804D11040102202430A6004E010400F
:10054000086001E0FFF7DAFD0020F2BD10E000E0F6
:10055000E81E0010CCECBCFC10B5FF2833D00429F9
:100560000CD005290AD0062908D0072906D0062272
:10057000D2439D4B032903D1002809D1012010BD8E
:10058000012805D01C682240022414431C6005E0A9
:100590001868024004201043186001208022D20510
:1005A00013681268F0241C401207120F2243102A0D
:1005B00009D18E4A012908D101280CD12A201060C6
:1005C00050680007FCD4002010BD022905D1012885
:1005D00003D12920F3E70028FBD02820EFE7000013
:1005E00048160060481500600048E80100004048D7
:1005F0009009002004100040F3B583B07C487D4989
:1006000008607D4908617D4E3068202101433160DA
:1006100030684021014331603068802101433160FE
:10062000002500240122C8217548FFF702FE754904
:1006300030690191400704D40868C003F8D501244B
:100640000125002200210020FFF7F3FD6E4F002C52
:100650002ED028002BD10024012296214900684881
:10066000FFF7E7FD6948716A01407162B16A0840AD
:10067000B062B86866490140802000020843B86053
:10068000F86860210143F96038681021014339603E
:100690003868800604D401980068C003F8D50224A5
:1006A000002200210020FFF7C4FD20006DD096E05D
:1006B000B0693021884320210143B161B8688021AD
:1006C00049010143B960534A50695349884219D1DD
:1006D00010681168136814682404240F02941468C5
:1006E0000122DD091E232B4000932402FC239B05DD
:1006F0002340CC01E021890121408401F0208000C9
:10070000204007E0D00C10210091F0235B0500226F
:10071000C0214901FC68414D25402B43FB60FB682B
:10072000802424041C43FC601E23DB43002A09D0E0
:10073000FA681A40029C64001443FC60FA680124C1
:100740001443FC60364A14682340009C1C43146028
:10075000136801241C4314601368324C1C4020436E
:100760001060106820230343136010682E4B034071
:100770001943116010688021C90001431160B069FC
:10078000802149000143B16165E76846047CFF2C84
:1007900002D00120FFF762FD6846057B234801680F
:1007A000234A0A40802189011143016001688022A7
:1007B0000A43026001687022914330220A430260BA
:1007C0002800FFF72BFE010009D129002000FFF7C8
:1007D000C3FE010003D1FFF7C2FC62B6002005B0E2
:1007E000F0BD00000090D003600040480050004081
:1007F0000000041008ED00E0040000200400504850
:100800000024F40010E000E000004048FFCFFFFFAC
:10081000FF7FFEFFE41E0010CCECBCFCFFFFFFC01E
:10082000940050483FFCFFFFFFC7FFFF980040487F
:10083000FFC0FFFF70477047CA0F00D04942031046
:100840005A400DD004B500D3404200F009F8009A98
:10085000D20701D34942124200D5404204BD0000F4
:10086000094214D088420FD30122030C01D10004A5
:100870001204002300185B418B4200D35B1A5241E3
:10088000F8D319001000704701000020704708B528
:1008900000F002F808BD704770477047010005D4AA
:1008A0000121C006C00E8140974801607047F3B532
:1008B00089B000250D700998807A00285CD0934893
:1008C00003C8934A1268002312184B4106A80CC0B3
:1008D000EFF31080029072B600F087FC02000B006C
:1008E000099803C804AC03C4012404A803C80090F9
:1008F000019106A803C8C826B602002736184F4142
:1009000000980199B9420ED301D8B0420BD306A882
:1009100003C8B9267600002736184F419F4226D8D3
:1009200001D3964223D200200A32434104A803C8CF
:1009300000264C38B1418B4211D801D382420ED2ED
:100940000998027AC37A04A803C8190000F0EEFCE3
:100950000A990870099885720998447209E08348D9
:100960008572029880F310880A98047004E0684841
:100970004476029880F310880BB0F0BD80B500F08B
:10098000D5FB01208849087101BDF3B587B0044645
:100990000020087000E02469002C5DD0207B002836
:1009A000F9D0EFF31080019072B60020694608700C
:1009B000491C6E48FFF77BFF00F017FC02000B009C
:1009C00003CC083C0F00861A9F4104AAC0C201252F
:1009D00004AA0CCA002B34DB01DC012A31D3634AA0
:1009E0000CCA02AE0CC602AAC0CA494A926B0023C6
:1009F00012184B419F4210D801D396420DD25B4A48
:100A0000527A002A09D002AA0CCA8B4207D301D815
:100A1000824204D33E48057601E068460570694687
:100A200004A80CC8100000F043FC684600780128B8
:100A300009D14E48817A427A0A438272002141727A
:100A400001E008980570019880F3108808980078F4
:100A5000002801D0079800E0200009B0F0BDFEB5E5
:100A600000256C462570017B002901D00120FEBDC8
:100A70000CC00838012101734B4CA6680196070091
:100A800001E035003669002E08D00CCE083E03CFB9
:100A9000083F8B42F5D301D88242F2D33800066179
:100AA000002D01D1019000E028610199814213D10C
:100AB0006946FFF76AFFA0606846007800280BD0FF
:100AC000EFF3108072B6217D4A1C637D9A4200D0FC
:100AD000491C217580F3108868460078FEBD10B56A
:100AE0000B4C002808D0207B00280BD120002030A0
:100AF000FFF744FF012004E02000203000F0A5F8BB
:100B00000020207310BD000000E100E0280B002051
:100B1000E80A002080B569461448FFF7C8FE22485D
:100B2000017E002903D00021017600F008F88E48EC
:100B3000016801220A4302600068009001BD18B5F7
:100B400019490020087689480268894B13400360E0
:100B50000A7D531C4C7DA34200D0521C0A75C1690A
:100B600001220A43C261C069009011BD400B002000
:100B700050480168022900D170471CB5006803285D
:100B800010D0094C6946A068FFF7FFFEA0606846D8
:100B90000078012806D1207D411C627D914200D061
:100BA000401C207513BD0000E80A0020FEB50300BC
:100BB0000024684604726F4EF17232726E4803C8A8
:100BC0001A1A002312184B410CC6083E74720127F2
:100BD000B77200F00AFB694DAA680CCA8B4215D3A4
:100BE00001D8824212D303CE083E00900191A86B37
:100BF000002180185941009A019B8B4206D301D8ED
:100C0000824203D3A868007B002811D102A93000DA
:100C1000FFF74DFEAC680CCE03CC083C8B420ED3E4
:100C200001D882420BD3207B002808D02F7606E023
:100C3000534801784906490E01708474C474012038
:100C4000FFF74DFF6846007AFEBD7CB503004B4CB4
:100C5000A268150000210026100001E02E002D6979
:100C6000002D09D09D42F9D101932B69954201D104
:100C7000180002E0336100E001936D462970019B8A
:100C80001973824214D06946FFF77FFEA060684660
:100C9000007800280DD0EFF3108072B6217D4A1C39
:100CA000637D9A4200D0491C217580F3108873BD82
:100CB000A06073BD0C000060F8B5050000F0A4FB57
:100CC0008D4801264168314341600168314301602C
:100CD0001820FFF7E3FD2888C92800DAC820274C30
:100CE000A0631420FFF7DAFD6846A978817069686F
:100CF000C1702988018000F0BAF91F4800F098FA05
:100D00000027A76026731B4A0020507290720021B2
:100D100003C228882061A782686800030A21FFF7C0
:100D20009FFD20602771754D002804D1280000F038
:100D300084FB20600AE0280000F07FFB21688142EC
:100D400003D3280000F079FB010021606C48A06209
:100D5000676300F04AFA2268002312184B41200012
:100D60002030FFF77CFEF1BD4418006030180060B1
:100D7000FFFFFFBF400B0020280B0020E80A0020E7
:100D8000C4000020F8B584B0002469460C70EFF36D
:100D9000108672B65B48407A00280CD000F025FA25
:100DA00002000B00574D03CD083D994203D801D3F3
:100DB000904200D26C7286F310884E4F22E0401CA5
:100DC00019E00469002101738168002900D0884777
:100DD0002000F6D16946B868FFF7D7FDB8606846CD
:100DE000007801280AD1EFF3108172B6387D421CD9
:100DF0007B7D9A42E3D1387581F31088787D039921
:100E000040187875787D397D0A1A02D2802040001A
:100E10001218002A28D00392BC680026029401947C
:100E2000002502E0260024696D1C002C0FD0207BD9
:100E30000028F7D000F0D9F902000B0003CC083CE1
:100E4000801A99410029EDDB01DC0628EAD3002D48
:100E500003D000203061029401E00020019002984C
:100E6000B86001980028B4E7274E0124387900289B
:100E700027D000F067F900283AD100253D7100F035
:100E800071F9300000F0D4F9787E00280AD07D7620
:100E90001C4884726946FFF70AFD6946B868FFF787
:100EA00074FDB86038002030FFF7CFFE00F09DF9E8
:100EB0003A68002312184B4138002030FFF7CFFD6D
:100EC00016E0307C002813D000F08FF902AA03C28C
:100ED00003CEFA225203002312184B4102A803C882
:100EE0008B4205D801D3824202D200F01FF93C7137
:100EF00005B0F0BDE80A002040180060FFEFFFFFDA
:100F00007D090410400B0020280B002091488168C7
:100F100001220A43826000210160704730B58E4B88
:100F20008C490A681A400C681C40A242F9D1002A78
:100F3000F7D08A4B14125C43D5B25D432B12E318F1
:100F400010335B1143628261854A4B6813404C68E1
:100F50001440A342F9D1002BF7D09911A74A51436D
:100F6000803109120162C36130BD10B50400FFF782
:100F7000CDFFAE480068C007FBD52000FFF7CEFFCD
:100F800010BD68214143090ADB225043000C0818B8
:100F9000704780B5FFF7F5FF49E238B530C808382B
:100FA000954A13680B60AB4A416AC06A181A00F090
:100FB00065FA00210019694134BD70B50500904CF7
:100FC000607A7D214843C900FFF736FC461CF6B223
:100FD000A14A296A1B2000F051FA20706078FFF7BF
:100FE000D8FF3D216854E0788019FFF7D2FF352102
:100FF000685420798019FFF7CCFF36216854607956
:10100000FFF7C7FF37216854A079FFF7C2FF3821E7
:10101000685470BD38B50400774805688D4AA16AE8
:10102000206B281A00F02AFA210008310CC900218F
:101030008018594103C4083CE56225632200083248
:1010400003C2606AA06231BD80B5834A00F016FA1F
:101050008249884201DD080002E0102800DA1020F1
:101060008C4900118882888A8C49086001BDF8B5D6
:101070000700884C38882061874EB0797D2148432D
:10108000C900FFF7D9FB451CEDB2F878002802D162
:10109000B87800280DD08248C168C907FBD501681F
:1010A00017220A4302602000FFF75FFF606AA06218
:1010B00009E0C8204003A06260627A4820627A4852
:1010C000A0617A48E061F87834216054216A20698F
:1010D00080B2FFF7B9FF00203E216054002103C415
:1010E000083C454A1268E26222632200083203C2C9
:1010F0002000FFF762FF30784019FFF742FF1B30F6
:101100003921605470784019FFF73BFF1B303A21BA
:101110006054B078FFF735FF1B303B216054F07806
:10112000FFF72FFF1B303C216054F1BD7E48007853
:10113000002806D00748816801220A438260002106
:101140000160704739480068C107C90F0120484055
:101150007047000008100060FFFF0700F6BC0800A1
:10116000FFFFFF0738B590B04A4C3420205C0028C0
:1011700031D068462100402200F0A2F96846FFF70E
:10118000CDFE0899049880B2FFF75EFF6846FFF72E
:1011900014FFEFF3108572B60698A0610798E0611E
:1011A00008982062099860620A98A0626846352112
:1011B000415C3522A1543621415C3622A1543721AD
:1011C000415C3722A1543821415C3822A1543D2191
:1011D000405C605402E0EFF3108572B62000FFF728
:1011E00019FF85F3108811B030BD80B56946964867
:1011F000FFF7D3FE04BD0000101800605307000085
:10120000C5000020F8B50500224C69462000FFF714
:10121000C4FE06000F008D4A616A0098401B00F072
:101220002DF900233900301A9941F4BD10100060E7
:101230000200854B3420185C1074D869D060180007
:10124000083003C803C2083A98699060186B50616F
:10125000704700003506000026030000FF0F000065
:101260007D494A68520003D5096801600320704730
:1012700077490A68022A03D1496801600120704752
:101280000A68032A03D149680160022070470020E0
:1012900070470000A80A0020C8000020081800605D
:1012A00004100060C2F528008D5B0000ECEB6501C6
:1012B00070B50C00694A6449096A00F0DFF8010062
:1012C000202900D82021664A106841180831D161D0
:1012D00093698025AD051D439561136A8025ED0551
:1012E0001D43156200235A4D2E68022E05D02D682D
:1012F000032D02D02578012D01D0237070BD594CEB
:1013000025786D066D0E2570A374E3740F23994341
:10131000516191690723994391619169C023DB056C
:101320000B43936170BD0000DC0A0020FEB5040091
:10133000454E3920305C012905D1002A01D03521E4
:1013400006E0362104E0002A01D0372100E03821F0
:10135000715C0091019002A93000FFF71EFE201A77
:10136000404D00273C4C3D4A01993369C918C831AA
:101370008142316A17D200F081F86978401A0099E9
:10138000401A02990918216061680722914361603F
:101390002F490F606168C022D2050A43626000993C
:1013A0006A788B1812E000F069F83D21715C401AF0
:1013B000009A801A029A1218254B5A6002221A606B
:1013C0006268244B13406360009A53182978802286
:1013D0000A432A70F021A974FF21E974C118581D2D
:1013E000814207D21A48076060681A49014061606B
:1013F0000120FEBD154A716A180000F03FF83E2139
:1014000070540020FEBD00001748012142680A43C5
:1014100042600268114301608020000413490860A3
:10142000704780B512480068FFF7ECFE04BD0B4A18
:101430000549096A00F022F802BD80B5034A024955
:10144000496AF7E700000000A80A002035060000FE
:101450000C000060FFFFFFBF24180060260300009F
:1014600010180060C40000204818006000E100E08F
:101470001400006080B5FFF784FD02BD10B59042F6
:1014800016D98AB2030C090C0C46594380B2534357
:10149000444350431B191A041B0C10185941802255
:1014A0005203002312184B41520DD802104310BDB5
:1014B0004843802252031218520D104610BD704747
:1014C00070B4103A03D378C9103A78C0FBD25307EE
:1014D00001D318C918C001D508C908C0D20704D360
:1014E0000B880380891C801C002A01D50B780370AF
:1014F00070BC7047934908684A681202FF231B02B8
:101500001340C0B21843896801D00C2901D37F2051
:101510000EE006225143773901E0891D40081F285B
:10152000FBD2FF22A2325043A14A8018800A081839
:1015300040B27047F8B59F4807680760B80100D40B
:1015400083E09D4CA0689B49896940221140394342
:10155000C160416B88470128A06801D1C56A00E0DD
:10156000056B7F2195480026002D0AD1914A96608F
:10157000934A1368934E1E40166002781140017022
:101580004CE02A7880231343037018302A785023C4
:101590005A438218137819403C23EB5C0B431370B9
:1015A000290018310091011D2A7850235A43009BCD
:1015B0008B50010008312A7850235A43009B8B50EE
:1015C00029785022514340182B21AA784254687838
:1015D000400723D5774886606878810612D5FFF7E3
:1015E00004FE00906868FFF745FF009A10183C2140
:1015F000695C802901D1012100E000216B78DA07C4
:10160000D20F09E001223C21695C802901D101212E
:1016100000E0002102406868FFF7C8FAB80F8007B1
:1016200008D0FFF767FFA1684861FFF7FAFEA168DD
:10163000086105E0780103D5FFF75CFFA168486108
:10164000A068A5602900826B90475A480068F1BDE8
:1016500030B50022A74B5024604318182E258B5C10
:1016600084186355521C052AF9DB3221415CC906F6
:10167000C90E3222815430BD10B59E4B50246043B8
:101680001818C02304781C400C430470447823408D
:10169000194341702D21425410BD10B5954B502473
:1016A0006043181841622823C254110A2923C154E7
:1016B000110C2A22815410BD30B500238D4C5025C9
:1016C00068432018D45CC5186C77CC5C2C765B1C06
:1016D000052BF7DB30BD70B50023864C50256843E1
:1016E0002018CC5CC5183826AC55D45C4026AC55C7
:1016F0005B1C082BF5DB0821535C4418A355491CDF
:101700001029F9DB70BD10B57A4B502460431818CE
:10171000012901D0012A09D1202182780A4382704F
:101720002322825C11432322815403E08178DF224B
:101730000A4082702321415C40220A432321425403
:1017400010BD0000A416006003219A4AD30A9842F3
:1017500005D21070030A5370000C014026E0530AB2
:10176000984209D283081370830A5370800C014099
:1017700091709078042118E09B00984209D20309E7
:101780001370030B5370000D014091709078082185
:101790000BE09B0098420AD283091370830B5370AD
:1017A000800D0140917090780C2101439170704739
:1017B000A046000004000060980A0020C400002039
:1017C00028180060FFFFFFBF70B50400142200213D
:1017D000183000F005F920001830A061A0682062E0
:1017E0007548006846382422A054010A2522A154D5
:1017F0000003000F262160541020615C0143262263
:10180000A154617880224023194203D12623E35C4E
:10181000134302E02625655D2B4326256355237F70
:1018200081250D4004262E431E432677637F084002
:10183000062505431D436577FF202723E05402203A
:10184000E36A5B78034203D0637F01251D4365771C
:1018500000233C256355014200D0625570BDBCB5E4
:101860000400684600F08EF8002841D10025534856
:10187000056022787F207F21114080231343504A46
:1018800013701832502359435118220018328A60BD
:101890004A60A2782B23CA544A4A94600A781040BE
:1018A0003C22A25C02430A7072B66078810611D5B0
:1018B000FFF79BFC07006068FFF7DCFD38183C2150
:1018C000615C802901D1012100E0002163780122BF
:1018D0001A4009E03C21615C802901D1012100E02E
:1018E0000021012202406068FFF760F962B6B6BDD0
:1018F000C420B6BDDC000020F8B58026F6023248D0
:101900000660BFF34F8FBFF36F8F00252C48057023
:101910002E4FBD602E4C21682E4A0A4022602021A5
:1019200041703F2181700921C170762101713A21F6
:101930004171742181713821C17114210172052115
:1019400041720221017310218172C172400DFFF7B3
:10195000FBFE1F2000F022F8002200210020FFF7EC
:10196000D2FE154896210160057138683860012063
:10197000E1690143E161A1690843A061164806607D
:101980003868F1BD010000200D4A1278120600D41B
:10199000704780B50800FFF763FC02BD00210F4AC5
:1019A00050234B43D2182C23D054491C0829F6DB72
:1019B00070470000D1000020980A00200C00006051
:1019C000C4000020980A002080E100E004000060CC
:1019D00028180060FFFFFFBF00E100E0DC000020EE
:1019E00080B50B0011001A0000F004F801BD70472B
:1019F000002200BF094202D0491E4254FCD1704768
:101A0000FEB50500E8685B4FA34EA44C410638D4F0
:101A1000002819D5012000F031FAAA6800200090B2
:101A200000235178891C89B288204000201800F0DA
:101A30008FFAE868800403D5012000F0FDF918E072
:101A4000012000F00AFA14E0410114D5002000F052
:101A500015FA607800281CD091480290FF20019070
:101A60000096A520C00023188E4A3900182000F0E7
:101A7000EDFA0120FEBD4000FBD560780028EBD1D7
:101A800007E08001F5D5022000F0F8F96078002821
:101A9000E2D185480290FF20019000960D30231876
:101AA000824822183900182000F01EFBE1E7FEB53D
:101AB000C06841062CD4794C7D4A2E49764B7A4D2C
:101AC0000026002801D5667019E08827FF05074029
:101AD0001ED0207800280FD071480290FF2001907E
:101AE0000093A520C00023186E4A182000F0AEFA1B
:101AF0002078401E20700BE066700120A0700295D7
:101B0000FF20019000930D302318182000F0ECFA0C
:101B10000120FEBDF8B50025624E604C0700684606
:101B2000018021E0785D210008312279885401216B
:101B3000781900F046FC2279521C2271D0B220188C
:101B4000C0790D2802D0D0B21A280CD10120E07043
:101B5000D2B221000831B01C00F092FC2079001DA7
:101B60007070002020716D1C684600888542D9DBAA
:101B7000F1BD000088130000F0B5D1B052A003C839
:101B80000AAA03C200210120FEF736FD002800D07A
:101B9000FEE7484800F090FB002000F00BF9012020
:101BA00000F008F9FFF7A8FE0AA8FFF785F83B4DFB
:101BB0000123902040002A183F491038281800F0CF
:101BC00087F93E4800F03EFA1F20FFF7E7FE0521A7
:101BD00008A8FFF70DFF052106A8FFF709FF0CA8CD
:101BE0003BA11022FFF76CFC04A80021002206C0D4
:101BF00008AA06A90020FFF75FFD0CAA04A900208F
:101C0000FFF769FD012201210020FFF77CFD264836
:101C10000290FF20019020480090862040002B1861
:101C200022482A182649182000F05EFA25A7002627
:101C300007E0A878012804D1AE7000BF28A000F00A
:101C400077FCFFF79FF802246878002809D1E8782C
:101C5000012806D113490C70EE7003202870012072
:101C60006870882040002818009000F039F900289A
:101C7000DFD010AA03A9009800F0C4F9E0B26946C9
:101C80008989091F8842DCDA10A9095C380000F054
:101C90004FFC641CF2E70000A08601005C030020FA
:101CA000AF1A041094090020011A04102404000043
:101CB00080070020151B041002020000D6BE898E8A
:101CC00088130000256300000100000000000000F0
:101CD0000000000000000000000000000000FFFF06
:101CE0000A0D204E41434B200D0A000081B06F4980
:101CF0000A6802430A60096808400090009801B031
:101D0000704710B50B004B4301685C00E418A14319
:101D100053430B43036010BD43688B435143194346
:101D20004160704710B50B004B4381685C00E418BC
:101D3000A14353430B43836010BD30B5CB435C4C90
:101D40009025ED05A8421AD1002A03D0022A0FD00F
:101D500007D330BD2068184020606068034063608E
:101D600030BD60680340636020680143216030BD7E
:101D700020680340236060680143616030BD002A31
:101D800003D0022A0FD007D330BDA0681840A0604E
:101D9000E0680340E36030BDE0680340E360A068B2
:101DA0000143A16030BDA0680340A360E068014327
:101DB000E16030BD38B5010018D10420FFF796FF6F
:101DC0009024E4054020A061012240212000FFF77B
:101DD00098FF022240212000FFF7A4FF00224021AB
:101DE0002000FFF799FF0122402121E0314C01281A
:101DF00005D10820FFF77AFF80256D0006E0022854
:101E000019D10820FFF772FF8025AD00A5610122DE
:101E100029002000FFF775FF022229002000FFF7AC
:101E200081FF002229002000FFF776FF0122290010
:101E30002000FFF782FF31BD010002D140201E4982
:101E400009E01E49012802D18020400003E0022859
:101E500002D18020800008607047010002D140203C
:101E6000174909E01749012802D18020400003E00A
:101E7000022802D18020800008607047010005D14F
:101E80001148016840224A40026070470F4901280A
:101E900003D108688022520004E0022804D10868B7
:101EA0008022920042400A60704700005000404883
:101EB0002000504800001048280000482800104822
:101EC000180000481800104814000048140010487A
:101ED00010B500244480048081808260037310BDAB
:101EE000418802888A4201D3501A02E08088401A51
:101EF000801880B27047F2B50400207B40496D46DF
:101F00002D882D186D1840188543ADB266883000B5
:101F10002788B74201D3381A02E0A688301AC019C0
:101F2000A8420EDB100069460A88A168C91800F0B3
:101F3000A7FA60884019A188FEF77EFC6180002026
:101F4000F2BD0120F2BD80B54388FFF7D4FF02BD8A
:101F5000F8B584B004000E000025F018694608802A
:101F6000207B274B6F463F883F18FF18C1188F43CF
:101F7000BFB20397411C401E8143C9B20191A088A2
:101F8000029063881900278838009F4201D3411AC4
:101F900002E0029B591A0918039BC918019BC91832
:101FA000029B994227DA0A9F029202226946A3689D
:101FB000181800F065FA32000299A3689C4623883D
:101FC000019818186346181800F05AFA6846028AF1
:101FD0003900A0682388019FDB199B19C01800F005
:101FE0004FFA20880399401801994018A188FEF7FC
:101FF00023FC218000E00125280005B0F0BD000091
:10200000FFFF000070B505000E0014003200022131
:10201000FFF799FF010008D131886B88002B00D1B0
:10202000AB8822002800FFF766FF70BD01207047D3
:1020300001207047C06880210906084000D00120B7
:10204000C0B270475949086000207047F9B585B0A3
:102050000C0015000C9E0E9FFFF7C7F800902000A3
:10206000FFF708FA009A141801A8FFF78BFC02A8E2
:1020700054A10CC90CC002A90020FFF7E9FA002204
:102080006846017D0020FFF7F7FA494A4748016892
:102090000020FFF702FB3000FFF756FB0020454E03
:1020A0003070032171707460B070B56035004035D8
:1020B000F562356340497163404AB26328806C60C1
:1020C0000DAA1278AA70069AAA60E862286369636A
:1020D000AF633000FFF778FB2800FFF775FB300097
:1020E000FFF7BDFB07B0F0BDF9B585B00F001600D6
:1020F00000250024FFF779F800903800FFF7BAF9BF
:10210000009A101800906846007D282800DBC02443
:1021100001A8FFF737FC002801D0C42443E02000C9
:1021200041D10E9F0D9C029603A800BF27A10CC9A8
:102130000CC003A90020FFF78BFA00226846017D3E
:102140000020FFF799FA1A4A184801680020FFF7A3
:10215000A4FA0C98FFF7F8FA164E3570012070704B
:1021600000987060B4700298B06034004034F4623B
:10217000356313487063B763257002206070009860
:102180006060A5700698A060E56225630A486063F8
:10219000A7633000FFF718FB2000FFF715FB3000A6
:1021A000FFF75DFB0400200007B0F0BD88090020A8
:1021B00055555500300000202D200410312004100A
:1021C00035200410FFFFFFFFFF000000FFFFFFFFAF
:1021D000FF00000081B08B490A6802430A60096869
:1021E00008400090009801B0704710B50B004B43B9
:1021F00001685C00E418A14353430B43036010BD26
:1022000043688B43514319434160704710B50B003D
:102210004B4381685C00E418A14353430B43836044
:1022200010BD30B5CB43784C9025ED05A8421AD1AE
:10223000002A03D0022A0FD007D330BD20681840EF
:10224000206060680340636030BD60680340636085
:1022500020680143216030BD20680340236060682E
:102260000143616030BD002A03D0022A0FD007D39A
:1022700030BDA0681840A060E0680340E36030BD56
:10228000E0680340E360A0680143A16030BDA0683E
:102290000340A360E0680143E16030BD10B5090A66
:1022A0000B004B434B434B43416A1C01E41AA143CF
:1022B00053430B43436210BD7CB506000420FFF777
:1022C00089FF9025ED058024A4000222210028002A
:1022D000FFF78BFF022221002800FFF797FF002263
:1022E00021002800FFF78CFF012221002800FFF7C2
:1022F00098FF002221002800FFF7D0FF0420FFF7FD
:1023000069FF6408022221002800FFF76EFF022205
:1023100021002800FFF77AFF002221002800FFF7A4
:102320006FFF012221002800FFF77BFF0022210020
:102330002800FFF7B3FFA00034490A6802430A608F
:10234000096808400090009831488B21C1600168FD
:10235000304A0A40026041682F4A0A4042600168E0
:102360000C220A43026081682C4A0A40826081681C
:102370002B4A0A4082608168C900C90881600168EF
:1023800062050A4302604168264A0A404260816849
:102390002A2291438160016801220A4302603100D0
:1023A0000ED021490E60016820220A4302601F48B6
:1023B0000168FF22914340220A4302601C480460E6
:1023C00073BD10B500231B4A06E014682406FCD533
:1023D000DCB2045DD4605B1CDCB28C42F5D310BD72
:1023E00011480268002A00D1704780B51148016881
:1023F000890605D5806869460870012168469047BE
:1024000001BD00005000404820005048580040489E
:1024100000400041FFE9FFEFFFCFFFFFFFFCFFFFA0
:10242000FFFFFFF1FFB7FFFF240B002008E400E0EF
:1024300000E100E01C40004170B50025012804D0F7
:10244000022802D00020C04370BD002901D1002025
:1024500070BD0C00160005E001212000FFF7B1FF60
:10246000641C6D1C3000461E0028F5D1280070BD8C
:1024700001B5012269460120FFF7DEFF009802BD89
:102480008B0707D0521E22D30B78491C0370401CC7
:102490008B07F7D1830730D0DB4219D0401E121FC3
:1024A00008D308C943701B0A43801B0C0371001D2D
:1024B000121FF6D2D20707D30B88437001D08A7857
:1024C000C2701B0A8370704701D00B78437070474D
:1024D000121F06D308C903801B0C4380001D121F66
:1024E000F8D2D20705D30B88038005D08B78837090
:1024F000704701D00B780370704770B4103A03D363
:1025000078C978C0103AFBD2530701D318C918C054
:1025100001D508C908C0D20704D30B880380801CEA
:10252000891C002A01D50B78037070BC7047704776
:102530000EB4C0B5020003A801900020009001ABCA
:102540000121044878440C3000F013F8029906B0D9
:10255000084700BFED02000070B506000800002B20
:1025600006D014001D002178B047641C6D1EFAD1FE
:1025700070BDF8B588B0029000910392019309E014
:102580000123039A00990298FFF7E6FF0090039851
:10259000401C039003980078002821D02528EFD113
:1025A000039840780399891C03910100252812D0D3
:1025B000582867D0632815D064281BD0692819D003
:1025C0006F285FD0702864D073286AD0752859D0DE
:1025D000782857D0DEE70098029A90470090D9E714
:1025E00009B0F0BD019800680168001D019A1060F3
:1025F000C9B2F0E7019800680468001D01990860FD
:10260000002C04D52D210098029A90470090642058
:102610006F2801D1082506E020210143782901D047
:102620000A2500E010250B272600642803D1002C82
:1026300001D571420E0004007F1E0497300029006E
:10264000FEF70EF93031C8B23A2802DB20005138CB
:10265000091805A8C0190490017030002900FEF780
:10266000FFF8060001D0002FE6DC049C00980B2147
:10267000CD1BB3D0029E2178B047641C6D1EFAD1E9
:102680000296ABE7019909680C68091D019A11606F
:10269000BEE7019800680468001D01990860782071
:1026A000B6E7019800680468001D019908602000E1
:1026B00000F00CF80500009890D0029E2178B047F9
:1026C000641C6D1EFAD1029688E77047431C01789E
:1026D000401C0942FBD1C01A70477047FEE7FEE775
:1026E0007047704780B5FFF77BFE01BD80B5FEF7F0
:1026F00011FA01BD80B5FEF722FA01BD81B0044890
:10270000016801220A4302600068009001B070472E
:102710007400006080B5FEF70DFFFEF729FA01BDD9
:1027200070B40123002413E00168001D194202D097
:102730004D466D1E49190C60091D121F042AFAD25C
:102740000D00960701D50C80AD1C1A4000D02C70EE
:102750000268001D002AE7D170BC704730B50168DF
:102760004118446862088A188368E40704D54C4617
:102770001B1901E0641C06D191420BD00C7864B2A5
:10278000491C0D78491C1D705B1C002CF2D4641E82
:10279000F7D5F1E70C3030BD10B507497944183151
:1027A000064C7C44163404E0081D0A6889188847E2
:1027B0000100A142F8D110BD080000003C0000005B
:1027C00061FFFFFF8000000030000020BC0100001E
:1027D000940900200000000085FFFFFFC7000000F3
:1027E00018000000C000002075FFFFFF8E000000F1
:1027F000520000005C030020FDF795FC002801D08A
:10280000FFF7CAFF00BF00BF002000BF00BFFFF7F7
:10281000B3F900F000F880B500F002F801BD704790
:102820000746384600F002F8FBE7704780B500BF66
:1028300000BF024A11001820ABBEFBE726000200D1
:1028400038B505000C002000FFF712FEA04200D0B2
:102850000025280032BD00BF00BF00BF00BFFFF74A
:10286000CBFF70477047704770477047704770479D
:102870007047704770477047704781008100F200D1
:1028800000AE810081008100810081008100810013
:10289000810081008100D70003DF88DF88FB000210
:0F28A00090D00381008100810081008100DF0062
:040000051004285764
:00000001FF
