:020000041004E6
:1000000000000120C5330410791B041027310410AF
:10001000AA5555AA45554C420000000000000000BA
:100020000000000000000000000000008F0F04101E
:1000300000000000000000003F1004102B310410ED
:100040003B1C04103F1C04109B2104101B220410B5
:1000500073220410AB270410033304100F33041071
:100060002D3104103F330410DD33041045310410EA
:10007000DF330410E1330410E33304103131041092
:10008000E53304102F310410E7330410E933041072
:10009000EB330410ED330410EF330410F13304108C
:1000A000F3330410F53304100000000000000000DA
:1000B0000000000000000000000000000000000040
:1000C00000B5010049B2002905D40121C206D20EB3
:1000D0009140A74A116000BD00B5010049B2002956
:1000E00009D40121C206D20E9140A24A1160BFF389
:1000F0004F8FBFF36F8F00BD00B59F490968014066
:10010000814201D1012000E0002000BD00B59B49E3
:1001100009680140814201D1012000E0002000BDBA
:1001200000B5AB4909680140814201D1012000E0DE
:10013000002000BD81B0AA490A6802430A6009682C
:1001400001400091009901B0704700B5A4490968C9
:100150000140814201D1012000E0002000BDA04902
:100160000A6882430A607047A7480068410C08008B
:10017000C007C00F7047A4480068810A0800C00784
:10018000C00F704780B5A148016802220A4302608F
:10019000002100910099062904DA00BF0099491C4A
:1001A0000091F7E7016804220A43026001BD10B51F
:1001B000964C2068042188432060FFF7DCFF00286C
:1001C000FBD0206802218843206010BD00B58F4815
:1001D0000168890704D5006804210840800800E010
:1001E000002000BD8848016810220A430260704761
:1001F0008548016810229143016070478248006879
:1002000001090800C007C00F70477F480068410916
:100210000800C007C00F70477B48016804220A43EA
:10022000026070477848016804229143016070477A
:1002300075480068C1080800C007C00F70476848CB
:1002400001680620084070476F48016880229201CB
:100250000A43026070476C4801686D4A0A400260B8
:10026000704769480068810B0800C007C00F7047DD
:1002700066490A68E0239A4302430A607047802077
:10028000C00500680007000F70478020C0050068A7
:1002900000090007000F70475E490A6802430A60C0
:1002A00070475D490A6883B213430B605B490A6873
:1002B000030C13430B60704710B501290AD1584A4B
:1002C000136884B21C431460564A1368040C1C4320
:1002D000146009E0524A136884B2A3431360514A80
:1002E0001368040CA343136010BD4F48006881B22B
:1002F0004E48006800040843704781B24A4A1160C2
:10030000010C4A4A1160704749490A6882430A60F1
:1003100048490A6882430A607047F0B50300002428
:10032000200025000D701470F02636011C0C424D83
:10033000254034001C402C431D0C2E40DDB23543BB
:10034000002D08D03D4E36682F043740002F02D0D4
:10035000012616703000002C07D0384E3668264033
:10036000002E02D001260E703000C0B2F0BD000099
:1003700000E100E080E100E05000404854004048C7
:1003800080B5FFF75CFF022801D12D4800E02D4821
:100390002D490A6882421AD02C4A0B68934206D132
:1003A000284B984203D12A21294A11600FE00B689B
:1003B000934202D1224A904206D00968204A9142D3
:1003C00005D12049884202D12921214A116001BD6D
:1003D0005800404800B51F4800680007FBD400BD26
:1003E0006000404800B50100C9B2002905D01A4993
:1003F0000A68042313430B6004E017490A680423C6
:100400009A430A6000BD00000000404808004048D0
:10041000FFDFFFFF00005048080050483000504800
:100420000C005048340050481000504838005048E4
:10043000280050482C005048FFF0000018000040F1
:100440000048E8010024F4005C0000200090D00384
:10045000005000400450004010ED00E0FFB5FFB038
:10046000F2B00025280069460871A0212A00C0AC1E
:10047000200000F065FD0C2631002A0010AC2000A1
:1004800000F05EFD2A000DAC3100200000F058FDA8
:1004900018212A0072AC200000F052FD2C2421000B
:1004A0002A0067AE300000F04BFD21002A005CAE50
:1004B000300000F045FD68212A00A6AE300000F0B3
:1004C0003FFD40212A0096AE300000F039FD242681
:1004D00031002A0053AF380000F032FD31002A000D
:1004E0004AAF380000F02CFD31002A0041AE300048
:1004F00000F026FD58212A0080AE300000F020FDDB
:10050000302631002A0035AF380000F019FD3100E7
:100510002A0029AE300000F013FD21002A001EAE93
:10052000300000F00DFD21002A0013AC200000F087
:1005300007FD0120FFF7E0FD00280AD020229121CD
:10054000C905E8A800F024FDA0229749C0A800F042
:100550001FFD8020C002FFF7CFFD002804D00C2231
:10056000924910A800F014FD80204002FFF7C4FD5E
:10057000002804D00C228E490DA800F009FD80202F
:100580004001FFF7B9FD002804D01822BC4972A829
:1005900000F0FEFC0420FFF7AFFD002805D02C2260
:1005A0009021C90567A800F0F3FC0820FFF7A4FD1F
:1005B000002804D02C22B3495CA800F0E9FC80207C
:1005C0004000FFF7A3FD002805D040228021C90587
:1005D00096A800F0DDFC0120FFF798FD002804D06C
:1005E0006822A949A6A800F0D3FC0120FFF798FDD6
:1005F000002804D02422A54953A800F0C9FC80207B
:100600004001FFF78DFD002804D02422A0494AA80C
:1006100000F0BEFC8020C001FFF782FD002804D05E
:1006200024229C4941A800F0B3FC1020FFF778FD7C
:10063000002804D05822984980A800F0A9FC802006
:100640004000FFF76DFD002808D0F2A84078002890
:1006500004D13022914935A800F09AFC8020C000D6
:10066000FFF75EFD002804D030228D4929A800F054
:100670008FFC80208003FFF753FD002805D02C223B
:100680008221C9051EA800F083FC80200004FFF72A
:1006900047FD002804D02C22824913A800F078FCE2
:1006A000814800680C908148006807908048006885
:1006B0000B902F003800C0B208280DDA7D483900B1
:1006C000C9B204225143405878A93A00D2B2042357
:1006D0005A4388507F1CEDE7774800680A907748B6
:1006E00000680990764800680890D3480068069032
:1006F000D24800680590D24800680490D14800684C
:1007000003900120FFF721FD002802D10120FFF70F
:1007100011FD6C480068800006D46A480168802298
:1007200012060A43026004E066480168490049086D
:1007300001600120FFF709FD002802D10120FFF729
:100740000EFDF1A8007803280BD15F4800680290E5
:10075000FFF754FD002802D0FFF74AFD01E0FFF744
:1007600061FD2C00594E5A4800683060306850389E
:100770003060584F306800682100C9B204225143EC
:100780007850641C3068001D30602000C0B214280E
:10079000EFDBFFF7AAFDF499F39A0A430240002A1F
:1007A00008D068460079B4E2000070480000604854
:1007B000000030480020FFF76FFD0120FFF712FE18
:1007C000FFF704FD00280AD0FFF7F1FC2020FFF717
:1007D0004FFDFFF739FD01206946487102E028000E
:1007E0006946487100F02CFC0020FFF7FBFDF1A8E2
:1007F000007803280DD10298400701D5FFF70CFDC2
:100800000298C00605D5C0208001FFF77DFDFFF7E7
:10081000E9FC31488068002800D170E228002C49AA
:10082000096831603168503931600100C9B2042271
:100830005143795832681160401C3168091D31609C
:100840000100C9B21429F0DB0C99174A116007990D
:10085000164A11600B99164A11602C002000C0B294
:1008600008283BDA78A82100C9B204225143405835
:1008700010492200D2B204235A438850641CEDE789
:1008800000002048000010480020004000200041E7
:100890000030004100700041006000410050004104
:1008A000004000410010004108ED00E0041000404D
:1008B00000E100E000E400E020ED00E010E000E0F6
:1008C00014E000E02818006000004048A800002064
:1008D000000004105C030020040000200698564924
:1008E00008600598554908600498554908600398C0
:1008F000544908600120FFF7FFFB002812D0202296
:10090000E8A99120C00500F043FBC195C695CB95A1
:10091000D095D595DA95DF95E495A022C0A9C24877
:1009200000F036FB8020C002FFF7E6FB002804D071
:100930000C2210A9BD4800F02BFB80204002FFF7DD
:10094000DBFB002804D00C220DA9B94800F020FBE5
:1009500080204001FFF7D0FB002804D0182272A9A4
:10096000B44800F015FB0420FFF7C6FB00280ED0AA
:100970006F98B14908607098B04908606C98B049A8
:1009800008602C2267A99020C00500F001FB082018
:10099000FFF7B2FB00280DD06498AA49086065985B
:1009A000A94908606198A94908602C225CA9A84857
:1009B00000F0EEFA80204000FFF7A8FB002805D0E9
:1009C000402296A98020C00500F0E2FA0120FFF73E
:1009D0009DFB00280BD0A69EA69801218843A690D7
:1009E000CD4F6822A6A9380000F0D2FA3E6001205F
:1009F000FFF796FB002812D0539E5398402188435E
:100A00005390C64F0C2253A9380000F0C1FA1422AB
:100A100053A801001031C24800F0BAFA3E608020AD
:100A20004001FFF77DFB00281BD04A9E4A984021D9
:100A300088434A90BB4F07E03000404838004048A8
:100A400050004048580040480C224AA9380000F0A5
:100A50009FFA14224AA801001031B34800F098FA16
:100A60003E608020C001FFF75BFB002812D0419E52
:100A70004198402188434190AC4F0C2241A9380055
:100A800000F086FA142241A801001031A84800F0B5
:100A90007FFA3E601020FFF743FB002804D0582265
:100AA00080A9A44800F074FA80204000FFF738FBCA
:100AB000002812D0F2A8407800280ED1359E359833
:100AC0000121884335909C4F242235A9380000F03D
:100AD0005FFA4098994908603E608020C000FFF7A7
:100AE0001FFB00280ED0299E2998012188432990B8
:100AF000934F242229A9380000F04AFA34989149EA
:100B000008603E6080208003FFF70AFB00280CD0BD
:100B10001E9E1E98012188431E908227FF052022D9
:100B20001EA9380000F034FA3E6080200004FFF770
:100B3000F7FA00280BD0139E1398012188431390D5
:100B4000814F202213A9380000F022FA3E600120D4
:100B5000FFF7FBFA00280AD10120FFF7EBFA7B48E8
:100B600001684900490801600120FFF7F8FA784E52
:100B7000AF277F0001223900306800F07DFCFFF7CD
:100B8000F3FA002806D100F099FC0028F7D00420E1
:100B90006946087100220021002000F06DFC6846C3
:100BA0004079002815D10122C821306800F064FC8A
:100BB000FFF757FB002806D100F080FC0028F7D093
:100BC00005206946087100220021002000F054FC35
:100BD00003E0FFF7D7FAFFF73EFB0120FFF7B5FA76
:100BE000002810D0FFF751FB01010091FFF747FBF0
:100BF00000990843102806D1FFF7C2FBFFF7EAFB74
:100C0000002000F017FDF1A8007803286BD1012225
:100C10003900306800F030FC3068BB49884219D197
:100C200004206946C87118E0000070480000604860
:100C30000000304800002048200000482400004800
:100C400014000048200010482400104814001048E8
:100C50000000104801206946C87128006946887163
:100C6000FFF7CCFA002821D0FFF7CFFA002835D1C2
:100C700000F024FC0028F7D000220021002000F022
:100C8000FBFB684680790100491C6A469171694600
:100C9000C979C0B2884203D30220694608711DE0B9
:100CA00001223900306800F0E7FBDDE7FFF7C0FA0A
:100CB000002806D100F002FC0028F7D00320694686
:100CC00008710120FFF741FA002807D06846007933
:100CD000032803D08F4800680F28FBD00022002192
:100CE000002000F0C9FB0A988B49086008988B49DE
:100CF00008608B48056009988A49086007E06846E3
:100D00004079002803D0FFF73DFAFFF7A4FA6846C0
:100D100000797FB076B0F0BD002000400020004197
:100D200010200041003000411030004100700041AF
:100D30001070004100600041005000412C50004103
:100D4000004000412C400041001000412818006084
:100D50005C000020FFB583B0070000242600EFF3FD
:100D60001080029072B6704DAC6000F006FF002853
:100D700078D03800C0B200F0DFF86946487138001A
:100D8000C0B200F0FCFE694608713800C0B200F045
:100D9000F9FE6946C870684640793900C9B2884290
:100DA00002D26846407900E03800694609790200BD
:100DB000D2B2914202D268460079FFE76946C9780B
:100DC0000200D2B2914204D26846C07869460870E7
:100DD00001E0694608700020C043FFF78EFA6846BC
:100DE0000078002807D10C980470029880F31088CE
:100DF0003000C0B285E068460078012809D130BFD4
:100E000001200C990870029880F310883000C0B25D
:100E100077E06846007C002803D080200002FFF7BE
:100E200040FA68460078022803D1C0208001FFF70D
:100E300038FA059906980843FFF733FA0021069817
:100E4000FFF73AFA01210598FFF736FA04A80EC811
:100E50000C3868460078FFF701FB0600FFF745FAFB
:100E600032490860029880F31088A868002802D1EF
:100E7000684604703FE02D4C206800283BD000AA53
:100E8000521C00A9891C2068FFF747FA002832D0BD
:100E900068468078002807D020682549014000294D
:100EA00002D00F20FFF718F968464078002807D0D5
:100EB000206820490140002902D01020FFF70CF9DA
:100EC000206800F062FE68468078002807D020681D
:100ED00017490140002902D00F20FFF7F1F86846BA
:100EE0004078002807D0206812490140002902D02C
:100EF0001020FFF7E5F8684600780C99087030007C
:100F0000C0B207B0F0BD00000090D00307480068F1
:100F1000704700001018006020ED00E014E000E0D1
:100F200018E000E010E000E004000020AC00002029
:100F3000000FFFF0FF00000F010003207047430087
:100F40001206130A1A43130C1A4300BF094205D0B4
:100F5000830705D00270401C491EF9D1704700007C
:100F60001300103906D330B41400150010393CC0FA
:100F7000FCD230BC490700D30CC000D504C08900A6
:100F800002D30280801C002900D502707047704790
:100F90008B0707D0521E22D30B78491C0370401CCC
:100FA0008B07F7D1830730D0DB4219D0401E121FC8
:100FB00008D308C943701B0A43801B0C0371001D32
:100FC000121FF6D2D20707D30B88437001D08A785C
:100FD000C2701B0A8370704701D00B784370704752
:100FE000121F06D308C903801B0C4380001D121F6B
:100FF000F8D2D20705D30B88038005D08B78837095
:10100000704701D00B780370704770B4103A03D367
:1010100078C978C0103AFBD2530701D318C918C059
:1010200001D508C908C0D20704D30B880380801CEF
:10103000891C002A01D50B78037070BC704770477B
:10104000EFF31482EFF30981002080F31488BFF3DB
:101050006F8FF0B543464C4655465E466746F8B43A
:101060000F4CEFF30883636006B4BFF34F8F30BFBC
:1010700000BF00BF0A4C646884F3088882B003BCD8
:10108000F8BC9846A146AA46B346BC46F0BC04BC90
:1010900080F3098881F31488BFF36F8F1047000035
:1010A00004000020F0B5020052B2002A1CD4032232
:1010B000B54B040064B2A40804256C431C59FF25F9
:1010C0001600064008277E43B540AC438D01EDB2C3
:1010D00002400826724395402543020052B292080E
:1010E000042462439D5022E00F24A84A03230500F4
:1010F0006DB22540083DAD0804267543060076B262
:101100003440083CA408042674431659FF27BC4603
:101110001C00044008277C436746A740BE438C015F
:10112000E4B2034008277B439C4034435451F0BD54
:1011300000B5BFF34F8F964896490860BFF34F8FB5
:1011400000BFFDE794480168802252020A43026012
:10115000704791480068410C0800C007C00F7047F5
:101160008E490A688E4B134002021A430A600A68CD
:10117000802313430B60704788490A6870239A43A1
:1011800002430A607047CB490A68CB4B1340020602
:101190001A430A600A6880231B0413430B607047DC
:1011A00080B5CB48016802220A4302600021009109
:1011B0000099062904DA00BF0099491C0091F7E75D
:1011C000016804220A43026001BDC1490A68C14B9B
:1011D000134003430B6070476F48016810220A43B5
:1011E000026070476C48006841090800C007C00FE2
:1011F0007047B0490A6860239A4302430A60704707
:10120000AC490A681E239A43430013430B600A68E3
:10121000012313430B607047AF490A6806239A43C2
:1012200002430A607047AA490A68AC4B1340034363
:101230000B60704758480168802292010A4302609F
:10124000704755480068810B0800C007C00F704701
:101250009F490A68E0239A4302430A607047D049D5
:101260000A6802430A607047CE4800688108080097
:10127000C007C00F7047CC490A68CC4B13400343EA
:101280000B607047C8490A6830239A4302430A60DA
:101290007047C7490A6882430A60C6490A688243A0
:1012A0000A60704710B4C4490A68C44B1340C202B4
:1012B000E024A40114401C430C600A688023DB0076
:1012C00013430B6010BC704710B4BB490A68D04B85
:1012D00013408201F024A40014401C430C600A68EF
:1012E000202313430B6010BC704710B4B2490A6846
:1012F0001E239A4343001E241C4014430C600A68BA
:10130000012313430B6010BC7047426830239A439B
:101310000A434260704781B06F490A6802430A601D
:10132000096801400091009901B07047B9490A6805
:1013300002430A607047B7490A6882430A607047EF
:101340008020C00500680007000F70478020C0059E
:10135000006800090007000F704780B5AE480068BC
:1013600000280FD1AD480068002803D1AC480068C0
:10137000002807D00120AB498860FFF77BFEFFF70C
:10138000D7FEFCE7012002BD00E400E01CED00E018
:101390000400FA050CED00E00000404898004048C9
:1013A000FFC0FFFF80B503210020FFF77BFE032174
:1013B0000120FFF777FE03210220FFF773FE0321D0
:1013C0000320FFF76FFE03210420FFF76BFE0321CC
:1013D0000520FFF767FE03210620FFF763FE0321C8
:1013E0000720FFF75FFE03210820FFF75BFE0321C4
:1013F0000920FFF757FE03210A20FFF753FE0321C0
:101400000B20FFF74FFE03210C20FFF74BFE0321BB
:101410000D20FFF747FE03210E20FFF743FE0321B7
:101420000F20FFF73FFE03211020FFF73BFE0321B3
:101430001120FFF737FE00211220FFF733FE0321B2
:101440001320FFF72FFE03211420FFF72BFE0321AB
:101450001520FFF727FE03211620FFF723FE0121A9
:101460001720FFF71FFE00211820FFF71BFE0321A6
:101470001920FFF717FE01BD70B504000D0016001E
:101480003000C0B200280FD02000FA21890000F0FF
:101490007DFB401E68436449086000206349086082
:1014A00005206349086004E0614801680122914316
:1014B000016070BD0C004048FFFFFFC000B55C48F4
:1014C0000068C00301D5012000E0002000BD00003D
:1014D00008004048FF7FFEFF60004048FFEFFFFF2D
:1014E000FEB500263000694608700122C821CA48AE
:1014F000FFF7C2FFFFF7B8FE002806D1FFF7DEFFB7
:101500000028F7D001206946087000220021002041
:10151000FFF7B2FF68460078002802D068460078DE
:101520003DE02020FFF7AEFE80204001FFF77BFE6C
:10153000BA480068BA49884215D10F20B9490A68EB
:10154000024002920A68120957077F0F0A68140ABC
:1015500004400A68120B104001900868000C8506D0
:10156000AD0E012603E0082402941E25032728005F
:10157000FFF709FE3000C0B2002802D00198FFF743
:101580003FFE2000FFF7B1FE0298FFF79DFE3800F6
:10159000FFF788FE80204000FFF76DFE0020FEBDB3
:1015A00004005048140050481C005048FFFEFFFF44
:1015B000280050482C00504894005048FFC7FFFFB7
:1015C00010B500240122962149009348FFF754FFEB
:1015D000C0208001FFF75DFE80200002FFF7F5FDCF
:1015E0006020FFF706FEFFF7F7FDFFF7FBFD002881
:1015F00005D1FFF763FF0028F7D002200400002286
:1016000000210020FFF738FF2000C0B210BD00000D
:101610003FFCFFFF40004048940040481000504805
:10162000380050480400002014E000E018E000E01A
:1016300010E000E0F1B582B06846007A00280ED0D4
:101640002020FFF705FE0220FFF7E6FD0120FFF74F
:101650006DFE0120FFF76FFE0120FFF75CFE6F4873
:1016600000686F49884215D10F226F4B1868000A35
:1016700010401968090B11401C68240C22400724F3
:101680001D682D0D254001951B681B0E1C40009404
:10169000012303E00822100007210023634D0F24DB
:1016A0002E680F27BE432700174037432F60604D39
:1016B0002F68F026B743BC460F01F0263E40674630
:1016C0003E432E602E680F27BE43044034432C60F7
:1016D0001C00E4B2002C11D0564C25680726B543F7
:1016E000019E7607760F2E43266025683826B5437F
:1016F000009EF600382737402F4327604E4C256860
:101700003F26B5430A262E432660256840262E43F1
:1017100026609C4C25683F26B54304262E43266050
:10172000256880262E43266025684026B54325601F
:10173000954C25683F26B5432560944C25683F2687
:10174000B54310262E432660914C25683F26B543AD
:1017500020262E4326608F4C25683F26B543302631
:101760002E4326608C4C25683F26B54338262E43F1
:1017700026608A4C25683F26B54339262E432660CD
:10178000874C25683F26B5433A262E432660854C74
:1017900025683F26B5433B262E432660824C2568AC
:1017A0003F26B5433C262E432660804C25683F26C5
:1017B000B5433D262E43266055247D4D2E68FF27D8
:1017C000BE4326432E607B4D2E68FF27BE4366270F
:1017D00037432F60784D2E68FF27BE4334432C607B
:1017E000AA4C2568FF26B5431D262E432660A84C2B
:1017F0002568FF26B54359262E432660A54C25684B
:10180000FF26B54332262E432660A34C25680126C9
:101810002E432660F7BD00000024F400F81E0010DF
:10182000CCECBCFCE41E0010E81E00107816006032
:101830007416006048160060C0160060F8B5060017
:101840000025964C012264212000FFF715FEFFF7CA
:1018500079FCFFF77EFC002805D1FFF72FFE00285A
:10186000F7D004200500002200210020FFF704FE2D
:101870002800C0B2002802D02800C0B280E03000AA
:10188000C0B2002809D1FFF761FD0701FFF758FD3D
:101890003843102801D1062072E03000C0B2002881
:1018A0006BD03000C0B201280AD039D3032814D03D
:1018B0000DD305281FD017D307282AD022D32FE015
:1018C0000020FFF7C5FC9F489F49086029E02020C1
:1018D000FFF7BEFC9C48046023E04020FFF7B8FC03
:1018E0009A48994908601CE06020FFF7B1FC9848CD
:1018F0009549086015E08020FFF7AAFC95489249B9
:1019000008600EE0A020FFF7A3FC93488E49086012
:1019100007E0C020FFF79CFC90488B49086000E07E
:10192000FEE7894C0122C8212068FFF7A5FDFFF7DB
:1019300081FCFFF786FC002805D1FFF7BFFD0028DA
:10194000F7D005200500002200210020FFF794FDBC
:101950002800C0B2002802D02800C0B210E02068E1
:101960007849884204D110217D48FFF7CEFC06E07B
:1019700000217B48FFF7C9FC01E0FFF711FC0020C4
:10198000F2BD0000C4160060E8160060EC160060AE
:10199000F0160060F4160060F8160060FC16006097
:1019A0000017006004170060081700600C17006043
:1019B00048150060541500606815006070B505009A
:1019C0000C002800C0B2FF2801D100205CE02000FC
:1019D000C0B204280BD02000C0B2052807D02000D8
:1019E000C0B2062803D02000C0B2072801D10120D0
:1019F0004AE02000C0B2032805D12800C0B2002868
:101A000001D1012040E02800C0B2012803D020000D
:101A1000C0B2032805D10420FFF7FEFB012005001A
:101A200002E00220FFF7F8FBFFF790FC0601FFF74A
:101A300087FC3043102826D12000C0B2012807D1EE
:101A40002800C0B2012803D12A204649086016E0C8
:101A50002000C0B2012803D12800C0B2002807D05E
:101A60002000C0B2022807D12800C0B2012803D14B
:101A700029203C49086002E028203A4908603A4899
:101A800000680007FBD4002070BD000088150060CE
:101A9000841500608C1500606C1500600048E8013A
:101AA000F8B507000C003148314908603149086138
:101AB0002020FFF7D4FB4020FFF7D1FB8020FFF769
:101AC000CEFBFFF70DFD05002800C0B2002802D0B4
:101AD0002800C0B234E0FFF773FD06003000C0B24A
:101AE000002802D03000C0B22AE02000C0B2FF2897
:101AF00002D00120FFF79EFD2020FFF731FB3020B0
:101B0000FFF73AFB3800C0B2FFF798FE0500280047
:101B1000C0B2002802D02800C0B211E03900C9B21A
:101B20002000C0B2FFF74AFF06003000C0B2002814
:101B300002D03000C0B203E0FFF734FC62B60020F0
:101B4000F2BD00000090D0035C0000200024F400EF
:101B500000127A0000093D0080841E0040420F0000
:101B600000100040005000400450004000000410ED
:101B700008ED00E0040000207047032070470100DA
:101B80000320704701000320704770470022030ABA
:101B90008B420BD203098B4219D243088B422ED2BF
:101BA000411A00D20146524110467047FF220902F5
:101BB0003FD012068B4205D3121209028B4201D389
:101BC0001212090203098B4219D300E0090AC30962
:101BD0008B4201D3CB01C01A524183098B4201D3FE
:101BE0008B01C01A524143098B4201D34B01C01AE9
:101BF000524103098B4201D30B01C01A5241C30861
:101C00008B4201D3CB00C01A524183088B4201D3CF
:101C10008B00C01A524143088B4201D34B00C01ABB
:101C20005241884200D3401A5241CFD20146104659
:101C3000704708B500F002F808BD7047704770475C
:101C4000F0B597B0050016001F001C986A460023E7
:101C5000002418C2059104A92B2288540B930395E4
:101C60000F960EE023000F9A04A9039800F07AFA69
:101C7000002800D5D8E001E0F4D501240F98001920
:101C80000F900F980078252809D10020089009901E
:101C90000A9002240821029104210F9D0CE06A465B
:101CA0000021C9430F9800F0A7FA0400E4D10B9873
:101CB000BCE00200012010436D1C2A78202AF8D0D5
:101CC000232A0AD02B2A04D02D2A04D0302A07D068
:101CD00009E02043F0E70843EEE702000820EAE7C6
:101CE00002001020E7E72A2A0CD13B681A681B1D66
:101CF0003B600D92002A03D553420D930143080027
:101D00006D1C14E000210D91004A0BE0CBCCCC0CF3
:101D10000D9B934205DA9E00F3185B005918303989
:101D20000D916D1C29780B00303B0A2BF0D32978DC
:101D30002E2903D00021C9430C9125E06D1C297880
:101D40002A2906D139680A68091D39600C926D1C70
:101D50001AE02D2902D12D236D1C00E00023002163
:101D60000C910CE0002B09D10C9AB84EB24205DA66
:101D70009600B2185200511830390C916D1C297818
:101D80000A00303A0A2AEDD304A908852E783100DA
:101D9000AFA000F039FA002801D06D1C00E0002649
:101DA00004A82A214654405C682807D1287868286E
:101DB00004D1622004A92A2288546D1C11A807901E
:101DC0002A78681C0F90252A13D0582A4FD0632AEE
:101DD00000D1B1E0642A79D0692A77D06F2A46D041
:101DE000702A3BD0732A0AD0752A40D0782A3ED078
:101DF000ABE001200890252011A90870AFE03868F9
:101E00000468001D38600694002C14D104A82B210E
:101E1000405C00280CD00024E44300BF8EA000F0FA
:101E2000FDF9201A00D19AE00020C04317B0F0BDA0
:101E300090A0069093E00C9D002D03D5200000F0AB
:101E400011FA09E02A000021200000F013FA00280E
:101E500001D0001B00E02800099080E0386801688C
:101E6000001D3860049111A80690782160E004AB51
:101E70002A20185C622803D0682807D06C280BE061
:101E800039680868091D3960C0B209E03968086816
:101E9000091D396080B203E039680868091D39609E
:101EA0000490188D0299C0B208423CD004980028D2
:101EB00039D020201043782835D1089811A9302333
:101EC0000B54401C431C08930A542CE004AB2A20FA
:101ED000185C622803D0682807D06C280BE03968AA
:101EE0000868091D396040B209E039680868091DB1
:101EF000396000B203E039680868091D3960049050
:101F0000002802D508982D2109E0188D204202D022
:101F100008982B2103E0C00705D50898202111ABB4
:101F20001954401C089011A80899401806901100F7
:101F300004A800F0A0F812E00120089038680168B9
:101F4000001D386011A8017009E0012008902520CB
:101F500011A90870100002D0089411A842700D98C1
:101F60000899401A0A99401A0999401A109004A831
:101F70002821405C400713D420206946087210983D
:101F800000280DDD109C039D012302AA04A928004E
:101F900000F0E8F8002800D046E7641EF4D103956D
:101FA000089D11AC002D0ED0039E21780598B047F6
:101FB0000590002800D137E70B98401C0B90641C5B
:101FC0006D1EF2D103963020694608720A9C002CDF
:101FD0000CDD039D012302AA04A9280000F0C2F829
:101FE000002800D020E7641EF4D10395069C099DCB
:101FF000002D0ED0039E21780598B047059000284B
:1020000000D111E70B98401C0B90641C6D1EF2D19F
:10201000039604A82821405C400700D431E6202024
:10202000694608721098002800DC2AE6109C039D7F
:102030000F9E012302AA04A9280000F093F80028AB
:1020400000D0F1E6641E00D109E6F2E7CBCCCC0C5F
:10205000686C747A4C0000007072696E74665F730D
:102060003A2062616420257320617267756D656E28
:10207000740000000000F0B583B00A00C4686F2946
:1020800001D1082506E020211143782901D00A2535
:1020900000E01025182701680E00642A01D0692A83
:1020A00003D1002901D571420E00002E0CD1016A26
:1020B000002909D1082D31D12821415C09072DD5EE
:1020C00017273021E17529E00290684602707F1ED3
:1020D000019730002900FFF759FD3031C8B23A2886
:1020E00003DB6846007851380918E15530002900B3
:1020F000FFF74CFD060004D002988068E119884281
:10210000E5D30298082D09D12821415C090705D59E
:10211000E15D302902D07F1E3021E1551821C91B15
:102120004161E2198260026A914206DA511A8161C4
:10213000018D0B4A0A40028510E0002A0ED52822A4
:10214000825C14231340102B08D1426A0369D21A0F
:102150008369D21A511A012900DB816103B0F0BDF5
:10216000EFFF0000F8B50024002B11D007000E008F
:1021700014001D0021787068B8477060002809D0ED
:10218000F069401CF0610020641C6D1EF2D1040057
:102190002000F2BD0020C043F9E7704730B4536817
:1021A000D41803E05B1C491E641C401C042B06DA97
:1021B000002904D0057825700578002DF2D15360F0
:1021C00030BC704738B500290ED01D001400FFF751
:1021D000E5FF616820006A6B90470122D243811AB3
:1021E00002D0491E02D004E0012000E00020C043DC
:1021F00032BD0021616032BD80B5024BFFF7E2FFC6
:1022000002BD000060000020C9B202788A4203D0FB
:10221000401C002AF9D100207047704780B5002883
:1022200001D100BF07A006490B68002B03D0222272
:102230000021984701E000F028F8222002BD0000AC
:10224000B0000020636F6E73747261696E742068F1
:10225000616E646C65723A20626164206D657373AF
:1022600061676500431C0178401C0942FBD1C01A1C
:1022700070477047C9B2521E05D30378401C8B4289
:10228000F9D1401E70470020704780B5012000F052
:1022900001F801BD80B500BF00BF024A110018203F
:1022A000ABBEFBE72600020000B5010049B20029E1
:1022B00005D40121C206D20E9140B94A116000BD79
:1022C000F0B5020052B2002A1CD40322B54B040020
:1022D00064B2A40804256C431C59FF25160006406F
:1022E00008277E43B540AC438D01EDB2024008267D
:1022F000724395402543020052B29208042462437F
:102300009D5022E00F24A84A032305006DB225400A
:10231000083DAD0804267543060076B23440083CFB
:10232000A408042674431659FF27BC461C00044029
:1023300008277C436746A740BE438C01E4B20340B4
:1023400008277B439C4034435451F0BD81B09749EA
:102350000A6802430A60096801400091009901B0CF
:10236000704781B092490A6802430A6009680140D7
:102370000091009901B070478E490A6882430A6053
:102380008D490A6802430A6070478B490A68824394
:102390000A6088490A6802430A60704786490A68E9
:1023A00082430A6083490A6882430A607047CB49C6
:1023B0000A6882430A60CA490A6802430A60704791
:1023C000C7490A6882430A60C4490A6802430A602E
:1023D0007047C3490A6882430A60C0490A68824359
:1023E0000A60704730B403680C004C4303256C430B
:1023F000A3430C004C4354431C43046030BC70475F
:1024000010B443688B430C0054431C43446010BC1D
:10241000704730B483680C004C4303256C43A343DE
:102420000C004C4354431C43846030BC704770B56F
:1024300004000D0016009020C005844211D1002E2A
:1024400003D0022E09D004D31CE02800FFF7A6FF1A
:1024500018E02800FFF790FF14E02800FFF795FF31
:1024600010E0002E03D0022E09D004D30AE0280089
:10247000FFF7AFFF06E02800FFF799FF02E0280012
:10248000FFF79EFF70BD30B4446A0B0A0D0A6B4320
:102490000D0A6B430D0A6B430F256B439C430B0ADC
:1024A0000D0A6B430D0A6B430D0A6B4353432343E1
:1024B000436230BC7047016801220A4302607047E2
:1024C0000168802292050A43026070478268D20048
:1024D000D2084B0713438360704782688E4B1340CA
:1024E0004A061A438260704702680C239A430A43E3
:1024F0000260704730B40468884D254015430D4391
:1025000005604468864D25401D43456030BC7047DA
:102510008268844B13400B4383607047FCB5040012
:102520000D0016001F008020000286421DD1864843
:1025300086492A0092B202235343C95AFFF726FB69
:1025400002214843790840183900FFF71FFB80B289
:10255000009000997E480840009949084907490FB2
:10256000084301900198E0600FE0774877492A001E
:1025700092B202235343C95AFFF708FB7908401867
:102580003900FFF703FB80B2E060F3BD4168714A98
:102590000A40426081682A229143816070470000AE
:1025A00000E100E000E400E01CED00E050004048E5
:1025B000580040482400504820005048C069810914
:1025C0000800C007C00F7047C069C1090800C007F4
:1025D000C00F7047016820220A43026070470A005A
:1025E000D2B28262704770B506000420FFF7AEFEDB
:1025F0009024E4058025AD00022229002000FFF789
:10260000F1FE022229002000FFF703FF002229002B
:102610002000FFF7F5FE012229002000FFF707FF49
:10262000002229002000FFF72EFF0420FFF78EFE76
:1026300080256D00022229002000FFF7D3FE022230
:1026400029002000FFF7E5FE002229002000FFF707
:10265000D7FE012229002000FFF7E9FE0022290011
:102660002000FFF710FF8020C000FFF77AFE3A4CF1
:10267000E1235B02002200212000FFF74FFF00232F
:10268000002200212000FFF735FF0C212000FFF77A
:102690002BFF00212000FFF73BFF00212000FFF768
:1026A0001CFF00212000FFF711FF2000FFF708FFAB
:1026B0002000FFF76BFF2000FFF7FDFE3000002831
:1026C0000BD0264806602000FFF784FF0121082078
:1026D000FFF7F6FD0820FFF7E7FD70BD2C0050481E
:1026E00028005048F8B507000E00002420003100F3
:1026F000C0B2C9B288420DD2174D2800FFF764FF5F
:102700000028F9D02000C0B2395C2800FFF767FF2D
:10271000641CEBE7F1BD0000FFFFFFF1FFE9FFEFF5
:10272000FFCFFFFFFFFCFFFF10B50B4C2000FFF7B2
:102730004BFF002804D02000FFF740FF002801D104
:10274000012000E0002010BD0024F400103304102C
:10275000F0FF0000FFB7FFFF004000413000002005
:10276000F8B507000C0016000025012F04D0022F39
:1027700002D00020C0430FE0002C01D100200BE06C
:102780003000461E002806D001212000FFF7AAFFD6
:10279000641C6D1CF4E72800F2BD01B501226946F6
:1027A0000120FFF7DDFF009802BD704700B5010072
:1027B00049B2002905D40121C206D20E9140AD4A8A
:1027C000116000BDF0B5020052B2002A1CD40322F1
:1027D000A94B040064B2A40804256C431C59FF25CE
:1027E0001600064008277E43B540AC438D01EDB28C
:1027F00002400826724395402543020052B29208D7
:10280000042462439D5022E00F24BC4A03230500A8
:102810006DB22540083DAD0804267543060076B22A
:102820003440083CA408042674431659FF27BC46CC
:102830001C00044008277C436746A740BE438C0128
:10284000E4B2034008277B439C4034435451F0BD1D
:10285000AB48016880220A4302607047A8480068BC
:10286000C1090800C007C00F7047826840239A431F
:102870000A43826070478268A24B13400B43836017
:1028800070470021C943C16070478021C943C160BE
:10289000704782689C4B13400B438360704702690A
:1028A0009A4B13400A041A43026170470269D20B23
:1028B000D2030A4302617047FF2141627047CA2177
:1028C000416253214162704781688022D2000A43ED
:1028D000826070478168B44A0A40826070478268AB
:1028E00007239A430A43826070474269120C12041C
:1028F0000A4342617047C16880221140AB4A0A43D3
:10290000C2607047C06881090800C007C00F7047E7
:10291000C06881080800C007C00F70478168802226
:10292000D2010A43826070478168A14A0A408260EE
:10293000704781B29F4A1160010C9F4A1160704735
:1029400081B09E490A6802430A600968014000910B
:10295000009901B070479A490A6802430A607047BB
:1029600097490A6882430A60704710B50400954889
:1029700000F048F92000C0B2002805D002280BD092
:1029800006D303280CD00EE08F4800F03BF90AE094
:102990008E4800F037F906E08D4800F033F902E088
:1029A0008C4800F02FF910BD10B504008A4800F0E3
:1029B00029F92000401E15D0FF380FD0C021890012
:1029C000401A07D0F821C901401A0FD1834800F0FE
:1029D00019F90FE0824800F015F90BE0814800F08A
:1029E00011F907E0804800F00DF903E021007F486D
:1029F00000F008F97EA000F005F910BD10B58024A4
:102A000064012000FFF79CFFFFF722FF2000FFF783
:102A1000A2FF2000FFF7A4FFFFF720FF0028FBD054
:102A2000FFF716FF734C2000FFF749FF2000FFF768
:102A300028FF2000FFF766FF0028FAD000212000C1
:102A4000FFF713FF00212000FFF715FF00212000F2
:102A5000FFF71FFF7F212000FFF721FFFF2120004C
:102A6000FFF724FF2000FFF710FF2000FFF724FFEF
:102A700010BD000000E100E000E400E038B5040013
:102A80005C4D2800FFF71BFF2800FFF723FF2800FD
:102A9000FFF74AFF2800FFF73BFF0028FAD080200D
:102AA0000002FFF746FF2800FFF725FF210028005E
:102AB000FFF71BFF04212800FFF711FF2800FFF795
:102AC0002DFF2800FFF700FF2800FFF7F5FE032188
:102AD0000B20FFF777FE0B20FFF768FE2800FFF7BB
:102AE0000AFF31BD10B5434C2000FFF7E8FE20007F
:102AF000FFF7F0FE2000FFF7DFFE10BD1CED00E049
:102B00001C004048FFFF9FFFFFFFEFFFFFFF80FF1C
:102B100030B585B0FF210220FEF7C2FF002800D0AB
:102B2000FEE700F0AFF80020FFF75DFD0121002077
:102B300000F044FAFFF762FF2F4800F063F8FFF758
:102B4000F3FD0028FBD12D48049080204000039025
:102B5000012069460872002002A948700420FFF78E
:102B60008DFF01A8009002A80EC80C380220FEF7C5
:102B7000F1F804002000C0B2002804D02100C9B23E
:102B80001F4800F03FF868460079FFF7EEFE684600
:102B90000079022805DBFEF7B9F905002800FFF7E8
:102BA00003FFFFF79FFFC7E7FFFBFFFF7FFBFFFF71
:102BB000FFBFFFFF10005048380050485400404805
:102BC000340040489C3204108833041094330410BD
:102BD000403304106833041054330410A03304103D
:102BE00078330410AC330410B8330410BC32041032
:102BF0000D0A000000400040DC3104100104000018
:102C0000383204100EB4C0B5020003A801900020B1
:102C1000009001AB0121044878440C30FFF710F814
:102C2000029906B0084700BF0107000011490A6871
:102C300082430A6010490A6802430A6070470E49DD
:102C40000A6882430A600B490A6802430A607047B7
:102C50000A490A6882430A6009490A6802430A600D
:102C6000704707490A6882430A6004490A680243B8
:102C70000A60704724005048200050482C005048FB
:102C800028005048F8B50120FFF7D9FF0220FFF7D0
:102C9000D6FF0420FFF7D3FF0820FFF7D0FF102056
:102CA000FFF7CDFF2020FFF7CAFF4020FFF7BEFF50
:102CB0008020FFF7C4FF80204000FFF7C0FF802086
:102CC0008000FFF7B3FF8027FF003800FFF7B7FF52
:102CD000802424012000FFF7B2FF80204001FFF78D
:102CE000AEFF80208001FFF7AAFF8025ED012800BC
:102CF000FFF7A5FF802636023000FFF7A0FF012076
:102D0000FFF7AFFF0220FFF7ACFF0420FFF7A9FF9A
:102D10000820FFF7A6FF1020FFF7A3FF2020FFF7F2
:102D2000A0FF4020FFF79DFF8020FFF79AFF802043
:102D30004000FFF78DFF80208000FFF789FF3800FB
:102D4000FFF78FFF2000FFF78CFF2800FFF789FFB8
:102D50003000FFF786FFF1BD00B5010049B2002940
:102D600005D40121C206D20E9140754A116000BD02
:102D7000F0B5020052B2002A1CD40322714B0400A9
:102D800064B2A40804256C431C59FF2516000640B4
:102D900008277E43B540AC438D01EDB202400826C2
:102DA000724395402543020052B2920804246243C4
:102DB0009D5022E00F24B34A032305006DB2254045
:102DC000083DAD0804267543060076B23440083C41
:102DD000A408042674431659FF27BC461C0004406F
:102DE00008277C436746A740BE438C01E4B20340FA
:102DF00008277B439C4034435451F0BD81B0A24925
:102E00000A6802430A60096801400091009901B014
:102E1000704781B09D490A6802430A600968014011
:102E20000091009901B0704799490A6802430A600D
:102E3000704700B50200D2B2032A08D1954A136840
:102E40000B431360944A13688B43136032E0020013
:102E5000D2B2012A08D18F4A13688B4313608E4A7D
:102E600013680B43136025E00200D2B2022A08D196
:102E7000884A13688B431360874A13688B43136037
:102E800018E00200D2B2042A08D1824A13688B43A8
:102E90001360814A13688B4313600BE00200D2B2C7
:102EA000052A07D17B4A13688B4313607A4A13685B
:102EB0000B43136000BD00B57849096801408142A9
:102EC00001D1012000E0002000BD74490860704776
:102ED00073490A6882430A6072490A6802430A60B9
:102EE000704770490A6882430A606D490A68024364
:102EF0000A6070476B490A6882430A6068490A6839
:102F000082430A60704768490A6882430A606749D9
:102F10000A6802430A60704764490A6882430A608B
:102F200061490A6802430A60704760490A6882433F
:102F30000A605D490A6882430A6070470000000029
:102F400000E100E000E400E030B403680C004C4312
:102F500003256C43A3430C004C4354431C430460BF
:102F600030BC704770B504000D0016009020C005FD
:102F7000844211D1002E03D0022E09D004D31CE0CC
:102F80002800FFF7B7FF18E02800FFF7A1FF14E0C3
:102F90002800FFF7A6FF10E0002E03D0022E09D074
:102FA00004D30AE02800FFF7C0FF06E02800FFF77F
:102FB000AAFF02E02800FFF7AFFF70BDF8B50600DA
:102FC0000F003000C0B2002811D10420FFF716FF17
:102FD0009024E4058025ED00002229002000FFF761
:102FE000B3FF002229002000FFF7BCFF11E03000F2
:102FF000C0B201280DD10820FFF700FF2C4C0022A1
:1030000040212000FFF7A0FF002240212000FFF711
:10301000A9FF3800C0B2012832D180204000FFF75C
:10302000F8FE3000C0B2002813D18024E400210053
:103030000120FFF7FEFE2000FFF747FF2000FFF70B
:10304000F3FE03210F20FFF793FE0F20FFF784FE0E
:1030500016E03000C0B2012812D18024E403210020
:103060000120FFF7E6FE2000FFF72FFF2000FFF70B
:10307000DBFE03211020FFF77BFE1020FFF76CFE24
:10308000F1BD00001CED00E05000404854004048F5
:103090001800004010000040140000401C000040D8
:1030A00024005048200050482C0050482800504828
:1030B0000000104838B5050000242800C0B20028E0
:1030C00005D18020C000FFF7F6FE040008E02800CC
:1030D000C0B2012804D18020C003FFF7ECFE040039
:1030E000200032BD10B504002000C0B2002804D179
:1030F0008020C000FFF7E9FE07E02000C0B20128F1
:1031000003D18020C003FFF7E0FE10BDC068810A34
:103110000800C007C00F7047C168802211400F4AE5
:103120000A43C260704700B5FEE7704770477047BA
:1031300080B50020FFF7BEFF002802D00020FFF777
:10314000D1FF01BD10B5064C2000FFF7DFFF0028BE
:1031500002D02000FFF7E0FF10BD00007FFBFFFF63
:103160000040004070B40123002413E00168001DFA
:10317000194202D04D466D1E49190C60091D121FDF
:10318000042AFAD20D00960701D50C80AD1C1A4016
:1031900000D02C700268001D002AE7D170BC704777
:1031A00030B501684118446862088A188368E407EA
:1031B00004D54C461B1901E0641C06D191420BD08A
:1031C0000C7864B2491C0D78491C1D705B1C002CE6
:1031D000F2D4641EF7D5F1E70C3030BD456E616264
:1031E0006C6520506F77657220536176652052655B
:1031F0007175657374203A2053544F505F5749548A
:10320000485F54494D45522028525443290D0A0025
:1032100010B5074979441831064C7C44163404E053
:10322000081D0A68891888470100A142F8D110BD1D
:103230002C000000680000004572726F72206475F7
:1032400072696E6720636C6F636B20636F6E666973
:10325000672030782532780D0A00000009FFFFFF53
:1032600004000000300000200C000000A800002036
:10327000500000005C0300200000000025FFFFFF5D
:103280008D01000018000000C000002015FFFFFFA6
:10329000660100002E0000005C000020506F776582
:1032A000722073617665206C6576656C206E65674B
:1032B0006F7469617465643A200000002864656673
:1032C00061756C74292057414B45555020736F75BB
:1032D000726365203078253038782000FEF73DF89D
:1032E000002801D0FFF794FF00BF00BF002000BFFF
:1032F00000BFFFF70DFC00F000F880B500F002F809
:1033000001BD704707463846FEF7C4FFFBE770472C
:10331000010002000400060008000A000C00100072
:10332000200040008000000138B505000C0020009E
:10333000FFF733FAA04200D00025280032BD7047C5
:1033400053544F505F574954485F54494D45520DAF
:103350000A00000057616B65757020536F757263CA
:1033600065203A200000000053544F505F4E4F54E8
:10337000494D45520D0A000057414B4555505F508D
:10338000413130200000000052554E4E494E470D4D
:103390000A0000004350555F48414C540D0A00009C
:1033A00057414B4555505F525443200057414B45C0
:1033B00055505F504138200057414B4555505F50A4
:1033C0004230200000BF00BF00BF00BFFFF786FFF4
:1033D0000078401E8041C043C00F7047704770475F
:1033E0007047704770477047704770477047704725
:1033F000704770477047080090D0033E0F041001DB
:10340000D10003D1330410F8000001F900810081DC
:0934100000810081008100DF0051
:04000005100433C5EB
:00000001FF
